:020000040800F2
:100000002809002001010008F9400008D13A000841
:10001000F5400008250B0008914900080000000089
:10002000000000000000000000000000D5430008B0
:10003000350B000800000000D1430008DD44000833
:100040001B0100081B0100081B0100081B01000820
:100050001B0100081B0100081B0100081B01000810
:100060001B0100081B0100081B0100081B01000800
:100070001B0100081B0100081B0100081B010008F0
:10008000290B00081B0100081B0100081B010008C8
:100090001B0100081B0100081B0100081B010008D0
:1000A0001B0100081B0100081B0100081B010008C0
:1000B0001B0100081B010008E54400081B010008A3
:1000C0001B0100081B0100081B0100081B010008A0
:1000D0001B010008F1480008FD4800088549000898
:1000E0001B0100081B0100081B010008DFF80CD0F1
:1000F00000F02CFA00480047B54900082809002004
:100100000648804706480047FEE7FEE7FEE7FEE7B1
:10011000FEE7FEE7FEE7FEE7FEE7FEE7E144000854
:10012000ED00000830B504460020034600E05B1CEB
:10013000934203D2E05CCD5C401BF8D030BDF0B4FC
:1001400080EA0102D40F4200B2EB410F02D2024614
:10015000084611464A0042D0C30DDDB2C1F3C75272
:10016000AD1A202D35DAC1F3160141F4000204B1B5
:100170005242C5F1200602FA06F12A411044B3EBBF
:10018000D05F23D0C4B1012DA0EBC35009DCF0BC7B
:100190004FF0004202EAC352DBB200F5000000F06B
:1001A00049B9400000F1807000EBC350A0F18070AD
:1001B00040EAD170490009E0490841EAC071A0EB6A
:1001C000C35000F50000400800EBC350F0BC00F045
:1001D00028B96142012202EB4101001BF6E7F0BCA5
:1001E000704781F00041AAE780F00040A7E780EA6D
:1001F000010210B502F00043400022D04A001FD097
:10020000010E01EB1261C0F35600C2F3560240F436
:10021000000042F40002A0FB022000047F39140415
:1002200000D0401C50EA124001D44000491EC2B226
:100230000C0604EBD010401C4008802A02D003E0DA
:10024000002010BD20F00100002900DA0020184332
:1002500010BD2DE9FE4F81EA030404F0004421F0B3
:10026000004100944FF0000B23F0004350EA0104DA
:100270005ED052EA03045BD0C3F30A54C1F30A55BB
:100280002C44A4F2F3340194A0FB0254C1F31301F3
:1002900041F48011C3F3130343F4801301FB0244C0
:1002A00000FB034E840A970A44EA815447EA8357C5
:1002B000A4FB076802958D0A05FB07854FEA932C7E
:1002C00004FB0C542705029D4FEA065847EA1637EF
:1002D000B5EB08056EEB070C870E920E47EA811707
:1002E00042EA8312A7FB0201B6EB0B0164EB0004A8
:1002F0002B0D43EA0C335E1844EB1C50DA46514692
:10030000E7FB0201C5F313044FEA0B3343EA14532E
:100310004FEA0432019C43EA0603A4F10C04029460
:10032000009CCDE900B400F0C2F803B0BDE8F08F46
:1003300000200146F9E7002801DBC0F10040002958
:1003400001DBC1F10041814201D30120704700204F
:100350007047002801DBC0F10040002901DBC1F13A
:100360000041814201D90120704700207047C10F30
:1003700080EAE0700844CA079623002100F05AB8CA
:1003800096230022114600F055B800F0004220F0FC
:100390000040C10DC0F3160040F400007F2901DACF
:1003A00000207047962903DCC1F19601C84001E0A6
:1003B00096398840002AF4D04042704700F000424D
:1003C00030F000400AD0C10D01F56071C0F3160095
:1003D00042EA0151C208400711437047002001461C
:1003E000704701F0004330B421F0004150EA0102AF
:1003F00006D00A0DA2F56072C1F31301002A02DCD7
:1004000030BC00207047440F44EAC104C100E0182A
:1004100030BC00EBC25000F004B80023036000F0D1
:10042000E6B80029A8BF7047401C490008BF20F06B
:100430000100704710B4B0FA80FC00FA0CF050EAEA
:10044000010404BF10BC704749B1CCF1200421FA6B
:1004500004F411FA0CF118BF012121430843A3EB66
:100460000C01CB1D4FEA00614FEA102042BF002073
:1004700010BC704700EBC35010440029A4BF10BC4F
:100480007047401C490008BF20F0010010BC7047B5
:1004900010B5141E73F1000408DA401C41F100018C
:1004A00092185B411A4301D120F0010010BD2DE9E3
:1004B000F04D92469B4611B1B1FA81F202E0B0FADA
:1004C00080F22032904600F053F804460F4640EA8E
:1004D0000A0041EA0B0153465A46084313D011461D
:1004E00053EA010019D0C8F14002504600F04FF81D
:1004F00005460E4650465946424600F039F8084334
:1005000005D0012004E020463946BDE8F08D0020EA
:10051000054346EAE0762C4337430A986305E40A2C
:10052000A0EB08000022FD0A44EA47540A3002D535
:1005300000200146E9E7010510196941DDE9084598
:1005400000196941BDE8F04DA2E70000064C074DD7
:1005500006E0E06840F0010394E807009847103493
:10056000AC42F6D3FFF7C6FDD84C0008F84C0008A3
:10057000202A04DB203A00FA02F100207047914063
:10058000C2F1200320FA03F3194390407047202A58
:1005900004DB203A21FA02F00021704721FA02F32D
:1005A000D040C2F120029140084319467047000034
:1005B0000FB40B0010B58AB00FA900910E994FF03F
:1005C0000004234ACC60214CCDE9064200D004232C
:1005D0006FF00042CDE901321E4A089202466B4696
:1005E000002000F0D3F80AB010BC5DF814FBF0B5A1
:1005F00085B007464FF0FF300091CDE901011E465E
:10060000002015460C4604903B466A46314604A835
:10061000FFF7CEFF04990346601825B109B10246E1
:1006200000E022462A6000290ED0002B02DD00994E
:10063000814209D00094001BCDE901043B466A4683
:10064000314604A8FFF7B4FF05B0F0BDC5090008A6
:10065000E309000859060008C0B24FF4F05100F059
:10066000D1B900002DE9FF4F087883B09946FF28E3
:1006700005D0491C2D2804D00024002008E00020CB
:100680000BE00124F9E700EB800003EB4000491C7C
:100690000B78FF2BF7D104B140420023029314786A
:1006A00019461D462D2C01D02B2C04D1521C2D2C6B
:1006B00013D000240294AA461478FF2C0FD00A25E8
:1006C000A3FB057801FB05814FF0000C03FB0C1127
:1006D000521CE3194AEB0101EEE70124EAE78144E9
:1006E00053EA010002D019F5C87F06DA0398002109
:1006F000C0E9001107B0BDE8F08F0025AE4E2F46CF
:10070000DFF8B882184600F000FACDE90001B9F12F
:10071000000002DAC9F1000400E004460023A74A01
:100720001AEB030B42EB045A12E0E00707D02A460B
:10073000334638464146FFF78CFD074688462A4631
:10074000334610461946FFF784FD05460E466410F1
:10075000002CEAD1DDE90001B9F1000F5A465346F9
:1007600006DA00F063F93A46434600F05FF905E027
:10077000FFF76FFD3A464346FFF76BFD029A0AB159
:1007800081F00041039AC2E90001B3E72DE9FF4F70
:100790001F468DB0D7E901464FF0FF382E20454661
:1007A0004FF000090B90B9696D1C0E988847396AA3
:1007B000824688470028F6D1BAF1FF3F0AD024F4D8
:1007C000D064002E11DDBAF12B0F08D0BAF12D0F35
:1007D0000BD102E0404611B08DE744F48064B96962
:1007E0006D1C0E9888478246761E6946600501D5C5
:1007F0002D2000E02B208DF8000001F1010B0DF100
:10080000200809E0B9696D1C0E98884782460F9848
:1008100044F40074761E0560002E02DDBAF1300F3C
:10082000F0D00B998A453ED144F0800406E00F9940
:10083000681CA9F1010944F400740860B9696D1CD1
:10084000761E0E98884782463028F0D02BE00B9910
:100850008A4505D1200603D444F08004761E18E0B2
:10086000504604F0E0F908B30DF11302761EAAF128
:10087000300044F40074934506D20BF8010B2006B7
:1008800007D5A9F1010003E0200602D409F1010017
:100890008146A00502D50F99681C0860B9696D1CD6
:1008A0000E9888478246002ED1DC53E0002E51DDA1
:1008B000BAF1650F02D0BAF1450F4BD1A00549D569
:1008C000B9696D1C24F44074761E0E9888478246E0
:1008D000002E0CDD2B2804D0BAF12D0F07D144F4E3
:1008E0008074B9696D1C0E9888478246761EE005B3
:1008F00001D52D2100E02B2108F8011BCDF82C801B
:1009000021E00DF12901761E44F4007488450CD2D3
:10091000AAF1300010F0FF0088F8000002D10B9916
:10092000884509D908F1010806E0E00501D5244809
:1009300001E042F20F708146B9696D1C0E9888473C
:1009400082460F980560002E04DD504604F06BF9D6
:100950000028D6D1F9690E988847FF208BF800004F
:1009600088F800000020069007904B466A4608A9C8
:1009700006A8FFF777FEA00502D46FF001002AE772
:1009800014F0240F0AD0E00714D1DDE9061238680C
:10099000031D3B600068C0E900120BE0DDE90601C1
:1009A000FFF71FFD0146E00704D13868021D3A60D9
:1009B0000068016028460EE7000014400000F03F88
:1009C000F1D8FFFF426842B1016811F8013B23B141
:1009D000521EC0E90012184670470121C160881EEE
:1009E000704742685AB1C368016843B983688B4253
:1009F00005D0491E521CC0E90012002070474FF07C
:100A0000FF3070477F2801D9002208E0064A02EB38
:100A10005002C007127800D1120902F00F02012023
:100A200090400840704700006C4C00082DE9F04DE4
:100A300081EA030404F0004B21F0004514464FF016
:100A4000000A23F0004150EA050220D054EA0102D6
:100A50001DD0C5F30A570246C5F31303C1F31300B3
:100A6000C1F30A5640F4801543F48013A7EB06083F
:100A7000101BD64608F2FD3873EB050002D308F1CF
:100A8000010801E092185B41B8F1000F03DA002081
:100A90000146BDE8F08D00204FF4801106468446E3
:100AA0000EE0171B73EB050705D3121B63EB050361
:100AB00006434CEA010C49084FEA300092185B41AA
:100AC00050EA0107EDD152EA030012D082EA040095
:100AD00083EA0501084305D0101BAB4106D2012271
:100AE000002306E000224FF0004302E06FF0010215
:100AF00053101AEB06004CEB085110EB0A0041EBC7
:100B00000B01BDE8F04DFFF7C3BC0EB540F2334218
:100B100002920022CDE900221346FFF7C8FC03B081
:100B200000BD0000FEE7000040F2E410C2F2000049
:100B300000F086B870470000EFF3108072B600BF77
:100B4000FEE70000014690F82100022816D108684F
:100B5000D1E90FC3026822F00E020260026822F09F
:100B600001020260012000FA03F2CCF8042081F8AF
:100B700021000020002281F8202070470420886393
:100B80000120002281F820207047000080B590F8F5
:100B90002110022924D10268116821F00E01116090
:100BA0002F211368C4F202018A4240F20401C4F208
:100BB000020123F00103136016DD3023C4F20203A7
:100BC0009A421DD04423C4F202039A421CD05823F7
:100BD000C4F202039A421DD14FF4803322E000BFD9
:100BE00004218163012080BD0823C4F202039A42DC
:100BF0000ED01C23C4F202039A420BD1102311E041
:100C00004FF480730EE000BF4FF480530AE000BF42
:100C1000012307E001F1680C4FF08073624508BFC3
:100C20004FF480130B60012180F82110426B0021EA
:100C300080F820100AB190470021084680BD0000CE
:100C400010B5D0E90FCE0168DCF800300A6823FA4D
:100C50000EF35C072AD512F0040427D00A68920626
:100C600003D40A6822F004020A602F22C4F20202AE
:100C7000914240F20402C4F202025BDD3023C4F26E
:100C80000203994272D04423C4F20203994273D002
:100C90005823C4F20203994240F07A804FF4802333
:100CA0001360C16A002940F098806FE09C0727D547
:100CB00012F0020424D00A68920606D40A6822F0D0
:100CC0000A020A60012280F821202F22C4F20202C7
:100CD000914240F20402C4F202023BDD3023C4F22E
:100CE0000203994260D04423C4F2020399425FD0C8
:100CF0005823C4F20203994260D14FF4003365E0F7
:100D00001B0743D512F0080208BF10BD0A6822F085
:100D10000E020A60012101FA0EF2CCF80420816370
:100D200080F82110016B0022002980F8202054D186
:100D30002CE000BF0823C4F20203994222D01C23F6
:100D4000C4F20203994223D140231360C16A0029EF
:100D500043D11BE00823C4F2020399422CD01C2388
:100D6000C4F20203994229D120232FE04FF480637B
:100D70001360C16A89BB09E04FF480431360C16A04
:100D800059BB03E004231360C16A31BB10BD00BF2F
:100D900002F168044FF08063A14208BF4FF4800362
:100DA0001360C16AC9B9F1E74FF400730EE000BFE8
:100DB0004FF400530AE000BF022307E002F1680489
:100DC0004FF00073A14208BF4FF400131360816A13
:100DD0000022002980F82020D8D0BDE81040084724
:100DE000014600284FF0010008BF70472DE9F0438D
:100DF000D1F800C04FF6F873CBF6FD734CF6CD4238
:100E00006344CCF6CC42A3FB02236FF0030707EA4E
:100E100093030027C4F2020701F10C09C1E90F7323
:100E20000223D1E9012E99E87002D1F81C8081F8E3
:100E30002130DCF8003043F6F077BB431A4342EA36
:100E40000E0222432A43324342EA090242EA0802DE
:100E5000CCF8002000228A6381F8210081F820204C
:100E60000020BDE8F0437047F0B590F820C0BCF119
:100E7000010F32D04FF0010E80F820E090F821C031
:100E8000BCF1010F26D14FF0020C80F821C04FF0C9
:100E9000000CC0F838C0D0E900C4C56AC66BDCF8E5
:100EA0000070102C27F00107CCF80070006C0EFACF
:100EB00000F070600846CCF8043004BF10460A46C3
:100EC000CCF80800CCF80C20DCF8000045B140F06C
:100ED0000E000DE0002180F820100220F0BD00BFC0
:100EE00020F00400CCF80000DCF8000040F00A001C
:100EF000CCF80000DCF8000040F00100CCF8000065
:100F00000020F0BDB0B5044600F020F9054640F2DF
:100F10000400C2F200000078611C18BF044400BF46
:100F200000F014F9401BA042FAD3B0BD2DE9F04FF8
:100F300082B041F20042C4F201020E6804239042E2
:100F400008BF0323002E009300F0F68040F2004C0F
:100F50004FF6FF7E0022C4F2010C0124C1F2100EF4
:100F60004FF0000A4FF0000947E000BF012502F0F2
:100F70000C040F27A7402BEA070705FA04F43C43AB
:100F800043F82640D1F804B040F20C455FEACB2389
:100F9000DCF8083054BF23EA080343EA0803C4F22C
:100FA0000105CCF808302B685FEA8B2454BF23EA94
:100FB000080343EA08032B605FEA8B34DCF8043053
:100FC00054BF23EA080343EA08035FEACB34CCF8B2
:100FD0000430DCF800304FF0010454BF23EA08036A
:100FE00043EA0803CCF800300E680AF1010A36FA29
:100FF0000AF302F1040200F09F8004FA0AF816EAEC
:10100000080FF1D04B68734512DC122B56D8DFE87D
:1010100003F0350B454955555555555555555555BD
:101020005555554D510000BFD1F80C9046E000BF1A
:101030004FF6FF75C1F22105AB420FDC0025C1F26E
:101040001105AB421AD00025C1F21205AB4215D0F2
:101050000025C1F22105AB4210D02FE00025C1F2DE
:101060002205AB420AD00025C1F23105AB4205D0C2
:101070000025C1F23205AB4220D100BF8B684BB1D5
:10108000012B14BFC0F81480C0F810804FF008097D
:1010900014E000BF4FF0040910E000BFCB6803F17B
:1010A00008090BE04FF0000908E000BFCB6803F12E
:1010B000040903E0CB6803F10C0900BF13460546A1
:1010C000BAF1080F24BF203B04352E680F279F403C
:1010D000BE4309FA03F333432B60CB79DB067FF57C
:1010E00083AF41F21804C4F2020423684FEA9A065F
:1010F00043F001032360236840F6000403F001037A
:101100000193019BACF57E7353F826B0C4F2010441
:10111000A0420FD040F60044C4F20104A0423FF4C4
:1011200025AF41F20004C4F20104009DA04208BFB3
:1011300002251CE700251AE702B0BDE8F08F000089
:10114000002A08BF090401617047000040F22450E2
:10115000C2F200000068704740F2040040F22451DF
:10116000C2F20000C2F2000100780A681044086070
:101170007047000080B542F20000C4F2020001682E
:1011800041F010010160032000F08AF80F2000F008
:1011900005F800F027F8002080BD000070B540F28F
:1011A0000406C2F2000640F20C013278C2F20001DD
:1011B0004FF47A730968B3FBF2F20446B1FBF2F123
:1011C000084600F05FFB0F2C4FF0010508D838B936
:1011D0004FF0FF3021460022002500F035F8746002
:1011E000284670BD82B041F21800C4F202000168C6
:1011F000022241F001010160016801F00101019149
:101200000199416841F080514160406800F0805090
:10121000009000980420C4F20100016862F31A6192
:10122000016002B070470000002848BF704700F01E
:101230001F01012202FA01F14EF200124009CEF222
:10124000000242F82010704710B54EF60C5CCEF24A
:10125000000CDCF80030C3F3022E8EF00704042CDF
:1012600028BF0424BEF103034FF0FF3E0EFA04F43E
:1012700038BF0023A14399400EFA03F39A43114368
:1012800000F00F02043A624409010C3200F160439D
:10129000B0F1FF3FC8BF03F56442117010BD0000FC
:1012A0004EF60C51CEF200010A684FF6FF031A40C9
:1012B00060F30A2242F0806040F0FD7008607047E1
:1012C0002DE9F04381B0002800F0858042F200084B
:1012D000C4F202080446D8F800000D4600F00700EA
:1012E00088420CD2D8F8000020F007002843C8F844
:1012F0000000D8F8000000F00700A8426BD1206879
:1013000041F204098107C4F2020917D5410705D546
:10131000D9F8001041F4E061C9F80010010705D5C3
:10132000D9F8001041F46051C9F80010D9F8001044
:10133000A26821F0F0011143C9F80010C00741D1A3
:10134000D8F8000000F00700A8420CD9D8F8000037
:1013500020F007002843C8F80000D8F8000000F08B
:101360000700A84237D12068410707D5D9F80010F7
:10137000E26821F4E0611143C9F80010000708D5C4
:10138000D9F80000216920F4605040EAC100C9F892
:101390000000D9F8002002F00C00082841F20020DB
:1013A000C0F27A0050D144F6C643C2F38341C0F67E
:1013B0000003595CD2033BD440F60010C0F23D005C
:1013C000484341E0606802280AD001282AD159F830
:1013D000041C890308D4012001B0BDE8F08300BFDC
:1013E00059F8041C8901F6D5D9F8001021F0030141
:1013F0000843C9F80000FFF7A9FE064641F2883706
:10140000D9F80000616800F00C00B0EB810F97D0B4
:10141000FFF79CFE801BB842F2D9032001B0BDE863
:10142000F08300BF59F8041C8907D4D5DCE700BF5E
:10143000D9F8002044F6C443C2F34042C0F600038A
:101440009A5C4843B0FBF2F0D9F8001044F6AC4285
:10145000C1F30311C0F60002515C40F20C0220FA05
:1014600001F140F20800C2F200000068C2F200027E
:101470001160FFF793FE002001B0BDE8F08300008B
:1014800040F20C0041F20401C2F20000C4F2020179
:101490000068096844F6BC42C1F30221C0F60002AC
:1014A000515CC8407047000040F20C0041F204015A
:1014B000C2F20000C4F202010068096844F6BC42AE
:1014C000C1F3C221C0F60002515CC8407047000061
:1014D0002DE9F04182B0002868D00446007841F23E
:1014E0000006C007C4F2020625D0706800F00C00A8
:1014F00004281BD0706800F00C00082802D1706826
:10150000C00313D46068002800F06881B0F5A02FF4
:1015100000F07C81B0F5803F00F07C81306820F4E1
:1015200080303060306820F4802076E130688003BD
:1015300001D56068D0B32078800718D5706810F0A6
:101540000C0F07D0706800F00C0008286ED170688E
:10155000C0036BD43068800702D52069012825D1EB
:101560003068616920F0F80040EAC10030602078FE
:1015700000071FD42078400732D4E56995B1706820
:1015800000F00C00082840F08F80012D0ED070680C
:10159000216A00F480328A4208D1616A00F4701036
:1015A000884203D1002002B0BDE8F081012002B0E2
:1015B000BDE8F081A069002862D00020C4F242207A
:1015C0000121C0F88014FFF7C1FD0546706A80074D
:1015D00000F18C80FFF7BAFD401B0228F6D92AE102
:1015E000F06910F0805808D1F06940F08050F06147
:1015F000F06900F080500090009847F20007C4F2B4
:1016000000073868C00529D4386840F48070386015
:10161000FFF79CFD054600BF3868C0051ED4FFF7E4
:1016200095FD401B6428F7D905E100BF206900281B
:1016300040F20000C4F2422000F0828001210160EB
:10164000FFF784FD054600BF306880073FF588AF8F
:10165000FFF77CFD401B0228F6D9ECE0E06800288B
:1016600000F08080052800F09780012800F0988025
:10167000306A20F001003062306A20F0040092E00D
:101680000020C4F242200021C0F88014FFF75EFD64
:10169000054600BF706A80077FF56CAFFFF756FD07
:1016A000401B0228F6D9C6E00027C4F242270020DA
:1016B0003866FFF74BFD022D05460BD130688001DF
:1016C00040F1BE80FFF742FD401B02284FF00300AF
:1016D000F4D968E7306880017FF564AFFFF736FD25
:1016E000401B02284FF00300F4D95CE740F20C00E5
:1016F000C2F20000006844F6D351C1F26201A0FBBF
:101700000101480A019000BF00BF0198411E002856
:1017100001913FF42FAF00BF0198411E00280191B5
:101720003FF428AF00BF0198411E002801913FF40B
:1017300021AF00BF0198411E00280191E4D119E7B3
:1017400000210160FFF702FD054600BF30688007F9
:101750007FF50DAFFFF7FAFC401B02284FF00300A6
:10176000F4D920E7306A20F001003062306A20F0BE
:1017700004003062FFF7EAFC054641F2883700BFFB
:10178000306A800720D5FFF7E1FC401BB8424FF0DC
:101790000300F5D907E700BF306A40F0040030626B
:1017A000306A40F001003062FFF7D0FC054641F29C
:1017B000883700BF306A800706D4FFF7C7FC401B9C
:1017C000B842F7D937E000BFB8F1000F7FF4D5AECB
:1017D000F06920F08050F061CFE600BF306820F45F
:1017E00080303060306820F480203060FFF7AEFC3D
:1017F000054600BF306880037FF59DAEFFF7A6FC6D
:10180000401B64284FF00300F4D9CCE6306840F464
:1018100080203060306840F480303060FFF796FC04
:10182000054600BF306880033FF585AEFFF78EFCAC
:10183000401B6428F6D9032002B0BDE8F08100BF48
:10184000206AB0F5803F05D17168A26821F40031AB
:10185000114371607168626A21F474111043084386
:10186000706001203866FFF771FC04463068800123
:101870003FF598AEFFF76AFC001B02284FF003000B
:10188000F4D990E6411E0020B0EB116F1CBF01207F
:1018900070474EF21002CEF2000251604EF6235114
:1018A000CEF20001F0230B700721906011607047A9
:1018B0007047000070470000B0B590F83C20012A46
:1018C00004BF0220B0BD01F108053CCDD1E900CE36
:1018D00023F47C5322F470521A432EF4F0431A433B
:1018E0002CF4E0431A4324F4C0431A432A43C96941
:1018F00022F48042036811435964002180F83C10AF
:101900000846B0BD10B590F83C20012A4FF0020205
:1019100033D080F83D200268D2F804E0D2F808C045
:101920000C682EF07003234340F2FF74C4F20004ED
:10193000A24253600ADCB2F1804F13D040F2004360
:10194000C4F200039A420DD011E000BF42F60043FA
:10195000C4F201039A4205D040F60003C4F200032A
:101960009A4204D149682CF0800319439160012107
:10197000002280F83D1080F83C20104610BD000089
:1019800041B1082910D0042914BF00F1450200F12B
:1019900043020BE090F84220012A1CBF012070474F
:1019A000022280F8422013E000F144021278012A5A
:1019B0001CBF012070470222082907D0042914BF48
:1019C00080F8452080F8432002E000BF80F84420E2
:1019D000006801F01F010422036A02FA01F123EA00
:1019E00001020262026A11430162416C40F2FF721D
:1019F000C4F2000241F40041904241640ADCB0F1BB
:101A0000804F13D040F20041C4F2000188420DD053
:101A100013E000BF42F60041C4F20101884205D044
:101A200040F60001C4F20001884206D1816801F04D
:101A30000701062904BF00207047016841F0010139
:101A40000160002070470000002804BF012070479B
:101A500010B5044690F83D0028B9002084F83C00F9
:101A6000204600F067F8022084F83D00206840F22C
:101A7000FF730268C4F2000342F6004C9842C4F2BD
:101A8000010C15DCB0F1804F1AD040F20041C4F2D5
:101A90000001884214D0984218DCB0F1804F1DD06C
:101AA00040F20041C4F20001884217D01AE000BFA2
:101AB000604505D040F60001C4F200018842EAD139
:101AC000A16822F070020A439842E6DD604505D025
:101AD00040F60001C4F20001884203D1216922F4DA
:101AE00040720A43A36922F08001D4F804E0E2685E
:101AF000194360450160C262C0F828E002D1616903
:101B0000CCF8301001214161002084F8461084F89F
:101B10003E1084F83F1084F8401084F8411084F897
:101B2000421084F8431084F8441084F8451084F877
:101B30003D1010BD80B582B0006840F60001C4F2CF
:101B4000000188421CBF02B080BD41F21C00C4F2FB
:101B500002000168002241F00401016000680121D7
:101B600000F00400019001981E20FFF76DFB1E207D
:101B700002B0BDE88040FFF757BB000090F83D1071
:101B800001291CBF01207047022180F83D10006828
:101B900040F2FF72C168C4F20002904241F00101BC
:101BA000C16009DCB0F1804F12D040F20041C4F2B4
:101BB000000188420CD012E042F60041C4F201015B
:101BC000884205D040F60001C4F20001884206D1E7
:101BD000816801F00701062904BF002070470168F1
:101BE00041F00101016000207047000080B590F8CD
:101BF0003C20012A4FF0020200F0C28080F83D2014
:101C0000D0F800C04FF67772DCF8083023EA020201
:101C1000CCF808200B684F2B28DC1F2B44DD202B31
:101C200045D0302B43D0402B40F0AC80D1F804E0BD
:101C3000C968DCF82030DCF8202022F00102CCF862
:101C40002020DCF8182022F0F00242EA011123F0F3
:101C50000A0242EA0E02CCF81810CCF82020DCF878
:101C6000081041F0470121F0300180E06F2B27DDA3
:101C7000B3F5005F48D0B3F5805F7AD0702B40F0A9
:101C80008180D1E901E3C968DCF8082043EA0E034A
:101C900022F47F4243EA01211143CCF80810DCF81A
:101CA000081041F0770162E00BB1102B6AD1DCF82B
:101CB000081021F07001194341F0070157E000BFFF
:101CC000502B35D0602B5DD1D1F804E0C968DCF829
:101CD0002030DCF8202022F01002CCF82020DCF8A4
:101CE000182022F4704242EA013123F0A00242EAB5
:101CF0000E12CCF81810CCF82020DCF8081041F0B7
:101D0000670121F0100132E0D1E901E3C968DCF894
:101D1000082043EA0E0322F47F4243EA01211143E3
:101D2000CCF80810DCF8081041F480411FE000BF37
:101D3000D1F804E0C968DCF82030DCF8202022F07B
:101D40000102CCF82020DCF8182022F0F00242EA50
:101D5000011123F00A0242EA0E02CCF81810CCF866
:101D60002020DCF8081041F0570121F02001CCF8C8
:101D700008100022012180F83D10002180F83C105D
:101D8000104680BD0122F5E7002804BF01207047FE
:101D90002DE9F04F81B0044690F83D000D4628B97A
:101DA000002084F83C00204600F094F8022084F8DB
:101DB0003D00206844F20702816840F2FF739143BE
:101DC00081600268C4F2000342F6004C9842C4F2FB
:101DD000010C15DCB0F1804F1AD040F20041C4F282
:101DE0000001884214D0984218DCB0F1804F1DD019
:101DF00040F20041C4F20001884217D01AE000BF4F
:101E0000604505D040F60001C4F200018842EAD1E5
:101E1000A16822F070020A439842E6DD604505D0D1
:101E200040F60001C4F20001884203D1216922F486
:101E300040720A43A36922F08001D4F804E0E2680A
:101E4000194360450160C262C0F828E002D16169AF
:101E5000CCF830104FF00109C0F814908268D0F827
:101E600018E0D0F820C0D5E90038D5E9027B43EA74
:101E7000020AAB694FF6FF712EEA010E47EA03230F
:101E80004FF6FC47BB43D5E907724BEA0E012E69BA
:101E9000194341EA072141EA061141EA02312CF0D7
:101EA00022026B6942EA080242EA0312C0F808A063
:101EB0008161026284F8469084F83E9084F83F90F5
:101EC00084F8429084F8439084F83D90002001B05B
:101ED000BDE8F08F70B586B0006840F20042C4F2F1
:101EE0000002002190420591CDE90311029149D0F1
:101EF000B0F1804F67D141F21800C4F2020041688E
:101F000040F6000441F0010141604168C4F201045F
:101F100001F0010101910199016802AD41F0040154
:101F200001600168002601F0040101910199016836
:101F300041F0080101600068294600F008000190A6
:101F400001984FF4004002902046CDE90366FEF769
:101F5000EDFF0820CDE9020604F5806029460496CD
:101F6000FEF7E4FF0420C4F2010001684FF6FF42CF
:101F7000CFF6FF02114041F0E06141F48071016051
:101F800006B070BD41F21800C4F20200426842F08F
:101F900002024260426802F002020192019A026863
:101FA00042F004020260006800F004000190019811
:101FB000C020CDE9020140F600000491C4F2010006
:101FC00002A9FEF7B3FF06B070BD000080B590F81F
:101FD0003E2090F83F3090F842E090F843C004294A
:101FE0000AD0B9B9012A4FF0010208BFBEF1010FB2
:101FF00034D0104680BD00BF012B4FF0010208BF56
:10200000BCF1010FF5D1022180F83F1080F8431098
:1020100000681EE0012A4FF0010208BF012BE8D141
:10202000BEF1010FE5D1BCF1010FE2D1022280F82F
:102030003E2080F83F2080F8422080F8432091B174
:102040000068016A21F001010162016A41F00101A9
:10205000016210216FF0100209E000BF022180F838
:102060003E1080F84210006801216FF00102036AFF
:102070001A400262026A114301620168002241F0C3
:1020800001010160104680BD7047000010B5016875
:1020900004460869800744BFC8685FEA807039D485
:1020A0000869400744BFC8685FEA40703ED40869C9
:1020B000000744BFC8685FEA007045D40869C006DD
:1020C00044BFC8685FEAC0604AD40869C0071CBF43
:1020D000C8685FEAC07051D10869000644BFC8688B
:1020E0005FEA006052D40869400644BFC8685FEAEE
:1020F000406053D40869800646BFC8685FEA8060C4
:1021000010BD6FF0200220460A61BDE81040FFF7C5
:10211000D1BB00BF6FF00200086101202077886901
:10212000800743D02046FFF7AFFF45E06FF0040083
:10213000086102202077886910F4407F40D0204653
:10214000FFF7A2FF42E000BF6FF008000861042023
:102150002077C86980073DD02046FFF795FF3FE014
:102160006FF01000086108202077C86910F4407FE4
:102170003AD02046FFF788FF3CE000BF6FF0010037
:102180000861204600F040FA2168A5E76FF0800062
:1021900008612046FFF78CFB2168A4E76FF0400040
:1021A0000861204600F078FC2168A3E7204600F093
:1021B00025F8204600F0B6F92168002020776FE767
:1021C000204600F01BF8204600F0ACF92168002002
:1021D00020776CE7204600F011F8204600F0A2F9C5
:1021E00021680020207769E7204600F007F82046A4
:1021F00000F098F921680020207766E7704700001A
:102200002DE9F04390F83C30012B04BF0220BDE8DB
:10221000F0834FEAB202032A3CD8DFE802F003431E
:102220007FB900BF036842F600461D6A1A6AC4F20D
:10223000010622F001021A621A465C6852F818CFB1
:10224000B3428E68D1F800E025F0020545EA0605A4
:102250000CD1CE68D1E9057824F4407425F00C0542
:1022600026F004063C43354344EA08042CF0730787
:1022700047EA0E075C609F614F6809695F631D62F2
:102280009F6947F008079F619F6927F004079F61D6
:10229000AEE000BF0121002280F83C200846BDE8E6
:1022A000F08300BF036842F600461D6A1A6AC4F252
:1022B000010622F010021A621A46D3F804C052F83E
:1022C000184FB3428E68D1F800E025F0200545EAAA
:1022D00006150FD1CE68D1E905986FF0400707EADF
:1022E00006162CF4406725F0C00547EA89073543F8
:1022F00047EA880C24F4E64444EA0E27C3F804C0F5
:102300009F614F6809699F631D629F6947F4006779
:102310009F619F6927F480679F6168E0036842F6C8
:1023200000461D6A1A6AC4F2010622F480721A621B
:102330001A46D3F804C052F81CEFB3428E680C68FA
:1023400025F4007545EA06250FD1CE68D1E9059838
:10235000360240F2FF47BE432CF4405725F4406557
:1023600047EA0917354347EA081C2EF0730727434D
:10237000C3F804C0DF614F680969DF631D62DF696C
:1023800047F00807DF61DF6927F00407DF612FE00E
:10239000036842F60047D3F820C01A6AC4F2010766
:1023A00022F480521A621A465C6852F81C5FD1F817
:1023B00000E08E68BB4204D14F6924F4804444EAB3
:1023C00087142CF4005747EA063725F4E64646EA18
:1023D0000E265C60DE614E6809691E641F62DF695B
:1023E00047F40067DF61DF6927F48067DF61090276
:1023F0001368194311600021002280F83C20084630
:10240000BDE8F083002804BF0120704710B50446E2
:1024100090F83D0028B9002084F83C00204600F0E8
:1024200067F8022084F83D00206840F2FF730268DC
:10243000C4F2000342F6004C9842C4F2010C15DCD1
:10244000B0F1804F1AD040F20041C4F2000188423E
:1024500014D0984218DCB0F1804F1DD040F20041FA
:10246000C4F20001884217D01AE000BF604505D0D1
:1024700040F60001C4F200018842EAD1A16822F0CE
:1024800070020A439842E6DD604505D040F600013F
:10249000C4F20001884203D1216922F440720A4348
:1024A000A36922F08001D4F804E0E2681943604592
:1024B0000160C262C0F828E002D16169CCF8301036
:1024C00001214161002084F8461084F83E1084F810
:1024D0003F1084F8401084F8411084F8421084F8CA
:1024E000431084F8441084F8451084F83D1010BD62
:1024F00081B0006842F60041C4F20101884201D077
:1025000001B0704741F21800C4F20200016841F4C2
:1025100000610160006800F400600090009801B064
:10252000704700007047000041B1082910D004290D
:1025300014BF00F1410200F13F020BE090F83E2091
:10254000012A1CBF01207047022280F83E2013E0C0
:1025500000F140021278012A1CBF012070470222BC
:10256000082907D0042914BF80F8412080F83F20B3
:1025700002E000BF80F84020006801F01F01012246
:10258000036A8A4023EA02010162036A42F6444177
:10259000C4F201011A43A1F14403984202620FD030
:1025A00040F2FF71C4F20001884213DCB0F1804FA9
:1025B0001CD040F20041C4F20001884216D01CE059
:1025C0000A6842F400420A6040F2FF71C4F200015E
:1025D0008842EBDD42F60041C4F20101884205D099
:1025E00040F60001C4F20001884206D1816801F082
:1025F0000701062904BF00207047016841F001016E
:1026000001600020704700002DE9F04140F20038E1
:10261000C2F20008404518BFBDE8F08140F2E0007A
:10262000C2F2000001680129A4BF01390160002045
:1026300001F0D2FE40F21007C2F20007787A0128BA
:1026400008D1387A012805D1F86901F057FDF864FE
:1026500000207872B86C4AF6AA214AF6AB22C2F67C
:10266000AA21CAF6AA2200FB0211B1F1553F03D3F9
:102670007C79012C54D006E140F27021C2F20001B5
:1026800009684A6A48F20031160412B2CFF6FF71A7
:10269000B6F1034FC2F1000306DA3E6C8E420EDA49
:1026A0004FF0FF3608E000BFB6F1FA4F07DD3E6C91
:1026B000B6F5FA4F03DD0126BD6B2E44BE633B64C5
:1026C000BB6BFE6DC2EB0342931B40F2B826C2F215
:1026D000000636687B61736A1E04B6F1FA4F1BB2BE
:1026E00006DD7E6C8E420EDA4FF0FF3108E000BF4F
:1026F000B6F1034F07DA796CB1F5FA4F03DD01212A
:10270000FE6B3144F963F96B3E6E03EB01417B6470
:102710008B1BBB61C7E917217C79012C40F0B3808A
:10272000B979012916D140F27020C2F20000006888
:10273000416A48F200300B0409B2CFF6FF70B3F1E2
:10274000034FC1F1000215DA3B6C83421DDA4FF0F2
:10275000FF3317E049F699114CF6CD42C1F69911B5
:10276000CCF6CC4200FB0210B0F1333F38D3012449
:1027700089E000BFB3F1FA4F07DD3B6CB3F5FA4FC8
:1027800003DD0123BE6B3344BB63BB6B3A6440F291
:10279000B822C2F20002C1EB034112683963516AE8
:1027A0000A04B2F1FA4F09B206DD7A6C82420EDAFF
:1027B0004FF0FF3008E000BFB2F1034F07DA786C4A
:1027C000B0F5FA4F03DD0120FA6B1044F863F86BA3
:1027D000796401EB004078630020B871012452E075
:1027E00040F27020C2F200000068406A020400B2A9
:1027F000B2F1034FC0F1000106DA3A6C12F5FA4F5C
:102800000DDA4FF0FF3207E0B2F1FA4F07DD3A6C14
:10281000B2F5FA4F03DD0122BB6B1A44BA63BA6BFF
:102820003964C0EB024140F2B820C2F200000068F7
:102830003963426A1004B0F1FA4F12B206DD786CC7
:1028400010F5FA4F0DDA4FF0FF3007E0B0F1034F0B
:1028500007DA786CB0F5FA4F03DD0120FB6B184402
:10286000F863FB6B7A64B86A02EB03427A63012275
:1028700001F012FDFA6A796B38651046022201F008
:102880000BFD7C797865386AFDF771FD3D6D064674
:102890002046FDF775FD01462846FDF7A8FC3146A8
:1028A000FDF74DFC397AFC6C05460846FDF768FDDE
:1028B00001462046FDF79BFC2946FDF740FC79695F
:1028C00004460846FDF753FD01462046012201F06B
:1028D0005FFCFDF75AFD796AB8650846FDF747FDCC
:1028E000054678797C6D3E7AFDF74AFD0146204623
:1028F000FDF77DFC2946FDF722FCFC6C05463046C1
:10290000FDF73EFD01462046FDF771FC01462846D5
:10291000FDF767FCB96904460846FDF728FD014646
:102920002046022201F034FCFDF72FFDF97902293F
:102930001ED0012938D1BA6D4FF6184112F57A7FB1
:10294000CFF6FF71D8BF0A46B2F57A7F4FF47A7698
:10295000B8BF16464FF47A7376B3012A6CDBD8F809
:102960000020C6F57A7353634FF47A7327E000BFF3
:10297000396A4FF6184011F57A7FCFF6FF70D8BF4D
:102980000146B1F57A7F4FF47A73B8BF0B464FF426
:102990007A724BB301295BDBD8F80010C3F57A7269
:1029A0004A634FF47A7222E0D8F800004FF47A724A
:1029B0004263826336E000BFD8F80020536393631C
:1029C00010F57A7FC8BF0146B1F57A7F4FF47A736C
:1029D000B8BF0B464FF47A7213B3012944DBD8F821
:1029E0000000C3F57A7117E0D8F800104A638A63D3
:1029F000796A4FF47A7211F57A7FC8BF0846B0F54C
:102A00007A7F4FF47A71B8BF014649B1012837DBAC
:102A1000D8F80000C1F57A71C1634FF47A7202E010
:102A2000D8F80000C2630264B86C411C6328C8BFB8
:102A30000021B964BDE8F081B6F1FF3FC0DCD8F8F1
:102A400000204FF47A73536306F57A73B7E700BF3B
:102A5000B3F1FF3FCCDCD8F800104FF47A724A6330
:102A600003F57A72C3E700BFB3F1FF3FDCDCD8F8AF
:102A700000004FF47A71C16303F57A72D3E700BFA7
:102A8000B1F1FF3FD0DCD8F800004FF47A72C26396
:102A900001F57A72C7E70000704700007047000038
:102AA00010B504460068416994F84120212A58D1A4
:102AB00011F0800155D000BF50E8050F216820F0CB
:102AC000800041E80502EAB1206850E8050F21685E
:102AD00020F0800041E80502A2B1206850E8050F0F
:102AE000216820F0800041E805025AB1206850E8D2
:102AF000050F216820F0800041E8050212B120682E
:102B0000DAE700BFA06B002818BFFEF71BF800BF74
:102B1000206850E8030F216820F0C00041E803025C
:102B2000DAB1206850E8030F216820F0C00041E8C6
:102B3000030292B1206850E8030F216820F0C00022
:102B400041E803024AB1206850E8030F216820F0F1
:102B5000C00041E80302002ADAD1202084F84100B5
:102B60002068416994F84220222A40F0A98011F09F
:102B7000400100F0A58000BF50E8050F216820F05B
:102B8000400041E80502EAB1206850E8050F2168DD
:102B900020F0400041E80502A2B1206850E8050F8E
:102BA000216820F0400041E805025AB1206850E851
:102BB000050F216820F0400041E8050212B12068AD
:102BC000DAE700BFE06B002818BFFDF7BBFF00BFCE
:102BD000206850E8030F216820F4907041E8030258
:102BE000BAB3206850E8030F216820F4907041E8E0
:102BF000030272B3206850E8030F216820F490703C
:102C000041E803022AB3206850E8030F216820F44A
:102C1000907041E80302002ADAD11AE0206850E8F7
:102C2000050F216820F0010041E80502DAB12068B3
:102C300050E8050F216820F0010041E8050292B13B
:102C4000206850E8050F216820F0010041E80502E6
:102C50004AB1206850E8050F216820F0010041E8E2
:102C60000502002ADAD1206B012824D1206850E81F
:102C7000030F216820F0100041E80302DAB1206858
:102C800050E8030F216820F0100041E8030292B1E0
:102C9000206850E8030F216820F0100041E803028B
:102CA0004AB1206850E8030F216820F0100041E885
:102CB0000302002ADAD1202084F842000020206399
:102CC000002010BD70470000B0B582B00446006817
:102CD0000168C368426901F02F05202D03F020052B
:102CE00006D12DB1204602B0BDE8B04001F080BD54
:102CF0005FEA017C1EBF02F0010E03F4907212EB3A
:102D00000E0255D1226B012A05D111F0100218BF15
:102D100013F0100236D10A0622D513F080021FD01C
:102D200094F84110212941D1A168B1F5805F03D108
:102D30002169002900F07282216A4A1C2262097806
:102D40004160E18C01390A04E1842FD1C16821F08E
:102D50008001C160C16841F04001C16002B0B0BDF6
:102D6000490623D513F0400120D0C16821F040016D
:102D7000C1602021204684F8411002B0BDE8B04077
:102D800000F09CBE00210191016801914168019110
:102D900001994169490600F18F80A18DE28DE38D93
:102DA000002B1CBF891A5FEA01420CD102B0B0BDF2
:102DB000CA0718BF13F4807240F038814A0700F147
:102DC0003B8140E1206850E8030F226820F49070B6
:102DD00042E80303DBB1206850E8030F226820F4C7
:102DE000907042E8030393B1206850E8030F226813
:102DF00020F4907042E803034BB1206850E8030FC1
:102E0000226820F4907042E80303002BDAD1206896
:102E100050E8050F226820F0010042E80503DBB10D
:102E2000206850E8050F226820F0010042E8050301
:102E300093B1206850E8050F226820F0010042E8B5
:102E400005034BB1206850E8050F226820F001000F
:102E500042E80503002BDAD1202084F8420000204C
:102E60002063206850E8030F226820F0100042E839
:102E70000303DBB1206850E8030F226820F0100044
:102E800042E8030393B1206850E8030F226820F062
:102E9000100042E803034BB1206850E8030F22689A
:102EA00020F0100042E80303002BDAD1022289B29D
:102EB00020466263B4E000BFE16B0A68526893B2D7
:102EC000002B3FF473AFA58DAB42BFF46FAFE2852B
:102ED0008969202900F09D8050E8030F216820F4C3
:102EE000807041E80302EAB1206850E8030F2168CE
:102EF00020F4807041E80302A2B1206850E8030F7B
:102F0000216820F4807041E803025AB1206850E83B
:102F1000030F216820F4807041E8030212B1206899
:102F2000DAE700BF206850E8050F216820F00100B3
:102F300041E80502DAB1206850E8050F216820F069
:102F4000010041E8050292B1206850E8050F2168B0
:102F500020F0010041E805024AB1206850E8050F61
:102F6000216820F0010041E80502002ADAD120683A
:102F700050E8050F216820F0400041E80502DAB171
:102F8000206850E8050F216820F0400041E8050264
:102F900092B1206850E8050F216820F0400041E818
:102FA00005024AB1206850E8050F216820F0400072
:102FB00041E80502002ADAD1202084F842000020EE
:102FC0002063206850E8030F216820F0100041E8DA
:102FD0000302DAB1206850E8030F216820F01000E6
:102FE00041E8030292B1206850E8030F216820F005
:102FF000100041E803024AB1206850E8030F21683D
:1030000020F0100041E80302002ADAD1E06BFDF75E
:1030100099FD02206063A08DE18D401A81B22046A7
:1030200002B0BDE8B040FFF739BD00BF626C42F0AE
:10303000010262644A0706D5BEF1000F03D0626C3C
:1030400042F0020262648A0706D5BEF1000F03D087
:10305000626C42F004026264BCF1000F06D555EACE
:103060000E0203D0626C42F008026264626C002AB5
:103070003FF49CAE11F0200118BF002D03D0204674
:1030800001F0B6FB20684169626C01F0400102F07A
:103090000802891800F0A28050E8030F216820F48C
:1030A000907041E80302C2B3206850E8030F216822
:1030B00020F4907041E803027AB3206850E8030FCF
:1030C000216820F4907041E8030232B3206850E890
:1030D000030F216820F4907041E80302EAB12068F0
:1030E000DAE700BF206850E8050F216820F00100F2
:1030F00041E80502DAB1206850E8050F216820F0A8
:10310000010041E8050292B1206850E8050F2168EE
:1031100020F0010041E805024AB1206850E8050F9F
:10312000216820F0010041E80502002ADAD1206B75
:10313000012824D1206850E8030F216820F01000F6
:1031400041E80302DAB1206850E8030F216820F05B
:10315000100041E8030292B1206850E8030F216893
:1031600020F0100041E803024AB1206850E8030F44
:10317000216820F0100041E80302002ADAD1202063
:1031800084F84200002020632068416949063FD549
:1031900050E8050F216820F0400041E805022AB3FD
:1031A000206850E8050F216820F0400041E8050242
:1031B000E2B1206850E8050F216820F0400041E8A6
:1031C00005029AB1206850E8050F216820F0400000
:1031D00041E8050252B12068DAE700BF2046FFF758
:1031E00071FD0020606402B0B0BD00BFE06B78B13B
:1031F00044F2F141C0F600014163FDF7C7FC00282D
:103200003FF4D4ADE06B416B02B0BDE8B04008477D
:10321000204602B0BDE8B040FFF754BD216A31F846
:10322000022B6FF35F22426021628AE5002804BF0F
:103230000120704710B5044690F8410028B90020DD
:1032400084F84000204600F061F8242084F8410012
:103250002068D4E90212C36823F40053C3600369F1
:1032600023F440531A430261D4E904231143C26892
:10327000194341F20C639A431143C1604169A26949
:1032800021F44071114343F60002C4F2010290425E
:10329000416103D0FEF7F4F802E000BFFEF704F945
:1032A0006268192148439100B0FBF1F048F21F51C8
:1032B000C5F2EB11A0FB01235A096FF0630302FB77
:1032C0000300322303EB0010A0FB0101F02303EA0B
:1032D0005113206803EB0212C1F3431111448160C2
:1032E000016921F490410161416921F02A014161A4
:1032F000C16841F40051C16000202021606484F85D
:10330000411084F84210606310BD0000F0B585B034
:103310000446006844F20041C4F2000100278842DC
:103320000497CDE90277019740D044F60001C4F23A
:103330000001884200F0848043F60001C4F20101DC
:10334000884240F0B88041F21800C4F202000168DF
:1033500040F6000441F4804101600168C4F20104B8
:1033600001F4804100910099016801AD41F0040130
:1033700001600068294600F00400009000984FF4B6
:103380000070019002200290032004902046FDF777
:10339000CDFD4FF4806001900020CDE90200204671
:1033A0002946FDF7C3FD25247DE000BF41F218004A
:1033B000C4F20200416840F6000541F4003141606A
:1033C0004168C4F2010501F40031009100990168DF
:1033D00001AE41F0040101600068314600F00400D4
:1033E0000090009804200190022002900320049095
:1033F0002846FDF79BFD0820CDE901072846314608
:103400000397FDF793FD40F2E4156C20C2F200052E
:10341000C4F2020080214FF48052C5E9000728461B
:10342000C5E90271C5E90477C5E90672FDF7D8FC64
:10343000002818BFFDF780FBE5636C62262432E0AC
:1034400041F21800C4F20200416801AD41F480214C
:103450004160416801F4802100910099016841F0C8
:10346000080101600068294600F0080000900098FB
:103470004FF480600190022002900320049040F6F7
:103480000000C4F2010000F580642046FDF74EFD07
:103490004FF4006001900020CDE90200204629464B
:1034A000FDF744FD2724204600210022FDF7CCFE35
:1034B0002046FDF7B9FE05B0F0BD000070B582B042
:1034C000044690F8420020280AD113460A460029F3
:1034D0004FF0010018BF002B06D102B070BD00BF35
:1034E000022002B070BD00BF002522202563A26229
:1034F000A385656484F842002168E06B44F2796C2E
:1035000044F2D97E44F2FD46C0F6000CC0F6000E2F
:10351000C0F600060431C0E90ACEC0E90C65FDF72B
:10352000A3FC01952068016801914168019101990E
:10353000216929B350E8030F216840F4807041E805
:103540000302EAB1206850E8030F216840F480705C
:1035500041E80302A2B1206850E8030F216840F45B
:10356000807041E803025AB1206850E8030F2168D7
:1035700040F4807041E8030212B12068DAE700BF2E
:10358000206850E8050F216840F0010041E805027D
:10359000E2B1206850E8050F216840F0010041E8E1
:1035A00005029AB1206850E8050F216840F001003B
:1035B00041E8050252B1206850E8050F216840F04B
:1035C000010041E80502002ADAD100BF206850E876
:1035D000050F216840F0400041E80502DAB120689B
:1035E00050E8050F216840F0400041E8050292B123
:1035F000206850E8050F216840F0400041E80502CE
:103600004AB1206850E8050F216840F0400041E8C9
:103610000502002ADAD1002002B070BD90F84230D5
:10362000202B1CBF0220704700294FF0010318BF58
:10363000002A01D1184670470023036381622221CA
:103640008285C285436480F842100169006819B11F
:10365000C16841F48071C1604169002341F00101FA
:103660004161C16841F02001C16018467047000007
:103670002DE9F04140F24831C2F2000188424DD0BC
:1036800040F2D831C2F20001884218BFBDE8F08193
:1036900040F21005C2F200056978E87A40F2A416FB
:1036A000C2F200067218907748B301312028697081
:1036B00025D106F11E044FF00108002761A1204624
:1036C0000322C5F810806F70FCF72CFD40B105F1A6
:1036D0006401204601F0C0FAE8616C6685F8098053
:1036E0007787C6F83670C6F83270C6F82E70C6F8FE
:1036F0002A70C6F82670C6F82270C6F81E7005F14A
:103700000B0440F2D835C2F2000500BF284621461E
:103710000122FFF783FF0028F8D190E040F2100566
:10372000C2F20005A87A297840F2A412C2F200027F
:103730000028505475D001312028297071D140F2F1
:10374000A4140120C2F20004E86000263EA1204635
:1037500003222E70FCF7E6FCE0B121786078A1F13D
:103760003102022A36D8202834D140F2D830C2F2B1
:103770000000214601223223012600F06BF8EE7092
:1037800000F09EF9207840F2E0113038C2F20001DA
:1037900008703DE000F094F940F2DC00C2F2000055
:1037A000067040F2E000C2F20000066040F2D8303D
:1037B000C2F2000025A1012264232E72EE80C5E929
:1037C0000866C5E90A66C5E90C66C5F8026000F03E
:1037D00041F81DE0226843F27413C0F220039A42BC
:1037E00012D0226843F27403C0F220039A420DD033
:1037F00044290DD1A17820290AD1A978012904BF33
:103800003038287104E000BF012000E00020A870DB
:103810000020A083C4E90000C4E90200C4E9040058
:10382000A06105F10A0440F24835C2F2000500BF6C
:10383000284621460122FFF7F1FE0028F8D1BDE815
:10384000F08100BF73200000302000005200000013
:10385000704700002DE9F04381B0044690F8410024
:10386000202840F0B1800F4600294FF0010000F001
:10387000D0801646002A00F0CC804FF000082120AE
:103880001D46C4F8448084F84100FDF75FFCA6841F
:10389000E684A1680646B1F5805F05D1206900285D
:1038A00014BF3846B8460746E18C2068002900F06E
:1038B0008F8005F101090AE047B317F8011B416049
:1038C000E18C0139E184E18C002900F081800168FC
:1038D0000906F1D4B9F1000F0AD0EDB1FDF736FCBD
:1038E000801BA84218D8206801680906F6D5E3E7CE
:1038F00001680906E0D4016809065CBF01685FEA57
:103900000161D9D401680906F2D5D5E738F8021B60
:1039100000276FF35F21D2E7206850E8030F21688A
:1039200020F4D07041E80302BAB3206850E8030FD6
:10393000216820F4D07041E8030272B3206850E897
:10394000030F216820F4D07041E803022AB32068F5
:1039500050E8030F216820F4D07041E80302002AE8
:10396000DAD11AE0206850E8050F216820F0010044
:1039700041E80502DAB1206850E8050F216820F01F
:10398000010041E8050292B1206850E8050F216866
:1039900020F0010041E805024AB1206850E8050F17
:1039A000216820F0010041E80502002ADAD1202038
:1039B00084F8410084F84200002084F8400003208D
:1039C00001B0BDE8F08300BF022001B0BDE8F08384
:1039D0000168490619D4FDB1691C0DD10168490679
:1039E00013D4016849065CBF01685FEA41610CD4E9
:1039F00001684906F2D508E0FDF7A8FB801BA84244
:103A00000AD8206800684006F6D5202084F84100D6
:103A1000002001B0BDE8F083206850E8030F216862
:103A200020F4D07041E80302E2B3206850E8030FAD
:103A3000216820F4D07041E803029AB3206850E86E
:103A4000030F216820F4D07041E8030252B32068CC
:103A500050E8030F216820F4D07041E80302002AE7
:103A6000DAD11FE0206850E8050F216820F001003E
:103A700041E80502002A9AD0206850E8050F216825
:103A800020F0010041E80502002A3FF490AF2068D1
:103A900050E8050F216820F0010041E80502002AE6
:103AA0003FF485AF206850E8050F216820F0010041
:103AB00041E80502002AD5D179E7000070470000EF
:103AC00040F2E010C2F200000021017070470000D7
:103AD000FEE7000080B582B041F21400C4F202009B
:103AE0000168002241F0010101600068002100F03E
:103AF0000100019001981020FDF7A6FB102002B0F4
:103B0000BDE88040FDF790BB2DE9F04F85B041F254
:103B10001800C4F20200016840F6000841F01001EC
:103B200001600168C4F2010801F0100101910199DE
:103B3000016808F5006741F020010160016800227A
:103B400001F020010191019901684FF4604641F0B4
:103B5000040101600168002501F00401019101994F
:103B6000016841F00801016000684FF4604100F015
:103B70000800019001983846FDF7E2FA404641F20C
:103B80003011002241F2301AFDF7DAFA08F58064AC
:103B9000204633210022FDF7D3FA019601AE4FF003
:103BA000010B4FF0020938463146CDE902B5CDF898
:103BB0001090FDF7BBF90320CDE9010540463146E1
:103BC0000395FDF7B3F940463146CDE901ABCDE9A8
:103BD0000359FDF7ABF93320CDE9010B20463146FF
:103BE000CDE90359FDF7A2F94FF48050CDE9010565
:103BF000204631460395FDF799F905B0BDE8F08FF1
:103C000070B598B040F60044C4F2010440F2282098
:103C1000002104F50052C2F20000472340F2E736CB
:103C200080251191CDE90F11CDE90D11CDE90B11D1
:103C3000CDE90911CDE90711CDE90511CDE9031150
:103C4000CDE90111C0E90023C0E90216C0E9041161
:103C50008561FEF7D7FB002818BFFCF76DFF40F227
:103C60002820C2F2000010A9FDF74CFE002818BF62
:103C7000FCF762FF602009900020CDE90A00CDE941
:103C80000C00CDE90E0040F22820C2F2000009A984
:103C90000022FEF7B5FA002818BFFCF74DFF40F2EE
:103CA0002820C2F2000009A90422FEF7A9FA002880
:103CB00018BFFCF741FF40F22820C2F2000009A91A
:103CC0000822FEF79DFA002818BFFCF735FF40F2E6
:103CD0002820C2F2000009A90C22FEF791FA002860
:103CE00018BFFCF729FF40F228254FF40050C2F21C
:103CF00000050026069001A928460596CDE9036631
:103D0000CDE901660896FDF7D7FD002818BFFCF73E
:103D100013FF286840F60001C4F20001884217969C
:103D2000CDE9156614962DD042F60041C4F201018A
:103D300088423FD141F21800C4F202000168022516
:103D400041F008010160016801F008011391139925
:103D5000016841F004010160006814A900F004004A
:103D6000139013984FF460401490204615951795C2
:103D7000FDF7DCF84FF40060CDE91405A4F580648C
:103D800012E000BF41F21800C4F20200016841F0E5
:103D900008010160006800F00800139013984FF4C8
:103DA00070701490022015900220179014A92046DC
:103DB000FDF7BCF818B070BD80B58CB040F2702033
:103DC0000021C2F200004FF080424FF6FF73C0E9BD
:103DD00000210322C0E90213CDE9032101220523BA
:103DE000CDE9001101618161CDE90521CDE90731FE
:103DF000CDE9092103A90B93FDF7C6FF002818BFE1
:103E0000FCF79AFE40F27020C2F200006946FDF70E
:103E100079FD002818BFFCF78FFE0CB080BD0000B4
:103E200080B58CB040F2B82040F200420021C2F2CE
:103E30000000C4F200024FF6FF73C0E90021032224
:103E4000C0E90213CDE9032101220523CDE90011C8
:103E500001618161CDE90521CDE90731CDE9092174
:103E600003A90B93FDF790FF002818BFFCF764FE31
:103E700040F2B820C2F200006946FDF743FD002879
:103E800018BFFCF759FE0CB080BD0000B0B594B06F
:103E900040F6004440F20030C4F201040021C2F2B6
:103EA000000040F2E7350E91CDE90C110991CDE902
:103EB0000711CDE90511CDE90311CDE90111A4F5F3
:103EC00082328F23C0E9021501618021C0E90023FD
:103ED0008161FDF7B9FD002818BFFCF72DFE4FF4F6
:103EE00080500B9040F20030C2F200000BA9FDF7A9
:103EF0007DFE002818BFFCF71FFE40F20030C2F222
:103F00000000FEF77FFA002818BFFCF715FE40F20C
:103F100000300025C2F2000008A9CDE90855FDF7E0
:103F2000F1FC002818BFFCF707FE6020CDE9010571
:103F300040F20030C2F2000001A90022039505956D
:103F4000FEF75EF9002818BFFCF7F6FD40F20030DE
:103F5000C2F2000001A90422FEF752F9002818BF9E
:103F6000FCF7EAFD40F20030C2F2000001A908228D
:103F7000FEF746F9002818BFFCF7DEFD40F20035D9
:103F8000C2F2000501A928460C22FEF739F90028E3
:103F900018BFFCF7D1FD286840F60001C4F200010B
:103FA00088424FF00001CDE91211CDE910112DD05A
:103FB00042F60041C4F2010188423FD141F21800AB
:103FC000C4F202000168022541F0080101600168A5
:103FD00001F008010F910F99016841F0040101609F
:103FE000006810A900F004000F900F984FF4604093
:103FF0001090204611951395FCF798FF4FF4006040
:10400000CDE91005A4F5806412E000BF41F218006C
:10401000C4F20200016841F008010160006800F08C
:1040200008000F900F984FF47070109002201190BC
:104030000220139010A92046FCF778FF14B0B0BD01
:1040400080B540F2483043F60001C2F20000C4F2ED
:10405000010100234FF00C0C4FF4E13280E80E0018
:10406000C0E90333C0E905C3C361FFF7DFF80028E7
:1040700008BF80BDBDE88040FCF75EBD80B540F262
:10408000903044F20041C2F20000C4F2000100236B
:104090004FF00C0C4FF4E13280E80E00C0E903331E
:1040A000C0E905C3C361FFF7C1F8002808BF80BDA0
:1040B000BDE88040FCF740BD80B540F2D83044F602
:1040C0000001C2F20000C4F2000100234FF00C0C0A
:1040D0004FF4E13280E80E00C0E90333C0E905C3C4
:1040E000C361FFF7A3F8002808BF80BDBDE880408A
:1040F000FCF722BDFEE70000FEE700002DE9F047D7
:1041000040F24419C2F200094F46014657F8300FF9
:1041100040F27802C2F2000217607960FCF761F8A1
:10412000796A0446B860FCF70AF8D7E90561D7F860
:104130000CA0D7F81C807862FCF759F80546304689
:104140002146FCF754F82946FBF7F9FF06462046BE
:104150005146FCF746F801464046FCF748F8314620
:10416000FBF7EDFFBE6A054631463862FC60FCF79E
:10417000F0F830B9D9F85C6028463146FCF7DBF836
:1041800010B93546C9F850602846BDE8F0870000F0
:104190002DE9F04740F27807C2F20007914607F197
:1041A0003402B9F1010F08BF3A1D3A604FF03402F2
:1041B00008BF0422B8503822B9F1010F08BF082205
:1041C000B950FCF70EF882463C205824B9F1010F93
:1041D00008BF0C2008BF2824395947F800A05046D2
:1041E000FBF7ADFF07F148013851B9F1010F08BFE6
:1041F00007F11801D1F8008007F14C0108BF07F161
:104200001C010968FBF7F3FF064640465146FBF7E1
:10421000EEFF3146FBF793FF07F15001B9F1010FB3
:1042200008BF07F120014FF040050E6808BF1025B8
:10423000795980465046FBF7D4FF01463046FBF7DC
:10424000D6FF4146FBF77BFF54240646B9F1010F28
:1042500008BF2424385107F15C0047F805A0B9F1E4
:10426000010F08BF07F12C00056830462946FCF70E
:1042700070F860B907F16000B9F1010F08BF07F1EC
:104280003000056830462946FCF755F808B92E4637
:104290003D513046BDE8F0872DE9F04381B040F252
:1042A000E4040D46C2F2000440F278012746C2F24F
:1042B00000019046012A18BF30370F60FCF757F80D
:1042C000064638602846FCF752F801463420B8F11B
:1042D000010F08BF042021503046FBF782FF8146C2
:1042E00038205426B8F1010F08BF082008BF242643
:1042F000A15944F800904846FBF721FFFCF75EF80F
:1043000045F6294242F6F503CCF28F22C3F6EC7350
:10431000FBF79FFFFCF765F80146A05104F144004C
:10432000B8F1010F08BF04F11400066804F1480059
:1043300008BF04F118000068FBF759FF0746304634
:104340004946FBF754FF3946FBF7F9FE04F14C01EF
:10435000B8F1010F08BF04F11C014FF03C050E68D5
:1043600008BF0C25615907464846FBF73AFF01464E
:104370003046FBF73CFF3946FBF7E1FE5027064687
:10438000B8F1010F08BF2027E05104F1580044F8AC
:104390000590B8F1010F08BF04F128000568304608
:1043A0002946FBF7D6FF60B904F15C00B8F1010FB4
:1043B00008BF04F12C00056830462946FBF7BBFF17
:1043C00008B92E46E551304601B0BDE8F083000043
:1043D0007047000070470000B0B540F2DC04C2F244
:1043E00000042178032958D8DFE801F0023454583A
:1043F000012852D140F2D830C2F2000036A1012289
:1044000064230125FFF726FA40F21500C2F20000EE
:10441000002101704FF47A70FCF774FD40F2170030
:10442000C2F20000057040F23000C2F20000192113
:10443000016040F23400C2F2000001604FF4FA70F3
:10444000FCF760FD40F21800C2F200000570257014
:10445000B0BD00BF022820D140F23000C2F20000FF
:104460000021016040F23400C2F20000016040F21D
:104470001800C2F20000017040F21700C2F2000002
:1044800001704FF47A70FCF73DFD14200221C4E95D
:104490000010B0BD6068002808DDB0BD032802BF71
:1044A0000020A4F80100E070B0BD00BF60781421C6
:1044B000616048B1A07858B1E078002818BFB0BD5D
:1044C0000120E070B0BD00BF01206070B0BD00BF32
:1044D0000120A070B0BD00BF72000000FCF73CBE20
:1044E0007047000040F20030C2F20000FDF7CEBD80
:1044F000406A0021C185C184FEF7E4BB406A0168BF
:104500004A6990F84130212B2ED112F080022BD035
:104510000022C28451E8031F026821F0C00142E872
:104520000313EBB1016851E8031F026821F0C001D9
:1045300042E80313A3B1016851E8031F026821F0A8
:10454000C00142E803135BB1016851E8031F026830
:1045500021F0C00142E8031313B10168DAE700BF9C
:10456000202180F8411001684A6990F84230222BDE
:104570007CD112F0400279D00022C28551E8031F9D
:10458000026821F4907142E80313C3B3016851E853
:10459000031F026821F4907142E803137BB30168A2
:1045A00051E8031F026821F4907142E8031333B30A
:1045B000016851E8031F026821F4907142E8031377
:1045C000EBB10168DAE700BF016851E8051F026836
:1045D00021F0010142E80513DBB1016851E8051F34
:1045E000026821F0010142E8051393B1016851E826
:1045F000051F026821F0010142E805134BB1016873
:1046000051E8051F026821F0010142E80513002B63
:10461000DAD1016B012924D1016851E8031F026836
:1046200021F0100142E80313DBB1016851E8031FD8
:10463000026821F0100142E8031393B1016851E8C8
:10464000031F026821F0100142E803134BB1016817
:1046500051E8031F026821F0100142E80313002B08
:10466000DAD1202180F8421000210163416C41F031
:1046700010014164FEF726BB0168406A096889069B
:1046800000F19F800021C185016851E8031F026885
:1046900021F4807142E80313E3B1016851E8031F7C
:1046A000026821F4807142E803139BB1016851E86C
:1046B000031F026821F4807142E8031353B10168BB
:1046C00051E8031F026821F4807142E80313002BB4
:1046D000DAD100BF016851E8051F026821F001012D
:1046E00042E80513BBB3016851E8051F026821F0D9
:1046F000010142E8051373B3016851E8051F026820
:1047000021F0010142E805132BB3016851E8051FB0
:10471000026821F0010142E80513002BDAD11AE00A
:10472000016851E8051F026821F0400142E80513C5
:10473000DBB1016851E8051F026821F0400142E841
:10474000051393B1016851E8051F026821F040018B
:1047500042E805134BB1016851E8051F026821F0DA
:10476000400142E80513002BDAD1202180F84210E5
:10477000016B012925D100BF016851E8031F0268C0
:1047800021F0100142E80313DBB1016851E8031F77
:10479000026821F0100142E8031393B1016851E867
:1047A000031F026821F0100142E803134BB10168B6
:1047B00051E8031F026821F0100142E80313002BA7
:1047C000DAD100214163016B012918BFFEF750BF08
:1047D000818DFEF763B90000406A01214163016BDE
:1047E000012918BFFFF734B8818D4908FEF756B983
:1047F00081B090F84210222920D18368B3F5805F00
:1048000008D10169002965D000F128010A68036810
:104810005B680AE0014651F8282F13B90369002BA1
:10482000F5D003685B6803F07F0313700A680132F8
:104830000A60C18D01390A04C18501D001B07047F9
:104840000168CA6822F02002CA60CA6822F4807235
:10485000CA604A6922F001024A61202280F842209F
:1048600000224263036B012B3ED1026351E8031F18
:10487000026821F0100142E803130168DBB151E83E
:10488000031F026821F0100142E80313016893B18D
:1048900051E8031F026821F0100142E80313016888
:1048A0004BB151E8031F026821F0100142E80313E5
:1048B0000168002BDAD10A68D20606D500220092E0
:1048C0000A680092496800910099818D01B0FEF755
:1048D000E5B800BF0168826A49686FF35F2122F87A
:1048E000021B8262A5E700BF01B0FEF7C1BE000057
:1048F00040F24830C2F20000FEF7E6B910B582B0CF
:1049000040F29030C2F2000000680168C90624D568
:1049100040F22041C2F20001012200240A700194F9
:104920000168019140680190019840F29030C2F214
:104930000000FEF7B5F840F2E410C2F20000006893
:1049400040F220514068C2F20001C043087040F2BA
:104950002141C0B2C2F200010C5040F2483040F296
:104960002141C2F20000C2F20001FF22FEF7A6FDC3
:1049700040F29030C2F2000002B0BDE81040FEF7F5
:10498000A3B9000040F2D830C2F20000FEF79CB993
:10499000FEE7000080B582B0019040F24830C2F2DC
:1049A000000001A901224FF6FF73FEF753FF0198A3
:1049B00002B080BD90B0FCF7DDFB00240120CDE902
:1049C0000B44CDE9094406900A904FF4E0104FF4EF
:1049D000803102250F9006A8CDE90714CDE90D51CD
:1049E000FCF776FD20B1EFF3108072B6FEE700BF52
:1049F0000F20CDE901054FF48060CDE9040401A842
:104A000002210394FCF75CFC20B1EFF3108072B636
:104A1000FEE700BFFFF778F8FFF75CF8FFF7F0F864
:104A2000FFF7CAF9FFF7FCF9FFF730FAFFF708FBC9
:104A3000FFF724FBFFF740FB40F27020C2F20000BA
:104A40003C21FDF7C3FA40F2B820C2F200003C213D
:104A5000FDF7BCFA40F20034C2F200042046FDF734
:104A60008DF8204600210026FDF75EFD204604213A
:104A7000FDF75AFD20460821FDF756FD20460C2182
:104A8000FDF752FD40F22825C2F20005284600211C
:104A9000FCF776FF28460421FCF772FF2846082120
:104AA000FCF76EFF286840F2100746638663C66312
:104AB00020684FF47A71C2F2000741638163C163D9
:104AC000016407F10A0440F24830C2F200002146B6
:104AD0000122FEF7A3FD78B140F2483644A5C2F2A8
:104AE000000600BF284600F0A5F830462146012206
:104AF000FEF794FD0028F5D107F10B0440F2D83001
:104B0000C2F2000021460122FEF788FD80B140F28A
:104B1000D8360FF2E808C2F2000600BF404600F0A7
:104B200089F8304621460122FEF778FD0028F5D1AC
:104B300040F2E0094FF0F00A6FF0EF0540F2011487
:104B400000264FF4C87BC2F200094FF0010820E0B4
:104B50000220F8714FF4FA60C7E908BBFCF7D2F9FC
:104B60004FF4FA60C7E90866FCF7CCF94FF67060BD
:104B7000CFF6FF70C7E908004FF4FA60FCF7C2F9FE
:104B80004FF4FA60C7E90866FCF7BCF90120FCF7AE
:104B9000B9F9B87801280DD13879032812D0012845
:104BA000D6D00028F2D1A7F80760C7E908667E7161
:104BB000ECE700BFD9F800000128A4BF0138C9F80C
:104BC0000000E3E74FF4FA60C7E90AA5A7F805403B
:104BD00087F80780FCF796F94FF4FA60C7E90A5A9C
:104BE000A7F8054087F80780FCF78CF9BE80CDE771
:104BF000757361727431206F6B0D00007573617293
:104C00007433206F6B0D000002E008C8121F08C14A
:104C1000002AFAD170477047002001E001C1121F3D
:104C2000002AFBD1704730380A2801D20120704792
:104C30000020704710B5044601E0FFF7ABFE14F802
:104C4000010B04490028F8D1BDE810400A20FFF705
:104C5000A1BE00000000002008B50A460021009116
:104C600001466846FBF7D9FB009808BDDDDDDDDDB8
:104C7000DCBBBBDDDDDDDDDDDDDDDDDD98888888ED
:104C80008888888877777777778888888555555694
:104C900066666666666666666668888883333332EB
:104CA00022222222222222222228888D0000000095
:104CB00000000000010203040607080900000000CC
:104CC00001020304010202030405060708090A0B96
:104CD0000C0D0E0F10100000F84C00080000002012
:104CE00010000000084C0008084D000810000020CB
:104CF00018090000184C0008000000000100000026
:084D0000100000000024F40083
:04000005080000ED02
:00000001FF
