:020000040800F2
:10000000C806002001010008F12B000805260008A1
:10001000ED2B000875010008412D000800000000CC
:10002000000000000000000000000000F92B0008A4
:100030007901000800000000F52B0008FD2B0008E6
:100040001B0100081B0100081B0100081B01000820
:100050001B0100081B0100081B0100081B01000810
:100060001B0100081B0100081B0100081B01000800
:100070001B0100081B0100081B0100081B010008F0
:100080001B0100081B0100081B0100081B010008E0
:100090001B0100081B0100081B0100081B010008D0
:1000A0001B0100081B0100081B0100081B010008C0
:1000B0001B0100081B010008052C00081B0100089B
:1000C0001B0100081B0100081B0100081B010008A0
:1000D0001B0100081D2D0008292D0008352D0008E2
:1000E0001B0100081B0100081B010008DFF80CD0F1
:1000F00000F02EF800480047652D0008C8060020D3
:100100000648804706480047FEE7FEE7FEE7FEE7B1
:10011000FEE7FEE7FEE7FEE7FEE7FEE7012C00084C
:10012000ED00000830B50B460146002020220124D6
:1001300009E021FA02F59D4205D303FA02F5491BB5
:1001400004FA02F52844151EA2F10102F1DC30BDCB
:10015000064C074D06E0E06840F0010394E8070014
:1001600098471034AC42F6D3FFF7C4FF283100089B
:1001700048310008FEE7000070470000EFF31080F0
:1001800072B600BFFEE70000014690F82100022889
:1001900016D10868D1E90FC3026822F00E0202608E
:1001A000026822F001020260012000FA03F2CCF89A
:1001B000042081F821000020002281F820207047CF
:1001C000042088630120002281F82020704700006D
:1001D00080B590F82110022924D10268116821F01D
:1001E0000E0111602F211368C4F202018A4240F20D
:1001F0000401C4F2020123F00103136016DD302371
:10020000C4F202039A421DD04423C4F202039A426C
:100210001CD05823C4F202039A421DD14FF48033FC
:1002200022E000BF04218163012080BD0823C4F2C5
:1002300002039A420ED01C23C4F202039A420BD14D
:10024000102311E04FF480730EE000BF4FF4805391
:100250000AE000BF012307E001F1680C4FF0807352
:10026000624508BF4FF480130B60012180F8211014
:10027000426B002180F820100AB190470021084607
:1002800080BD00002DE9F04F82B041F20042C4F27F
:1002900001020E680423904208BF0323002E00933E
:1002A00000F0F68040F2004C4FF6FF7E0022C4F2D0
:1002B000010C0124C1F2100E4FF0000A4FF00009AA
:1002C00047E000BF012502F00C040F27A7402BEAEE
:1002D000070705FA04F43C4343F82640D1F804B07C
:1002E00040F20C455FEACB23DCF8083054BF23EA28
:1002F000080343EA0803C4F20105CCF808302B6870
:100300005FEA8B2454BF23EA080343EA08032B6007
:100310005FEA8B34DCF8043054BF23EA080343EA75
:1003200008035FEACB34CCF80430DCF800304FF03F
:10033000010454BF23EA080343EA0803CCF8003061
:100340000E680AF1010A36FA0AF302F1040200F01B
:100350009F8004FA0AF816EA080FF1D04B6873453B
:1003600012DC122B56D8DFE803F0350B4549555502
:1003700055555555555555555555554D510000BF79
:10038000D1F80C9046E000BF4FF6FF75C1F2210591
:10039000AB420FDC0025C1F21105AB421AD000259B
:1003A000C1F21205AB4215D00025C1F22105AB42C6
:1003B00010D02FE00025C1F22205AB420AD0002563
:1003C000C1F23105AB4205D00025C1F23205AB4286
:1003D00020D100BF8B684BB1012B14BFC0F8148033
:1003E000C0F810804FF0080914E000BF4FF0040976
:1003F00010E000BFCB6803F108090BE04FF00009E3
:1004000008E000BFCB6803F1040903E0CB6803F107
:100410000C0900BF13460546BAF1080F24BF203B64
:1004200004352E680F279F40BE4309FA03F3334378
:100430002B60CB79DB067FF583AF41F21804C4F261
:10044000020423684FEA9A0643F0010323602368FD
:1004500040F6000403F001030193019BACF57E73A9
:1004600053F826B0C4F20104A0420FD040F6004475
:10047000C4F20104A0423FF425AF41F20004C4F2EB
:100480000104009DA04208BF02251CE700251AE7D1
:1004900002B0BDE8F08F0000002A08BF0904016126
:1004A0007047000040F2C420C2F2000000687047AC
:1004B00040F2040040F2C421C2F20000C2F2000186
:1004C00000780A68104408607047000080B542F266
:1004D0000000C4F20200016841F010010160032035
:1004E00000F08AF80F2000F005F800F027F800204F
:1004F00080BD000070B540F20406C2F2000640F272
:100500000C013278C2F200014FF47A730968B3FB30
:10051000F2F20446B1FBF2F1084600F05FFB0F2C4B
:100520004FF0010508D838B94FF0FF3021460022BE
:10053000002500F035F87460284670BD82B041F2A5
:100540001800C4F202000168022241F001010160BA
:10055000016801F0010101910199416841F0805168
:100560004160406800F08050009000980420C4F280
:100570000100016862F31A61016002B07047000077
:10058000002848BF704700F01F01012202FA01F164
:100590004EF200124009CEF2000242F820107047DD
:1005A00010B54EF60C5CCEF2000CDCF80030C3F354
:1005B000022E8EF00704042C28BF0424BEF103038E
:1005C0004FF0FF3E0EFA04F438BF0023A1439940D8
:1005D0000EFA03F39A43114300F00F02043A624407
:1005E00009010C3200F16043B0F1FF3FC8BF03F5D1
:1005F0006442117010BD00004EF60C51CEF20001A5
:100600000A684FF6FF031A4060F30A2242F0806046
:1006100040F0FD70086070472DE9F04381B000287C
:1006200000F0858042F20008C4F202080446D8F8BF
:1006300000000D4600F0070088420CD2D8F80000F8
:1006400020F007002843C8F80000D8F8000000F0A8
:100650000700A8426BD1206841F204098107C4F267
:10066000020917D5410705D5D9F8001041F4E0611A
:10067000C9F80010010705D5D9F8001041F4605100
:10068000C9F80010D9F80010A26821F0F001114358
:10069000C9F80010C00741D1D8F8000000F00700E9
:1006A000A8420CD9D8F8000020F007002843C8F869
:1006B0000000D8F8000000F00700A84237D12068F9
:1006C000410707D5D9F80010E26821F4E061114331
:1006D000C9F80010000708D5D9F80000216920F4F6
:1006E000605040EAC100C9F80000D9F8002002F0CB
:1006F0000C00082841F20020C0F27A0050D143F2E9
:100700001613C2F38341C0F60003595CD2033BD4F5
:1007100040F60010C0F23D00484341E06068022806
:100720000AD001282AD159F8041C890308D40120D1
:1007300001B0BDE8F08300BF59F8041C8901F6D56B
:10074000D9F8001021F003010843C9F80000FFF7B1
:10075000A9FE064641F28837D9F80000616800F02A
:100760000C00B0EB810F97D0FFF79CFE801BB842C6
:10077000F2D9032001B0BDE8F08300BF59F8041C92
:100780008907D4D5DCE700BFD9F8002043F2141361
:10079000C2F34042C0F600039A5C4843B0FBF2F05B
:1007A000D9F8001043F2FC02C1F30311C0F60002B5
:1007B000515C40F20C0220FA01F140F20800C2F252
:1007C00000000068C2F200021160FFF793FE0020F3
:1007D00001B0BDE8F083000040F20C0041F20401DA
:1007E000C2F20000C4F202010068096843F20C1270
:1007F000C1F30221C0F60002515CC84070470000FE
:1008000040F20C0041F20401C2F20000C4F2020105
:100810000068096843F20C12C1F3C221C0F600025D
:10082000515CC840704700002DE9F04182B00028BB
:1008300068D00446007841F20006C007C4F2020600
:1008400025D0706800F00C0004281BD0706800F000
:100850000C00082802D17068C00313D46068002817
:1008600000F06881B0F5A02F00F07C81B0F5803FEA
:1008700000F07C81306820F480303060306820F4F3
:10088000802076E13068800301D56068D0B320789D
:10089000800718D5706810F00C0F07D0706800F052
:1008A0000C0008286ED17068C0036BD430688007D4
:1008B00002D52069012825D13068616920F0F8004F
:1008C00040EAC1003060207800071FD4207840073C
:1008D00032D4E56995B1706800F00C00082840F04A
:1008E0008F80012D0ED07068216A00F480328A4218
:1008F00008D1616A00F47010884203D1002002B070
:10090000BDE8F081012002B0BDE8F081A0690028B7
:1009100062D00020C4F242200121C0F88014FFF709
:10092000C1FD0546706A800700F18C80FFF7BAFDB3
:10093000401B0228F6D92AE1F06910F0805808D14E
:10094000F06940F08050F061F06900F08050009054
:10095000009847F20007C4F200073868C00529D4A0
:10096000386840F480703860FFF79CFD054600BF92
:100970003868C0051ED4FFF795FD401B6428F7D9E1
:1009800005E100BF2069002840F20000C4F24220C7
:1009900000F0828001210160FFF784FD054600BF61
:1009A000306880073FF588AFFFF77CFD401B0228C9
:1009B000F6D9ECE0E068002800F08080052800F01F
:1009C0009780012800F09880306A20F001003062A2
:1009D000306A20F0040092E00020C4F2422000219E
:1009E000C0F88014FFF75EFD054600BF706A8007FF
:1009F0007FF56CAFFFF756FD401B0228F6D9C6E025
:100A00000027C4F2422700203866FFF74BFD022D75
:100A100005460BD13068800140F1BE80FFF742FDF2
:100A2000401B02284FF00300F4D968E730688001CA
:100A30007FF564AFFFF736FD401B02284FF003003F
:100A4000F4D95CE740F20C00C2F20000006844F602
:100A5000D351C1F26201A0FB0101480A019000BF1D
:100A600000BF0198411E002801913FF42FAF00BF45
:100A70000198411E002801913FF428AF00BF019862
:100A8000411E002801913FF421AF00BF0198411E93
:100A900000280191E4D119E700210160FFF702FD70
:100AA000054600BF306880077FF50DAFFFF7FAFC01
:100AB000401B02284FF00300F4D920E7306A20F0F1
:100AC00001003062306A20F004003062FFF7EAFC77
:100AD000054641F2883700BF306A800720D5FFF70E
:100AE000E1FC401BB8424FF00300F5D907E700BF17
:100AF000306A40F004003062306A40F00100306239
:100B0000FFF7D0FC054641F2883700BF306A800706
:100B100006D4FFF7C7FC401BB842F7D937E000BF47
:100B2000B8F1000F7FF4D5AEF06920F08050F0618D
:100B3000CFE600BF306820F480303060306820F4A9
:100B400080203060FFF7AEFC054600BF30688003B0
:100B50007FF59DAEFFF7A6FC401B64284FF0030015
:100B6000F4D9CCE6306840F480203060306840F43E
:100B700080303060FFF796FC054600BF3068800388
:100B80003FF585AEFFF78EFC401B6428F6D90320A5
:100B900002B0BDE8F08100BF206AB0F5803F05D10A
:100BA0007168A26821F40031114371607168626A52
:100BB00021F4741110430843706001203866FFF778
:100BC00071FC0446306880013FF598AEFFF76AFC7F
:100BD000001B02284FF00300F4D990E6411E0020CC
:100BE000B0EB116F1CBF012070474EF21002CEF225
:100BF000000251604EF62351CEF20001F0230B703B
:100C00000721906011607047704700007047000036
:100C1000B0B590F83C20012A04BF0220B0BD01F11C
:100C200008053CCDD1E900CE23F47C5322F4705268
:100C30001A432EF4F0431A432CF4E0431A4324F4ED
:100C4000C0431A432A43C96922F48042036811430E
:100C50005964002180F83C100846B0BD10B590F8EA
:100C60003C20012A4FF0020233D080F83D20026878
:100C7000D2F804E0D2F808C00C682EF070032343C9
:100C800040F2FF74C4F20004A24253600ADCB2F1E5
:100C9000804F13D040F20043C4F200039A420DD0BB
:100CA00011E000BF42F60043C4F201039A4205D0AE
:100CB00040F60003C4F200039A4204D149682CF0C4
:100CC0008003194391600121002280F83D1080F8D3
:100CD0003C20104610BD000041B1082910D0042965
:100CE00014BF00F1450200F143020BE090F84220EE
:100CF000012A1CBF01207047022280F8422013E025
:100D000000F144021278012A1CBF01207047022220
:100D1000082907D0042914BF80F8452080F8432013
:100D200002E000BF80F84420006801F01F010422A7
:100D3000036A02FA01F123EA01020262026A114324
:100D40000162416C40F2FF72C4F2000241F40041C2
:100D5000904241640ADCB0F1804F13D040F2004170
:100D6000C4F2000188420DD013E000BF42F60041FA
:100D7000C4F20101884205D040F60001C4F200012E
:100D8000884206D1816801F00701062904BF0020CE
:100D90007047016841F001010160002070470000C8
:100DA000002804BF0120704710B5044690F83D00AC
:100DB00028B9002084F83C00204600F067F80220A3
:100DC00084F83D00206840F2FF730268C4F200031B
:100DD00042F6004C9842C4F2010C15DCB0F1804F91
:100DE0001AD040F20041C4F20001884214D0984267
:100DF00018DCB0F1804F1DD040F20041C4F2000178
:100E0000884217D01AE000BF604505D040F60001C7
:100E1000C4F200018842EAD1A16822F070020A43BC
:100E20009842E6DD604505D040F60001C4F20001BD
:100E3000884203D1216922F440720A43A36922F057
:100E40008001D4F804E0E268194360450160C262A1
:100E5000C0F828E002D16169CCF83010012141616D
:100E6000002084F8461084F83E1084F83F1084F87F
:100E7000401084F8411084F8421084F8431084F83C
:100E8000441084F8451084F83D1010BD80B582B040
:100E9000006840F60001C4F2000188421CBF02B0A5
:100EA00080BD41F21C00C4F202000168002241F042
:100EB000040101600068012100F004000190019824
:100EC0001E20FFF76DFB1E2002B0BDE88040FFF73B
:100ED00057BB000090F83D1001291CBF012070474E
:100EE000022180F83D10006840F2FF72C168C4F230
:100EF0000002904241F00101C16009DCB0F1804F75
:100F000012D040F20041C4F2000188420CD012E03D
:100F100042F60041C4F20101884205D040F60001CA
:100F2000C4F20001884206D1816801F00701062958
:100F300004BF00207047016841F0010101600020FA
:100F40007047000080B590F83C20012A4FF0020263
:100F500000F0C28080F83D20D0F800C04FF67772D4
:100F6000DCF8083023EA0202CCF808200B684F2B8B
:100F700028DC1F2B44DD202B45D0302B43D0402BC9
:100F800040F0AC80D1F804E0C968DCF82030DCF82F
:100F9000202022F00102CCF82020DCF8182022F0DA
:100FA000F00242EA011123F00A0242EA0E02CCF8F2
:100FB0001810CCF82020DCF8081041F0470121F08F
:100FC000300180E06F2B27DDB3F5005F48D0B3F52B
:100FD000805F7AD0702B40F08180D1E901E3C9684D
:100FE000DCF8082043EA0E0322F47F4243EA0121A1
:100FF0001143CCF80810DCF8081041F0770162E0EA
:101000000BB1102B6AD1DCF8081021F070011943E4
:1010100041F0070157E000BF502B35D0602B5DD168
:10102000D1F804E0C968DCF82030DCF8202022F098
:101030001002CCF82020DCF8182022F4704242EA9A
:10104000013123F0A00242EA0E12CCF81810CCF8BD
:101050002020DCF8081041F0670121F0100132E097
:10106000D1E901E3C968DCF8082043EA0E0322F461
:101070007F4243EA01211143CCF80810DCF8081044
:1010800041F480411FE000BFD1F804E0C968DCF8FA
:101090002030DCF8202022F00102CCF82020DCF8FF
:1010A000182022F0F00242EA011123F00A0242EA7B
:1010B0000E02CCF81810CCF82020DCF8081041F013
:1010C000570121F02001CCF808100022012180F8FE
:1010D0003D10002180F83C10104680BD0122F5E74C
:1010E000002804BF012070472DE9F04F81B004466D
:1010F00090F83D000D4628B9002084F83C002046B9
:1011000000F094F8022084F83D00206844F20702C1
:10111000816840F2FF73914381600268C4F200036A
:1011200042F6004C9842C4F2010C15DCB0F1804F3D
:101130001AD040F20041C4F20001884214D0984213
:1011400018DCB0F1804F1DD040F20041C4F2000124
:10115000884217D01AE000BF604505D040F6000174
:10116000C4F200018842EAD1A16822F070020A4369
:101170009842E6DD604505D040F60001C4F200016A
:10118000884203D1216922F440720A43A36922F004
:101190008001D4F804E0E268194360450160C2624E
:1011A000C0F828E002D16169CCF830104FF0010995
:1011B000C0F814908268D0F818E0D0F820C0D5E9C3
:1011C0000038D5E9027B43EA020AAB694FF6FF71AA
:1011D0002EEA010E47EA03234FF6FC47BB43D5E94D
:1011E00007724BEA0E012E69194341EA072141EAD1
:1011F000061141EA02312CF022026B6942EA080230
:1012000042EA0312C0F808A08161026284F84690A5
:1012100084F83E9084F83F9084F8429084F843909C
:1012200084F83D90002001B0BDE8F08F70B586B025
:10123000006840F20042C4F2000200219042059191
:10124000CDE90311029149D0B0F1804F67D141F24D
:101250001800C4F20200416840F6000441F00101A8
:1012600041604168C4F2010401F00101019101995A
:10127000016802AD41F0040101600168002601F03F
:10128000040101910199016841F0080101600068C1
:10129000294600F00800019001984FF400400290A8
:1012A0002046CDE90366FEF7EDFF0820CDE90206F2
:1012B00004F5806029460496FEF7E4FF0420C4F29A
:1012C000010001684FF6FF42CFF6FF02114041F0E6
:1012D000E06141F48071016006B070BD41F2180018
:1012E000C4F20200426842F002024260426802F028
:1012F00002020192019A026842F004020260006850
:1013000000F0040001900198C020CDE9020140F6F0
:1013100000000491C4F2010002A9FEF7B3FF06B079
:1013200070BD000080B590F83E2090F83F3090F8F6
:1013300042E090F843C004290AD0B9B9012A4FF01D
:10134000010208BFBEF1010F34D0104680BD00BFBE
:10135000012B4FF0010208BFBCF1010FF5D10221B2
:1013600080F83F1080F8431000681EE0012A4FF01B
:10137000010208BF012BE8D1BEF1010FE5D1BCF19C
:10138000010FE2D1022280F83E2080F83F2080F851
:10139000422080F8432091B10068016A21F00101E8
:1013A0000162016A41F00101016210216FF0100237
:1013B00009E000BF022180F83E1080F8421000686A
:1013C00001216FF00102036A1A400262026A1143AE
:1013D00001620168002241F001010160104680BDF8
:1013E0007047000010B5016804460869800744BFD3
:1013F000C8685FEA807039D40869400744BFC8688C
:101400005FEA40703ED40869000744BFC8685FEADD
:10141000007045D40869C00644BFC8685FEAC06070
:101420004AD40869C0071CBFC8685FEAC07051D1C0
:101430000869000644BFC8685FEA006052D40869C2
:10144000400644BFC8685FEA406053D4086980061C
:1014500046BFC8685FEA806010BD6FF0200220467A
:101460000A61BDE81040FFF7D1BB00BF6FF002007A
:101470000861012020778869800743D02046FFF764
:10148000AFFF45E06FF00400086102202077886913
:1014900010F4407F40D02046FFF7A2FF42E000BF9B
:1014A0006FF00800086104202077C86980073DD0EC
:1014B0002046FFF795FF3FE06FF01000086108201D
:1014C0002077C86910F4407F3AD02046FFF788FFA4
:1014D0003CE000BF6FF001000861204600F040FAD8
:1014E0002168A5E76FF0800008612046FFF78CFBBC
:1014F0002168A4E76FF040000861204600F042FA3E
:101500002168A3E7204600F025F8204600F0B6F950
:101510002168002020776FE7204600F01BF8204666
:1015200000F0ACF92168002020776CE7204600F03D
:1015300011F8204600F0A2F921680020207769E721
:10154000204600F007F8204600F098F921680020B6
:10155000207766E7704700002DE9F04390F83C30B3
:10156000012B04BF0220BDE8F0834FEAB202032A38
:101570003CD8DFE802F003437FB900BF036842F6BE
:1015800000461D6A1A6AC4F2010622F001021A62BC
:101590001A465C6852F818CFB3428E68D1F800E062
:1015A00025F0020545EA06050CD1CE68D1E905789B
:1015B00024F4407425F00C0526F004063C43354322
:1015C00044EA08042CF0730747EA0E075C609F6149
:1015D0004F6809695F631D629F6947F008079F6153
:1015E0009F6927F004079F61AEE000BF0121002240
:1015F00080F83C200846BDE8F08300BF036842F64F
:1016000000461D6A1A6AC4F2010622F010021A622C
:101610001A46D3F804C052F8184FB3428E68D1F876
:1016200000E025F0200545EA06150FD1CE68D1E986
:1016300005986FF0400707EA06162CF4406725F07E
:10164000C00547EA8907354347EA880C24F4E64495
:1016500044EA0E27C3F804C09F614F6809699F637D
:101660001D629F6947F400679F619F6927F4806747
:101670009F6168E0036842F600461D6A1A6AC4F278
:10168000010622F480721A621A46D3F804C052F896
:101690001CEFB3428E680C6825F4007545EA0625F8
:1016A0000FD1CE68D1E90598360240F2FF47BE431C
:1016B0002CF4405725F4406547EA0917354347EABB
:1016C000081C2EF073072743C3F804C0DF614F687E
:1016D0000969DF631D62DF6947F00807DF61DF69C1
:1016E00027F00407DF612FE0036842F60047D3F8D4
:1016F00020C01A6AC4F2010722F480521A621A4604
:101700005C6852F81C5FD1F800E08E68BB4204D1DF
:101710004F6924F4804444EA87142CF4005747EAC4
:10172000063725F4E64646EA0E265C60DE614E6822
:1017300009691E641F62DF6947F40067DF61DF69C2
:1017400027F48067DF6109021368194311600021E3
:10175000002280F83C200846BDE8F083002804BF42
:101760000120704710B5044690F83D0028B90020CC
:1017700084F83C00204600F067F8022084F83D0021
:10178000206840F2FF730268C4F2000342F6004C86
:101790009842C4F2010C15DCB0F1804F1AD040F22F
:1017A0000041C4F20001884214D0984218DCB0F124
:1017B000804F1DD040F20041C4F20001884217D092
:1017C0001AE000BF604505D040F60001C4F20001F8
:1017D0008842EAD1A16822F070020A439842E6DD0D
:1017E000604505D040F60001C4F20001884203D1F3
:1017F000216922F440720A43A36922F08001D4F8DF
:1018000004E0E268194360450160C262C0F828E064
:1018100002D16169CCF8301001214161002084F8C7
:10182000461084F83E1084F83F1084F8401084F885
:10183000411084F8421084F8431084F8441084F86E
:10184000451084F83D1010BD81B0006842F600419B
:10185000C4F20101884201D001B0704741F2180082
:10186000C4F20200016841F400610160006800F404
:1018700000600090009801B07047000070470000C1
:1018800041B1082910D0042914BF00F1410200F130
:101890003F020BE090F83E20012A1CBF0120704758
:1018A000022280F83E2013E000F140021278012A63
:1018B0001CBF012070470222082907D0042914BF49
:1018C00080F8412080F83F2002E000BF80F84020EF
:1018D000006801F01F010122036A8A4023EA020125
:1018E0000162036A42F64441C4F201011A43A1F1C4
:1018F0004403984202620FD040F2FF71C4F200012B
:10190000884213DCB0F1804F1CD040F20041C4F299
:101910000001884216D01CE00A6842F400420A60C6
:1019200040F2FF71C4F200018842EBDD42F6004153
:10193000C4F20101884205D040F60001C4F2000162
:10194000884206D1816801F00701062904BF002002
:101950007047016841F001010160002070470000FC
:1019600040F2A411C2F20001884218BF704740F251
:101970008000C2F2000001684A1C6329C8BF01222E
:101980000260704770470000704700007047000019
:10199000B0B582B0044600680168C368426901F0CE
:1019A0002F05202D03F0200506D12DB1204602B0D1
:1019B000BDE8B04001F032B95FEA017C1EBF02F021
:1019C000010E03F4907212EB0E0255D1226B012A24
:1019D00005D111F0100218BF13F0100236D10A061B
:1019E00022D513F080021FD094F84110212941D153
:1019F000A168B1F5805F03D12169002900F07282EE
:101A0000216A4A1C226209784160E18C01390A048A
:101A1000E1842FD1C16821F08001C160C16841F02B
:101A20004001C16002B0B0BD490623D513F04001AA
:101A300020D0C16821F04001C1602021204684F8F7
:101A4000411002B0BDE8B04000F088BD0021019116
:101A5000016801914168019101994169490600F1CC
:101A60008F80A18DE28DE38D002B1CBF891A5FEA68
:101A700001420CD102B0B0BDCA0718BF13F4807286
:101A800040F038814A0700F13B8140E1206850E88E
:101A9000030F226820F4907042E80303DBB1206852
:101AA00050E8030F226820F4907042E8030393B1DA
:101AB000206850E8030F226820F4907042E8030386
:101AC0004BB1206850E8030F226820F4907042E880
:101AD0000303002BDAD1206850E8050F226820F0BC
:101AE000010042E80503DBB1206850E8050F2268D9
:101AF00020F0010042E8050393B1206850E8050F8B
:101B0000226820F0010042E805034BB1206850E84C
:101B1000050F226820F0010042E80503002BDAD10E
:101B2000202084F8420000202063206850E8030F42
:101B3000226820F0100042E80303DBB1206850E87F
:101B4000030F226820F0100042E8030393B12068DD
:101B500050E8030F226820F0100042E803034BB165
:101B6000206850E8030F226820F0100042E80303C9
:101B7000002BDAD1022289B220466263B4E000BFB2
:101B8000E16B0A68526893B2002B3FF473AFA58DE6
:101B9000AB42BFF46FAFE2858969202900F09D80D8
:101BA00050E8030F216820F4807041E80302EAB195
:101BB000206850E8030F216820F4807041E8030298
:101BC000A2B1206850E8030F216820F4807041E83A
:101BD00003025AB1206850E8030F216820F4807096
:101BE00041E8030212B12068DAE700BF206850E83C
:101BF000050F216820F0010041E80502DAB12068F4
:101C000050E8050F216820F0010041E8050292B17B
:101C1000206850E8050F216820F0010041E8050226
:101C20004AB1206850E8050F216820F0010041E822
:101C30000502002ADAD1206850E8050F216820F05B
:101C4000400041E80502DAB1206850E8050F21683C
:101C500020F0400041E8050292B1206850E8050FED
:101C6000216820F0400041E805024AB1206850E8B0
:101C7000050F216820F0400041E80502002ADAD172
:101C8000202084F8420000202063206850E8030FE1
:101C9000216820F0100041E80302DAB1206850E822
:101CA000030F216820F0100041E8030292B1206880
:101CB00050E8030F216820F0100041E803024AB108
:101CC000206850E8030F216820F0100041E803026B
:101CD000002ADAD1E06BFEF757FA02206063A08D8C
:101CE000E18D401A81B2204602B0BDE8B040FFF756
:101CF0004BBE00BF626C42F0010262644A0706D527
:101D0000BEF1000F03D0626C42F0020262648A07E7
:101D100006D5BEF1000F03D0626C42F0040262648B
:101D2000BCF1000F06D555EA0E0203D0626C42F0FA
:101D300008026264626C002A3FF49CAE11F020013C
:101D400018BF002D03D0204600F068FF20684169CD
:101D5000626C01F0400102F00802891800F0A280D4
:101D600050E8030F216820F4907041E80302C2B3E9
:101D7000206850E8030F216820F4907041E80302C6
:101D80007AB3206850E8030F216820F4907041E88E
:101D9000030232B3206850E8030F216820F49070EA
:101DA00041E80302EAB12068DAE700BF206850E8A2
:101DB000050F216820F0010041E80502DAB1206832
:101DC00050E8050F216820F0010041E8050292B1BA
:101DD000206850E8050F216820F0010041E8050265
:101DE0004AB1206850E8050F216820F0010041E861
:101DF0000502002ADAD1206B012824D1206850E89E
:101E0000030F216820F0100041E80302DAB12068D6
:101E100050E8030F216820F0100041E8030292B15E
:101E2000206850E8030F216820F0100041E8030209
:101E30004AB1206850E8030F216820F0100041E803
:101E40000302002ADAD1202084F842000020206317
:101E50002068416949063FD550E8050F216820F008
:101E6000400041E805022AB3206850E8050F2168C8
:101E700020F0400041E80502E2B1206850E8050F7B
:101E8000216820F0400041E805029AB1206850E83E
:101E9000050F216820F0400041E8050252B120689A
:101EA000DAE700BF2046FFF771FD0020606402B052
:101EB000B0BD00BFE06B78B142F61141C0F6000141
:101EC0004163FEF785F900283FF4D4ADE06B416B28
:101ED00002B0BDE8B0400847204602B0BDE8B040BF
:101EE000FFF754BD216A31F8022B6FF35F22426085
:101EF00021628AE5002804BF0120704710B504461E
:101F000090F8410028B9002084F84000204600F0F5
:101F100061F8242084F841002068D4E90212C368E3
:101F200023F40053C360036923F440531A4302614E
:101F3000D4E904231143C268194341F20C639A4364
:101F40001143C1604169A26921F44071114343F614
:101F50000002C4F201029042416103D0FEF73CFC52
:101F600002E000BFFEF74CFC626819214843910073
:101F7000B0FBF1F048F21F51C5F2EB11A0FB0123B9
:101F80005A096FF0630302FB0300322303EB0010D6
:101F9000A0FB0101F02303EA5113206803EB0212B6
:101FA000C1F3431111448160016921F49041016141
:101FB000416921F02A014161C16841F40051C160C9
:101FC00000202021606484F8411084F8421060638E
:101FD00010BD0000B0B586B0006844F20041C4F204
:101FE000000188424FF00001CDE90411CDE9021152
:101FF00036D044F60001C4F20001884258D043F6BE
:102000000001C4F20101884240F08C8041F21800C6
:10201000C4F20200016840F6000441F4804101600E
:102020000168C4F2010401F4804101910199016841
:1020300041F004010160006802A900F00400019071
:1020400001984FF400700290022003900320059045
:102050002046FEF717F94FF480600290252552E0E4
:1020600041F21800C4F20200416840F6000441F455
:10207000003141604168C4F2010401F40031019172
:102080000199016841F004010160006802A900F0B3
:102090000400019001980420029002200390032084
:1020A00005902046FEF7EEF80820029026252AE04B
:1020B00041F21800C4F20200416841F480214160FD
:1020C000416801F4802101910199016841F0080102
:1020D0000160006802A900F00800019001984FF427
:1020E00080600290022003900320059040F60000DB
:1020F000C4F2010000F580642046FEF7C3F84FF4F7
:102100000060272502900020CDE9030002A92046A7
:10211000FEF7B8F8284600210022FEF741FA2846CB
:10212000FEF72EFA06B0B0BD90F84230202B1CBF4F
:102130000220704700294FF0010318BF002A01D187
:102140001846704700230363816222218285C2857D
:10215000436480F842100169006819B1C16841F414
:102160008071C1604169002341F001014161C16892
:1021700041F02001C160184670470000B0B540F240
:10218000EC11C2F20001884234D040F23421C2F294
:102190000001884246D040F27C21C2F20001884210
:1021A00018BFB0BD40F21000C2F200008278417941
:1021B000831883F8501081B10132202982700CD12C
:1021C0000121016100218170C0E91411C0E91611DB
:1021D000C0E918118166A0F86C1040F27C25441DFE
:1021E000C2F20005284621460122FFF79DFF002884
:1021F000F8D174E040F21005C2F200052978E878C1
:102200006A18002810755ED00131202829705AD133
:102210002A7D0120A8600020EE2A287032D100F02B
:102220009FF947E040F21000C2F2000042780179C5
:10223000831883F83210B9B101322029427013D1CA
:102240000121C16000214170C0F83210C0F8361081
:10225000C0F83A10C0F83E10C0F84210C0F846105E
:10226000C0F84A10A0F84E1040F23425041DC2F206
:10227000000500BF284621460122FFF755FF002830
:10228000F8D12CE0501E032814D840F28400C2F28A
:102290000000807901280DD140F28B04C2F20004C5
:1022A0000FA1204600F044FE204600F091F9FF20E7
:1022B00000F060F900202886C5E90500C5E907009F
:1022C000C5E90900E862EC1C40F2EC15C2F2000519
:1022D000284621460122FFF727FF0028F8D1B0BD8C
:1022E00074302E7478743D2272656365697665205A
:1022F000256422002DE9F04381B0044690F84100A6
:10230000202840F0B1800F4600294FF0010000F076
:10231000D0801646002A00F0CC804FF00008212023
:102320001D46C4F8448084F84100FEF7BBF8A6843B
:10233000E684A1680646B1F5805F05D120690028D2
:1023400014BF3846B8460746E18C2068002900F0E3
:102350008F8005F101090AE047B317F8011B4160BE
:10236000E18C0139E184E18C002900F08180016871
:102370000906F1D4B9F1000F0AD0EDB1FEF792F8D9
:10238000801BA84218D8206801680906F6D5E3E743
:1023900001680906E0D4016809065CBF01685FEACC
:1023A0000161D9D401680906F2D5D5E738F8021BD6
:1023B00000276FF35F21D2E7206850E8030F216800
:1023C00020F4D07041E80302BAB3206850E8030F4C
:1023D000216820F4D07041E8030272B3206850E80D
:1023E000030F216820F4D07041E803022AB320686B
:1023F00050E8030F216820F4D07041E80302002A5E
:10240000DAD11AE0206850E8050F216820F00100B9
:1024100041E80502DAB1206850E8050F216820F094
:10242000010041E8050292B1206850E8050F2168DB
:1024300020F0010041E805024AB1206850E8050F8C
:10244000216820F0010041E80502002ADAD12020AD
:1024500084F8410084F84200002084F84000032002
:1024600001B0BDE8F08300BF022001B0BDE8F083F9
:102470000168490619D4FDB1691C0DD101684906EE
:1024800013D4016849065CBF01685FEA41610CD45E
:1024900001684906F2D508E0FEF704F8801BA8425F
:1024A0000AD8206800684006F6D5202084F841004C
:1024B000002001B0BDE8F083206850E8030F2168D8
:1024C00020F4D07041E80302E2B3206850E8030F23
:1024D000216820F4D07041E803029AB3206850E8E4
:1024E000030F216820F4D07041E8030252B3206842
:1024F00050E8030F216820F4D07041E80302002A5D
:10250000DAD11FE0206850E8050F216820F00100B3
:1025100041E80502002A9AD0206850E8050F21689A
:1025200020F0010041E80502002A3FF490AF206846
:1025300050E8050F216820F0010041E80502002A5B
:102540003FF485AF206850E8050F216820F00100B6
:1025500041E80502002AD5D179E700007047000064
:1025600040F28400C2F200000021C0F803100160B4
:102570007047000080B582B08DF8070030B340F29C
:10258000EC10C2F200000DF1070101224FF6FF73BB
:10259000FFF7B0FE9DF80700C0B140F2EC10C2F2A8
:1025A00000000DF1070101224FF6FF73FFF7A2FEB5
:1025B0009DF8070050B140F2EC10C2F200000DF19E
:1025C000070101224FF6FF73FFF794FE02B080BDB2
:1025D00070B504460078002808BF70BD40F2EC15C5
:1025E0000026C2F200052146284601224FF6FF735D
:1025F000FFF780FE0136F0B2215C002904EB0001F8
:10260000F2D170BDFEE700002DE9F04F85B041F238
:102610001800C4F20200016840F6000841F0100101
:1026200001600168C4F2010801F0100101910199F3
:10263000016808F5006741F020010160016800228F
:1026400001F020010191019901684FF4604641F0C9
:10265000040101600168002501F004010191019964
:10266000016841F00801016000684FF4604100F02A
:102670000800019001983846FDF70EFF404641F2F0
:102680003011002241F2301AFDF706FF08F5806490
:10269000204633210022FDF7FFFE019601AE4FF0E8
:1026A000010B4FF0020938463146CDE902B5CDF8AD
:1026B0001090FDF7E7FD0320CDE9010540463146C6
:1026C0000395FDF7DFFD40463146CDE901ABCDE98D
:1026D0000359FDF7D7FD3320CDE9010B20463146E4
:1026E000CDE90359FDF7CEFD4FF48050CDE901054A
:1026F000204631460395FDF7C5FD05B0BDE8F08FD6
:1027000070B598B040F60044C4F2010440F2CC0029
:10271000002104F50052C2F20000472340F2E736E0
:1027200080251191CDE90F11CDE90D11CDE90B11E6
:10273000CDE90911CDE90711CDE90511CDE9031165
:10274000CDE90111C0E90023C0E90216C0E9041176
:102750008561FFF703F8002818BFFDF70FFD40F271
:10276000CC00C2F2000010A9FEF778FA002818BFCA
:10277000FDF704FD602009900020CDE90A00CDE9B5
:102780000C00CDE90E0040F2CC00C2F2000009A915
:102790000022FEF7E1FE002818BFFDF7EFFC40F233
:1027A000CC00C2F2000009A90422FEF7D5FE0028E1
:1027B00018BFFDF7E3FC40F2CC00C2F2000009A90B
:1027C0000822FEF7C9FE002818BFFDF7D7FC40F22B
:1027D000CC00C2F2000009A90C22FEF7BDFE0028C1
:1027E00018BFFDF7CBFC40F2CC054FF40050C2F20D
:1027F00000050026069001A928460596CDE9036646
:10280000CDE901660896FEF703FA002818BFFDF728
:10281000B5FC286840F60001C4F200018842179612
:10282000CDE9156614962DD042F60041C4F201019F
:1028300088423FD141F21800C4F20200016802252B
:1028400041F008010160016801F00801139113993A
:10285000016841F004010160006814A900F004005F
:10286000139013984FF460401490204615951795D7
:10287000FDF708FD4FF40060CDE91405A4F5806470
:1028800012E000BF41F21800C4F20200016841F0FA
:1028900008010160006800F00800139013984FF4DD
:1028A00070701490022015900220179014A92046F1
:1028B000FDF7E8FC18B070BD80B58CB040F2141084
:1028C0000021C2F200004FF080424FF6FF73C0E9D2
:1028D00000210122CDE90011C0E9021301618161EB
:1028E000CDE90321CDE90521CDE90711CDE9092184
:1028F0000B9103A9FEF7F4FB002818BFFDF73EFC7F
:1029000040F21410C2F200006946FEF7A7F9002851
:1029100018BFFDF733FC0CB080BD000080B58CB053
:1029200040F25C1040F200420021C2F20000C4F20A
:1029300000024FF6FF73C0E900210122CDE900112A
:10294000C0E9021301618161CDE90321CDE90521CF
:10295000CDE90711CDE909210B9103A9FEF7C0FBD1
:10296000002818BFFDF70AFC40F25C10C2F200001C
:102970006946FEF773F9002818BFFDF7FFFB0CB09E
:1029800080BD0000B0B594B040F6004440F2A41001
:10299000C4F201040021C2F2000040F2E7350E91BA
:1029A000CDE90C110991CDE90711CDE90511CDE96A
:1029B0000311CDE90111A4F582324723C0E90215C4
:1029C00001618021C0E900238161FEF7E9F9002857
:1029D00018BFFDF7D3FB4FF480500B9040F2A410CA
:1029E000C2F200000BA9FEF7ADFA002818BFFDF7F0
:1029F000C5FB40F2A410C2F20000FEF7AFFE0028B3
:102A000018BFFDF7BBFB40F2A4100025C2F2000086
:102A100008A9CDE90855FEF721F9002818BFFDF7F0
:102A2000ADFB6020CDE9010540F2A410C2F2000028
:102A300001A9002203950595FEF78EFD002818BF19
:102A4000FDF79CFB40F2A410C2F2000001A9042291
:102A5000FEF782FD002818BFFDF790FB40F2A4109E
:102A6000C2F2000001A90822FEF776FD002818BF77
:102A7000FDF784FB40F2A415C2F2000501A9284627
:102A80000C22FEF769FD002818BFFDF777FB2868C8
:102A900040F60001C4F2000188424FF00001CDE988
:102AA0001211CDE910112DD042F60041C4F20101FE
:102AB00088423FD141F21800C4F2020001680225A9
:102AC00041F008010160016801F008010F910F99C0
:102AD000016841F004010160006810A900F00400E1
:102AE0000F900F984FF46040109020461195139569
:102AF000FDF7C8FB4FF40060CDE91005A4F5806434
:102B000012E000BF41F21800C4F20200016841F077
:102B100008010160006800F008000F900F984FF462
:102B200070701090022011900220139010A920467E
:102B3000FDF7A8FB14B0B0BD80B540F2EC1043F631
:102B40000001C2F20000C4F2010100234FF00C0C9E
:102B50004FF4E13280E80E00C0E90333C0E905C359
:102B6000C361FFF7C7F9002808BF80BDBDE88040FA
:102B7000FDF704BB80B540F2342044F20041C2F2BC
:102B80000000C4F2000100234FF00C0C4FF4E132BE
:102B900080E80E00C0E90333C0E905C3C361FFF755
:102BA000A9F9002808BF80BDBDE88040FDF7E6BA5E
:102BB00080B540F27C2044F60001C2F20000C4F26D
:102BC000000100234FF00C0C4FF4E13280E80E00BE
:102BD000C0E90333C0E905C3C361FFF78BF90028DF
:102BE00008BF80BDBDE88040FDF7C8BAFEE7000021
:102BF000FEE700007047000070470000FDF758BC7A
:102C00007047000040F2A410C2F20000FEF7EABBD9
:102C1000406A0021C185C184FEF7B8BE81B090F83A
:102C20004210222920D18368B3F5805F08D1016961
:102C3000002965D000F128010A6803685B680AE092
:102C4000014651F8282F13B90369002BF5D003680A
:102C50005B6803F07F0313700A6801320A60C18D5C
:102C600001390A04C18501D001B070470168CA6802
:102C700022F02002CA60CA6822F48072CA604A69DF
:102C800022F001024A61202280F8422000224263A1
:102C9000036B012B3ED1026351E8031F026821F050
:102CA000100142E803130168DBB151E8031F026819
:102CB00021F0100142E80313016893B151E8031FAA
:102CC000026821F0100142E8031301684BB151E89A
:102CD000031F026821F0100142E803130168002B72
:102CE000DAD10A68D20606D5002200920A6800925C
:102CF000496800910099818D01B0FEF745BE00BF83
:102D00000168826A49686FF35F2122F8021B8262C0
:102D1000A5E700BF01B0FFF731BA000040F2EC10A8
:102D2000C2F20000FEF734BE40F23420C2F20000CE
:102D3000FEF72EBE40F27C20C2F20000FEF728BE55
:102D4000FEE7000080B582B0019040F2EC10C2F2C4
:102D5000000001A901224FF6FF73FFF7CBFA01989B
:102D600002B080BD90B0FDF7B1FB00240120CDE999
:102D70000B44CDE9094406900A904FF4E0104FF45B
:102D8000803102250F9006A8CDE90714CDE90D5139
:102D9000FDF74AFD20B1EFF3108072B6FEE700BFE9
:102DA0000F20CDE901054FF48060CDE9040401A8AE
:102DB00002210394FDF730FC20B1EFF3108072B6CE
:102DC000FEE700BFFFF720FCFFF79AFCFFF774FD5A
:102DD000FFF7A4FDFFF7D6FDFFF7AEFEFFF7CAFE33
:102DE000FFF7E6FE40F21410C2F200003C21FEF7AD
:102DF00099FA40F25C10C2F200003C21FEF792FA10
:102E000040F2A414C2F200042046FEF763F8204604
:102E100000210026FEF734FD20460421FEF730FD98
:102E200020460821FEF72CFD20460C21FEF728FD48
:102E300040F2CC05C2F2000528460021FDF74CFF08
:102E400028460421FDF748FF28460821FDF744FFE6
:102E5000286840F2100746638663C66320684FF413
:102E60007A71C2F2000741638163C1630164FC1C93
:102E700040F2EC10C2F2000021460122FFF754F9A3
:102E800070B140F2EC1621A5C2F20006284600F00F
:102E900023F9304621460122FFF746F90028F5D1F3
:102EA0003C1D40F23420C2F2000021460122FFF70F
:102EB0003BF978B140F2342617A5C2F2000600BFF4
:102EC000284600F009F9304621460122FFF72CF987
:102ED0000028F5D17C1D40F27C20C2F20000214682
:102EE0000122FFF721F978B140F27C260DA5C2F24C
:102EF000000600BF284600F0EFF8304621460122C8
:102F0000FFF712F90028F5D1FEE700BF7573617273
:102F10007431206F6B0D0000757361727432206F15
:102F20006B0D0000757361727433206F6B0D0000C0
:102F30000FB4084B10B504A902AA039800F01CF8BE
:102F4000044602A9002000F0C1F8204610BC5DF83C
:102F500014FB0000CD30000802E008C8121F08C1B1
:102F6000002AFAD170477047002001E001C1121F0A
:102F7000002AFBD1704700002DE9FF4F89B09B4626
:102F80000446002506E025280BD05A460B999047A9
:102F9000641C6D1C20780028F5D10DB02846BDE8D2
:102FA000F08F0027B8460122474900E0074314F894
:102FB000013F203B02FA03F00842F7D120782E2887
:102FC00019D114F8010F47F004072A280ED06FF02A
:102FD0002F022078A0F1300109290CD808EB8801D4
:102FE00002EB410100EB0108641CF2E70A98641C43
:102FF00050F8048B0A9020780028CED0642808D09E
:10300000692806D075281ED05A460B9990476D1C2A
:1030100058E00A994FF00A0901C90A91002802DA1A
:1030200040422D2102E0390504D52B218DF82010D6
:10303000012103E0F90704D02021F7E78A4608AE12
:103040000DE00021FAE70A994FF00A0901C90A9137
:10305000F7E74946FDF766F8303106F8011D00280C
:10306000F7D1ADEB060000F12009780701D44FF04D
:103070000108C84502DDA8EB090000E000208046F9
:10308000002706E008A85A46C05D0B9990476D1CC2
:103090007F1C5745F6DB04E030205A460B999047D9
:1030A0006D1CB8F10001A8F10108F5DC05E016F887
:1030B000010B5A460B9990476D1CB9F10001A9F11B
:1030C0000109F4DC641C65E7092801000A68531C47
:1030D0000B6010707047000010B5044601E0FFF768
:1030E00031FE14F8010B04490028F8D1BDE8104066
:1030F0000A20FFF727BE00000000002000000000AB
:103100000000000001020304060708090000000097
:1031100001020304010202030405060708090A0B61
:103120000C0D0E0F101000004831000800000020A8
:1031300010000000582F000858310008100000202F
:10314000B8060000682F0008000000000100000021
:08315000100000000024F4004F
:04000005080000ED02
:00000001FF
