:020000040800F2
:10000000D01E0020010100081D2E00086D2A0008E6
:10001000192E0008810900080537000800000000BB
:100020000000000000000000000000009134000803
:10003000850900080000000041340008D1340008A0
:100040001B0100081B0100081B0100081B01000820
:100050001B0100081B0100081B0100081B01000810
:100060001B0100081B0100081B0100081B01000800
:100070001B0100081B0100081B0100081B010008F0
:100080001B0100081B0100081B0100081B010008E0
:100090001B0100081B0100081B0100081B010008D0
:1000A0001B0100081B0100081B01000805350008A2
:1000B0001B0100081B010008113500081B01000886
:1000C0001B0100081B0100081B0100081B010008A0
:1000D0001B010008ED3600081B010008F936000876
:1000E0001B0100081B0100081B010008DFF80CD0F1
:1000F00000F002FC00480047DD370008D01E002059
:100100000648804706480047FEE7FEE7FEE7FEE7B1
:10011000FEE7FEE7FEE7FEE7FEE7FEE70135000843
:10012000ED00000840EA01039B0703D009E008C97D
:10013000121F08C0042AFAD203E011F8013B00F8AC
:10014000013B521EF9D27047D2B201E000F8012BF8
:10015000491EFBD270470022F6E710B513460A4647
:1001600004461946FFF7F0FF204610BDF0B480EAC0
:100170000102D40F4200B2EB410F02D20246084600
:1001800011464A0042D0C30DDDB2C1F3C752AD1AC9
:10019000202D35DAC1F3160141F4000204B15242B8
:1001A000C5F1200602FA06F12A411044B3EBD05FF4
:1001B00023D0C4B1012DA0EBC35009DCF0BC4FF03B
:1001C000004202EAC352DBB200F5000000F031BA8F
:1001D000400000F1807000EBC350A0F1807040EA55
:1001E000D170490009E0490841EAC071A0EBC35051
:1001F00000F50000400800EBC350F0BC00F010BA5E
:100200006142012202EB4101001BF6E7F0BC70479E
:1002100081F00041AAE780F00040A7E780EA0102F0
:1002200010B502F00043400022D04A001FD0010E5A
:1002300001EB1261C0F35600C2F3560240F4000015
:1002400042F40002A0FB022000047F39140400D015
:10025000401C50EA124001D44000491EC2B20C06B4
:1002600004EBD010401C4008802A02D003E000209C
:1002700010BD20F00100002900DA0020184310BD55
:100280002DE9FE4F81EA030404F0004421F000410F
:1002900000944FF0000B23F0004350EA01045ED0BD
:1002A00052EA03045BD0C3F30A54C1F30A552C4449
:1002B000A4F2F3340194A0FB0254C1F3130141F4FE
:1002C0008011C3F3130343F4801301FB024400FBCA
:1002D000034E840A970A44EA815447EA8357A4FBF1
:1002E000076802958D0A05FB07854FEA932C04FBEE
:1002F0000C542705029D4FEA065847EA1637B5EB1E
:1003000008056EEB070C870E920E47EA811742EA4A
:100310008312A7FB0201B6EB0B0164EB00042B0D6B
:1003200043EA0C335E1844EB1C50DA465146E7FBB7
:100330000201C5F313044FEA0B3343EA14534FEAA7
:100340000432019C43EA0603A4F10C040294009CCD
:10035000CDE900B400F0AAF903B0BDE8F08F0020A9
:100360000146F9E72DE9F04D81EA030404F0004B62
:1003700021F0004514464FF0000A23F0004150EAF6
:10038000050220D054EA01021DD0C5F30A570246E7
:10039000C5F31303C1F31300C1F30A5640F48015EB
:1003A00043F48013A7EB0608101BD64608F2FD386D
:1003B00073EB050002D308F1010801E092185B41DC
:1003C000B8F1000F03DA00200146BDE8F08D0020EF
:1003D0004FF48011064684460EE0171B73EB0507A9
:1003E00005D3121B63EB050306434CEA010C4908D5
:1003F0004FEA300092185B4150EA0107EDD152EA12
:10040000030012D082EA040083EA0501084305D004
:10041000101BAB4106D20122002306E000224FF060
:10042000004302E06FF0010253101AEB06004CEBA0
:10043000085110EB0A0041EB0B01BDE8F04D00F054
:1004400026B9002801DBC0F10040002901DBC1F121
:100450000041814201D801207047002070470028E8
:1004600001DBC0F10040002901DBC1F10041814204
:1004700001D20120704700207047002801DBC0F145
:100480000040002901DBC1F10041814201D301207C
:10049000704700207047002801DBC0F100400029B0
:1004A00001DBC1F10041814201D9012070470020E8
:1004B0007047002801DBC0F10040002901DBC1F1D9
:1004C0000041814201D10120704700207047C10FD7
:1004D00080EAE0700844CA079623002100F0A9B81A
:1004E0000EB5C10F80EAE0700844CA07002140F24F
:1004F00033438DE80E000A460B4600F0D7F803B0F0
:1005000000BD00F0004220F00040C10DC0F3160015
:1005100040F400007F2901DA00207047962903DCAF
:10052000C1F19601C84001E096398840002AF4D014
:100530004042704700F0004230F000400AD0C10D48
:1005400001F56071C0F3160042EA0151C20840078C
:100550001143704700200146704701F0004330B45A
:1005600021F0004150EA010206D00A0DA2F56072A6
:10057000C1F31301002A02DC30BC00207047440F95
:1005800044EAC104C100E01830BC00EBC25000F0E6
:1005900047B830B50B46014600202022012409E06F
:1005A00021FA02F59D4205D303FA02F5491B04FA2C
:1005B00002F52844151EA2F10102F1DC30BD2DE93F
:1005C000F05F0546002092469B46884606468146D7
:1005D00040241BE0284641464746224600F0ADF93C
:1005E00053465A46C01A914110D311461846224626
:1005F00000F094F92D1A67EB01084F4622460120BE
:10060000002100F08BF917EB00094E41201EA4F1E8
:100610000104DFDC484631462A464346BDE8F09FE8
:100620000029A8BF7047401C490008BF20F0010006
:10063000704710B4B0FA80FC00FA0CF050EA0104E4
:1006400004BF10BC704749B1CCF1200421FA04F476
:1006500011FA0CF118BF012121430843A3EB0C014F
:10066000CB1D4FEA00614FEA102042BF002010BCB2
:10067000704700EBC35010440029A4BF10BC704762
:10068000401C490008BF20F0010010BC704710B5A5
:10069000141E73F1000408DA401C41F100019218A5
:1006A0005B411A4301D120F0010010BD2DE9F04D4E
:1006B00092469B4611B1B1FA81F202E0B0FA80F2A3
:1006C0002032904600F02AF904460F4640EA0A001C
:1006D00041EA0B0153465A46084313D0114653EAE8
:1006E000010019D0C8F14002504600F026F9054635
:1006F0000E4650465946424600F010F9084305D0D0
:10070000012004E020463946BDE8F08D0020054375
:1007100046EAE0762C4337430A986305E40AA0EBE7
:1007200008000022FD0A44EA47540A3002D500209E
:100730000146E9E7010510196941DDE9084500199D
:100740006941BDE8F04DA2E72DE9FE4F804681EA00
:100750000300C00F0C46009021F0004123F000453B
:10076000B8EB0200A94105D24046214690461C46FE
:100770000B46024623F00040104347D0270DC7F335
:100780000A00C3F30A510290401A019040286BDA24
:10079000C3F3130040F4801B0098924620B100235D
:1007A000D2EB030A63EB0B0B01985946C0F14002F0
:1007B000504600F0B3F806460D4650465946019A99
:1007C00000F0CBF810EB08006141002487EA1152D9
:1007D00084EAE7731A4340D0009A62B3019A012A6F
:1007E0004FEA075215DC001B61EB02014FF000429B
:1007F00002EA0752CDE90042001C41F58011324661
:100800002B46FFF753FF03B0BDE8F08F404621466B
:10081000F9E7001B61EB0201001C41F58013001891
:100820005B412018A2F5001747EB030140EAD570A1
:10083000B6196D4111E06D084FEA360645EAC075FC
:100840004FEA0752001B61EB0201001C41F58011C9
:1008500049084FEA30000019514132462B4603B097
:10086000BDE8F04FFFF713BF0098012240000023BE
:10087000D0EB020263EBE073009821464FEAE0748C
:10088000B8EB000061EB0401E9E783F000435BE7AC
:1008900081F0004158E7C1F30A52C1F3130140F25D
:1008A000FF3341F480119A4202DA0020014670477A
:1008B00040F233439A42A2F2334202DC524200F049
:1008C0003CB800F02BB8000030B5041E71F10004F4
:1008D00004DB4FF00044404264EB0101141E73F14D
:1008E000000405DB1C464FF00043524263EB040357
:1008F000994208BF904230BD064C074D06E0E068C3
:1009000040F0010394E8070098471034AC42F6D356
:10091000FFF7F0FB605D0008805D0008202A04DB23
:10092000203A00FA02F1002070479140C2F1200302
:1009300020FA03F3194390407047202A04DB203A41
:1009400021FA02F00021704721FA02F3D040C2F1EF
:1009500020029140084319467047202A06DBCB1736
:10096000203A41FA02F043EAE07306E041FA02F36A
:10097000D040C2F120029140084319467047000060
:10098000FEE7000070470000EFF3108072B600BF72
:10099000FEE70000014690F82100022816D1086801
:1009A000D1E90FC3026822F00E020260026822F051
:1009B00001020260012000FA03F2CCF8042081F861
:1009C00021000020002281F8202070470420886345
:1009D0000120002281F820207047000080B590F8A7
:1009E0002110022924D10268116821F00E01116042
:1009F0002F211368C4F202018A4240F20401C4F2BA
:100A0000020123F00103136016DD3023C4F2020358
:100A10009A421DD04423C4F202039A421CD05823A8
:100A2000C4F202039A421DD14FF4803322E000BF8A
:100A300004218163012080BD0823C4F202039A428D
:100A40000ED01C23C4F202039A420BD1102311E0F2
:100A50004FF480730EE000BF4FF480530AE000BFF4
:100A6000012307E001F1680C4FF08073624508BF75
:100A70004FF480130B60012180F82110426B00219C
:100A800080F820100AB190470021084680BD000080
:100A90002DE9F04F82B041F20042C4F201020E682B
:100AA0000423904208BF0323002E009300F0F68039
:100AB00040F2004C4FF6FF7E0022C4F2010C0124EC
:100AC000C1F2100E4FF0000A4FF0000947E000BFDE
:100AD000012502F00C040F27A7402BEA070705FAAF
:100AE00004F43C4343F82640D1F804B040F20C45EE
:100AF0005FEACB23DCF8083054BF23EA080343EA5B
:100B00000803C4F20105CCF808302B685FEA8B2497
:100B100054BF23EA080343EA08032B605FEA8B34DF
:100B2000DCF8043054BF23EA080343EA08035FEA11
:100B3000CB34CCF80430DCF800304FF0010454BF63
:100B400023EA080343EA0803CCF800300E680AF1F0
:100B5000010A36FA0AF302F1040200F09F8004FA57
:100B60000AF816EA080FF1D04B68734512DC122B15
:100B700056D8DFE803F0350B4549555555555555C1
:100B8000555555555555554D510000BFD1F80C9050
:100B900046E000BF4FF6FF75C1F22105AB420FDC06
:100BA0000025C1F21105AB421AD00025C1F2120591
:100BB000AB4215D00025C1F22105AB4210D02FE089
:100BC0000025C1F22205AB420AD00025C1F2310551
:100BD000AB4205D00025C1F23205AB4220D100BFA7
:100BE0008B684BB1012B14BFC0F81480C0F8108083
:100BF0004FF0080914E000BF4FF0040910E000BFF7
:100C0000CB6803F108090BE04FF0000908E000BFD2
:100C1000CB6803F1040903E0CB6803F10C0900BFC2
:100C200013460546BAF1080F24BF203B04352E6851
:100C30000F279F40BE4309FA03F333432B60CB7960
:100C4000DB067FF583AF41F21804C4F20204236887
:100C50004FEA9A0643F001032360236840F600043C
:100C600003F001030193019BACF57E7353F826B0AA
:100C7000C4F20104A0420FD040F60044C4F20104C3
:100C8000A0423FF425AF41F20004C4F20104009DEC
:100C9000A04208BF02251CE700251AE702B0BDE804
:100CA000F08F00008068084018BF012070470000E6
:100CB000C26802EA0103914341EA034101617047BE
:100CC000002A08BF090401617047000041F6740062
:100CD000C2F200000068704740F2100041F6740153
:100CE000C2F20000C2F2000100780A6810440860F5
:100CF0007047000080B542F20000C4F202000168B3
:100D000041F010010160032000F0B2F80F2000F064
:100D100005F800F049F8002080BD000010B586B04D
:100D200001461E200022002400F076F81E2000F06C
:100D300063F841F21C00C4F20200016841F00401B2
:100D400001600068694600F004000190019801A864
:100D500000F07EF900F09EF94DF683614000C4F288
:100D60001B31A0FB01014FF0FF3000EB914140F23D
:100D7000103040F60002C2F20000C4F2000240F25D
:100D8000E733C0E90021C0E90243046100F0C6FB7B
:100D900010B1012006B010BD40F21030C2F20000C8
:100DA00000F06CFC06B010BD80B582B041F21800B6
:100DB000C4F202000168002241F0010101600168F3
:100DC00001F0010101910199416841F080514160B8
:100DD00040680F2100F08050009000986FF00100F3
:100DE00000F01AF80420C4F201000168022262F344
:100DF0001A61016002B080BD002848BF704700F052
:100E00001F01012202FA01F14EF200124009CEF256
:100E1000000242F82010704710B54EF60C5CCEF27E
:100E2000000CDCF80030C3F3022E8EF00704042C13
:100E300028BF0424BEF103034FF0FF3E0EFA04F472
:100E400038BF0023A14399400EFA03F39A4311439C
:100E500000F00F02043A624409010C3200F16043D1
:100E6000B0F1FF3FC8BF03F56442117010BD000030
:100E70004EF60C51CEF200010A684FF6FF031A40FD
:100E800060F30A2242F0806040F0FD700860704715
:100E90002DE9F04381B0002800F0858042F200087F
:100EA000C4F202080446D8F800000D4600F007001E
:100EB00088420CD2D8F8000020F007002843C8F878
:100EC0000000D8F8000000F00700A8426BD12068AD
:100ED00041F204098107C4F2020917D5410705D57B
:100EE000D9F8001041F4E061C9F80010010705D5F8
:100EF000D9F8001041F46051C9F80010D9F8001079
:100F0000A26821F0F0011143C9F80010C00741D1D7
:100F1000D8F8000000F00700A8420CD9D8F800006B
:100F200020F007002843C8F80000D8F8000000F0BF
:100F30000700A84237D12068410707D5D9F800102B
:100F4000E26821F4E0611143C9F80010000708D5F8
:100F5000D9F80000216920F4605040EAC100C9F8C6
:100F60000000D9F8002002F00C00082841F200200F
:100F7000C0F27A0050D145F62253C2F38341C0F645
:100F80000003595CD2033BD440F60010C0F23D0090
:100F9000484341E0606802280AD001282AD159F864
:100FA000041C890308D4012001B0BDE8F08300BF10
:100FB00059F8041C8901F6D5D9F8001021F0030175
:100FC0000843C9F80000FFF781FE064641F2883762
:100FD000D9F80000616800F00C00B0EB810F97D0E9
:100FE000FFF774FE801BB842F2D9032001B0BDE8C0
:100FF000F08300BF59F8041C8907D4D5DCE700BF93
:10100000D9F8002045F62053C2F34042C0F6000351
:101010009A5C4843B0FBF2F0D9F8001045F608524C
:10102000C1F30311C0F60002515C40F2180220FA2D
:1010300001F140F21400C2F200000068C2F20002A6
:101040001160FFF76BFE002001B0BDE8F0830000E7
:101050000F22026041F20402C4F20202136803F09C
:1010600003034360136803F0F0038360136803F421
:10107000E063C36012684FF4E06303EAD2020261E6
:1010800042F20000C4F20200006800F007000860AD
:101090007047000040F2180041F20401C2F2000063
:1010A000C4F202010068096845F61852C1F3022132
:1010B000C0F60002515CC8407047000040F21800C2
:1010C00041F20401C2F20000C4F2020100680968A2
:1010D00045F61852C1F3C221C0F60002515CC84067
:1010E000704700002DE9F04182B0002868D0044626
:1010F000007841F20006C007C4F2020625D07068ED
:1011000000F00C0004281BD0706800F00C000828C8
:1011100002D17068C00313D46068002800F06881B1
:10112000B0F5A02F00F07C81B0F5803F00F07C810D
:10113000306820F480303060306820F4802076E120
:101140003068800301D56068D0B32078800718D557
:10115000706810F00C0F07D0706800F00C000828C1
:101160006ED17068C0036BD43068800702D52069E7
:10117000012825D13068616920F0F80040EAC100FB
:101180003060207800071FD42078400732D4E5690A
:1011900095B1706800F00C00082840F08F80012D98
:1011A0000ED07068216A00F480328A4208D1616AE8
:1011B00000F47010884203D1002002B0BDE8F08135
:1011C000012002B0BDE8F081A069002862D00020B3
:1011D000C4F242200121C0F88014FFF777FD0546D4
:1011E000706A800700F18C80FFF770FD401B0228B9
:1011F000F6D92AE1F06910F0805808D1F06940F082
:101200008050F061F06900F080500090009847F243
:101210000007C4F200073868C00529D4386840F4D4
:1012200080703860FFF752FD054600BF3868C00582
:101230001ED4FFF74BFD401B6428F7D905E100BF22
:101240002069002840F20000C4F2422000F08280B1
:1012500001210160FFF73AFD054600BF30688007B5
:101260003FF588AFFFF732FD401B0228F6D9ECE0CE
:10127000E068002800F08080052800F097800128B1
:1012800000F09880306A20F001003062306A20F06F
:10129000040092E00020C4F242200021C0F8801433
:1012A000FFF714FD054600BF706A80077FF56CAF3D
:1012B000FFF70CFD401B0228F6D9C6E00027C4F258
:1012C000422700203866FFF701FD022D05460BD1AD
:1012D0003068800140F1BE80FFF7F8FC401B022817
:1012E0004FF00300F4D968E7306880017FF564AF00
:1012F000FFF7ECFC401B02284FF00300F4D95CE739
:1013000040F21800C2F20000006844F6D351C1F266
:101310006201A0FB0101480A019000BF00BF0198D3
:10132000411E002801913FF42FAF00BF0198411EDC
:10133000002801913FF428AF00BF0198411E00280A
:1013400001913FF421AF00BF0198411E0028019197
:10135000E4D119E700210160FFF7B8FC054600BFA2
:10136000306880077FF50DAFFFF7B0FC401B022807
:101370004FF00300F4D920E7306A20F0010030621A
:10138000306A20F004003062FFF7A0FC054641F20D
:10139000883700BF306A800720D5FFF797FC401BD5
:1013A000B8424FF00300F5D907E700BF306A40F0BC
:1013B00004003062306A40F001003062FFF786FCC2
:1013C000054641F2883700BF306A800706D4FFF730
:1013D0007DFC401BB842F7D937E000BFB8F1000FE1
:1013E0007FF4D5AEF06920F08050F061CFE600BF09
:1013F000306820F480303060306820F48020306025
:10140000FFF764FC054600BF306880037FF59DAEA2
:10141000FFF75CFC401B64284FF00300F4D9CCE6D6
:10142000306840F480203060306840F480303060B4
:10143000FFF74CFC054600BF306880033FF585AEE2
:10144000FFF744FC401B6428F6D9032002B0BDE836
:10145000F08100BF206AB0F5803F05D17168A268B5
:1014600021F40031114371607168626A21F47411D2
:1014700010430843706001203866FFF727FC0446DC
:10148000306880013FF598AEFFF720FC001B022872
:101490004FF00300F4D990E6704700007047000059
:1014A00010B590F83C20012A4FF0020233D080F8AA
:1014B0003D200268D2F804E0D2F808C00C682EF093
:1014C0007003234340F2FF74C4F20004A24253604D
:1014D0000ADCB2F1804F13D040F20043C4F20003A3
:1014E0009A420DD011E000BF42F60043C4F201035E
:1014F0009A4205D040F60003C4F200039A4204D198
:1015000049682CF08003194391600121002280F882
:101510003D1080F83C20104610BD0000002804BF9C
:101520000120704710B5044690F83D0028B900200E
:1015300084F83C00204600F067F8022084F83D0063
:10154000206840F2FF730268C4F2000342F6004CC8
:101550009842C4F2010C15DCB0F1804F1AD040F271
:101560000041C4F20001884214D0984218DCB0F166
:10157000804F1DD040F20041C4F20001884217D0D4
:101580001AE000BF604505D040F60001C4F200013A
:101590008842EAD1A16822F070020A439842E6DD4F
:1015A000604505D040F60001C4F20001884203D135
:1015B000216922F440720A43A36922F08001D4F821
:1015C00004E0E268194360450160C262C0F828E0A7
:1015D00002D16169CCF8301001214161002084F80A
:1015E000461084F83E1084F83F1084F8401084F8C8
:1015F000411084F8421084F8431084F8441084F8B1
:10160000451084F83D1010BD80B586B0014640F607
:101610000000C4F20100096800F51053002299424D
:10162000059201D006B080BD41F21801C4F202015A
:101630000B6843F400630B600B6803F400630193D1
:10164000019B0B6843F004030B60096801F004017F
:10165000019101994FF44071CDE9021201210491E9
:1016600002A9FFF715FA1B2006210022FFF7D4FB81
:101670001B20FFF7C1FB06B080BD000090F83D10B5
:1016800001291CBF01207047022180F83D1000682D
:1016900040F2FF72C168C4F20002904241F00101C1
:1016A000C16009DCB0F1804F12D040F20041C4F2B9
:1016B000000188420CD012E042F60041C4F2010160
:1016C000884205D040F60001C4F20001884206D1EC
:1016D000816801F00701062904BF002070470168F6
:1016E00041F00101016000207047000080B590F8D2
:1016F0003C20012A4FF0020200F0C28080F83D2019
:10170000D0F800C04FF67772DCF8083023EA020206
:10171000CCF808200B684F2B28DC1F2B44DD202B36
:1017200045D0302B43D0402B40F0AC80D1F804E0C2
:10173000C968DCF82030DCF8202022F00102CCF867
:101740002020DCF8182022F0F00242EA011123F0F8
:101750000A0242EA0E02CCF81810CCF82020DCF87D
:10176000081041F0470121F0300180E06F2B27DDA8
:10177000B3F5005F48D0B3F5805F7AD0702B40F0AE
:101780008180D1E901E3C968DCF8082043EA0E034F
:1017900022F47F4243EA01211143CCF80810DCF81F
:1017A000081041F0770162E00BB1102B6AD1DCF830
:1017B000081021F07001194341F0070157E000BF04
:1017C000502B35D0602B5DD1D1F804E0C968DCF82E
:1017D0002030DCF8202022F01002CCF82020DCF8A9
:1017E000182022F4704242EA013123F0A00242EABA
:1017F0000E12CCF81810CCF82020DCF8081041F0BC
:10180000670121F0100132E0D1E901E3C968DCF899
:10181000082043EA0E0322F47F4243EA01211143E8
:10182000CCF80810DCF8081041F480411FE000BF3C
:10183000D1F804E0C968DCF82030DCF8202022F080
:101840000102CCF82020DCF8182022F0F00242EA55
:10185000011123F00A0242EA0E02CCF81810CCF86B
:101860002020DCF8081041F0570121F02001CCF8CD
:1018700008100022012180F83D10002180F83C1062
:10188000104680BD0122F5E770B50546007F40F6A1
:10189000004440F28C06C4F201040128C2F20006A2
:1018A0000AD120464FF48051FFF7FCF9716801EB33
:1018B0004000411E287F7160022818BF70BD20467D
:1018C0004FF40051FFF7EEF9B168A1EB4000013091
:1018D000B06070BDF0B590F83C30012B04BF022021
:1018E000F0BD4FEAB202032A22D8DFE802F0032754
:1018F000476500BF0368D1E900C5D1F80CE01C6A58
:101900001A6A40F2FF7722F001021A621A4652F870
:10191000186FC4F20007BB4272DCB3F1804F7BD07A
:1019200040F20047C4F20007BB4275D08EE000BF12
:101930000121002280F83C200846F0BD0368D1E96F
:1019400000E6D1E902C11C6A1A6A360222F01002CE
:101950001A621A4652F8185F4FF2FF07BE4325F489
:10196000734561F30F3624F0A0040EF00A0746EA2F
:10197000050144EA071711601F623AE00768D1E9E0
:1019800000C5D1E902313C6A3A6A61F3071522F4D5
:1019900080723A623A4652F81C6F26F0F30645EA26
:1019A0000601CCF3560666F3492411603C621168C7
:1019B00021F00C01116040E00368D1E900E6D1E9B3
:1019C00002C11C6A1A6A360222F480521A621A464E
:1019D00052F81C5F4FF2FF07BE4325F4734561F3D5
:1019E0000F36CEF3520746EA050167F34D34116016
:1019F0001C6211684FEA0C2321F4406111601CE065
:101A000042F60047C4F20107BB4205D040F600078A
:101A1000C4F20007BB4219D126F00306354324F077
:101A20000A070CF00A066EF3071537449D611F6222
:101A30009F6927F00C079F618B681168194311603B
:101A40000021002280F83C200846F0BD46F0010548
:101A5000E5E70000002804BF0120704710B50446E8
:101A600090F83D0028B9002084F83C00204600F0A2
:101A700067F8022084F83D00206840F2FF73026896
:101A8000C4F2000342F6004C9842C4F2010C15DC8B
:101A9000B0F1804F1AD040F20041C4F200018842F8
:101AA00014D0984218DCB0F1804F1DD040F20041B4
:101AB000C4F20001884217D01AE000BF604505D08B
:101AC00040F60001C4F200018842EAD1A16822F088
:101AD00070020A439842E6DD604505D040F60001F9
:101AE000C4F20001884203D1216922F440720A4302
:101AF000A36922F08001D4F804E0E268194360454C
:101B00000160C262C0F828E002D16169CCF83010EF
:101B100001214161002084F8461084F83E1084F8C9
:101B20003F1084F8401084F8411084F8421084F883
:101B3000431084F8441084F8451084F83D1010BD1B
:101B40007047000010B5016804460869800744BF6B
:101B5000C8685FEA807039D40869400744BFC86824
:101B60005FEA40703ED40869000744BFC8685FEA76
:101B7000007045D40869C00644BFC8685FEAC06009
:101B80004AD40869C0071CBFC8685FEAC07051D159
:101B90000869000644BFC8685FEA006052D408695B
:101BA000400644BFC8685FEA406053D408698006B5
:101BB00046BFC8685FEA806010BD6FF02002204613
:101BC0000A61BDE81040FFF769BC00BF6FF002007A
:101BD0000861012020778869800743D02046FFF7FD
:101BE00053FE45E06FF00400086102202077886909
:101BF00010F4407F40D02046FFF746FE42E000BF91
:101C00006FF00800086104202077C86980073DD084
:101C10002046FFF739FE3FE06FF010000861082012
:101C20002077C86910F4407F3AD02046FFF72CFE99
:101C30003CE000BF6FF001000861204600F0CEF9E3
:101C40002168A5E76FF0800008612046FFF724FCBB
:101C50002168A4E76FF040000861204600F0C8F951
:101C60002168A3E7204600F025F8204600F0B4F9EB
:101C70002168002020776FE7204600F01BF82046FF
:101C800000F0AAF92168002020776CE7204600F0D8
:101C900011F8204600F0A0F921680020207769E7BC
:101CA000204600F007F8204600F096F92168002051
:101CB000207766E7704700002DE9F04390F83C304C
:101CC000012B04BF0220BDE8F0834FEAB202032AD1
:101CD0003CD8DFE802F003437FB900BF036842F657
:101CE00000461D6A1A6AC4F2010622F001021A6255
:101CF0001A465C6852F818CFB3428E68D1F800E0FB
:101D000025F0020545EA06050CD1CE68D1E9057833
:101D100024F4407425F00C0526F004063C433543BA
:101D200044EA08042CF0730747EA0E075C609F61E1
:101D30004F6809695F631D629F6947F008079F61EB
:101D40009F6927F004079F61AEE000BF01210022D8
:101D500080F83C200846BDE8F08300BF036842F6E7
:101D600000461D6A1A6AC4F2010622F010021A62C5
:101D70001A46D3F804C052F8184FB3428E68D1F80F
:101D800000E025F0200545EA06150FD1CE68D1E91F
:101D900005986FF0400707EA06162CF4406725F017
:101DA000C00547EA8907354347EA880C24F4E6442E
:101DB00044EA0E27C3F804C09F614F6809699F6316
:101DC0001D629F6947F400679F619F6927F48067E0
:101DD0009F6168E0036842F600461D6A1A6AC4F211
:101DE000010622F480721A621A46D3F804C052F82F
:101DF0001CEFB3428E680C6825F4007545EA062591
:101E00000FD1CE68D1E90598360240F2FF47BE43B4
:101E10002CF4405725F4406547EA0917354347EA53
:101E2000081C2EF073072743C3F804C0DF614F6816
:101E30000969DF631D62DF6947F00807DF61DF6959
:101E400027F00407DF612FE0036842F60047D3F86C
:101E500020C01A6AC4F2010722F480521A621A469C
:101E60005C6852F81C5FD1F800E08E68BB4204D178
:101E70004F6924F4804444EA87142CF4005747EA5D
:101E8000063725F4E64646EA0E265C60DE614E68BB
:101E900009691E641F62DF6947F40067DF61DF695B
:101EA00027F48067DF61090213681943116000217C
:101EB000002280F83C200846BDE8F083002804BFDB
:101EC0000120704710B5044690F83D0028B9002065
:101ED00084F83C00204600F067F8022084F83D00BA
:101EE000206840F2FF730268C4F2000342F6004C1F
:101EF0009842C4F2010C15DCB0F1804F1AD040F2C8
:101F00000041C4F20001884214D0984218DCB0F1BC
:101F1000804F1DD040F20041C4F20001884217D02A
:101F20001AE000BF604505D040F60001C4F2000190
:101F30008842EAD1A16822F070020A439842E6DDA5
:101F4000604505D040F60001C4F20001884203D18B
:101F5000216922F440720A43A36922F08001D4F877
:101F600004E0E268194360450160C262C0F828E0FD
:101F700002D16169CCF8301001214161002084F860
:101F8000461084F83E1084F83F1084F8401084F81E
:101F9000411084F8421084F8431084F8441084F807
:101FA000451084F83D1010BD81B00068B0F1804F3D
:101FB00002D001B0704700BF41F21C00C4F2020021
:101FC000016841F001010160006800F0010000902B
:101FD000009801B07047000070470000006840F6AC
:101FE0000001C4F20001884208BFFEF775BE7047C9
:101FF000704700007047000070470000B0B582B025
:10200000044600680168C368426901F02F05202D6D
:1020100003F0200506D12DB1204602B0BDE8B04046
:1020200001F0E4BA5FEA017C1EBF02F0010E03F486
:10203000907212EB0E0255D1226B012A05D111F0DC
:10204000100218BF13F0100236D10A0622D513F081
:1020500080021FD094F84110212941D1A168B1F527
:10206000805F03D12169002900F07282216A4A1C35
:10207000226209784160E18C01390A04E1842FD1A0
:10208000C16821F08001C160C16841F04001C160B8
:1020900002B0B0BD490623D513F0400120D0C1687D
:1020A00021F04001C1602021204684F8411002B097
:1020B000BDE8B04000F0D8BC002101910168019159
:1020C0004168019101994169490600F18F80A18D14
:1020D000E28DE38D002B1CBF891A5FEA01420CD10F
:1020E00002B0B0BDCA0718BF13F4807240F0388147
:1020F0004A0700F13B8140E1206850E8030F226865
:1021000020F4907042E80303DBB1206850E8030F2D
:10211000226820F4907042E8030393B1206850E8ED
:10212000030F226820F4907042E803034BB120684B
:1021300050E8030F226820F4907042E80303002B5C
:10214000DAD1206850E8050F226820F0010042E84B
:102150000503DBB1206850E8050F226820F001007C
:1021600042E8050393B1206850E8050F226820F08B
:10217000010042E805034BB1206850E8050F2268D2
:1021800020F0010042E80503002BDAD1202084F87A
:10219000420000202063206850E8030F226820F0EE
:1021A000100042E80303DBB1206850E8030F226807
:1021B00020F0100042E8030393B1206850E8030FB9
:1021C000226820F0100042E803034BB1206850E879
:1021D000030F226820F0100042E80303002BDAD13D
:1021E000022289B220466263B4E000BFE16B0A6854
:1021F000526893B2002B3FF473AFA58DAB42BFF48E
:102200006FAFE2858969202900F09D8050E8030FB7
:10221000216820F4807041E80302EAB1206850E8A8
:10222000030F216820F4807041E80302A2B1206806
:1022300050E8030F216820F4807041E803025AB18E
:10224000206850E8030F216820F4807041E8030201
:1022500012B12068DAE700BF206850E8050F216856
:1022600020F0010041E80502DAB1206850E8050FCE
:10227000216820F0010041E8050292B1206850E891
:10228000050F216820F0010041E805024AB12068ED
:1022900050E8050F216820F0010041E80502002AFE
:1022A000DAD1206850E8050F216820F0400041E8AD
:1022B0000502DAB1206850E8050F216820F04000DF
:1022C00041E8050292B1206850E8050F216820F02E
:1022D000400041E805024AB1206850E8050F216836
:1022E00020F0400041E80502002ADAD1202084F8DD
:1022F000420000202063206850E8030F216820F08E
:10230000100041E80302DAB1206850E8030F2168A9
:1023100020F0100041E8030292B1206850E8030F5A
:10232000216820F0100041E803024AB1206850E81B
:10233000030F216820F0100041E80302002ADAD1DF
:10234000E06BFEF727FB02206063A08DE18D401A51
:1023500081B2204602B0BDE8B040FFF74BBE00BFDF
:10236000626C42F0010262644A0706D5BEF1000FBA
:1023700003D0626C42F0020262648A0706D5BEF1A5
:10238000000F03D0626C42F004026264BCF1000FE3
:1023900006D555EA0E0203D0626C42F00802626470
:1023A000626C002A3FF49CAE11F0200118BF002D92
:1023B00003D0204601F01AF920684169626C01F0EF
:1023C000400102F00802891800F0A28050E8030FD3
:1023D000216820F4907041E80302C2B3206850E8FD
:1023E000030F216820F4907041E803027AB320685B
:1023F00050E8030F216820F4907041E8030232B3E3
:10240000206850E8030F216820F4907041E803022F
:10241000EAB12068DAE700BF206850E8050F2168BC
:1024200020F0010041E80502DAB1206850E8050F0C
:10243000216820F0010041E8050292B1206850E8CF
:10244000050F216820F0010041E805024AB120682B
:1024500050E8050F216820F0010041E80502002A3C
:10246000DAD1206B012824D1206850E8030F2168BD
:1024700020F0100041E80302DAB1206850E8030FB1
:10248000216820F0100041E8030292B1206850E872
:10249000030F216820F0100041E803024AB12068D0
:1024A00050E8030F216820F0100041E80302002AE1
:1024B000DAD1202084F8420000202063206841699E
:1024C00049063FD550E8050F216820F0400041E85B
:1024D00005022AB3206850E8050F216820F040006B
:1024E00041E80502E2B1206850E8050F216820F0BC
:1024F000400041E805029AB1206850E8050F2168C4
:1025000020F0400041E8050252B12068DAE700BF40
:102510002046FFF771FD0020606402B0B0BD00BF2F
:10252000E06B78B143F2E151C0F600014163FEF780
:1025300055FA00283FF4D4ADE06B416B02B0BDE822
:10254000B0400847204602B0BDE8B040FFF754BD98
:10255000216A31F8022B6FF35F22426021628AE523
:10256000002804BF0120704710B5044690F84100D0
:1025700028B9002084F84000204600F061F82420AB
:1025800084F841002068D4E90212C36823F40053A0
:10259000C360036923F440531A430261D4E904235E
:1025A0001143C268194341F20C639A431143C1605D
:1025B0004169A26921F44071114343F60002C4F25B
:1025C00001029042416103D0FEF764FD02E000BFCA
:1025D000FEF774FD6268192148439100B0FBF1F0E9
:1025E00048F21F51C5F2EB11A0FB01235A096FF00D
:1025F000630302FB0300322303EB0010A0FB010185
:10260000F02303EA5113206803EB0212C1F34311D4
:1026100011448160016921F490410161416921F017
:102620002A014161C16841F40051C16000202021AC
:10263000606484F8411084F84210606310BD0000AB
:1026400070B586B0006844F60001C4F200010026AF
:1026500088420596CDE9036602963FD043F6000115
:10266000C4F20101884271D141F21800C4F20200A3
:10267000016840F6004441F4804101600168C4F201
:10268000010401F4804101910199016802AD41F01A
:10269000080101600068294600F0080001900198D7
:1026A0004020029002200390032005902046FEF770
:1026B000EFF9802002900020CDE903002046294652
:1026C000FEF7E6F90420C4F201000168252441F078
:1026D000E06141F00401016030E000BF41F2180008
:1026E000C4F20200416840F6004441F48021416098
:1026F0004168C4F2010401F480210191019901684B
:1027000002AD41F0080101600068294600F00800B0
:10271000019001984FF48060029002200390032002
:1027200005902046FEF7B4F94FF40060CDE90206AB
:10273000204629460496FEF7ABF9272420460521BA
:102740000022FEF769FB2046FEF756FB06B070BD7F
:1027500090F84230202B1CBF0220704700294FF018
:10276000010318BF002A01D11846704700230363F4
:10277000816222218285C285436480F8421001690A
:10278000006819B1C16841F48071C16041690023DA
:1027900041F001014161C16841F02001C16018466A
:1027A00070470000B0B540F25831C2F200018842D3
:1027B00018BFB0BD40F28C04C2F20004607861889A
:1027C00040F27442C2F2000250540131202861806C
:1027D00008D140F24820C2F20000006801212170B7
:1027E00001F084F840F258350134C2F2000500BF10
:1027F000284621460122FFF7ABFF0028F8D1B0BDE3
:102800002DE9F04381B0044690F84100202840F0C3
:10281000B1800F4600294FF0010000F0D08016462D
:10282000002A00F0CC804FF0000821201D46C4F89B
:10283000448084F84100FEF749FAA684E684A16842
:102840000646B1F5805F05D12069002814BF3846DF
:10285000B8460746E18C2068002900F08F8005F11A
:1028600001090AE047B317F8011B4160E18C013907
:10287000E184E18C002900F0818001680906F1D42F
:10288000B9F1000F0AD0EDB1FEF720FA801BA84283
:1028900018D8206801680906F6D5E3E7016809063B
:1028A000E0D4016809065CBF01685FEA0161D9D420
:1028B00001680906F2D5D5E738F8021B00276FF347
:1028C0005F21D2E7206850E8030F216820F4D07020
:1028D00041E80302BAB3206850E8030F216820F4EE
:1028E000D07041E8030272B3206850E8030F2168FA
:1028F00020F4D07041E803022AB3206850E8030FA7
:10290000216820F4D07041E80302002ADAD11AE0ED
:10291000206850E8050F216820F0010041E8050219
:10292000DAB1206850E8050F216820F0010041E885
:10293000050292B1206850E8050F216820F00100DF
:1029400041E805024AB1206850E8050F216820F0EF
:10295000010041E80502002ADAD1202084F8410074
:1029600084F84200002084F84000032001B0BDE854
:10297000F08300BF022001B0BDE8F0830168490682
:1029800019D4FDB1691C0DD10168490613D4016841
:1029900049065CBF01685FEA41610CD401684906E1
:1029A000F2D508E0FEF792F9801BA8420AD8206809
:1029B00000684006F6D5202084F84100002001B0D0
:1029C000BDE8F083206850E8030F216820F4D07040
:1029D00041E80302E2B3206850E8030F216820F4C5
:1029E000D07041E803029AB3206850E8030F2168D1
:1029F00020F4D07041E8030252B3206850E8030F7E
:102A0000216820F4D07041E80302002ADAD11FE0E7
:102A1000206850E8050F216820F0010041E8050218
:102A2000002A9AD0206850E8050F216820F00100A4
:102A300041E80502002A3FF490AF206850E8050FF6
:102A4000216820F0010041E80502002A3FF485AF2B
:102A5000206850E8050F216820F0010041E80502D8
:102A6000002AD5D179E7000070470000FEE700009A
:102A7000F0B59FB00020CDE91C001CA8012100F09A
:102A80000DFF40F22827C2F20007386245F6EC40FD
:102A9000C0F6000090E87E0080690DF1540C8CE8CF
:102AA0007E001B9015A8002100F076FF786245F6A5
:102AB000B440C0F6000090E84E00D0E904548069AC
:102AC0000DF1380C8CE84E0014900EA80021CDE9D1
:102AD000125400F061FFB86245F6D040C0F6000025
:102AE00090E84E00D0E9045480690DF11C0C8CE88C
:102AF0004E000D9007A80021CDE90B5400F04CFFCB
:102B0000F86245F69840C0F6000090E84E00D0E923
:102B1000045480698DE84E00069068460021CDE996
:102B2000045400F039FF38631FB0F0BD2DE9F047C1
:102B300084B041F21800C4F20200016840F600447B
:102B400041F0100101600168C4F2010401F01001BC
:102B500000910099016804F5806541F02001016051
:102B60000168002201F020010091009901684FF4F2
:102B7000005641F00401016001684FF0000901F0C6
:102B8000040100910099016841F0080101600068AA
:102B90004FF4005100F00800009000982846FEF71E
:102BA0008FF8204644F23001002244F23008FEF74C
:102BB00087F800966E464FF0010A022728463146F4
:102BC000CDF804A0CDE90277FDF762FF4FF4405045
:102BD000CDE90009204631460297FDF759FF20460E
:102BE0003146CDE9008ACDE90297FDF751FF04B0E7
:102BF000BDE8F08710B58AB040F2802042F600426E
:102C00000021C2F20000C4F201024FF6FF738024DB
:102C10000991CDE90711CDE90411CDE90211CDE902
:102C20000011C0E90021C0E90213C0E90411846168
:102C3000FEF774FC002818BFFDF7A6FE4FF4805085
:102C4000069040F28020C2F2000006A9FEF74EFD79
:102C5000002818BFFDF798FE40F28020C2F2000065
:102C6000FEF7F8FE002818BFFDF78EFE40F2802028
:102C70000024C2F2000004A9CDE90444FEF710FCD0
:102C8000002818BFFDF780FE0120CDE9010440F2C5
:102C90008020C2F200006946002200940394FEF7EF
:102CA00019FE002818BFFDF76FFE40F28020C2F227
:102CB000000069460422FEF70DFE002818BFFDF74C
:102CC00063FE0AB010BD000010B590B040F2C820FD
:102CD0000021C2F200004FF08042472340F2E73467
:102CE000CDE90811CDE90611CDE90411C0E90023B1
:102CF000C0E9021401618161FFF7E0F8002818BF04
:102D0000FDF742FE40F2C820C2F2000008A9FEF71B
:102D1000C7FB002818BFFDF737FE60200190002098
:102D2000CDE90200059040F2C820C2F2000001A9DE
:102D30000022FEF7C1FF002818BFFDF725FE40F274
:102D4000C824C2F2000401A920460422FEF7B4FF01
:102D5000002818BFFDF718FE20680021B0F1804F51
:102D60000E9101D010B010BD41F21800C4F2020063
:102D7000016841F00401016000680CA900F0040042
:102D80000B900B9803200C9002200D900F9040F6B2
:102D90000000C4F20100FDF77BFE10B010BD000082
:102DA00080B540F2583043F60001C2F20000C4F290
:102DB000010100234FF00C0C4FF4E13280E80E00CB
:102DC000C0E90333C0E905C3C361FFF7C9FB0028AD
:102DD00008BF80BDBDE88040FDF7D6BD80B540F29C
:102DE000A03044F60001C2F20000C4F2000100234A
:102DF0004FF00C0C4FF4E13280E80E00C0E90333D1
:102E0000C0E905C3C361FFF7ABFB002808BF80BD65
:102E1000BDE88040FDF7B8BDFEE70000FEE700001A
:102E20002DE9F04740F2C019C2F20009D9F8347018
:102E3000D9F840800546D9F85CA0461E3846414680
:102E4000FDF7E6F904462846FDF741FBB6F5C77FD6
:102E500098BF044638462146C9F83840FDF7D8F9EE
:102E60000021C4F220210546C9F83C00FDF705FB0E
:102E7000044640462946FDF7D1F99CB90021074692
:102E8000CCF220212846FDF7DCFA58B9384600215B
:102E9000FDF7D7FA30B928465146FDF767F9824663
:102EA000C9F85C00D9E91340D9F854705146FDF7D0
:102EB000B5F9064620462946FDF7B0F93146FDF73B
:102EC00055F9044628464146FDF7A2F90146384621
:102ED000FDF7A4F92146FDF749F9C9F85800C9F8EA
:102EE0004050FDF70EFBBDE8F08700002DE9F04FE4
:102EF00081B040F22005C2F2000505F13802012B35
:102F000008BF2A1D2A604FF0380208BF0422A850CB
:102F10003C221C46012B08BF0822A950FDF778F976
:102F200082464020012C08BF0C2045F800A005F186
:102F300050004FF0440B08BF05F11C00D0F8008092
:102F4000012C08BF4FF0100B55F80B905046494626
:102F5000FDF75EF905F15401012C08BF05F12001D0
:102F6000096807465046FDF759F906464046394676
:102F7000FDF754F93146FDF7F9F805F15801012C38
:102F800008BF05F124010E68804648464946FDF712
:102F9000EDF801465046FDF73BF94C27012C08BFE0
:102FA0001827E959FDF7E2F801463046FDF736F9F2
:102FB0004146FDF7DBF845F8079045F80BA0FDF713
:102FC000A0FA01B0BDE8F08F2DE9F04F81B00021EB
:102FD000CCF270210546FDF75EFA00210446C4F2EA
:102FE00070212846FDF73BFA40F2C018C2F20008F3
:102FF000D8E9021AD8F81820D8F81C90009281F06D
:103000000041002808BF0D46002C08BF0D46D8F827
:10301000280085F0004B2946C8F80450C8F808B0CD
:10302000FDF7F6F800210746CCF290112846FDF78F
:1030300032FA00210646C4F290112846FDF70FFA35
:10304000044650465946FDF7E9F80021FDF723FAFA
:10305000002808BF0746002C08BF2746002E08BFDF
:10306000374648463946C8F82870FDF7D7F8044671
:1030700000982946FDF7D2F801462046FDF7C8F82A
:10308000D8F82040054658465146FDF7C1F801469C
:103090002046FDF7C3F82946FDF768F8C8F8240074
:1030A000C8F80CB0FDF72DFA01B0BDE8F08F0000B4
:1030B00084B040F22825C2F2000549F6981A40F281
:1030C000040840F2000BC1F6991AC2F2000800246D
:1030D00005F11400C4F24E0B039089E03046FDF771
:1030E000FFF90026C4F24E0600223346FDF7C8F869
:1030F00043F23339C4F21F094FF033324B46FDF728
:1031000031F9FDF72AFA40F29404C2F200040746AE
:103110002068AF63FDF7E4F900223346FDF7B0F80D
:103120004FF033324B46FDF71DF9FDF716FAE86311
:1031300040F290004FF00009C2F20000C0F8009089
:103140002046C0F80090D8F80000D8F80810D5E95B
:1031500003232E6C01FB00202C6DC01A3044FDF7B8
:10316000B6F9394622460123FFF7C0FED8F8001011
:10317000D8F80820286502FB01F0D5E903126B6C32
:10318000401A1044EC6B1844FDF7A1F96A6D214612
:103190000223FFF7ABFE68654FF0500080F3118803
:1031A000BFF36F8FBFF34F8FD5E90E04FDF7C2F960
:1031B000064620460F46FDF7BDF9009068A032464E
:1031C0003B46019102F0D6F889F31188296D012060
:1031D00000F09AFA696D022000F096FA696B0024FB
:1031E000481C6429C8BF01206863012000F048FB27
:1031F000686B4CF6CD41CCF6CC4100FB01A04FEA08
:103200007000504504D9696B480749D119E000BFE7
:10321000A869012808D1A868FFF7D6FEE969E86027
:10322000012906D0002008E00020E969E8600129B2
:10323000F8D1D8F80400FFF7F3FD2861696B48075F
:103240002ED16869012840F085802868FDF73FF994
:1032500040F29001C2F20001096806460846FDF7F7
:1032600036F901463046012200F084F8FDF749F9AD
:10327000696828640846FDF72AF940F29401C2F211
:103280000001096806460846FDF721F90146304667
:10329000022200F06FF8FDF734F9696B686400BF33
:1032A000C8079DD140F290016869C2F200010E6822
:1032B00000283FF413AFD5E91204301AFDF710F9D6
:1032C00000225B46FCF7DCFF43F23339C4F21F09EE
:1032D0004FF033324B46FDF745F8FDF73EF9074610
:1032E00040F29400C2F20000D046D0F800A0AF63D4
:1032F000AAEB0400FDF7F4F800225B46FCF7C0FFE0
:103300004FF033324B46FDF72DF8FDF726F9044612
:10331000E863C5E9126AC24640F204083846002153
:10332000C2F20008FDF7C5F80646002820464FF017
:10333000000118BF0126FDF7BCF8002818BF0120C6
:103340003040012803984FF0000908BFC0F80090F2
:10335000F9E600BFC5E91044C8077FF441AFA1E713
:103360007370656564313D25662C737065656432E4
:103370003D2566002DE9F04740F23017C2F2000704
:103380001546012A3A4640F2200318BF3432C2F2F1
:1033900000031A6010603822012D08BF0422B950C2
:1033A000FCF736FF04463C20012D08BF08203C50A6
:1033B00007F14C0008BF07F11800D0F8009007F1A2
:1033C0005000012D08BF07F11C004FF044060068B3
:1033D00008BF102657F806804146FCF71FFF8246BB
:1033E00048462146FCF71AFF5146FCF7BFFE07F19D
:1033F0005401012D08BF07F120014FF04005D1F81D
:1034000000A008BF0C25795981462046FCF700FF33
:1034100001465046FCF702FF4946FCF7A7FE8146ED
:10342000204641467C51FCF7A1FEB8514846FDF7C5
:1034300068F8FDF74CF8BDE8F087000000000000D8
:10344000EFF30980BFF36F8F0D4B1A6820E9F00F7F
:1034500010602DE908404FF0500080F3118801F012
:103460007BF84FF0000080F31188BDE80840196830
:103470000868B0E8F00F80F30988BFF36F8F7047DA
:103480009800002000000000000000000000000084
:10349000074B19680868B0E8F00F80F30988BFF39C
:1034A0006F8F4FF0000080F311884EF00D0E7047C3
:1034B0009800002040F60044C4F2010420464FF476
:1034C0008041FDF7F5FB4FF47A7000F0D9F9F5E78C
:1034D00080B54FF0500080F31188BFF36F8FBFF3BA
:1034E0004F8F01F05BFD30B14EF60450CEF200007C
:1034F0004FF080510160002080F3118880BD0000F2
:103500007047000040F28020C2F20000FEF71ABBB4
:1035100040F21030C2F20000FEF714BB40F228293E
:1035200040F28C0A40F28E0440F27445C2F2000967
:10353000C2F2000AC2F200040FF268080026C2F2CA
:1035400000050FE0404602F095FB86F311882846FF
:103550004FF400618AF800602680FCF7FCFD012032
:1035600000F08EF9D9F82000322100F0E9F90028A6
:10357000F5D09AF800000128F1D14FF0500080F307
:103580001188BFF36F8FBFF34F8F20880028D9D0E9
:10359000002700BFE85D02F067FB20880137874203
:1035A000F8D3CFE70D00000009A400254FF050002C
:1035B00080F31188BFF36F8FBFF34F8F204602F067
:1035C00059FB85F311884FF4FA7000F059F9EDE7D3
:1035D00068656C6C6F20776F726C64210D00000061
:1035E000406A0021C185C184FEF706BD81B090F814
:1035F0004210222920D18368B3F5805F08D1016988
:10360000002965D000F128010A6803685B680AE0B8
:10361000014651F8282F13B90369002BF5D0036830
:103620005B6803F07F0313700A6801320A60C18D82
:1036300001390A04C18501D001B070470168CA6828
:1036400022F02002CA60CA6822F48072CA604A6905
:1036500022F001024A61202280F8422000224263C7
:10366000036B012B3ED1026351E8031F026821F076
:10367000100142E803130168DBB151E8031F02683F
:1036800021F0100142E80313016893B151E8031FD0
:10369000026821F0100142E8031301684BB151E8C0
:1036A000031F026821F0100142E803130168002B98
:1036B000DAD10A68D20606D5002200920A68009282
:1036C000496800910099818D01B0FEF793BC00BF5D
:1036D0000168826A49686FF35F2122F8021B8262E7
:1036E000A5E700BF01B0FFF75DB8000040F2583019
:1036F000C2F20000FEF782BC40F2A030C2F200002D
:10370000FEF77CBCFEE700004FF61842CFF6FF72D2
:1037100011F57A7FC8BF0A46B2F57A7F1346A8BF73
:103720004FF47A73022817D0012818BF7047002A77
:1037300024DC002B22D540F2C820C2F20000C3F1E5
:10374000000C036840F60040C4F201002021002272
:10375000C3F834C0FDF7B4BA40F60040012AC4F201
:1037600001001DDB40F2C821C2F20001D1F800C007
:1037700010210022CCF83830FDF7A2BA40F2C82060
:10378000C2F20000C3F57A7C036840F60040C4F240
:10379000010020210122C3F834C0FDF791BA00BF17
:1037A00040F2C821C2F2000103F57A7C0B681021B7
:1037B0000122C3F838C0FDF783BA000080B582B09B
:1037C000019040F25830C2F2000001A901224FF6E8
:1037D000FF73FFF715F8019802B080BD90B0FDF7B8
:1037E00089FA00240120CDE90B44CDE90944069073
:1037F0000A904FF4E0104FF4803102250F9006A894
:10380000CDE90714CDE90D51FDF76CFC20B1EFF3C4
:10381000108072B6FEE700BF0F20CDE901054FF41E
:103820008060CDE9040401A802210394FDF730FB78
:1038300020B1EFF3108072B6FEE700BFFFF776F914
:10384000FFF742FAFFF7ACFAFFF7D4F9FFF7C6FA31
:1038500040F28C00C2F2000040F25835441CC2F223
:10386000000500BF284621460122FEF771FF00280F
:10387000F8D1FFF7FDF800F00BF800BFFEE70000FD
:1038800080B5002808BF012000F01EFD002080BD8B
:1038900080B500F0F5FD002080BD0000B0B582B01D
:1038A00043685BB101291DD10325012000210022BD
:1038B000009500F061FF02B0B0BD00BF012911D139
:1038C000012000210322002400F014FF30B1002168
:1038D00000220023054600F0BBFF2C46204602B024
:1038E000B0BD00BF0024204602B0B0BD80B582B09C
:1038F00000210191EFF30581A1B101A901F0BEF80A
:10390000012819D1019850B14EF60450CEF20000B2
:103910004FF080510160BFF34F8FBFF36F8F0020D6
:1039200002B080BD00210022002300F091FF013889
:1039300018BFFF2002B080BDFF2002B080BD000094
:1039400080B582B000220192B0B1EFF30582BAB126
:1039500001AA002101F0F6F8012819D1019898B1C7
:103960004EF60450CEF200004FF080510160BFF3DC
:103970004F8FBFF36F8F07E0802002B080BD00BF84
:1039800001F052F9012803D1002002B080BD00BF30
:10399000FF2002B080BD0000B0B584B043698E4600
:1039A00093B1846984B10589D0E9001C026928B209
:1039B000843D18BFC51CCDE9005360467346029490
:1039C00001F0A2FA04B0B0BD0589D0E90013028A63
:1039D00028B2843D18BFC51C03AC18467346009539
:1039E000019401F061FA0399012818BF00210846EB
:1039F00004B0B0BDF0B581B040F29804C2F200044A
:103A00000E46E76921680546081D00F001FB18B164
:103A1000681C0CD016E000BF20680121C06A6268F3
:103A200001FA00F022EA00006060681C0AD14EB181
:103A300054F8500B011D204601B0BDE8F04000F0E5
:103A400049BB00BF2068ED19456007D3606B216852
:103A5000043101B0BDE8F04000F00ABB206B2168E2
:103A6000043100F005FB606A854238BF656201B031
:103A7000F0BD00002DE9F041044600F039FB40F2B2
:103A80009806C2F20006306940F2E8350130306134
:103A90003068C2F2000548B17069002840D1306832
:103AA000E16AC06A884298BF346039E034603069A6
:103AB000012835D1284600F0CBFA05F1140000F0BA
:103AC000C7FA05F1280000F0C3FA05F13C0000F048
:103AD000BFFA05F1500000F0BBFA05F1640000F0F8
:103AE000B7FA05F1780000F0B3FA40F29818C2F284
:103AF0000008404600F0ACFA08F11407384600F020
:103B0000A7FA06F1640000F0A3FA06F13C0000F009
:103B10009FFA06F1500000F09BFAC6F830807763F8
:103B20007068B16801220131B160E16A8A401043D6
:103B3000706001EB810005EB8000211D00F0CAFAE6
:103B400000F0FAFA706988B13068E16AC06A8842A8
:103B500028BFBDE8F0814EF60450CEF200004FF0D1
:103B600080510160BFF34F8FBFF36F8FBDE8F081CD
:103B700040F2980540F2E8364EF60458C2F20005CD
:103B8000C2F20006CEF200084FF0805703E000BFFB
:103B9000204600F0E9FAE868D0B100F0A9FAA86C74
:103BA000C468201D00F034FA286901382861E868EB
:103BB0000138E86000F0C0FA94F851000228EAD019
:103BC0000128E5D070B9206B00F0CEFAE0E700BF25
:103BD00030680228DFD3C8F80070BFF34F8FBFF3FF
:103BE0006F8FD8E74FF0500080F31188BFF36F8FCD
:103BF000BFF34F8FFEE700002DE9F0470A9F824692
:103C0000386BDDF8248000EB82000A78089C87F886
:103C100034200A7804389946002A20F007064BD051
:103C2000487887F835004878002845D0887887F8A4
:103C30003600887800283FD0C87887F83700C878E1
:103C4000D0B3087987F838000879A8B3487987F89D
:103C50003900487980B3887987F83A00887958B371
:103C6000C87987F83B00C87930B3087A87F83C00F8
:103C7000087A08B3487A87F83D00487AE0B1887A34
:103C800087F83E00887AB8B1C87A87F83F00C87ACA
:103C900090B1087B87F84000087B68B1487B87F8C3
:103CA0004100487B40B1887B87F84200887B002830
:103CB0001CBFC87B87F843000025381D87F8435098
:103CC000062C28BF0624FC62C7E9114500F0CCF998
:103CD00007F1180000F0C8F984F00700B861304619
:103CE00051464A463F617F62FD6487F8505000F0BC
:103CF0007FF9B8F1000F386018BFC8F80070BDE850
:103D0000F087000006480068006880F3088862B603
:103D100061B6BFF34F8FBFF36F8F00DF00BF0000AE
:103D200008ED00E081B00020009040F21C00C2F2DB
:103D3000000000684FF0500181F31188BFF36F8FCE
:103D4000BFF34F8F013007D0FEE700BF009830B9B6
:103D5000009820B9009810B900980028F6D001B05A
:103D600070470000F0B581B0044600F0C1F994F945
:103D70004560012E0FDB04F1240500BF286850B117
:103D8000284601F047FA002818BF00F0F7FAF0B211
:103D9000013E0128F2D8FF2684F8456000F0CCF9F6
:103DA00000F0A6F994F94470012F0EDB04F1100520
:103DB000286850B1284601F02DFA002818BF00F0FD
:103DC000DDFAF8B2013F0128F2D884F8446001B06E
:103DD000BDE8F04000F0B0B970B5044600F0B4FBA7
:103DE00040F2101CC2F2000CDCF8040050B19CF848
:103DF0000000002818BF4FF000404FF000058CBBBA
:103E00008FE000BF40F67440C2F20000C21D22F0F5
:103E1000070210F00701A0EB020318BF10460022B2
:103E20004FF44065CCF81000CCF81420002918BFDE
:103E300003F540654119083921F00701CCF8041059
:103E4000C1E90022DCF80420091AC0E900210120A0
:103E50008CF800004FF00040CCE90211002C4FF02C
:103E600000055ED020405CD104F1100020F0070274
:103E7000600708BF04F10802002A4FF0000550D087
:103E8000DCF8080082424CD8604650F810EFDEF8AB
:103E9000045095422BD2DEF80010B9B174464D683B
:103EA000954217D20B68ABB15D68954216D218687F
:103EB000A0B14568954215D204689CB165689542E9
:103EC00014D22168A6460029E9D110E00CF11000B7
:103ED0000DE000BF8E46204609E000BF9E46084622
:103EE00005E000BF8646184601E000BFA646DCF8A4
:103EF00004108E4514D00168DEF80040AB1A112B77
:103F000004604CD30EEB0205680719D04FF0500047
:103F100080F31188BFF36F8FBFF34F8FFEE700BFB1
:103F2000002501F0B1F9680754D04FF0500080F33C
:103F30001188BFF36F8FBFF34F8F00BFFEE700BF45
:103F40000CF110006B60CEF8042000BF0368AB4298
:103F50000AD21868A8420BD20368AB4204D2186890
:103F60001A46A842F2D304E00246184601E000BF18
:103F70001A4653686C68D618AE4202D11C441546E6
:103F800054602B19834206D1DCF80430984202D0E9
:103F900009C823446B60AA42286018BF156001F16C
:103FA0000805DEF80400DCE90212091A9142CCF897
:103FB000081038BFCCF80C109CF8001000294FF006
:103FC000000118BF40F00040CEE9001001F05CF99C
:103FD0006807AAD1284670BD40F29800C2F20000DE
:103FE000016819B101688A6C01328A6400687047FF
:103FF000034643F62550C0F600004FF0807C21F0C8
:10400000010103E90310A3F1400043F8202C70479D
:10401000D0E9013201699A60D1F804C08268844510
:10402000536008BF4A6000220261086801380860D6
:104030000868704741F67823C2F20003036041F636
:104040007800C2F200000860802010607047000015
:104050004FF0FF31024642F8081F00214260C0E9DC
:1040600003220160704700000021016170470000D9
:1040700010B5D1F800E01EF1010213D000F10804E0
:1040800062681368734511D853681C68744511D869
:104090005A68146874450FD854682368A446734559
:1040A000EED90BE00269D2F804C007E0944622463C
:1040B00004E000BF9C4601E094461A46C1F804C0E3
:1040C000CCF808108A605160086101680131016014
:1040D00010BD0000D0F800C0436808619A684B60CA
:1040E0008A609A68996051600CF101010160704723
:1040F0004FF0500080F31188BFF36F8FBFF34F8FE5
:1041000040F21C00C2F2000001684A1C026009B1C2
:10411000704700BF4EF60450CEF200000068000663
:1041200008BF70474FF0500080F31188BFF36F8FC6
:10413000BFF34F8FFEE7000040F21C00C2F2000008
:10414000016839B10139016018BF7047002080F360
:10415000118870474FF0500080F31188BFF36F8FC4
:10416000BFF34F8FFEE7000070B5002808BF70BD99
:1041700040F21016C2F200060446307854F8041CCF
:10418000002818BF4FF0004008420DD0A4F10805E8
:104190002A689AB14FF0500080F31188BFF36F8FF7
:1041A000BFF34F8FFEE700BF4FF0500080F3118840
:1041B000BFF36F8FBFF34F8FFEE700BF21EA000010
:1041C00044F8040C00F0C0F954F8041CB06808442A
:1041D000B06006F1100000BF0368AB420AD2186855
:1041E000A84221D20368AB4204D218681A46A842FA
:1041F000F2D301E0024618465368D418AC4202D10B
:104200001944154651606B18834205D17368984272
:1042100002D009C819446960AA42286018BF156015
:10422000BDE8704001F030B81A465368D418AC426B
:10423000E9D1E5E74EF21000CEF200000021016066
:10424000816040F21801C2F20001096844F6D352BD
:10425000C1F26202A1FB02124FF0FF3101EB921199
:10426000416007210160704740F22810EFF305819B
:104270001029C2F2000011D34EF2F032CEF2000249
:10428000895C0278914209D24FF0500080F3118886
:10429000BFF36F8FBFF34F8FFEE700BF4EF60C5199
:1042A000CEF200010968406801F4E061814298BFE4
:1042B00070474FF0500080F31188BFF36F8FBFF34A
:1042C0004F8F00BFFEE7000070B500283FD040F2DE
:1042D0009805C2F200050446A86948B14FF05000A5
:1042E00080F31188BFF36F8FBFF34F8FFEE700BFDE
:1042F000A8690130A861EE6928680430FFF788FEDC
:1043000050B12868A419446013D3686B296804313C
:10431000FFF7AEFE16E000BF28680121C06A6A6898
:1043200001FA00F022EA000068602868A4194460DD
:10433000EBD2286B29680431FFF79AFE686A844241
:1043400038BF6C6200F0A0FF002818BF70BD4EF6A9
:104350000450CEF200004FF080510160BFF34F8F48
:10436000BFF36F8F70BD000040F29801C2F20001F0
:104370008A6B0260C96941607047000040F2980092
:10438000C2F20000012181627047000010B578B1CF
:104390000C4640F29801C2F2000109681831FFF79B
:1043A00067FE20460121BDE81040FFF723BB00BF98
:1043B0004FF0500080F31188BFF36F8FBFF34F8F22
:1043C000FEE70000F0B581B020B3836C04461BB358
:1043D000626CE06A8A4238BF0A4690421AD0012BCA
:1043E00018D140F29806C2F200063168A1421DD0F1
:1043F000A169E26200295CBFC2F10701A16140F23C
:10440000E837616900EB8000C2F2000707EB80002B
:10441000814215D001B0F0BD4FF0500080F31188FB
:10442000BFF36F8FBFF34F8FFEE700BF4FF0500019
:1044300080F31188BFF36F8FBFF34F8FFEE700BF8C
:10444000251D2846FFF7E4FDE16A50B901EB810024
:1044500057F8200028B901207268884022EA00003D
:104460007060012072688840024301EB810007EB15
:1044700080002946726001B0BDE8F040FFF72ABE17
:10448000B0B588B00020CDE9050006A805A904AAAA
:10449000FFF7D0FD0598A8B3069C002C3CD0542112
:1044A000049A07910799542940D12063022084F887
:1044B000510007A80025CDE9005043F67130C0F641
:1044C00000001FA100230294FFF796FB2046FFF790
:1044D000D1FA079940F29800C2F20000016279B166
:1044E0004FF0500181F31188BFF36F8FBFF34F8FEF
:1044F0004FF0FF31416201214161C56100F064F874
:1045000008B0B0BD4FF0500080F31188BFF36F8F3B
:10451000BFF34F8FFEE700BF4FF0500080F31188CC
:10452000BFF36F8FBFF34F8FFEE700BF4FF0500018
:1045300080F31188BFF36F8FBFF34F8FFEE700BF8B
:1045400049444C450000000040F29800C2F20000CF
:10455000816901318161704740F29800C2F2000028
:10456000816900291EBF012181627047002181629B
:104570004168B1FA81F1C9B2C1F11F0140F2E832DC
:1045800001EB8101C2F2000252F8213063B102EB6B
:10459000810252F8041F4968131D994211600DD021
:1045A000C9680160704700BF4FF0500080F3118868
:1045B000BFF36F8FBFF34F8FFEE700BF49681160F5
:1045C000C968016070470000B0B584B04EF2004C7D
:1045D000CEF2000C9CF800100291FF218CF8001024
:1045E0009CF800108DF807109DF8071001F050029C
:1045F00040F22811C2F200010A7007224A609DF9B8
:104600000720B2F1FF3F5FDC032200BFD31C4B60E9
:104610009DF8070040008DF807009DF90700B0F1F4
:10462000FF3F23DC931C4B609DF8070040008DF892
:1046300007009DF90700B0F1FF3F17DC531C4B60EA
:104640009DF8070040008DF807009DF90700B0F1C4
:10465000FF3F0BDC4A609DF80700043A40008DF8EC
:1046600007009DF907000028D0D4131D032B2BD180
:104670004FF44070486002988CF80000DCF8200984
:1046800040F47000CCF82009DCF8200940F07040BC
:10469000CCF82009FFF7CEFD40F21C04C2F2000462
:1046A00000252560FFF72EFBFFF756FF03952068D6
:1046B0004FF0500181F31188BFF36F8FBFF34F8F1D
:1046C000013011D0FEE700BF4FF0500080F3118899
:1046D000BFF36F8FBFF34F8FFEE700BF039830B972
:1046E000039820B9039810B903980028F6D0002049
:1046F00004B0B0BDF0B581B0A0B305464843483022
:104700000E46002908BF4820FFF766FB044630B379
:104710000027204684F84670002E18BF48302060DD
:10472000C4E90F56FFF7E4FC2068D4E90F12A76331
:1047300002FB0103013901FB0201C4E90130FF2042
:10474000E16084F8440084F8450004F11000FFF7AC
:104750007FFC04F12400FFF77BFCFFF7EDFC204613
:1047600001B0F0BD4FF0500080F31188BFF36F8FA0
:10477000BFF34F8FFEE7000010B582B070B11C464A
:10478000B3B1F9B9F2B14FF0500080F31188BFF323
:104790006F8FBFF34F8F00BFFEE700BF4FF0500099
:1047A00080F31188BFF36F8FBFF34F8FFEE700BF19
:1047B0004FF0500080F31188BFF36F8FBFF34F8F1E
:1047C000FEE700BF51B14AB94FF0500080F31188A5
:1047D000BFF36F8FBFF34F8FFEE700BF48230193F6
:1047E000019B482B2AD10123002984F8463014BFAD
:1047F00022602460C4E90F01FFF77AFC2068D4E945
:104800000F12002302FB010C013901FB0201A3631B
:10481000C4E901C0FF20E16084F8440084F8450049
:1048200004F11000FFF714FC04F12400FFF710FC62
:10483000FFF782FC204602B010BD00BF4FF05000D1
:1048400080F31188BFF36F8FBFF34F8FFEE7000037
:104850002DE9F04F83B00292C0B11D4617460E46B7
:104860000446E9B1022D03D1E06B012840F08880B5
:1048700000F084FB10BB0FB34FF0500080F31188A1
:10488000BFF36F8FBFF34F8FFEE700BF4FF05000B5
:1048900080F31188BFF36F8FBFF34F8FFEE700BF28
:1048A000206C0028DED04FF0500080F31188BFF359
:1048B0006F8FBFF34F8F00BFFEE700BFFFF718FCFD
:1048C000A06B022D66D0E16B884263D304F110081F
:1048D00001206F460DF108090DE000BF2046FFF7EB
:1048E00041FA00F0D1FCFFF703FCA06BE16B8842BA
:1048F0004FF000004ED30299002973D0C00702D0B8
:104900003846FFF731FDFFF717FCFFF71DFEFFF7F5
:10491000EFFB94F84400FF2804BF002084F8440013
:1049200094F84500FF2804BF002084F84500FFF7F5
:1049300003FC3846494600F065FA002858D1FFF7D5
:10494000D7FBD4F838A0D4F83CB0FFF7F5FBDA4534
:10495000C4D102994046FFF719FD2046FFF702FA3D
:1049600000F092FC0028BED14EF60450CEF20000BA
:104970004FF080510160BFF34F8FBFF36F8FB2E7ED
:104980004FF0500080F31188BFF36F8FBFF34F8F4C
:10499000FEE700BFA76B226CD2B19DB3E068314641
:1049A000FBF7C0FBE168206C2268091A9142E160C4
:1049B00003D2616840420844E060A81EB0FA80F06B
:1049C00040093946002F18BF012108403F1A26E050
:1049D0002068002520BB606800F064FB6560054628
:1049E0001EE000BFFFF7A8FB002003B0BDE8F08F7A
:1049F0002046FFF7B7F900F047FC002003B0BDE800
:104A0000F08F00BFA0683146FBF78CFB216CD4E926
:104A1000012008449042A06001D32068A0600025D6
:104A2000781CA06354F8240FA0B1204600F0F2FBDC
:104A300050B14EF60450CEF200004FF080510160AC
:104A4000BFF34F8FBFF36F8FFFF776FB012003B0EB
:104A5000BDE8F08F002DF7D04EF60450CEF20000E6
:104A60004FF080510160BFF34F8FBFF36F8FFFF79F
:104A700063FB012003B0BDE8F08F000070B568B1A2
:104A80000546006CA0B14FF0500080F31188BFF3D1
:104A90006F8FBFF34F8F00BFFEE700BF4FF0500096
:104AA00080F31188BFF36F8FBFF34F8FFEE700BF16
:104AB00028680C4660B3FFF7D7FBEFF311864FF081
:104AC000500080F31188BFF36F8FBFF34F8FA96B36
:104AD000E86B814218D295F845000131FF28A9639F
:104AE00024D155F8240F48B3284600F093FB014623
:104AF000002C4FF0010018BF00291BD001202060BE
:104B000086F3118870BD00BF002086F3118870BD48
:104B100068680028CFD04FF0500080F31188BFF3B1
:104B20006F8FBFF34F8F00BFFEE700BF013085F8E6
:104B30004500012086F3118870BD00BF012086F377
:104B4000118870BD2DE9F04381B000283ED0914618
:104B500005460E46002943D0FFF786FBEFF3118888
:104B60004FF0500080F31188BFF36F8FBFF34F8F6A
:104B7000AC6B002C42D095F844702A6C52B1E868B6
:104B80006B688118E960994224BF2968E960304662
:104B9000FBF7C8FA601EFF2FA86335D155F8100F38
:104BA00000283BD0284600F035FB0146B9F1000F44
:104BB0004FF0010004D000291CBF0120C9F80000FB
:104BC00088F3118801B0BDE8F08300BF4FF05000BA
:104BD00080F31188BFF36F8FBFF34F8FFEE700BFE5
:104BE000286C0028B8D04FF0500080F31188BFF334
:104BF0006F8FBFF34F8F00BFFEE700BF002088F329
:104C0000118801B0BDE8F083781C85F844000120CC
:104C100088F3118801B0BDE8F08300BF012088F35C
:104C2000118801B0BDE8F0832DE9F04F83B0029107
:104C300060B10446006C98B14FF0500080F31188C9
:104C4000BFF36F8FBFF34F8FFEE700BF4FF05000F1
:104C500080F31188BFF36F8FBFF34F8FFEE700BF64
:104C60000D4600F08BF958B955B14FF0500080F364
:104C70001188BFF36F8FBFF34F8F00BFFEE700BFF8
:104C8000FFF736FAA16BF9B1481EA063206810B98E
:104C9000FFF7A2F9606054F8100F70B1204600F0E1
:104CA000B9FA50B14EF60450CEF200004FF08051E8
:104CB0000160BFF34F8FBFF36F8F0124FFF73CFA02
:104CC000204603B0BDE8F08F04F124094FF0000B3B
:104CD00001206E4602AF4FF000082AE0FFF72CFAE1
:104CE000FFF732FCFFF704FA94F84400FF2808BFEE
:104CF00084F844B094F84500FF2808BF84F845B014
:104D0000FFF71AFA3046394600F07CF8D0B1204659
:104D1000FFF728F800F0B8FAFFF7EAF9A56BFFF7FC
:104D20000BFA002D4ED0FFF7E3F9A16B002000290C
:104D3000AAD10299C1B3C007D0D03046FFF714FB07
:104D4000CCE700BFFFF7D4F9D4F838A0FFF7F4F9A7
:104D5000BAF1000F06D02046FFF704F800F094FAED
:104D6000E1E700BF206838B9FFF7C2F9606800F0DA
:104D7000F5F98046FFF7E0F902994846FFF706FB90
:104D80002046FEF7EFFF00F07FFA0028CBD14EF669
:104D90000450CEF200004FF080510160BFF34F8FFE
:104DA000BFF36F8FBFE700BFB8F1000F22D04FF005
:104DB000500080F31188BFF36F8FBFF34F8F00BF98
:104DC000FEE700BFB8F1000F0AD0FFF791F9D9F85C
:104DD000000058B1206B0068C0F1070107E000BF78
:104DE0000024204603B0BDE8F08F00BF00216068BA
:104DF000FFF7E8FA0024FFF79FF9204603B0BDE86B
:104E0000F08F0000B0B5D8B10D4619B30446FFF7D6
:104E10006FF940F2980CC2F2000CDCF81C202968F3
:104E20004B1C21D0D4E9000EDCF83830834221D06D
:104E300072451FD30124FFF77FF92046B0BD00BFA4
:104E40004FF0500080F31188BFF36F8FBFF34F8F87
:104E5000FEE700BF4FF0500080F31188BFF36F8F63
:104E6000BFF34F8FFEE700BF0024FFF765F9204630
:104E7000B0BD00BFA2EB0E0291420DD9881A286086
:104E8000DCF838002060DCF81C0060600024FFF7CC
:104E900053F92046B0BD00BF002001242860FFF771
:104EA0004BF92046B0BD00002DE9F04383B0074622
:104EB0009000984615468946FEF78EFFF8B10646E3
:104EC0005420FEF789FFB8B10446DDE90A1000223C
:104ED000266384F85120CDE90010384649462A4619
:104EE00043460294FEF788FE2046FEF7C3FD0120EC
:104EF00003B0BDE8F08300BF3046FFF735F94FF04F
:104F0000FF3003B0BDE8F08370B586B00B9CBCB138
:104F10000C9EFEB154250495049D542D24D10A9D68
:104F20003463022486F8514005ACCDE90054029662
:104F3000FEF762FE3046FEF79DFD059806B070BD97
:104F40004FF0500080F31188BFF36F8FBFF34F8F86
:104F5000FEE700BF4FF0500080F31188BFF36F8F62
:104F6000BFF34F8FFEE700BF4FF0500080F3118872
:104F7000BFF36F8FBFF34F8FFEE7000040F2980042
:104F8000C2F20000416900290FBF01208069B0FA18
:104F900080F0400918BF4000704700002DE9F0473D
:104FA00040F29806C2F20006B06928B1F06A002407
:104FB0000130F0626EE000BFF06910F1010AC6F83E
:104FC0001CA020D3306B006850B14FF0500080F32C
:104FD0001188BFF36F8FBFF34F8F00BFFEE700BF95
:104FE000306B716B31637063B06B0130B063306BE9
:104FF000006828B1306BC068C068406802E000BF3C
:105000004FF0FF307062706A40F2E8388245C2F2B9
:10501000000801D2002434E0306B0024006868B33B
:105020004FF0010916E000BFF86A716809FA00F252
:10503000114300EB8000716008EB80002946FFF708
:1050400049F8F86A3168C96A326B8842106828BF2B
:105050004C4698B1306BC068C7683D4655F8040FA0
:1050600082450DD32846FEF7D3FFB86A0028DBD06F
:1050700007F11800FEF7CCFFD6E700BF4FF0FF3076
:1050800070623068C06A00EB800058F82000012888
:1050900088BF0124B06A002818BF01242046BDE85B
:1050A000F0870000F0B581B090B140F29807C2F2ED
:1050B000000704463868A0420ED04FF0500080F33D
:1050C0001188BFF36F8FBFF34F8F00BFFEE700BFA4
:1050D0000026304601B0F0BDA06CA8B3E16A626C56
:1050E000013891424FF00006A064F2D00028F0D1C0
:1050F000251D2846FEF78CFF002840F2E830C2F25A
:1051000000000CD1E16A01EB810250F8222032B993
:1051100001227B6802FA01F123EA01017960616CE6
:105120000126C1F10702E162A2617A6806FA01F381
:1051300001EB81011A4300EB810029467A60FEF7FA
:10514000C9FF304601B0F0BD4FF0500080F3118828
:10515000BFF36F8FBFF34F8FFEE70000F0B581B054
:1051600020B340F29806C2F200060446C06A3168D5
:10517000C96A88421ED2A169002904D43168C96A6B
:10518000C1F10701A16140F2E837616900EB8000DD
:10519000C2F2000707EB8000814215D03068C06A78
:1051A000E0620124204601B0F0BD00BF002420468B
:1051B00001B0F0BD606C31680024C96A884238BF14
:1051C0000124204601B0F0BD251D2846FEF720FF32
:1051D00060B9E06A00EB800157F8211031B9012174
:1051E000726801FA00F022EA000070603068C06A5C
:1051F000E0620124716804FA00F2114300EB8000C0
:10520000716007EB80002946FEF764FF204601B07D
:10521000F0BD000070B5C068C5686DB105F1180437
:105220002046FEF7F5FE40F29806C2F20006B0698D
:1052300060B106F164001BE04FF0500080F311886C
:10524000BFF36F8FBFF34F8FFEE700BF2C1D2046CB
:10525000FEF7DEFEE86A0121726881401143716049
:1052600040F2E83100EB8000C2F2000101EB800067
:105270002146FEF72FFFE86A3168C96A884292BF6B
:1052800000200120B06270BD2DE9F04140F2980588
:10529000C2F20005A86968B1FEF72AFFA8690138C3
:1052A000A861A86980B10024FEF746FF2046BDE84A
:1052B000F08100BF4FF0500080F31188BFF36F8F73
:1052C000BFF34F8FFEE700BF28690028EBD0686E60
:1052D00078B340F2E8380126C2F20008286FC768A8
:1052E00007F11800FEF794FE3C1D2046FEF790FEE5
:1052F000F86A696806FA00F2114300EB8000696001
:1053000008EB80002146FEF7E5FEF86A2968C96AC5
:10531000884228BFAE62686E0028DFD1286B006823
:1053200020B1286BC068C068406801E04FF0FF30D2
:105330006862EC6A4CB10126FFF730FE002818BF06
:10534000AE62013CF8D10020E862A86A0028AAD029
:105350004EF60450CEF200004FF080510160BFF3D2
:105360004F8F0124BFF36F8FFEF7E6FE2046BDE8A6
:10537000F08100000FB4054B10B503A9044A029850
:1053800000F0DAF810BC5DF814FB0000BD3700082F
:105390000000002002E008C8121F08C1002AFAD14C
:1053A00070477047002001E001C1121F002AFBD1A5
:1053B000704700002DE9FF5F82B00021DDE9043075
:1053C000020DDDF840B0034318D044F61050A2F2AD
:1053D000FF3242431514119801281FD0A5EB0B0092
:1053E000401C5FEA000A4FF000064E4FDFF838918C
:1053F000B046504615D5CAF1000413E011980124B7
:105400004AA3012801D16FEA0B010298119AC0E961
:105410000031C0E9024206B0BDE8F09FCBF10000C8
:10542000DFE704460021404A491842EB0450CDE929
:10543000001012E0E00707D032463B46404649469E
:10544000FAF71EFF8046894632463B46104619460B
:10545000FAF716FF06460F466410002CEAD1DDE984
:105460000401DDE90023BAF1000F06DAFAF708FFBC
:1054700042464B46FAF704FF05E0FAF773FF42464F
:105480004B46FAF76FFF04460E460022284BFBF707
:105490001BFA03D84FF0FF30014607E00022254BEE
:1054A00020463146FBF750F9FBF7F5F9102409E0E7
:1054B000002C0ADB0A220023FBF781F8039B303221
:1054C0001A55641E50EA0102F2D1641C039AC4F119
:1054D00011031444119A012A03D0012208430DD16B
:1054E0000AE0084304D000204FF0110B119072E73E
:1054F000A3EB0B056D1E0DE05B4504DD4FF00002D4
:1055000005F1010504E003DA4FF00002A5F1010501
:10551000002AECD002981199C0E90231C0E9004597
:1055200079E70000000014400000F03F3000000068
:105530000000F0430000E03F2DE9FF4F95B09B468F
:105540008946064600250FE2252877D10024274604
:10555000F84A0121059400E0044316F8013F203B7E
:1055600001FA03F01042F7D130782A2811D06FF0F9
:105570002F033078A0F13002092A16D8059A44F09A
:10558000020402EB820203EB42021044761C0590F7
:10559000EFE759F8042B0592002A03DA504244F44D
:1055A0000054059044F00204761C30782E2816D161
:1055B00016F8010F44F004042A280DD06FF02F02D2
:1055C0003078A0F13003092B09D807EB870302EBF1
:1055D0004303C718761CF3E759F8047B761C307830
:1055E0006C280FD006DC4C2817D068280DD06A280C
:1055F00014D104E0742810D07A280FD10DE044F4BF
:1056000000140AE044F4801401E044F44014727879
:10561000824202D104F58014761C761C307866280C
:105620000BD013DC582877D009DC002875D045282A
:10563000F6D04628F4D047281AD19DE118E0632817
:1056400035D0642879D0652812D195E1702873D0BF
:1056500008DC6728F1D069286FD06E280DD06F283C
:1056600006D1B5E073282CD0752875D0782874D071
:105670005A46179990476D1C75E1C4F302500228F1
:1056800009D003280DD0D9F8001004280DD00D60E2
:1056900009F1040967E1D9F80010EA17C1E90052DD
:1056A000F6E7D9F800100D80F2E70D70F0E719F871
:1056B000041B8DF8001000208DF80100EA4601203F
:1056C00003E059F804AB4FF0FF3061074FF00001E1
:1056D00002D40DE008F101018846B9420FDA804595
:1056E000F8DB1AF808100029F4D108E008F10101EC
:1056F00088468142FADB1AF808100029F6D105988D
:105700005B46A0EB080721463846179A00F094FA4A
:10571000284400EB080507E04DE029E10DE01AF808
:10572000010B5A4617999047B8F10108F7D25B462A
:1057300021463846179A13E142E00A220092C4F348
:1057400002524FF0000A022A08D059F804CB032A6B
:105750004FEAEC710AD00DE029E02AE009F10701D7
:1057600021F00702F2E802C1914609E00FFA8CFC31
:105770004FEAEC71042A03D14FFA8CFC4FEAEC712A
:10578000002907DA0A460021DCF1000C61EB020176
:105790002D2202E0220504D52B228DF804200122BF
:1057A00003E0E20701D02022F7E7904659E00A2102
:1057B00002E010220DE010214FF0000A00910BE0F2
:1057C00010224FF0000A44F004040827009203E07E
:1057D00008224FF0000A0092C4F30252022A05D0B8
:1057E00059F804CB0021032A08D009E009F1070188
:1057F00021F00702F2E802C1914605E01FFA8CFC95
:10580000042A01D10CF0FF0C4FF00008220728D524
:10581000702806D0009B83F0100353EA0A0305D0DA
:105820000EE040228DF80420012208E05CEA01022B
:1058300006D030228DF804208DF805000222904613
:10584000009B83F0080353EA0A030AD15CEA0102D1
:1058500001D1620705D530228DF804204FF00108F0
:105860007F1E582804D034A003900EA802900DE0AB
:1058700036A0F9E753466046009AFAF7A0FE844640
:105880000398825C0298401E029002705CEA01005C
:10589000F0D1029806A9081A00F1200A600702D583
:1058A00024F4803400E00127574502DDA7EB0A000D
:1058B00000E0002000EB0A01009005984144401AE6
:1058C0000590E00306D45B462146179A059800F040
:1058D000B3F90544002706E001A85A46C05D1799B0
:1058E00090476D1C7F1C4745F6DBE0030CD55B46FB
:1058F0002146179A059800F09FF9054404E03020EE
:105900005A46179990476D1C0099481E009000292F
:10591000F5DC08E0029802995A460078491C029189
:10592000179990476D1CBAF10001AAF1010AF1DC48
:1059300065E1000009280100303132333435363753
:1059400038396162636465660000000030313233CB
:10595000343536373839414243444546000000006B
:1059600000F058F90544761C307800287FF4ECAD3F
:1059700019B02846BDE8F08F620700D4062709F168
:10598000070222F0070CFCE80223E14603F000487E
:105990005FEA080C02D00FF2702C0DE05FEA045CA5
:1059A00002D50FF2682C07E05FEAC47C02D00FF248
:1059B000602C01E0AFF2700C4FF0FF3823F0004391
:1059C000CDF850C065280CD006DC452809D0462803
:1059D0001DD047283DD13DE0662818D067287ED1EC
:1059E00038E00021112F01DB112000E0781CCDE907
:1059F000000106A90EA8FFF7DDFCDDE90F010E9AF4
:105A000003910021009207F1010A04914DE04FF04B
:105A100000400097CDE9011006A90EA8FFF7CAFCC7
:105A2000DDE90F0203920E9B11990022DDF80CA014
:105A30000093049211B9791C00EB010AB7EB0A003C
:105A400004D4C0F1FF3007F1010A0490AAEB07006B
:105A5000019044E0012F00DA01270021112F01DD20
:105A6000112000E03846CDE9000106A90EA8FFF795
:105A7000A1FCDDE90F010E9A03910021049100922F
:105A8000BA4621070CD40399514500DA8A46BAF187
:105A9000010F05DD009AAAF10101515C302908D0FF
:105AA000B84202DA10F1040F06DA0121CDE9011043
:105AB00015E0AAF10101E9E7002805DC0499014499
:105AC0000491AAEB000102E0411C514500DD8A4629
:105AD0000499401A401C01904FF0004002902007AA
