:020000040800F2
:100000009806002001010008A12E0008392C0008E4
:100010009D2E0008810D0008A1330008000000009B
:100020000000000000000000000000003131000866
:10003000850D0008000000002D3100083531000852
:100040001B0100081B0100081B0100081B01000820
:100050001B0100081B0100081B0100081B01000810
:100060001B0100081B0100081B0100081B01000800
:100070001B0100081B0100081B0100081B010008F0
:100080001B0100081B0100081B0100081B010008E0
:100090001B0100081B0100081B0100081B010008D0
:1000A0001B0100081B0100081B0100081B010008C0
:1000B0001B0100081B0100083D3100081B0100085E
:1000C0001B0100081B0100081B0100081B010008A0
:1000D0001B0100080D3200081B010008193200083E
:1000E0001B0100081B0100081B010008DFF80CD0F1
:1000F00000F0B0FB00480047C53300089806002018
:100100000648804706480047FEE7FEE7FEE7FEE7B1
:10011000FEE7FEE7FEE7FEE7FEE7FEE7393100080F
:10012000ED000008D2B201E000F8012B491EFBD21D
:1001300070470022F6E710B513460A4604461946F2
:10014000FFF7F0FF204610BD30B5044600200346FF
:1001500000E05B1C934203D2E05CCD5C401BF8D016
:1001600030BDF0B480EA0102D40F4200B2EB410F7F
:1001700002D20246084611464A0042D0C30DDDB203
:10018000C1F3C752AD1A202D35DAC1F3160141F47F
:10019000000204B15242C5F1200602FA06F12A41DA
:1001A0001044B3EBD05F23D0C4B1012DA0EBC350FA
:1001B00009DCF0BC4FF0004202EAC352DBB200F5AA
:1001C000000000F060B9400000F1807000EBC35007
:1001D000A0F1807040EAD170490009E0490841EA85
:1001E000C071A0EBC35000F50000400800EBC35005
:1001F000F0BC00F03FB96142012202EB4101001B5B
:10020000F6E7F0BC704781F00041AAE780F00040BB
:10021000A7E780EA010210B502F00043400022D0B7
:100220004A001FD0010E01EB1261C0F35600C2F369
:10023000560240F4000042F40002A0FB0220000439
:100240007F39140400D0401C50EA124001D4400011
:10025000491EC2B20C0604EBD010401C4008802A94
:1002600002D003E0002010BD20F00100002900DAD8
:100270000020184310BD002801DBC0F10040002918
:1002800001DBC1F10041814201D80120704700200B
:100290007047C10F80EAE0700844CA079623002126
:1002A00000F0F1B800F0004220F00040C10DC0F3B2
:1002B000160040F400007F2901DA002070479629DB
:1002C00003DCC1F19601C84001E096398840002A5C
:1002D000F4D04042704700F0004230F000400AD0B5
:1002E000C10D01F56071C0F3160042EA0151C20868
:1002F00040071143704700200146704701F000435A
:1003000030B421F0004150EA010206D00A0DA2F5F6
:100310006072C1F31301002A02DC30BC0020704778
:10032000440F44EAC104C100E01830BC00EBC250E5
:1003300000F0A0B830B50B46014600202022012471
:1003400009E021FA02F59D4205D303FA02F5491BA3
:1003500004FA02F52844151EA2F10102F1DC30BDB9
:100360002DE9F05F0546002092469B4688460646EA
:10037000814640241BE0284641464746224600F07D
:100380008AFA53465A46C01A914110D3114618466C
:10039000224600F071FA2D1A67EB01084F462246FB
:1003A0000120002100F068FA17EB00094E41201EE1
:1003B000A4F10104DFDC484631462A464346BDE845
:1003C000F09F00000FB40B0010B58AB00FA9009188
:1003D0000E994FF00004234ACC60214CCDE906422F
:1003E00000D004236FF00042CDE901321E4A08928A
:1003F00002466B46002000F009FB0AB010BC5DF815
:1004000014FBF0B585B007464FF0FF300091CDE901
:1004100001011E46002015460C4604903B466A46E4
:10042000314604A8FFF7CEFF04990346601825B1B2
:1004300009B1024600E022462A6000290ED0002BB6
:1004400002DD0099814209D00094001BCDE901042E
:100450003B466A46314604A8FFF7B4FF05B0F0BD3D
:10046000450C0008630C0008DB080008002303604B
:10047000FFF7C7BF0029A8BF7047401C490008BF4D
:1004800020F00100704710B4B0FA80FC00FA0CF0C4
:1004900050EA010404BF10BC704749B1CCF12004FC
:1004A00021FA04F411FA0CF118BF01212143084389
:1004B000A3EB0C01CB1D4FEA00614FEA102042BFB5
:1004C000002010BC704700EBC35010440029A4BFAB
:1004D00010BC7047401C490008BF20F0010010BC50
:1004E00070472DE9FE4F804681EA0300C00F0C469D
:1004F000009021F0004123F00045B8EB0200A94133
:1005000005D24046214690461C460B46024623F043
:100510000040104347D0270DC7F30A00C3F30A5128
:100520000290401A019040286BDAC3F3130040F4A4
:10053000801B0098924620B10023D2EB030A63EBA4
:100540000B0B01985946C0F14002504600F094F957
:1005500006460D4650465946019A00F0ACF910EB9C
:1005600008006141002487EA115284EAE7731A43C4
:1005700040D0009A62B3019A012A4FEA075215DC73
:10058000001B61EB02014FF0004202EA0752CDE985
:100590000042001C41F5801132462B4600F081FBE1
:1005A00003B0BDE8F08F40462146F9E7001B61EB40
:1005B0000201001C41F5801300185B412018A2F5D0
:1005C000001747EB030140EAD570B6196D4111E001
:1005D0006D084FEA360645EAC0754FEA0752001B20
:1005E00061EB0201001C41F5801149084FEA30001F
:1005F0000019514132462B4603B0BDE8F04F00F0E0
:1006000041BB0098012240000023D0EB020263EBC3
:10061000E073009821464FEAE074B8EB000061EB0C
:100620000401E9E783F000435BE781F0004158E70C
:100630002DE9FE4F81EA030404F0004421F000415B
:1006400000944FF0000B23F0004350EA01045ED009
:1006500052EA03045BD0C3F30A54C1F30A552C4495
:10066000A4F2F3340194A0FB0254C1F3130141F44A
:100670008011C3F3130343F4801301FB024400FB16
:10068000034E840A970A44EA815447EA8357A4FB3D
:10069000076802958D0A05FB07854FEA932C04FB3A
:1006A0000C542705029D4FEA065847EA1637B5EB6A
:1006B00008056EEB070C870E920E47EA811742EA97
:1006C0008312A7FB0201B6EB0B0164EB00042B0DB8
:1006D00043EA0C335E1844EB1C50DA465146E7FB04
:1006E0000201C5F313044FEA0B3343EA14534FEAF4
:1006F0000432019C43EA0603A4F10C040294009C1A
:10070000CDE900B400F0CDFA03B0BDE8F08F0020D1
:100710000146F9E72DE9F04D81EA030404F0004BAE
:1007200021F0004514464FF0000A23F0004150EA42
:10073000050220D054EA01021DD0C5F30A57024633
:10074000C5F31303C1F31300C1F30A5640F4801537
:1007500043F48013A7EB0608101BD64608F2FD38B9
:1007600073EB050002D308F1010801E092185B4128
:10077000B8F1000F03DA00200146BDE8F08D00203B
:100780004FF48011064684460EE0171B73EB0507F5
:1007900005D3121B63EB050306434CEA010C490821
:1007A0004FEA300092185B4150EA0107EDD152EA5E
:1007B000030012D082EA040083EA0501084305D051
:1007C000101BAB4106D20122002306E000224FF0AD
:1007D000004302E06FF0010253101AEB06004CEBED
:1007E000085110EB0A0041EB0B01BDE8F04D00F0A1
:1007F00049BAC1F30A52C1F3130140F2FF3341F485
:1008000080119A4202DA00200146704740F23343D9
:100810009A42A2F2334202DC524200F03CB800F0AD
:100820002BB8000030B5041E71F1000404DB4FF05A
:100830000044404264EB0101141E73F1000405DB27
:100840001C464FF00043524263EB0403994208BF39
:10085000904230BD064C074D06E0E06840F00103D1
:1008600094E8070098471034AC42F6D3FFF742FCF7
:10087000483E0008683E0008202A04DB203A00FABF
:1008800002F1002070479140C2F1200320FA03F3E7
:10089000194390407047202A04DB203A21FA02F0E5
:1008A0000021704721FA02F3D040C2F120029140AA
:1008B000084319467047202A06DBCB17203A41FA35
:1008C00002F043EAE07306E041FA02F3D040C2F1DD
:1008D00020029140084319467047C0B24FF4F051CE
:1008E00000F02EBA2DE9FF4F087883B09946FF2813
:1008F00005D0491C2D2804D00024002008E0002049
:100900000BE00124F9E700EB800003EB4000491CF9
:100910000B78FF2BF7D104B14042002302931478E7
:1009200019461D462D2C01D02B2C04D1521C2D2CE8
:1009300013D000240294AA461478FF2C0FD00A2565
:10094000A3FB057801FB05814FF0000C03FB0C11A4
:10095000521CE3194AEB0101EEE70124EAE7814466
:1009600053EA010002D019F5C87F06DA0398002186
:10097000C0E9001107B0BDE8F08F0025AE4E2F464C
:10098000DFF8B882184600F0EFF9CDE90001B9F1BF
:10099000000002DAC9F1000400E004460023A74A7F
:1009A0001AEB030B42EB045A12E0E00707D02A4689
:1009B000334638464146FFF73BFE074688462A46FF
:1009C000334610461946FFF733FE05460E466410BF
:1009D000002CEAD1DDE90001B9F1000F5A46534677
:1009E00006DAFFF797FE3A464346FFF793FE05E027
:1009F000FFF71EFE3A464346FFF71AFE029A0AB177
:100A000081F00041039AC2E90001B3E72DE9FF4FED
:100A10001F468DB0D7E901464FF0FF382E204546DE
:100A20004FF000090B90B9696D1C0E988847396A20
:100A3000824688470028F6D1BAF1FF3F0AD024F455
:100A4000D064002E11DDBAF12B0F08D0BAF12D0FB2
:100A50000BD102E0404611B08DE744F48064B969DF
:100A60006D1C0E9888478246761E6946600501D542
:100A70002D2000E02B208DF8000001F1010B0DF17D
:100A8000200809E0B9696D1C0E98884782460F98C6
:100A900044F40074761E0560002E02DDBAF1300FBA
:100AA000F0D00B998A453ED144F0800406E00F99BE
:100AB000681CA9F1010944F400740860B9696D1C4F
:100AC000761E0E98884782463028F0D02BE00B998E
:100AD0008A4505D1200603D444F08004761E18E030
:100AE000504602F0C3FD08B30DF11302761EAAF1C1
:100AF000300044F40074934506D20BF8010B200635
:100B000007D5A9F1010003E0200602D409F1010094
:100B10008146A00502D50F99681C0860B9696D1C53
:100B20000E9888478246002ED1DC53E0002E51DD1E
:100B3000BAF1650F02D0BAF1450F4BD1A00549D5E6
:100B4000B9696D1C24F44074761E0E98884782465D
:100B5000002E0CDD2B2804D0BAF12D0F07D144F460
:100B60008074B9696D1C0E9888478246761EE00530
:100B700001D52D2100E02B2108F8011BCDF82C8098
:100B800021E00DF12901761E44F4007488450CD251
:100B9000AAF1300010F0FF0088F8000002D10B9994
:100BA000884509D908F1010806E0E00501D5244887
:100BB00001E042F20F708146B9696D1C0E988847BA
:100BC00082460F980560002E04DD504602F04EFD6F
:100BD0000028D6D1F9690E988847FF208BF80000CD
:100BE00088F800000020069007904B466A4608A946
:100BF00006A8FFF777FEA00502D46FF001002AE7F0
:100C000014F0240F0AD0E00714D1DDE90612386889
:100C1000031D3B600068C0E900120BE0DDE906013E
:100C2000FFF76CFB0146E00704D13868021D3A600B
:100C30000068016028460EE7000014400000F03F05
:100C4000F1D8FFFF426842B1016811F8013B23B1BE
:100C5000521EC0E90012184670470121C160881E6B
:100C6000704742685AB1C368016843B983688B42D0
:100C700005D0491E521CC0E90012002070474FF0F9
:100C8000FF30704710B5141E73F1000408DA401CE1
:100C900041F1000192185B411A4301D120F001009B
:100CA00010BD2DE9F04D92469B4611B1B1FA81F28B
:100CB00002E0B0FA80F220329046FFF7DDFD0446F4
:100CC0000F4640EA0A0041EA0B0153465A460843E0
:100CD00013D0114653EA010019D0C8F14002504622
:100CE000FFF7D9FD05460E46504659464246FFF7E6
:100CF000C3FD084305D0012004E020463946BDE885
:100D0000F08D0020054346EAE0762C4337430A98ED
:100D10006305E40AA0EB08000022FD0A44EA4754F8
:100D20000A3002D500200146E9E7010510196941A2
:100D3000DDE9084500196941BDE8F04DA2E7000072
:100D40007F2801D9002208E0064A02EB5002C007C2
:100D5000127800D1120902F00F02012090400840E1
:100D600070470000DC3D00080EB540F233420292AD
:100D70000022CDE900221346FFF793FF03B000BD28
:100D8000FEE7000070470000EFF3108072B600BF6E
:100D9000FEE70000F0B581B040F26C200021032294
:100DA000C2F20000861816F8035C931E3D2D08BFA2
:100DB0001946202D14D016F8025C3D2D08BF511E97
:100DC000202D0ED0C92A0FD016F8013C3D2B08BFAC
:100DD0001146202B02F10302E4D1131F01E000BFF2
:100DE000D31E5A1E01E000BF0022CBB2C55C2D2DE0
:100DF00008BF0131521AD2B2042AC9B226D0032A3E
:100E000058D1425C4618A2F13000FFF742FA04467E
:100E1000B078F6783038FFF73CFA4CF6CD41C3F69F
:100E2000CC51FFF7F6F92146FFF79BF90446A6F1EE
:100E30003000FFF72EFA4DF20A71C3F62341FFF797
:100E4000E8F92146FFF78DF935E000BF425C46180E
:100E5000A2F13000FFF71DFA0446B078F778367932
:100E60003038FFF716FA4CF6CD41C3F6CC51FFF7F8
:100E7000D0F92146FFF775F90446A7F13000FFF7D6
:100E800008FA4DF20A71C3F62341FFF7C2F9214671
:100E9000FFF767F90446A6F13000FFF7FAF941F2CF
:100EA0006F21C3F68321FFF7B4F92146FFF759F903
:100EB00001E000BF00202D2D08BF80F0004001B0F0
:100EC000F0BD0000014690F82100022816D1086804
:100ED000D1E90FC3026822F00E020260026822F01C
:100EE00001020260012000FA03F2CCF8042081F82C
:100EF00021000020002281F8202070470420886310
:100F00000120002281F820207047000080B590F871
:100F10002110022924D10268116821F00E0111600C
:100F20002F211368C4F202018A4240F20401C4F284
:100F3000020123F00103136016DD3023C4F2020323
:100F40009A421DD04423C4F202039A421CD0582373
:100F5000C4F202039A421DD14FF4803322E000BF55
:100F600004218163012080BD0823C4F202039A4258
:100F70000ED01C23C4F202039A420BD1102311E0BD
:100F80004FF480730EE000BF4FF480530AE000BFBF
:100F9000012307E001F1680C4FF08073624508BF40
:100FA0004FF480130B60416B4FF48072028401B1E7
:100FB0008847002080BD0000B0B5044600F020F94D
:100FC000054640F21400C2F200000078611C18BF10
:100FD000044400BF00F014F9401BA042FAD3B0BD96
:100FE0002DE9F04F82B041F20042C4F201020E68D6
:100FF0000423904208BF0323002E009300F0F680E4
:1010000040F20C4E4FF6FF7CC4F2010E0022012488
:10101000C1F2100C4FF0000A4FF0000943E000BF8E
:10102000012502F00C040F27A7402BEA070705FA59
:1010300004F43C4343F82640D1F804B040F20045A4
:10104000C4F201055FEACB332B6854BF23EA0803DF
:1010500043EA08032B606B685FEA8B3454BF23EAD2
:10106000080343EA08036B605FEACB24AB6854BF14
:1010700023EA080343EA08035FEA8B24AB60DEF847
:1010800000304FF0010454BF23EA080343EA080389
:10109000CEF800300E680AF1010A36FA0AF302F1BE
:1010A000040200F0A38004FA0AF816EA080FF1D04F
:1010B0004B68634512DC122B56D8DFE803F0350B82
:1010C0004549555555555555555555555555554DF4
:1010D000510000BFD1F80C9046E000BF4FF6FF77FB
:1010E000C1F22107BB420FDC0027C1F21107BB424E
:1010F0001AD00027C1F21207BB4215D00027C1F257
:101100002107BB4210D02FE00027C1F22207BB42CB
:101110000AD00027C1F23107BB4205D00027C1F237
:101120003207BB4220D100BF8B684BB1012B14BFEB
:10113000C0F81480C0F810804FF0080914E000BF18
:101140004FF0040910E000BFCB6803F108090BE081
:101150004FF0000908E000BFCB6803F1040903E089
:10116000CB6803F10C0900BF13460546BAF1080F1E
:1011700024BF203B04352E680F279F40BE4309FA49
:1011800003F333432B60CB79DB067FF583AF41F26A
:101190001804C4F2020423684FEA9A0643F00103DC
:1011A0002360236840F6000403F001030193019BD0
:1011B00040F20043C4F20103A3F57E7353F826B056
:1011C000C4F20104A0420FD040F60044C4F201046E
:1011D000A0423FF425AF41F20004C4F20104009D97
:1011E000A04208BF02251CE700251AE702B0BDE8AF
:1011F000F08F0000002A08BF090401617047000059
:1012000040F29420C2F200000068704740F21400DF
:1012100040F29421C2F20000C2F2000100780A6894
:10122000104408607047000080B542F20000C4F22C
:101230000200016841F010010160032000F08AF80B
:101240000F2000F005F800F027F8002080BD000016
:1012500070B540F21406C2F2000640F21C0132786A
:10126000C2F200014FF47A730968B3FBF2F204464C
:10127000B1FBF2F1084600F05FFB0F2C4FF00105C7
:1012800008D838B94FF0FF3021460022002500F081
:1012900035F87460284670BD82B041F21800C4F27F
:1012A00002000168022241F001010160016801F0C1
:1012B000010101910199416841F08051416040680C
:1012C00000F08050009000980420C4F201000168F2
:1012D00062F31A61016002B070470000002848BF45
:1012E000704700F01F01012202FA01F14EF20012D4
:1012F0004009CEF2000242F82010704710B54EF6B9
:101300000C5CCEF2000CDCF80030C3F3022E8EF041
:101310000704042C28BF0424BEF103034FF0FF3E52
:101320000EFA04F438BF0023A14399400EFA03F3E8
:101330009A43114300F00F02043A624409010C324F
:1013400000F16043B0F1FF3FC8BF03F56442117084
:1013500010BD00004EF60C51CEF200010A684FF6A7
:10136000FF031A4060F30A2242F0806040F0FD70F3
:10137000086070472DE9F04381B0002800F08580B7
:1013800042F20008C4F202080446D8F800000D46F4
:1013900000F0070088420CD2D8F8000020F00700C7
:1013A0002843C8F80000D8F8000000F00700A84261
:1013B0006BD1206841F204098107C4F2020917D5F4
:1013C000410705D5D9F8001041F4E061C9F80010D3
:1013D000010705D5D9F8001041F46051C9F8001093
:1013E000D9F80010A26821F0F0011143C9F80010EB
:1013F000C00741D1D8F8000000F00700A8420CD97E
:10140000D8F8000020F007002843C8F80000D8F8FA
:10141000000000F00700A84237D12068410707D537
:10142000D9F80010E26821F4E0611143C9F8001016
:10143000000708D5D9F80000216920F4605040EA7F
:10144000C100C9F80000D9F8002002F00C000828FB
:1014500041F20020C0F27A0050D143F63663C2F365
:101460008341C0F60003595CD2033BD440F6001020
:10147000C0F23D00484341E0606802280AD00128DC
:101480002AD159F8041C890308D4012001B0BDE811
:10149000F08300BF59F8041C8901F6D5D9F8001073
:1014A00021F003010843C9F80000FFF7A9FE064632
:1014B00041F28837D9F80000616800F00C00B0EB09
:1014C000810F97D0FFF79CFE801BB842F2D9032012
:1014D00001B0BDE8F08300BF59F8041C8907D4D5DA
:1014E000DCE700BFD9F8002043F61C63C2F340429A
:1014F000C0F600039A5C4843B0FBF2F0D9F8001044
:1015000043F61E62C1F30311C0F60002515C40F2C3
:101510001C0220FA01F140F21800C2F2000000683B
:10152000C2F200021160FFF793FE002001B0BDE897
:10153000F083000040F21C0041F20401C2F20000FE
:10154000C4F202010068096843F62E62C1F3022169
:10155000C0F60002515CC8407047000040F21C0019
:1015600041F20401C2F20000C4F2020100680968FD
:1015700043F62E62C1F3C221C0F60002515CC8409E
:10158000704700002DE9F04182B0002868D0044681
:10159000007841F20006C007C4F2020625D0706848
:1015A00000F00C0004281BD0706800F00C00082824
:1015B00002D17068C00313D46068002800F068810D
:1015C000B0F5A02F00F07C81B0F5803F00F07C8169
:1015D000306820F480303060306820F4802076E17C
:1015E0003068800301D56068D0B32078800718D5B3
:1015F000706810F00C0F07D0706800F00C0008281D
:101600006ED17068C0036BD43068800702D5206942
:10161000012825D13068616920F0F80040EAC10056
:101620003060207800071FD42078400732D4E56965
:1016300095B1706800F00C00082840F08F80012DF3
:101640000ED07068216A00F480328A4208D1616A43
:1016500000F47010884203D1002002B0BDE8F08190
:10166000012002B0BDE8F081A069002862D000200E
:10167000C4F242200121C0F88014FFF7C1FD0546E5
:10168000706A800700F18C80FFF7BAFD401B0228CA
:10169000F6D92AE1F06910F0805808D1F06940F0DD
:1016A0008050F061F06900F080500090009847F29F
:1016B0000007C4F200073868C00529D4386840F430
:1016C00080703860FFF79CFD054600BF3868C00594
:1016D0001ED4FFF795FD401B6428F7D905E100BF34
:1016E0002069002840F20000C4F2422000F082800D
:1016F00001210160FFF784FD054600BF30688007C7
:101700003FF588AFFFF77CFD401B0228F6D9ECE0DF
:10171000E068002800F08080052800F0978001280C
:1017200000F09880306A20F001003062306A20F0CA
:10173000040092E00020C4F242200021C0F880148E
:10174000FFF75EFD054600BF706A80077FF56CAF4E
:10175000FFF756FD401B0228F6D9C6E00027C4F269
:10176000422700203866FFF74BFD022D05460BD1BE
:101770003068800140F1BE80FFF742FD401B022827
:101780004FF00300F4D968E7306880017FF564AF5B
:10179000FFF736FD401B02284FF00300F4D95CE749
:1017A00040F21C00C2F20000006844F6D351C1F2BE
:1017B0006201A0FB0101480A019000BF00BF01982F
:1017C000411E002801913FF42FAF00BF0198411E38
:1017D000002801913FF428AF00BF0198411E002866
:1017E00001913FF421AF00BF0198411E00280191F3
:1017F000E4D119E700210160FFF702FD054600BFB3
:10180000306880077FF50DAFFFF7FAFC401B022818
:101810004FF00300F4D920E7306A20F00100306275
:10182000306A20F004003062FFF7EAFC054641F21E
:10183000883700BF306A800720D5FFF7E1FC401BE6
:10184000B8424FF00300F5D907E700BF306A40F017
:1018500004003062306A40F001003062FFF7D0FCD3
:10186000054641F2883700BF306A800706D4FFF78B
:10187000C7FC401BB842F7D937E000BFB8F1000FF2
:101880007FF4D5AEF06920F08050F061CFE600BF64
:10189000306820F480303060306820F48020306080
:1018A000FFF7AEFC054600BF306880037FF59DAEB4
:1018B000FFF7A6FC401B64284FF00300F4D9CCE6E8
:1018C000306840F480203060306840F48030306010
:1018D000FFF796FC054600BF306880033FF585AEF4
:1018E000FFF78EFC401B6428F6D9032002B0BDE848
:1018F000F08100BF206AB0F5803F05D17168A26811
:1019000021F40031114371607168626A21F474112D
:1019100010430843706001203866FFF771FC0446ED
:10192000306880013FF598AEFFF76AFC001B022883
:101930004FF00300F4D990E6411E0020B0EB116F88
:101940001CBF012070474EF21002CEF2000251601F
:101950004EF62351CEF20001F0230B700721906068
:1019600011607047704700007047000010B590F894
:101970003C20012A4FF0020233D080F83D2002685B
:10198000D2F804E0D2F808C00C682EF070032343AC
:1019900040F2FF74C4F20004A24253600ADCB2F1C8
:1019A000804F13D040F20043C4F200039A420DD09E
:1019B00011E000BF42F60043C4F201039A4205D091
:1019C00040F60003C4F200039A4204D149682CF0A7
:1019D0008003194391600121002280F83D1080F8B6
:1019E0003C20104610BD0000002804BF01207047B5
:1019F00010B5044690F83D0028B9002084F83C005A
:101A0000204600F067F8022084F83D00206840F28C
:101A1000FF730268C4F2000342F6004C9842C4F21D
:101A2000010C15DCB0F1804F1AD040F20041C4F235
:101A30000001884214D0984218DCB0F1804F1DD0CC
:101A400040F20041C4F20001884217D01AE000BF02
:101A5000604505D040F60001C4F200018842EAD199
:101A6000A16822F070020A439842E6DD604505D085
:101A700040F60001C4F20001884203D1216922F43A
:101A800040720A43A36922F08001D4F804E0E268BE
:101A9000194360450160C262C0F828E002D1616963
:101AA000CCF8301001214161002084F8461084F800
:101AB0003E1084F83F1084F8401084F8411084F8F8
:101AC000421084F8431084F8441084F8451084F8D8
:101AD0003D1010BD80B582B0006840F60001C4F230
:101AE000000188421CBF02B080BD41F21C00C4F25C
:101AF00002000168002241F0040101600068012138
:101B000000F00400019001981E20FFF7F7FB1E2053
:101B100002B0BDE88040FFF7E1BB000090F83D1047
:101B200001291CBF01207047022180F83D10006888
:101B300040F2FF72C168C4F20002904241F001011C
:101B4000C16009DCB0F1804F12D040F20041C4F214
:101B5000000188420CD012E042F60041C4F20101BB
:101B6000884205D040F60001C4F20001884206D147
:101B7000816801F00701062904BF00207047016851
:101B800041F00101016000207047000080B590F82D
:101B90003C20012A4FF0020200F0BF8080F83D2077
:101BA000D0F800C04FF67772DCF8083023EA020262
:101BB000CCF808200B683F2B1CDD5F2B20DD602B51
:101BC00050D0B3F5005F6DD0702B40F0A080D1E90C
:101BD00001E3C968DCF8082043EA0E0322F47F42DF
:101BE00043EA01211143CCF80810DCF8081041F059
:101BF00077018AE01F2B29DC63B3102B2AD086E003
:101C0000402B63D0502B40F08280D1F804E0C968AB
:101C1000DCF82030DCF8202022F00102CCF8202073
:101C2000DCF8182022F0F00242EA011123F00A0247
:101C300042EA0E02CCF81810CCF82020DCF808108C
:101C400041F0570121F020015FE000BF202B01D0BF
:101C5000302B5CD1DCF8081021F07001194341F001
:101C6000070152E0D1F804E0C968DCF8203023F025
:101C70001003CCF82030DCF81830DCF8202023F4F6
:101C8000704322F0A00243EA013142EA0E12CCF87E
:101C90001810CCF82020DCF8081041F0670121F082
:101CA000100132E0D1E901E3C968DCF8082043EA19
:101CB0000E0322F47F4243EA01211143CCF80810BD
:101CC000DCF8081041F480411FE000BFD1F804E0C7
:101CD000C968DCF82030DCF8202022F00102CCF8C2
:101CE0002020DCF8182022F0F00242EA011123F053
:101CF0000A0242EA0E02CCF81810CCF82020DCF8D8
:101D0000081041F0470121F03001CCF80810012102
:101D1000002280F83D1080F83C20104680BD000075
:101D20007047000010B5016804460869800744BF89
:101D3000C8685FEA807039D40869400744BFC86842
:101D40005FEA40703ED40869000744BFC8685FEA94
:101D5000007045D40869C00644BFC8685FEAC06027
:101D60004AD40869C0071CBFC8685FEAC07051D177
:101D70000869000644BFC8685FEA006052D4086979
:101D8000400644BFC8685FEA406053D408698006D3
:101D900046BFC8685FEA806010BD6FF02002204631
:101DA0000A61BDE81040FFF7DFBD00BF6FF0020021
:101DB0000861012020778869800743D02046FFF71B
:101DC000AFFF45E06FF004000861022020778869CA
:101DD00010F4407F40D02046FFF7A2FF42E000BF52
:101DE0006FF00800086104202077C86980073DD0A3
:101DF0002046FFF795FF3FE06FF0100008610820D4
:101E00002077C86910F4407F3AD02046FFF788FF5A
:101E10003CE000BF6FF001000861204600F038FA96
:101E20002168A5E76FF0800008612046FFF79AFD62
:101E30002168A4E76FF040000861204600F0EAFA4C
:101E40002168A3E7204600F025F8204600F0AEF90F
:101E50002168002020776FE7204600F01BF820461D
:101E600000F0A4F92168002020776CE7204600F0FC
:101E700011F8204600F09AF921680020207769E7E0
:101E8000204600F007F8204600F090F92168002075
:101E9000207766E7704700002DE9F04390F83C306A
:101EA000012B04BF0220BDE8F0834FEAB202032AEF
:101EB00000F2E580DFE802F0023A76B0036842F60D
:101EC00000461A6AC4F2010622F001021A621D6A73
:101ED0001A465C6852F818CFB3428E68D1F800E019
:101EE00025F0020545EA06050CD1CE68D1E9057852
:101EF00024F4407425F00C0526F004063C433543D9
:101F000044EA08042CF0730747EA0E075C609F61FF
:101F10004F6809695F631D629F6947F008079F6109
:101F20009F6927F004079F61A6E000BF036842F69F
:101F300000461A6AC4F2010622F010021A621D6AF3
:101F40001A46D3F804C052F8184FB3428E68D1F83D
:101F500000E025F0200545EA06150FD1CE68D1E94D
:101F600005986FF0400707EA06162CF4406725F045
:101F7000C00547EA8907354347EA880C24F4E6445C
:101F800044EA0E27C3F804C09F614F6809699F6344
:101F90001D629F6947F400679F619F6927F480670E
:101FA0009F6168E0036842F600461A6AC4F20106BF
:101FB00022F480721A621D6A1A46D3F804C052F8DD
:101FC0001CEFB3428E680C6825F4007545EA0625BF
:101FD0000FD1CE68D1E90598360240F2FF47BE43E3
:101FE0002CF4405725F4406547EA0917354347EA82
:101FF000081C2EF073072743C3F804C0DF614F6845
:102000000969DF631D62DF6947F00807DF61DF6987
:1020100027F00407DF612FE0036842F600471A6AE1
:10202000C4F2010722F480521A621A46D3F820C083
:102030005D6852F81C4FD1F800E08E68BB4204D1B5
:102040004F6925F4804545EA87152CF4005747EA87
:10205000063724F4E64646EA0E265D60DE614E68E9
:1020600009691E641F62DF6947F40067DF61DF6989
:1020700027F48067DF6109021368194311600021AA
:1020800080F83C100846BDE8F0830000002804BF3B
:102090000120704710B5044690F83D0028B9002093
:1020A00084F83C00204600F067F8022084F83D00E8
:1020B000206840F2FF730268C4F2000342F6004C4D
:1020C0009842C4F2010C15DCB0F1804F1AD040F2F6
:1020D0000041C4F20001884214D0984218DCB0F1EB
:1020E000804F1DD040F20041C4F20001884217D059
:1020F0001AE000BF604505D040F60001C4F20001BF
:102100008842EAD1A16822F070020A439842E6DDD3
:10211000604505D040F60001C4F20001884203D1B9
:10212000216922F440720A43A36922F08001D4F8A5
:1021300004E0E268194360450160C262C0F828E02B
:1021400002D16169CCF8301001214161002084F88E
:10215000461084F83E1084F83F1084F8401084F84C
:10216000411084F8421084F8431084F8441084F835
:10217000451084F83D1010BD81B0006840F2004168
:10218000C4F20001884201D001B0704741F21C0046
:10219000C4F20200016841F002010160006800F031
:1021A00002000090009801B07047000070470000E6
:1021B00041B1082910D0042914BF00F1410200F1F7
:1021C0003F020BE090F83E20012A1CBF012070471F
:1021D000022280F83E2013E000F140021278012A2A
:1021E0001CBF012070470222082907D0042914BF10
:1021F00080F8412080F83F2002E000BF80F84020B6
:10220000006801F01F010122036A8A4023EA0201EB
:102210000162036A42F64441C4F201011A43A1F18A
:102220004403984202620FD040F2FF71C4F20001F1
:10223000884213DCB0F1804F1CD040F20041C4F260
:102240000001884216D01CE00A6842F400420A608D
:1022500040F2FF71C4F200018842EBDD42F600411A
:10226000C4F20101884205D040F60001C4F2000129
:10227000884206D1816801F00701062904BF0020C9
:102280007047016841F001010160002070470000C3
:1022900040F29C11C2F20001884218BF70472DE93C
:1022A000F04F8BB040F2F407C2F20007396A49F6EA
:1022B00098104CF6CD44C1F69910CCF6CC4401FBF5
:1022C0000403BA694FEA730340F204088342C2F27E
:1022D000000811D882B1B968D8F80000012200F0D6
:1022E000C1FED8F80420F968F8621046022200F016
:1022F000B9FEBA69396A386349F69910C1F699107E
:1023000001FB0400B0F1333F71D2002A6FD0F869AD
:1023100000286CD0D7E90204D7E90415FDF773FF54
:102320000646786220462946FDF76DFFB862002117
:10233000D8F80820F86AF9613146012300F024FE3C
:1023400000F54863D8F80C20B96A386BC8F8083033
:10235000022300F019FE414600F61C48D7E90B04A1
:10236000D7E9096AC1F80C800D46FDF7B4FFCDE945
:1023700009102046FDF7AFFF8346D5F80890304698
:102380000D46FDF7A8FF064650460C46FDF7A3FF95
:10239000DDE9093206901AA0CDE900B5CDE9029831
:1023A000CDE90464079101F07FF840F20402C2F223
:1023B0000002906840F6AC518842B8BF014640F632
:1023C00054308142D8BF014640F25410C2F200009E
:1023D0000068D268416340F648518A42B8BF11464E
:1023E000B1F52F6FD8BF4FF42F618163396A481C54
:1023F0006429C8BF012038620BB0BDE8F04F7047B8
:1024000025662C25662C25642C25642C25662C2518
:10241000660A000070470000704700007047000027
:10242000B0B582B0026805461068D368546900F000
:102430002F01202903F0200106D129B1284602B03E
:10244000BDE8B04000F086BE5FEA007C1EBF04F02D
:10245000010E03F4907414EB0E0455D1296B01297D
:1024600005D110F0100118BF13F0100136D101068C
:1024700022D513F080011FD095F83D00212841D1CD
:10248000A868B0F5805F03D12869002800F0F680C5
:10249000286A411C296200785060E88C01380104E8
:1024A000E8842FD1D06820F08000D060D06840F060
:1024B0004000D06002B0B0BD400623D513F040000C
:1024C00020D0D068202120F04000D060284685F838
:1024D0003D1002B0BDE8B04000F0ACBB0020019060
:1024E000106801905068019001985069400613D41B
:1024F000A88DE98DEB8D002B1CBF401A5FEA0041CF
:1025000040F0A48002B0B0BDC40718BF13F48073BC
:102510002CD1430730D436E0A86B01684B689CB2DD
:10252000002CEFD0A98D8C42ECD2EB858369202B57
:1025300017D0D16821F48071D160516921F0010177
:102540005161516921F040015161202185F83E100F
:1025500000212963D16821F01001D160FEF7B2FC9F
:10256000A98DE88D081A81B2284682E02B6C43F0D1
:1025700001032B64430706D5BEF1000F03D02B6C7B
:1025800043F002032B64830706D5BEF1000F03D08E
:102590002B6C43F004032B64BCF1000F06D551EA09
:1025A0000E0303D02B6C43F008032B642B6C002B21
:1025B000A8D010F0200018BF002903D0284600F052
:1025C000C9FD2A685069296C00F0400001F008013B
:1025D00040182DD0D06820F49070D060506920F061
:1025E00001005061286B012803D1D06820F0100051
:1025F000D060202085F83E00002028635069400606
:102600001ED5506920F040005061A86BC0B143F264
:102610004911C0F600014163FEF778FC00283FF441
:1026200071AFA86B416B02B0BDE8B040084700BF76
:102630002846FFF7F3FE0020286402B0B0BD00BFBB
:10264000284602B0BDE8B040FFF7E8BED16821F4EB
:102650009071D160516921F001015161202185F80B
:102660003E1000212963D16821F0100381B2284671
:10267000D36002B0BDE8B040FFF7CEBE286A30F8A4
:10268000021B6FF35F215160286206E7002804BF38
:102690000120704710B5044690F83D0028B900208D
:1026A00084F83C00204600F05FF8242084F83D00C8
:1026B0002068D4E90212C36823F40053C36003699D
:1026C00023F440531A430261D4E904231143C2683E
:1026D000194341F20C639A431143C1604169A269F5
:1026E00021F44071114343F60002C4F2010290420A
:1026F000416103D0FEF71EFF02E000BFFEF72EFF90
:102700006268192148439100B0FBF1F048F21F5173
:10271000C5F2EB11A0FB01235A096FF0630302FB22
:102720000300322303EB0010A0FB0101F02303EAB6
:102730005113206803EB0212C1F34311114481606D
:10274000016921F490410161416921F02A0141614F
:10275000C16841F40051C16000202021206484F848
:102760003D1084F83E1010BD70B586B0006844F688
:102770000001C4F20001002688420596CDE90366F7
:1027800002963FD043F60001C4F20101884271D1A4
:1027900041F21800C4F20200016840F6004441F41E
:1027A000804101600168C4F2010401F4804101919B
:1027B0000199016802AD41F00801016000682946F5
:1027C00000F0080001900198402002900220039040
:1027D000032005902046FEF703FC80200290002095
:1027E000CDE9030020462946FEF7FAFB0420C4F297
:1027F00001000168252441F0E06141F0040101601D
:1028000030E000BF41F21800C4F20200416840F617
:10281000004441F4802141604168C4F2010401F4A4
:10282000802101910199016802AD41F00801016028
:102830000068294600F00800019001984FF480607C
:10284000029002200390032005902046FEF7C8FB6B
:102850004FF40060CDE90206204629460496FEF7B3
:10286000BFFB2724204600210022FEF747FD20461B
:10287000FEF734FD06B070BD034690F83E002028F8
:102880000AD100294FF0010018BF002A00D170477B
:1028900093F83C00012801D1022070470020186302
:1028A000996222219A85DA85186483F83E101968A6
:1028B00083F83C00CA6842F48072CA604A6942F0F8
:1028C00001024A61CA6842F02002CA6070470000F3
:1028D0002DE9F041044640F22820C2F20000844273
:1028E0004DD140F2F406C2F200067178F078721809
:1028F00082F83800B8B301312028717033D101203B
:102900007060002006F13805707006F13401284629
:1029100001F05AFA716B8046481C0021706301F087
:1029200044FAFDF7EBFC0746404600217563FDF7CE
:10293000A2FCA0B938460021FDF79DFC78B9D6E984
:102940000201C6E9040140464146FDF70AFCB060B9
:1029500038463946FDF705FCF0600120F061284655
:102960002821FDF7E6FBF51C40F22826C2F20006FE
:10297000304629460122FFF77FFF0028F8D140F2B8
:10298000E410C2F20000844218BFBDE8F08140F2BA
:10299000F406C2F200063078B278013040F26C27BB
:1029A000C1B2C2F200073070C819202A00F8012C09
:1029B0003DD127A000F078FD307850B1002427A544
:1029C0003A5D2846214600F06FFD3078013484429C
:1029D000F6D340F26C20C2F2000026A10622FDF7D9
:1029E000B3FB58B140F26C20C2F2000023A10722D1
:1029F000FDF7AAFB80B100F015FC0FE00020B061EC
:102A000040F25410C2F20000006840F64E414163AB
:102A100040F61C41816301E00120B06140F26C206E
:102A2000C2F200002821FDF784FB0020307040F244
:102A3000E4150020B41CC2F20005B07028462146FF
:102A40000122FFF719FF0028F8D1BDE8F08100BF8F
:102A500052584C656E3D25640D0A00005541525494
:102A6000207244617461315B25645D203D25630DF6
:102A70000A00000073746F702000000073746172AC
:102A8000742000002DE9F04381B0044690F83D0029
:102A900020280DD10F4600294FF0010000F0928050
:102AA0001646002A00F08E8094F83C00012803D1DD
:102AB000022001B0BDE8F083012084F83C004FF013
:102AC000000921201D46C4F8409084F83D00FEF71F
:102AD00097FBA684E684A1688046B1F5805F25D186
:102AE000206900281CBF38464F463E46074684F8FA
:102AF0003C90E08C00B3681C20D0002D66D120688B
:102B00000BE000BF36F8021B00276FF35F21416026
:102B1000E18C0139E184E18C81B30168090675D546
:102B2000002FEFD017F8011BF1E700BF002684F853
:102B30003C90E08C0028DED120681FE0206802E095
:102B40000168090609D40168090606D40168090666
:102B50005CBF01685FEA0161F2D51FB117F8011B84
:102B600005E000BF36F8021B00276FF35F214160CC
:102B7000E18C0139E184E18C0029E4D10168490646
:102B80001CD4002D42D0691C0ED10168490615D411
:102B9000016849065CBF01685FEA41610ED40168C3
:102BA0004906F2D50AE000BFFEF72AFBA0EB0801B8
:102BB0002068A9422AD800684006F5D5202084F86C
:102BC0003D00002001B0BDE8F08300BF206800BFD9
:102BD0000168090608D4FEF713FBA0EB0801206882
:102BE000A942F5D912E000BF17B117F8011B04E0A4
:102BF00036F8021B00276FF35F214160E18C013939
:102C0000E184E18C0029E3D1B8E700BFC16821F479
:102C1000D071C160416921F001014161202084F837
:102C20003D0084F83E00002084F83C00032001B001
:102C3000BDE8F08370470000FEE70000B0B584B047
:102C400041F21800C4F20200016841F2000441F0B0
:102C5000100101600168C4F2010401F0100100914B
:102C600000990168002241F02001016001684FF4E1
:102C7000005501F0200100910099016841F0040124
:102C80000160016801F0040100910099016841F0C0
:102C90000801016000684FF4005100F00800009046
:102CA00000982046FEF7A6FA012001900220CDE907
:102CB0000200694620460095FEF792F904B0B0BDC7
:102CC00070B590B040F2004540F25410C4F20005D7
:102CD0000021C2F2000017224EF65F23CDE9081151
:102CE000CDE90611CDE90411C0E90052C0E9021393
:102CF00001618161FFF7CAF9002818BFFEF744F8A7
:102D000040F25410C2F2000008A9FEF72FFE00287E
:102D100018BFFEF739F8602001900020CDE90200CD
:102D2000059040F25410C2F2000001A90022FFF702
:102D3000B3F8002818BFFEF727F840F25414C2F287
:102D4000000401A920460422FFF7A6F8002818BFB6
:102D5000FEF71AF820680021A8420E9102D010B0A8
:102D600070BD00BF41F21800C4F20200016805F511
:102D7000823441F00401016000680CAD00F00400F1
:102D80000B900B9840200C900226204629460D9669
:102D90000F96FEF725F98020CDE90C0603200F9051
:102DA00020462946FEF71CF910B070BD80B586B0EC
:102DB00040F29C100021C2F2000040F600024FF0E9
:102DC000630C0591CDE90311CDE90011C4F20002B5
:102DD00041F61F43C0E9021C01618021C0E90023C4
:102DE0008161FEF701FE002818BFFDF7CDFF4FF40B
:102DF0008050029040F29C10C2F2000002A9FEF73F
:102E0000C5FE002818BFFDF7BFFF40F29C10C2F2BC
:102E100000006946FEF7AAFD002818BFFDF7B4FFC1
:102E200006B080BD80B540F2E41043F60001C2F266
:102E30000000C4F2010100234FF00C0C4FF4E1320A
:102E400080E80E00C0E90333C0E905C3C361FFF7A2
:102E50001DFC002808BF80BDBDE88040FDF794BF81
:102E600080B540F2282044F60001C2F20000C4F20E
:102E7000000100234FF00C0C4FF4E13280E80E000B
:102E8000C0E90333C0E905C3C361FFF7FFFB0028B6
:102E900008BF80BDBDE88040FDF776BFFEE70000BB
:102EA000FEE7000040F22002C2F2000200204FF0D4
:102EB0008041C2E90100C2E90300C2E90601C2E99A
:102EC0000800C2E90A00C2E90E00C2E91000C2E926
:102ED0001301C2E91500C2E9170040F28C02C2F2E8
:102EE0000002C2E90000C2E902001061C2E9061056
:102EF000C2E908009062C2E90D00C2E90F00506407
:102F0000C2E91310C2E91500D065704701380328E3
:102F100007D819A353F8200040F22003C2F200039F
:102F20001860481E032888BF70470FF20601DFE8CB
:102F300000F0031B0B1300BF40F22000C2F20000A0
:102F4000006818300260704740F22000C2F20000B2
:102F5000006820300260704740F22000C2F200009A
:102F600000680260704700BF40F22000C2F200001B
:102F700000681C30026070472400002058000020C8
:102F80008C000020C00000202DE9F04F81B040F2FD
:102F90002005C2F2000505F13802012B08BF2A1DE9
:102FA0002A604FF0380208BF0422A8503C221C4679
:102FB000012B08BF0822A950FDF725F982464020C1
:102FC000012C08BF0C2045F800A005F150004FF07F
:102FD000440B08BF05F11C00D0F80080012C08BF8D
:102FE0004FF0100B55F80B9050464946FDF70BF982
:102FF00005F15401012C08BF05F1200109680746BD
:103000005046FDF706F9064640463946FDF701F9F8
:103010003146FDF7A6F805F15801012C08BF05F16E
:1030200024010E68804648464946FDF79AF8014655
:103030005046FDF7E8F84C27012C08BF1827E9593E
:10304000FDF78FF801463046FDF7E3F84146FDF7FE
:1030500088F845F8079045F80BA0FDF723F901B073
:10306000BDE8F08F2DE9F04740F28C07C2F200076F
:103070001546012A3A4640F2200318BF3432C2F204
:1030800000031A6010603822012D08BF0422B950D5
:10309000FDF7B9F804463C20012D08BF08203C503C
:1030A00007F14C0008BF07F11800D0F8009007F1B5
:1030B0005000012D08BF07F11C004FF044060068C6
:1030C00008BF102657F806804146FDF7A2F8824651
:1030D00048462146FDF79DF85146FDF742F807F1B5
:1030E0005401012D08BF07F120014FF04005D1F830
:1030F00000A008BF0C25795981462046FDF783F8CA
:1031000001465046FDF785F84946FDF72AF8814605
:10311000204641467C51FDF724F8B8514846FDF75A
:10312000C1F8FDF7B6F8BDE8F08700007047000071
:1031300070470000FEF76AB87047000040F29C102C
:10314000C2F20000FEF7EEBD406A0021C185C184D5
:10315000FFF764B981B090F83E10222920D183682E
:10316000B3F5805F08D10169002941D000F1280141
:103170000A6803685B680AE0014651F8282F13B912
:103180000369002BF5D003685B6803F07F031370BD
:103190000A6801320A60C18D01390A04C18501D073
:1031A00001B070470168CA6822F02002CA60CA688C
:1031B00022F48072CA604A6922F001024A61202228
:1031C00080F83E20026B012A1CD100220263CB68EA
:1031D00023F01003CB600B68DB0605D500920A686C
:1031E0000092496800910099818D01B0FFF714B9F0
:1031F0000168826A49686FF35F2122F8021B8262CC
:10320000C9E700BF01B0FFF763BB000040F2E41064
:10321000C2F20000FFF704B940F22820C2F2000019
:10322000FFF7FEB82DE9F041FDF7B4FD40F26C2147
:10323000C2F200010F784D78897887F0500485F04C
:10324000780254EA0203804608BF312930D087F063
:10325000490656EA020008BF312931D087F04407F9
:1032600057EA020C08BF312932D085F0760254EAC1
:10327000020E08BF312933D056EA020408BF3129B3
:1032800036D057EA020508BF312939D03239B3FAAE
:1032900083F2B1FA81F1520949090A40012A37D172
:1032A000042001214246BDE8F041FFF72FBE00BFD8
:1032B000032001214246BDE8F041FFF727BE00BFD1
:1032C000032002214246BDE8F041FFF71FBE00BFC8
:1032D000032003214246BDE8F041FFF717BE00BFBF
:1032E000012001214246BDE8F041FFF70FBE00BFBB
:1032F000012002214246BDE8F041FFF707BE00BFB2
:10330000012003214246BDE8F041FFF7FFBD00BFA9
:10331000B0FA80F040090840012807D104200221BA
:103320004246BDE8F041FFF7F1BD00BFBCFA8CF0AA
:1033300040090840012807D1042003214246BDE886
:10334000F041FFF7E3BD00BFBEFA8EF04009084030
:10335000012807D1022001214246BDE8F041FFF7D4
:10336000D5BD00BFB4FA84F040090840012807D158
:10337000022002214246BDE8F041FFF7C7BD00BF71
:10338000B5FA85F040090840012818BFBDE8F08172
:10339000022003214246BDE8F041FFF7B7BD00001F
:1033A000FEE7000080B582B0019040F2E410C2F266
:1033B000000001A901224FF6FF73FFF763FB01989C
:1033C00002B080BD90B0FDF72FFF00240120CDE9B1
:1033D0000B44CDE9094406900A904FF4E0104FF4F5
:1033E000803102250F9006A8CDE90714CDE90D51D3
:1033F000FEF7C8F820B1EFF3108072B6FEE700BF09
:103400000F20CDE901054FF48060CDE9040401A847
:1034100002210394FDF7AEFF20B1EFF3108072B6E6
:10342000FEE700BFFFF70AFCFFF7FCFCFFF718FD03
:10343000FFF746FCFFF7BAFC40F25414C2F2000456
:1034400020460021FEF7B4FE20460421FEF7B0FE20
:1034500040F29C10C2F20000FEF760FBFFF722FD75
:1034600040F2F406C2F2000640F2E415B41CC2F2C7
:10347000000500BF284621460122FFF7FDF900287C
:10348000F8D140F22825F41CC2F200052846214656
:103490000122FFF7F1F90028F8D14FF4FA60FDF7A7
:1034A0008BFD00BFFEE700000FB4054B10B503A96C
:1034B000044A029800F0E2F810BC5DF814FB00002A
:1034C000A53300080000002002E008C8121F08C150
:1034D000002AFAD170477047002001E001C1121F95
:1034E000002AFBD1704700002DE9FF5F82B0002168
:1034F000DDE90430020DDDF840B0034318D044F696
:103500001050A2F2FF3242431514119801281FD027
:10351000A5EB0B00401C5FEA000A4FF000064E4F7F
:10352000DFF83891B046504615D5CAF1000413E0D3
:10353000119801244AA3012801D16FEA0B010298D6
:10354000119AC0E90031C0E9024206B0BDE8F09F1F
:10355000CBF10000DFE704460021404A491842EB66
:103560000450CDE9001012E0E00707D032463B4698
:1035700040464946FDF75CF88046894632463B4660
:1035800010461946FDF754F806460F466410002C05
:10359000EAD1DDE90401DDE90023BAF1000F06DA22
:1035A000FDF746F842464B46FDF742F805E0FDF7C9
:1035B000B1F842464B46FDF7ADF804460E460022F0
:1035C000284BFDF72FF903D84FF0FF30014607E0F5
:1035D0000022254B20463146FCF783FFFDF709F911
:1035E000102409E0002C0ADB0A220023FCF7B8FEB5
:1035F000039B30321A55641E50EA0102F2D1641C5A
:10360000039AC4F111031444119A012A03D0012230
:1036100008430DD10AE0084304D000204FF0110BFD
:10362000119072E7A3EB0B056D1E0DE05B4504DD09
:103630004FF0000205F1010504E003DA4FF000024B
:10364000A5F10105002AECD002981199C0E90231D8
:10365000C0E9004579E70000000014400000F03F99
:10366000300000000000F0430000E03F30380A283E
:1036700001D2012070470020704700002DE9FF4F64
:1036800095B09B468946064600250FE2252877D14E
:1036900000242746F84A0121059400E0044316F867
:1036A000013F203B01FA03F01042F7D130782A287D
:1036B00011D06FF02F033078A0F13002092A16D80C
:1036C000059A44F0020402EB820203EB420210442A
:1036D000761C0590EFE759F8042B0592002A03DACF
:1036E000504244F40054059044F00204761C3078B3
:1036F0002E2816D116F8010F44F004042A280DD004
:103700006FF02F023078A0F13003092B09D807EBB6
:10371000870302EB4303C718761CF3E759F8047BD1
:10372000761C30786C280FD006DC4C2817D068281F
:103730000DD06A2814D104E0742810D07A280FD153
:103740000DE044F400140AE044F4801401E044F471
:1037500040147278824202D104F58014761C761CE3
:10376000307866280BD013DC582877D009DC002885
:1037700075D04528F6D04628F4D047281AD19DE1C7
:1037800018E0632835D0642879D0652812D195E1F6
:10379000702873D008DC6728F1D069286FD06E28B4
:1037A0000DD06F2806D1B5E073282CD0752875D0C0
:1037B000782874D05A46179990476D1C75E1C4F368
:1037C0000250022809D003280DD0D9F8001004288F
:1037D0000DD00D6009F1040967E1D9F80010EA176E
:1037E000C1E90052F6E7D9F800100D80F2E70D703C
:1037F000F0E719F8041B8DF8001000208DF8010087
:10380000EA46012003E059F804AB4FF0FF306107AE
:103810004FF0000102D40DE008F101018846B942E1
:103820000FDA8045F8DB1AF808100029F4D108E017
:1038300008F1010188468142FADB1AF808100029D4
:10384000F6D105985B46A0EB080721463846179A43
:1038500000F094FA284400EB080507E04DE029E168
:103860000DE01AF8010B5A4617999047B8F1010874
:10387000F7D25B4621463846179A13E142E00A2206
:103880000092C4F302524FF0000A022A08D059F8FD
:1038900004CB032A4FEAEC710AD00DE029E02AE0BC
:1038A00009F1070121F00702F2E802C1914609E09F
:1038B0000FFA8CFC4FEAEC71042A03D14FFA8CFC0E
:1038C0004FEAEC71002907DA0A460021DCF1000C0E
:1038D00061EB02012D2202E0220504D52B228DF896
:1038E0000420012203E0E20701D02022F7E79046FE
:1038F00059E00A2102E010220DE010214FF0000AE9
:1039000000910BE010224FF0000A44F00404082755
:10391000009203E008224FF0000A0092C4F3025222
:10392000022A05D059F804CB0021032A08D009E067
:1039300009F1070121F00702F2E802C1914605E012
:103940001FFA8CFC042A01D10CF0FF0C4FF0000888
:10395000220728D5702806D0009B83F0100353EA75
:103960000A0305D00EE040228DF80420012208E071
:103970005CEA010206D030228DF804208DF80500A3
:1039800002229046009B83F0080353EA0A030AD1FF
:103990005CEA010201D1620705D530228DF80420CE
:1039A0004FF001087F1E582804D034A003900EA8C1
:1039B00002900DE036A0F9E753466046009AFCF706
:1039C000CFFC84460398825C0298401E02900270ED
:1039D0005CEA0100F0D1029806A9081A00F1200A59
:1039E000600702D524F4803400E00127574502DD4A
:1039F000A7EB0A0000E0002000EB0A010090059808
:103A00004144401A0590E00306D45B462146179ACC
:103A1000059800F0B3F90544002706E001A85A46CE
:103A2000C05D179990476D1C7F1C4745F6DBE0038E
:103A30000CD55B462146179A059800F09FF905447E
:103A400004E030205A46179990476D1C0099481E93
:103A500000900029F5DC08E0029802995A460078A7
:103A6000491C0291179990476D1CBAF10001AAF107
:103A7000010AF1DC65E10000092801003031323330
:103A8000343536373839616263646566000000009A
:103A90003031323334353637383941424344454684
:103AA0000000000000F058F90544761C307800282A
:103AB0007FF4ECAD19B02846BDE8F08F620700D462
:103AC000062709F1070222F0070CFCE80223E14671
:103AD00003F000485FEA080C02D00FF2702C0DE0F2
:103AE0005FEA045C02D50FF2682C07E05FEAC47C51
:103AF00002D00FF2602C01E0AFF2700C4FF0FF38F3
:103B000023F00043CDF850C065280CD006DC4528D2
:103B100009D046281DD047283DD13DE0662818D061
:103B200067287ED138E00021112F01DB112000E051
:103B3000781CCDE9000106A90EA8FFF7D5FCDDE948
:103B40000F010E9A03910021009207F1010A0491DE
:103B50004DE04FF000400097CDE9011006A90EA8F6
:103B6000FFF7C2FCDDE90F0203920E9B11990022C0
:103B7000DDF80CA00093049211B9791C00EB010A46
:103B8000B7EB0A0004D4C0F1FF3007F1010A04903A
:103B9000AAEB0700019044E0012F00DA0127002181
:103BA000112F01DD112000E03846CDE9000106A902
:103BB0000EA8FFF799FCDDE90F010E9A0391002191
:103BC00004910092BA4621070CD40399514500DABA
:103BD0008A46BAF1010F05DD009AAAF10101515C94
:103BE000302908D0B84202DA10F1040F06DA0121B8
:103BF000CDE9011015E0AAF10101E9E7002805DC93
:103C0000049901440491AAEB000102E0411C5145D2
:103C100000DD8A460499401A401C01904FF0004094
:103C20000290200704D40198504501DBCDF80480B0
:103C300000208DF84F0002980DF14F07B0F1004FB2
:103C400025D02B200E9002984FF0020800280CDAA5
:103C5000404202902D200E9007E00A210298FCF7C6
:103C600069FB3031029007F8011DB8F10001A8F19D
:103C70000108F2DC02980028EFD1791E0E98087036
:103C8000307800F0200040F0450007F8020D12A83F
:103C9000C01B00F107081498007800B1012000EB68
:103CA0000A01019801EBE07105984144401A401E59
:103CB0000590E00306D45B462146179A059800F06C
:103CC0005DF805441498007818B15A461799904742
:103CD0006D1CE00324D55B462146179A059800F039
:103CE0004DF805441CE00498002807DBDDE90301DA
:103CF000884203DD0098405C179901E01799302055
:103D00005A469047049805F10105401C049001981B
:103D1000401E019004D12E205A46179990476D1CE1
:103D2000BAF10001AAF1010ADDDC05E017F8010B88
:103D30005A46179990476D1CB8F10001A8F1010887
:103D4000F4DC5B462146179A0598ABE62D0000008F
:103D50002B000000200000002DE9F0410446002562
:103D60001E461746880404D405E039462020B04793
:103D70006D1C641EF9D52846BDE8F0812DE9F0419F
:103D8000044600251E469046C80301D5302700E0B2
:103D90002027880404D505E041463846B0476D1C0D
:103DA000641EF9D52846BDE8F08100B583B00A4607
:103DB0000021CDE90011014601236846FCF721FBF3
:103DC000DDE9000103B000BD08B50A4600210091FD
:103DD00001466846FCF74AFB009808BDDDDDDDDDE5
:103DE000DCBBBBDDDDDDDDDDDDDDDDDD988888888C
:103DF0008888888877777777778888888555555633
:103E00006666666666666666666888888333333289
:103E100022222222222222222228888D0102000030
:103E2000000000000000010203040607080900006A
:103E300000000102030402030405060708090A0B37
:103E40000C0D0E0F10100000683E0008000000204E
:103E500020000000C8340008883E00082000002030
:103E600078060000D83400080000000000009B43E2
:103E700000007343800C00001C0C000001000000D7
:083E8000100000000024F40012
:04000005080000ED02
:00000001FF
