:020000040800F2
:100000009006002001010008F5380008D9340008E6
:10001000F1380008010A0008993B000800000000C0
:10002000000000000000000000000000693A000825
:10003000050A000800000000653A00086D3A000853
:100040001B0100081B0100081B0100081B01000820
:100050001B0100081B0100081B0100081B01000810
:100060001B0100081B0100081B0100081B01000800
:100070001B0100081B0100081B0100081B010008F0
:100080001B0100081B010008E90800081B0100080B
:100090001B0100081B0100081B0100081B010008D0
:1000A0001B0100081B0100081B0100081B010008C0
:1000B0001B0100081B010008753A00081B0100081D
:1000C0001B0100081B0100081B0100081B010008A0
:1000D0001B0100081B0100081B0100088D3B0008E4
:1000E0001B0100081B0100081B010008DFF80CD0F1
:1000F00000F0B6FB00480047BD3B0008900600201A
:100100000648804706480047FEE7FEE7FEE7FEE7B1
:10011000FEE7FEE7FEE7FEE7FEE7FEE7713A0008CE
:10012000ED000008F0B480EA0102D40F4200B2EB07
:10013000410F02D20246084611464A0042D0C30D82
:10014000DDB2C1F3C752AD1A202D35DAC1F3160165
:1001500041F4000204B15242C5F1200602FA06F150
:100160002A411044B3EBD05F23D0C4B1012DA0EBE2
:10017000C35009DCF0BC4FF0004202EAC352DBB2CC
:1001800000F5000000F09AB9400000F1807000EB2B
:10019000C350A0F1807040EAD170490009E04908DD
:1001A00041EAC071A0EBC35000F50000400800EB2D
:1001B000C350F0BC00F079B96142012202EB410169
:1001C000001BF6E7F0BC704781F00041AAE780F021
:1001D0000040A7E780EA010210B502F000434000AA
:1001E00022D04A001FD0010E01EB1261C0F356006D
:1001F000C2F3560240F4000042F40002A0FB0220C9
:1002000000047F39140400D0401C50EA124001D48D
:100210004000491EC2B20C0604EBD010401C40083E
:10022000802A02D003E0002010BD20F00100002948
:1002300000DA0020184310BD2DE9FE4F81EA0304C7
:1002400004F0004421F0004100944FF0000B23F033
:10025000004350EA01045ED052EA03045BD0C3F3CA
:100260000A54C1F30A552C44A4F2F3340194A0FBC0
:100270000254C1F3130141F48011C3F3130343F497
:10028000801301FB024400FB034E840A970A44EAF0
:10029000815447EA8357A4FB076802958D0A05FB42
:1002A00007854FEA932C04FB0C542705029D4FEA67
:1002B000065847EA1637B5EB08056EEB070C870EB4
:1002C000920E47EA811742EA8312A7FB0201B6EBBE
:1002D0000B0164EB00042B0D43EA0C335E1844EB76
:1002E0001C50DA465146E7FB0201C5F313044FEAFE
:1002F0000B3343EA14534FEA0432019C43EA0603EA
:10030000A4F10C040294009CCDE900B400F013F9B0
:1003100003B0BDE8F08F00200146F9E7002801DBBB
:10032000C0F10040002901DBC1F10041814201D848
:100330000120704700207047002801DBC0F1004019
:10034000002901DBC1F10041814201D30120704746
:1003500000207047002801DBC0F10040002901DBCC
:10036000C1F10041814201D901207047002070474E
:10037000C10F80EAE0700844CA079623002100F00C
:100380009DB896230022114600F098B800F0004274
:1003900020F00040C10DC0F3160040F400007F299A
:1003A00001DA00207047962903DCC1F19601C840AC
:1003B00001E096398840002AF4D04042704700F0AE
:1003C000004230F000400AD0C10D01F56071C0F369
:1003D000160042EA0151C20840071143704700204D
:1003E0000146704701F0004330B421F0004150EA6B
:1003F000010206D00A0DA2F56072C1F31301002AB2
:1004000002DC30BC00207047440F44EAC104C10044
:10041000E01830BC00EBC25000F047B830B50B46D6
:10042000014600202022012409E021FA02F59D4224
:1004300005D303FA02F5491B04FA02F52844151EF8
:10044000A2F10102F1DC30BD2DE9F05F054600208C
:1004500092469B4688460646814640241BE0284635
:1004600041464746224600F01CFA53465A46C01AF7
:10047000914110D311461846224600F003FA2D1A76
:1004800067EB01084F4622460120002100F0FAF9EF
:1004900017EB00094E41201EA4F10104DFDC4846A1
:1004A00031462A464346BDE8F09F0029A8BF704761
:1004B000401C490008BF20F00100704710B4B0FA9A
:1004C00080FC00FA0CF050EA010404BF10BC704735
:1004D00049B1CCF1200421FA04F411FA0CF118BF4F
:1004E000012121430843A3EB0C01CB1D4FEA00611E
:1004F0004FEA102042BF002010BC704700EBC350F1
:1005000010440029A4BF10BC7047401C490008BF1C
:1005100020F0010010BC704710B5141E73F10004E8
:1005200008DA401C41F1000192185B411A4301D1E5
:1005300020F0010010BD2DE9F04D92469B4611B10F
:10054000B1FA81F202E0B0FA80F22032904600F077
:1005500099F904460F4640EA0A0041EA0B01534666
:100560005A46084313D0114653EA010019D0C8F186
:100570004002504600F095F905460E465046594651
:10058000424600F07FF9084305D0012004E02046F0
:100590003946BDE8F08D0020054346EAE0762C435D
:1005A00037430A986305E40AA0EB08000022FD0A1D
:1005B00044EA47540A3002D500200146E9E7010524
:1005C00010196941DDE9084500196941BDE8F04DA0
:1005D000A2E72DE9FE4F804681EA0300C00F0C46DA
:1005E000009021F0004123F00045B8EB0200A94142
:1005F00005D24046214690461C460B46024623F053
:100600000040104347D0270DC7F30A00C3F30A5137
:100610000290401A019040286BDAC3F3130040F4B3
:10062000801B0098924620B10023D2EB030A63EBB3
:100630000B0B01985946C0F14002504600F022F9D8
:1006400006460D4650465946019A00F03AF910EB1D
:1006500008006141002487EA115284EAE7731A43D3
:1006600040D0009A62B3019A012A4FEA075215DC82
:10067000001B61EB02014FF0004202EA0752CDE994
:100680000042001C41F5801132462B46FFF753FF14
:1006900003B0BDE8F08F40462146F9E7001B61EB4F
:1006A0000201001C41F5801300185B412018A2F5DF
:1006B000001747EB030140EAD570B6196D4111E010
:1006C0006D084FEA360645EAC0754FEA0752001B2F
:1006D00061EB0201001C41F5801149084FEA30002E
:1006E0000019514132462B4603B0BDE8F04FFFF7E9
:1006F00013BF0098012240000023D0EB020263EBFD
:10070000E073009821464FEAE074B8EB000061EB1B
:100710000401E9E783F000435BE781F0004158E71B
:100720002DE9F04D81EA030404F0004B21F000456F
:1007300014464FF0000A23F0004150EA050220D091
:1007400054EA01021DD0C5F30A570246C5F313034C
:10075000C1F31300C1F30A5640F4801543F480132B
:10076000A7EB0608101BD64608F2FD3873EB050010
:1007700002D308F1010801E092185B41B8F1000FC3
:1007800003DA00200146BDE8F08D00204FF480110F
:10079000064684460EE0171B73EB050705D3121BB4
:1007A00063EB050306434CEA010C49084FEA3000AD
:1007B00092185B4150EA0107EDD152EA030012D0D2
:1007C00082EA040083EA0501084305D0101BAB410F
:1007D00006D20122002306E000224FF0004302E08F
:1007E0006FF0010253101AEB06004CEB085110EBAE
:1007F0000A0041EB0B01BDE8F04DFFF78DBEC1F3E0
:100800000A52C1F3130140F2FF3341F480119A42BE
:1008100002DA00200146704740F233439A42A2F2C6
:10082000334202DC524200F03CB800F02BB800002A
:1008300030B5041E71F1000404DB4FF00044404267
:1008400064EB0101141E73F1000405DB1C464FF03C
:100850000043524263EB0403994208BF904230BD0B
:10086000064C074D06E0E06840F0010394E80700FD
:1008700098471034AC42F6D3FFF73CFC184600080A
:1008800038460008202A04DB203A00FA02F1002052
:1008900070479140C2F1200320FA03F319439040BE
:1008A0007047202A04DB203A21FA02F00021704729
:1008B00021FA02F3D040C2F12002914008431946C8
:1008C0007047202A06DBCB17203A41FA02F043EAB0
:1008D000E07306E041FA02F3D040C2F120029140F9
:1008E000084319467047000040F2C400C2F20000FD
:1008F00000F038BAB0B5044600688168C90709D06D
:10090000816821F00101816000F080FD2168896823
:10091000C90701D10020B0BD054602E08068C007CC
:10092000F8D000F073FD411B20680329F6D38168DD
:10093000C907F3D0A06A40F01000A062E06A40F05E
:100940000100E0620120B0BDB0B582B004460020D5
:10095000019021688A68D2074FD1886840F0010071
:10096000886040F20C00C2F2000000684DF683611E
:10097000C4F21B31A0FB0101880C01900198A0B1C9
:10098000019801380190019878B1019801380190DF
:10099000019850B1019801380190019828B101984F
:1009A0000138019001980028EAD100F02FFD21685C
:1009B0008968C9071CD1054603E000BF8068C007ED
:1009C0001AD100F023FD411B20680329F6D381686A
:1009D000C907F3D1A06A40F01000A062E06A40F0BD
:1009E0000100E062002084F82400012002B0B0BDC4
:1009F000002002B0B0BD00BF002002B0B0BD0000BA
:100A0000FEE7000070470000EFF3108072B600BFF1
:100A1000FEE7000070B582B004460020019094F813
:100A20002400012804D10225284602B070BD00BF71
:100A3000012084F824002046FFF75CFF2046FFF7E2
:100A400083FF0546002867D1A06A41F2021188435E
:100A50000230A06240F20C00C2F2000006680220E0
:100A600000F08EFDB6FBF0F0400001900198A0B1BF
:100A7000019801380190019878B1019801380190EE
:100A8000019850B1019801380190019828B101985E
:100A90000138019001980028EAD12068816841F06E
:100AA0000801816000F0B2FC21688A6812070DD449
:100AB000886840F00400886000F0A8FC216889681C
:100AC000490713D401206FF0030121E0064602E03C
:100AD00088680007ECD500F099FC801B21680B2882
:100AE000F6D388680007F3D50EE000BF064602E0A3
:100AF00080684007E6D500F089FC811B20680B293F
:100B0000F6D381684907F3D5012510206FF0120153
:100B1000A26A11400843A062002084F824002846FD
:100B200002B070BD7047000010B581B00022009285
:100B300090F82420012A03D10221084601B010BDFB
:100B40004B680122062B80F8242015D8026803EB9D
:100B50008303A3F1050E1F23D2F834C003FA0EF469
:100B60000B682CEA040C03FA0EF444EA0C045463F8
:100B7000092B17D937E000BF02680C2B20D803EBF4
:100B80008303A3F123041F23D2F830C003FA04FE29
:100B90000B682CEA0E0C03FA04F444EA0C04146308
:100BA000092B20D8D2F810C003EB4303072489682F
:100BB0009C402CEA0404994021431161002136E055
:100BC00003EB8303A3F141041F23D2F82CC003FAE3
:100BD00004FE0B682CEA0E0C03FA04F444EA0C043D
:100BE000D462092BDED903EB4304D2F80CC0A4F184
:100BF0001E0E0724896804FA0EF42CEA040401FA94
:100C00000EF1214323F00104102CD1600ED142F2E9
:100C10000841C4F20101A1F10804A2420ED0816A88
:100C200041F020018162012101E000BF002100228A
:100C300080F82420084601B010BD00BF0A681202E7
:100C400030D40A68102B42F400020A602CD140F222
:100C50000C01C2F2000109684DF68362C4F21B3236
:100C6000A1FB0212910C01EB810149000091009956
:100C7000E1B10099013900910099C9B10099013998
:100C800000910099B1B1009901390091009999B191
:100C9000009901390091009900294FF00001E8D135
:100CA000C5E700BF0021C2E70021C0E70021BEE781
:100CB0000021BCE70021BAE70021B8E7B0B540F257
:100CC0007C05C2F200052879002818BFB0BDE8688D
:100CD000286140F2C400C2F2000000F03FF8FFF7C4
:100CE00050FB40F21401C2F200010968FFF76CFAF0
:100CF0004DF20001C4F204510446FFF72BFB00281B
:100D000018BF84F000442046FFF759FB48F2000367
:100D1000C4F276030022FFF78FFA0023C3F6307384
:100D20000022FFF789FAFFF75DFB0021C4F248318A
:100D30000446E860FFF70EFB50B90021CCF24831C1
:100D40002046FFF7F9FA18B101202871B0BD00BFA5
:100D50002869E86001202871B0BD00000068C06CFF
:100D60007047000070B50446006805684668B10623
:100D700027D515F0020124D0A16AC90603D4A16ABF
:100D800041F40071A162816801F46021B1F5602F26
:100D900010D1217B71B9416821F020014160A06A26
:100DA00020F48070A062A06AC00403D4A06A40F05E
:100DB0000100A0622046FFF781FF20686FF012015A
:100DC0000160310633D515F0040130D0A16AC9069F
:100DD00003D4A16A41F40051A162816801F4E041A9
:100DE000B1F5E04F10D1416821F080014160A06A67
:100DF00020F48050A062A06AC00511D4A06A40F01F
:100E00000100A0620CE000BF4168490508D4816878
:100E100001F46021B1F5602F02D1217B0029E2D0DD
:100E20002046FFF77FFE20686FF00C01016070061E
:100E30000ED515F0010008BF70BDA06A40F48030E7
:100E4000A062204600F0B4F820686FF00101016054
:100E500070BD0000B0B5002800F0A8800446806A8C
:100E600020B121688868C0070BD114E00020E0623F
:100E700084F82400204600F09DF821688868C007A7
:100E800009D0886820F00100886000F0BFFA21686E
:100E90008A68D20726D1A06AC0063AD4A06A41F275
:100EA000021290430230A062E069D4E9013240EAC4
:100EB000030C531EB3FA83F35D091346B2F5807F2A
:100EC00018BF2B02207D257B01284CEA450030D13C
:100ED00035B3A56A45F02005A562E56A45F0010530
:100EE000E56226E0054602E08868C007D3D000F03E
:100EF0008DFA401B21680328F6D38868C007F3D019
:100F0000A06A40F01000A062E06A40F00100E062D8
:100F1000A06AA06A40F01000A0620120B0BD00BF2E
:100F2000D4F818C04EF60005CFF6FF7505EB4C352A
:100F30002B434D68B2F5807F25F4694543EA0503EC
:100F40004B608B684FF2FD75CFF6E17503EA050340
:100F500043EA00038B6001D0012A07D122690023F4
:100F6000CFF6F07303EB025201E000BF0022CB6A20
:100F700023F470031A43CA62896840F6FE62CFF612
:100F80001F721140814207D10020E062A16A012254
:100F900062F30101A162B0BDA06A40F0100020F030
:100FA0000200A062E06A40F00100E0620120B0BDF2
:100FB0007047000080B586B0014640F60000C4F2DC
:100FC0000100096800F5E05291424FF00001CDE9BF
:100FD000041101D006B080BD41F21801C4F2020133
:100FE0000A6842F400720A600A6802F40072019210
:100FF000019A0A6842F004020A60096801F00401DB
:1010000001910199012102910321039102A900F0AC
:10101000F3F812200021002200F076FA122000F0EE
:1010200063FA06B080BD000010B5044690F82400B5
:10103000012804BF022010BD012084F824002046AE
:10104000FFF782FC20B1002184F8241010BD00BFFE
:1010500042F2044C2068A16AC4F2010C40F601720D
:1010600091430CF57F7201F580719042A16237D0F7
:10107000A16A21F48011A1624168490504D5A16AE1
:10108000012363F30D31A162A16A0023C9044FF06B
:10109000000144BFE16A21F00601E1626FF0020144
:1010A00084F824300160416841F02001416081688A
:1010B00001F46021B1F5602F06D190420AD1DCF82D
:1010C000001011F4702F05D0816841F48011816007
:1010D000002010BD816841F4A0018160002010BD96
:1010E000DCF8001011F4702FC2D0A16A41F4801115
:1010F000A162DCF800104905C1D4C5E7014690F8AB
:101100002100022816D10868D1E90FC3026822F035
:101110000E020260026822F001020260012000FA61
:1011200003F2CCF8042081F821000020002281F88D
:1011300020207047042088630120002281F82020AD
:101140007047000080B590F82110022924D1026870
:10115000116821F00E0111602F211368C4F2020101
:101160008A4240F20401C4F2020123F00103136039
:1011700016DD3023C4F202039A421DD04423C4F288
:1011800002039A421CD05823C4F202039A421DD192
:101190004FF4803322E000BF04218163012080BD31
:1011A0000823C4F202039A420ED01C23C4F20203A5
:1011B0009A420BD1102311E04FF480730EE000BF70
:1011C0004FF480530AE000BF012307E001F1680CEF
:1011D0004FF08073624508BF4FF480130B6001210C
:1011E00080F82110426B002180F820100AB190474E
:1011F0000021084680BD00002DE9F04F82B041F289
:101200000042C4F201020E680423904208BF032387
:10121000002E009300F0F68040F2004C4FF6FF7E67
:101220000022C4F2010C0124C1F2100E4FF0000A9A
:101230004FF0000947E000BF012502F00C040F2722
:10124000A7402BEA070705FA04F43C4343F826407D
:10125000D1F804B040F20C455FEACB23DCF808304B
:1012600054BF23EA080343EA0803C4F20105CCF89B
:1012700008302B685FEA8B2454BF23EA080343EA53
:1012800008032B605FEA8B34DCF8043054BF23EA98
:10129000080343EA08035FEACB34CCF80430DCF8F7
:1012A00000304FF0010454BF23EA080343EA080367
:1012B000CCF800300E680AF1010A36FA0AF302F19E
:1012C000040200F09F8004FA0AF816EA080FF1D031
:1012D0004B68734512DC122B56D8DFE803F0350B50
:1012E0004549555555555555555555555555554DD2
:1012F000510000BFD1F80C9046E000BF4FF6FF75DB
:10130000C1F22105AB420FDC0025C1F21105AB4251
:101310001AD00025C1F21205AB4215D00025C1F24A
:101320002105AB4210D02FE00025C1F22205AB42CF
:101330000AD00025C1F23105AB4205D00025C1F22B
:101340003205AB4220D100BF8B684BB1012B14BFDB
:10135000C0F81480C0F810804FF0080914E000BFF6
:101360004FF0040910E000BFCB6803F108090BE05F
:101370004FF0000908E000BFCB6803F1040903E067
:10138000CB6803F10C0900BF13460546BAF1080FFC
:1013900024BF203B04352E680F279F40BE4309FA27
:1013A00003F333432B60CB79DB067FF583AF41F248
:1013B0001804C4F2020423684FEA9A0643F00103BA
:1013C0002360236840F6000403F001030193019BAE
:1013D000ACF57E7353F826B0C4F20104A0420FD0DE
:1013E00040F60044C4F20104A0423FF425AF41F2AC
:1013F0000004C4F20104009DA04208BF02251CE7BE
:1014000000251AE702B0BDE8F08F000040F28C2002
:10141000C2F200000068704740F2040040F28C21E4
:10142000C2F20000C2F2000100780A6810440860AD
:101430007047000080B542F20000C4F2020001686B
:1014400041F010010160032000F08AF80F2000F045
:1014500005F800F027F8002080BD000070B540F2CC
:101460000406C2F2000640F20C013278C2F200011A
:101470004FF47A730968B3FBF2F20446B1FBF2F160
:10148000084600F05DFC0F2C4FF0010508D838B974
:101490004FF0FF3021460022002500F035F874603F
:1014A000284670BD82B041F21800C4F20200016803
:1014B000022241F001010160016801F00101019186
:1014C0000199416841F080514160406800F08050CE
:1014D000009000980420C4F20100016862F31A61D0
:1014E000016002B070470000002848BF704700F05C
:1014F0001F01012202FA01F14EF200124009CEF260
:10150000000242F82010704710B54EF60C5CCEF287
:10151000000CDCF80030C3F3022E8EF00704042C1C
:1015200028BF0424BEF103034FF0FF3E0EFA04F47B
:1015300038BF0023A14399400EFA03F39A431143A5
:1015400000F00F02043A624409010C3200F16043DA
:10155000B0F1FF3FC8BF03F56442117010BD000039
:101560004EF60C51CEF200010A684FF6FF031A4006
:1015700060F30A2242F0806040F0FD70086070471E
:1015800080B5012818D0022836D0102832D141F277
:101590000401C4F202010A6851F8040CC00129D503
:1015A000C2F383402DA3185CD2033DD440F6001251
:1015B000C0F23D02504343E041F20400C4F2020095
:1015C000C16940F202320A40B2F5817F04BF4FF494
:1015D000004080BD01F44071B1F5407F1CD0B1F5F1
:1015E000007F07D1006A49F64041800701EAE070B8
:1015F00080BD00BF002080BD00F0B4F941F20401BD
:10160000C4F2020109680222C1F3813102EB4101F7
:10161000B0FBF1F080BD00BF50F8040C4FF2244144
:10162000800301EAE07080BD0A6810A3C2F3404263
:101630009A5C41F20023C0F27A03B3FBF2F250430A
:101640000968490248BF80BD4AF6AB214000CAF68E
:10165000AA21A0FB0101480880BD00BF02030405C8
:10166000060708090A0B0C0D0E0F101001020000EE
:101670002DE9F04182B00446007841F21C06C00713
:10168000C4F202064AD0306810F0805808D13068A1
:1016900040F080503060306800F080500190019838
:1016A00047F20007C4F200073868C00512D4386852
:1016B00040F480703860FFF7A9FE05463868C00521
:1016C00008D4FFF7A3FE401B6428F7D9032002B01B
:1016D000BDE8F081706810F4407012D0616801F4C8
:1016E000407188420DD0706840F24042C4F24222FC
:1016F000012320F4407113600023C0071360716060
:101700002AD17068616820F440700843B8F1000F76
:10171000706003D1306820F080503060206881070D
:1017200007D556F8181CA26821F44041114346F829
:10173000181CC00604D4002002B0BDE8F08100BF30
:1017400056F8180CE16820F48000084346F8180C9D
:10175000002002B0BDE8F081FFF758FE054641F2D7
:10176000883700BF70688007CBD4FFF74FFE401B5F
:10177000B8424FF00300F5D9EBE700002DE9F04344
:1017800081B0002800F0858042F20008C4F202080F
:101790000446D8F800000D4600F0070088420CD23D
:1017A000D8F8000020F007002843C8F80000D8F857
:1017B000000000F00700A8426BD1206841F2040944
:1017C0008107C4F2020917D5410705D5D9F80010E1
:1017D00041F4E061C9F80010010705D5D9F80010FF
:1017E00041F46051C9F80010D9F80010A26821F046
:1017F000F0011143C9F80010C00741D1D8F800002A
:1018000000F00700A8420CD9D8F8000020F007002B
:101810002843C8F80000D8F8000000F00700A842EC
:1018200037D12068410707D5D9F80010E26821F4C4
:10183000E0611143C9F80010000708D5D9F800008D
:10184000216920F4605040EAC100C9F80000D9F8CD
:10185000002002F00C00082841F20020C0F27A00BB
:1018600050D144F20863C2F38341C0F60003595CCF
:10187000D2033BD440F60010C0F23D00484341E0A3
:10188000606802280AD001282AD159F8041C89036B
:1018900008D4012001B0BDE8F08300BF59F8041C52
:1018A0008901F6D5D9F8001021F003010843C9F8E1
:1018B0000000FFF7ABFD064641F28837D9F800007B
:1018C000616800F00C00B0EB810F97D0FFF79EFD30
:1018D000801BB842F2D9032001B0BDE8F08300BFFD
:1018E00059F8041C8907D4D5DCE700BFD9F80020DB
:1018F00044F20663C2F34042C0F600039A5C4843D8
:10190000B0FBF2F0D9F8001044F2EE52C1F303112B
:10191000C0F60002515C40F20C0220FA01F140F2E4
:101920000800C2F200000068C2F200021160FFF776
:1019300095FD002001B0BDE8F083000040F20C00EE
:1019400041F20401C2F20000C4F202010068096819
:1019500044F2FE52C1F30221C0F60002515CC840BD
:101960007047000040F20C0041F20401C2F2000096
:10197000C4F202010068096844F2FE52C1F3C221B8
:10198000C0F60002515CC840704700002DE9F041EC
:1019900082B0002868D00446007841F20006C007F3
:1019A000C4F2020625D0706800F00C0004281BD099
:1019B000706800F00C00082802D17068C00313D4CE
:1019C0006068002800F06881B0F5A02F00F07C81ED
:1019D000B0F5803F00F07C81306820F480303060CA
:1019E000306820F4802076E13068800301D560689B
:1019F000D0B32078800718D5706810F00C0F07D08E
:101A0000706800F00C0008286ED17068C0036BD4B9
:101A10003068800702D52069012825D130686169C6
:101A200020F0F80040EAC1003060207800071FD4A1
:101A30002078400732D4E56995B1706800F00C0059
:101A4000082840F08F80012D0ED07068216A00F4C4
:101A500080328A4208D1616A00F47010884203D152
:101A6000002002B0BDE8F081012002B0BDE8F081A5
:101A7000A069002862D00020C4F242200121C0F8F1
:101A80008014FFF7C3FC0546706A800700F18C8064
:101A9000FFF7BCFC401B0228F6D92AE1F06910F0E0
:101AA000805808D1F06940F08050F061F06900F092
:101AB00080500090009847F20007C4F20007386891
:101AC000C00529D4386840F480703860FFF79EFC68
:101AD000054600BF3868C0051ED4FFF797FC401BC1
:101AE0006428F7D905E100BF2069002840F2000012
:101AF000C4F2422000F0828001210160FFF786FCE1
:101B0000054600BF306880073FF588AFFFF77EFCD1
:101B1000401B0228F6D9ECE0E068002800F0808045
:101B2000052800F09780012800F09880306A20F0A6
:101B300001003062306A20F0040092E00020C4F21C
:101B400042200021C0F88014FFF760FC054600BF6A
:101B5000706A80077FF56CAFFFF758FC401B0228C6
:101B6000F6D9C6E00027C4F2422700203866FFF706
:101B70004DFC022D05460BD13068800140F1BE803E
:101B8000FFF744FC401B02284FF00300F4D968E73C
:101B9000306880017FF564AFFFF738FC401B0228F6
:101BA0004FF00300F4D95CE740F20C00C2F20000F1
:101BB000006844F6D351C1F26201A0FB0101480A5A
:101BC000019000BF00BF0198411E002801913FF421
:101BD0002FAF00BF0198411E002801913FF428AFAC
:101BE00000BF0198411E002801913FF421AF00BFC2
:101BF0000198411E00280191E4D119E700210160FC
:101C0000FFF704FC054600BF306880077FF50DAF85
:101C1000FFF7FCFB401B02284FF00300F4D920E73C
:101C2000306A20F001003062306A20F00400306237
:101C3000FFF7ECFB054641F2883700BF306A8007AA
:101C400020D5FFF7E3FB401BB8424FF00300F5D966
:101C500007E700BF306A40F004003062306A40F0AD
:101C600001003062FFF7D2FB054641F2883700BF22
:101C7000306A800706D4FFF7C9FB401BB842F7D98A
:101C800037E000BFB8F1000F7FF4D5AEF06920F067
:101C90008050F061CFE600BF306820F480303060C3
:101CA000306820F480203060FFF7B0FB054600BFAD
:101CB000306880037FF59DAEFFF7A8FB401B6428CA
:101CC0004FF00300F4D9CCE6306840F48020306057
:101CD000306840F480303060FFF798FB054600BF65
:101CE000306880033FF585AEFFF790FB401B64280A
:101CF000F6D9032002B0BDE8F08100BF206AB0F53C
:101D0000803F05D17168A26821F4003111437160F0
:101D10007168626A21F474111043084370600120F5
:101D20003866FFF773FB0446306880013FF598AED4
:101D3000FFF76CFB001B02284FF00300F4D990E67C
:101D4000411E0020B0EB116F1CBF012070474EF206
:101D50001002CEF2000251604EF62351CEF2000185
:101D6000F0230B70072190601160704770470000EE
:101D70007047000010B590F83C20012A4FF0020295
:101D800033D080F83D200268D2F804E0D2F808C0D1
:101D90000C682EF07003234340F2FF74C4F2000479
:101DA000A24253600ADCB2F1804F13D040F20043EC
:101DB000C4F200039A420DD011E000BF42F6004386
:101DC000C4F201039A4205D040F60003C4F20003B6
:101DD0009A4204D149682CF0800319439160012193
:101DE000002280F83D1080F83C20104610BD000015
:101DF000002804BF0120704710B5044690F83D004C
:101E000028B9002084F83C00204600F067F8022042
:101E100084F83D00206840F2FF730268C4F20003BA
:101E200042F6004C9842C4F2010C15DCB0F1804F30
:101E30001AD040F20041C4F20001884214D0984206
:101E400018DCB0F1804F1DD040F20041C4F2000117
:101E5000884217D01AE000BF604505D040F6000167
:101E6000C4F200018842EAD1A16822F070020A435C
:101E70009842E6DD604505D040F60001C4F200015D
:101E8000884203D1216922F440720A43A36922F0F7
:101E90008001D4F804E0E268194360450160C26241
:101EA000C0F828E002D16169CCF83010012141610D
:101EB000002084F8461084F83E1084F83F1084F81F
:101EC000401084F8411084F8421084F8431084F8DC
:101ED000441084F8451084F83D1010BD80B582B0E0
:101EE000006840F60001C4F2000188421CBF02B045
:101EF00080BD41F21C00C4F202000168002241F0E2
:101F0000040101600068002100F0040001900198C4
:101F10001E20FFF7F9FA1E2002B0BDE88040FFF74F
:101F2000E3BA000090F83D1001291CBF0120704762
:101F3000022180F83D10006840F2FF72C168C4F2CF
:101F40000002904241F00101C16009DCB0F1804F14
:101F500012D040F20041C4F2000188420CD012E0DD
:101F600042F60041C4F20101884205D040F600016A
:101F7000C4F20001884206D1816801F007010629F8
:101F800004BF00207047016841F00101016000209A
:101F90007047000080B590F83C20012A4FF0020203
:101FA00000F0C28080F83D20D0F800C04FF6777274
:101FB000DCF8083023EA0202CCF808200B684F2B2B
:101FC00028DC1F2B44DD202B45D0302B43D0402B69
:101FD00040F0AC80D1F804E0C968DCF82030DCF8CF
:101FE000202022F00102CCF82020DCF8182022F07A
:101FF000F00242EA011123F00A0242EA0E02CCF892
:102000001810CCF82020DCF8081041F0470121F02E
:10201000300180E06F2B27DDB3F5005F48D0B3F5CA
:10202000805F7AD0702B40F08180D1E901E3C968EC
:10203000DCF8082043EA0E0322F47F4243EA012140
:102040001143CCF80810DCF8081041F0770162E089
:102050000BB1102B6AD1DCF8081021F07001194384
:1020600041F0070157E000BF502B35D0602B5DD108
:10207000D1F804E0C968DCF82030DCF8202022F038
:102080001002CCF82020DCF8182022F4704242EA3A
:10209000013123F0A00242EA0E12CCF81810CCF85D
:1020A0002020DCF8081041F0670121F0100132E037
:1020B000D1E901E3C968DCF8082043EA0E0322F401
:1020C0007F4243EA01211143CCF80810DCF80810E4
:1020D00041F480411FE000BFD1F804E0C968DCF89A
:1020E0002030DCF8202022F00102CCF82020DCF89F
:1020F000182022F0F00242EA011123F00A0242EA1B
:102100000E02CCF81810CCF82020DCF8081041F0B2
:10211000570121F02001CCF808100022012180F89D
:102120003D10002180F83C10104680BD0122F5E7EB
:10213000002804BF012070472DE9F04F81B004460C
:1021400090F83D000D4628B9002084F83C00204658
:1021500000F094F8022084F83D00206844F2070261
:10216000816840F2FF73914381600268C4F200030A
:1021700042F6004C9842C4F2010C15DCB0F1804FDD
:102180001AD040F20041C4F20001884214D09842B3
:1021900018DCB0F1804F1DD040F20041C4F20001C4
:1021A000884217D01AE000BF604505D040F6000114
:1021B000C4F200018842EAD1A16822F070020A4309
:1021C0009842E6DD604505D040F60001C4F200010A
:1021D000884203D1216922F440720A43A36922F0A4
:1021E0008001D4F804E0E268194360450160C262EE
:1021F000C0F828E002D16169CCF830104FF0010935
:10220000C0F814908268D0F818E0D0F820C0D5E962
:102210000038D5E9027B43EA020AAB694FF6FF7149
:102220002EEA010E47EA03234FF6FC47BB43D5E9EC
:1022300007724BEA0E012E69194341EA072141EA70
:10224000061141EA02312CF022026B6942EA0802CF
:1022500042EA0312C0F808A08161026284F8469045
:1022600084F83E9084F83F9084F8429084F843903C
:1022700084F83D90002001B0BDE8F08F80B586B0B5
:10228000014640F60000C4F20100096800F5105351
:1022900000229942059201D006B080BD41F218019A
:1022A000C4F202010B6843F400630B600B6803F493
:1022B00000630193019B0B6843F004030B60096802
:1022C00001F00401019101994FF44071CDE902122E
:1022D00002A90492FEF790FF06B080BD80B590F889
:1022E0003E2090F83F3090F842E090F843C0042937
:1022F0000AD0B9B9012A4FF0010208BFBEF1010F9F
:1023000034D0104680BD00BF012B4FF0010208BF42
:10231000BCF1010FF5D1022180F83F1080F8431085
:1023200000681EE0012A4FF0010208BF012BE8D12E
:10233000BEF1010FE5D1BCF1010FE2D1022280F81C
:102340003E2080F83F2080F8422080F8432091B161
:102350000068016A21F001010162016A41F0010196
:10236000016210216FF0100209E000BF022180F825
:102370003E1080F84210006801216FF00102036AEC
:102380001A400262026A114301620168002241F0B0
:1023900001010160104680BD7047000010B5016862
:1023A00004460869800744BFC8685FEA807039D472
:1023B0000869400744BFC8685FEA40703ED40869B6
:1023C000000744BFC8685FEA007045D40869C006CA
:1023D00044BFC8685FEAC0604AD40869C0071CBF30
:1023E000C8685FEAC07051D10869000644BFC86878
:1023F0005FEA006052D40869400644BFC8685FEADB
:10240000406053D40869800646BFC8685FEA8060B0
:1024100010BD6FF0200220460A61BDE81040FFF7B2
:10242000A7BC00BF6FF00200086101202077886917
:10243000800743D02046FFF7AFFF45E06FF0040070
:10244000086102202077886910F4407F40D0204640
:10245000FFF7A2FF42E000BF6FF008000861042010
:102460002077C86980073DD02046FFF795FF3FE001
:102470006FF01000086108202077C86910F4407FD1
:102480003AD02046FFF788FF3CE000BF6FF0010024
:102490000861204600F050FA2168A5E76FF080003F
:1024A00008612046FFF762FC2168A4E76FF0400056
:1024B0000861204600F012FB2168A3E7204600F0E7
:1024C00025F8204600F0C6F92168002020776FE744
:1024D000204600F01BF8204600F0BCF921680020DF
:1024E00020776CE7204600F011F8204600F0B2F9A2
:1024F00021680020207769E7204600F007F8204691
:1025000000F0A8F921680020207766E770470000F6
:102510002DE9F04390F83C30012B04BF0220BDE8C8
:10252000F0834FEAB202032A3CD8DFE802F003430B
:102530007FB900BF036842F600461D6A1A6AC4F2FA
:10254000010622F001021A621A465C6852F818CF9E
:10255000B3428E68D1F800E025F0020545EA060591
:102560000CD1CE68D1E9057824F4407425F00C052F
:1025700026F004063C43354344EA08042CF0730774
:1025800047EA0E075C609F614F6809695F631D62DF
:102590009F6947F008079F619F6927F004079F61C3
:1025A000AEE000BF0121002280F83C200846BDE8D3
:1025B000F08300BF036842F600461D6A1A6AC4F23F
:1025C000010622F010021A621A46D3F804C052F82B
:1025D000184FB3428E68D1F800E025F0200545EA97
:1025E00006150FD1CE68D1E905986FF0400707EACC
:1025F00006162CF4406725F0C00547EA89073543E5
:1026000047EA880C24F4E64444EA0E27C3F804C0E1
:102610009F614F6809699F631D629F6947F4006766
:102620009F619F6927F480679F6168E0036842F6B5
:1026300000461D6A1A6AC4F2010622F480721A6208
:102640001A46D3F804C052F81CEFB3428E680C68E7
:1026500025F4007545EA06250FD1CE68D1E9059825
:10266000360240F2FF47BE432CF4405725F4406544
:1026700047EA0917354347EA081C2EF0730727433A
:10268000C3F804C0DF614F680969DF631D62DF6959
:1026900047F00807DF61DF6927F00407DF612FE0FB
:1026A000036842F60047D3F820C01A6AC4F2010753
:1026B00022F480521A621A465C6852F81C5FD1F804
:1026C00000E08E68BB4204D14F6924F4804444EAA0
:1026D00087142CF4005747EA063725F4E64646EA05
:1026E0000E265C60DE614E6809691E641F62DF6948
:1026F00047F40067DF61DF6927F48067DF61090263
:102700001368194311600021002280F83C2008461C
:10271000BDE8F083002804BF0120704710B50446CF
:1027200090F83D0028B9002084F83C00204600F0D5
:1027300067F8022084F83D00206840F2FF730268C9
:10274000C4F2000342F6004C9842C4F2010C15DCBE
:10275000B0F1804F1AD040F20041C4F2000188422B
:1027600014D0984218DCB0F1804F1DD040F20041E7
:10277000C4F20001884217D01AE000BF604505D0BE
:1027800040F60001C4F200018842EAD1A16822F0BB
:1027900070020A439842E6DD604505D040F600012C
:1027A000C4F20001884203D1216922F440720A4335
:1027B000A36922F08001D4F804E0E268194360457F
:1027C0000160C262C0F828E002D16169CCF8301023
:1027D00001214161002084F8461084F83E1084F8FD
:1027E0003F1084F8401084F8411084F8421084F8B7
:1027F000431084F8441084F8451084F83D1010BD4F
:1028000082B0006840F20041C4F20001884211D059
:10281000B0F1804F1BD141F21C00C4F202000168EC
:1028200041F001010160006800F001000190019891
:1028300002B0704741F21C00C4F20200016841F08E
:1028400002010160006800F002000090009802B0F0
:10285000704700007047000041B1082910D00429DA
:1028600014BF00F1410200F13F020BE090F83E205E
:10287000012A1CBF01207047022280F83E2013E08D
:1028800000F140021278012A1CBF01207047022289
:10289000082907D0042914BF80F8412080F83F2080
:1028A00002E000BF80F84020006801F01F01012213
:1028B000036A8A4023EA02010162036A42F6444144
:1028C000C4F201011A43A1F14403984202620FD0FD
:1028D00040F2FF71C4F20001884213DCB0F1804F76
:1028E0001CD040F20041C4F20001884216D01CE026
:1028F0000A6842F400420A6040F2FF71C4F200012B
:102900008842EBDD42F60041C4F20101884205D065
:1029100040F60001C4F20001884206D1816801F04E
:102920000701062904BF00207047016841F001013A
:10293000016000207047000040F2CC11C2F200019B
:10294000884218BF7047F0B585B040F27C06C2F2ED
:102950000006B078012823D1B06948F688014EF608
:10296000EF62C0F68801CEF6EE6200FB0210B0F115
:10297000113F01D3012013E040F2F400C2F2000045
:1029800001680022486A00B270614A627062FDF715
:10299000EFFC0146002001F01DF80146B078F1611E
:1029A000F468F569FDF7EDFC01462846FDF712FCD9
:1029B000214600F0D9FFFDF7E9FC306200203071BC
:1029C00040F2C400C2F20000FEF72EFBF4680021C2
:1029D000CCF270212046FDF7A1FC28BB0021C4F2F7
:1029E00070212046FDF7A8FCF0B9306A4FF6184276
:1029F000CFF6FF7210F57A7FC8BF0246B2F57A7F34
:102A00004FF47A71B8BF11464FF47A70A1B1012A20
:102A10004EDB40F23C10C2F200000068C1F57A7152
:102A200041634FF47A700DE040F23C10C2F20000B6
:102A300001684FF47A7004E040F23C11C2F20001E8
:102A40000968486340F28411C2F200010968886392
:102A500040F21000C2F20000007801281ED1B069D7
:102A600049F699114CF6CD42C1F69911CCF6CC42FB
:102A700000FB0211B1F1333F11D22046FDF79FFC5C
:102A80000446F069776A0D46FDF799FCCDE902012D
:102A90000EA022462B46009701F030F9B069411C88
:102AA0006328C8BF0121B16105B0BDE8F04070479F
:102AB000B1F1FF3FCCDC40F23C10C2F200000068F4
:102AC0004FF47A72426301F57A70BBE7252E3266C5
:102AD0002C25642C252E32660A0000007047000069
:102AE0007047000070470000B0B582B0044600682F
:102AF0000168C368426901F02F05202D03F020050D
:102B000006D12DB1204602B0BDE8B04000F0BEBFF6
:102B10005FEA017C1EBF02F0010E03F4907212EB1B
:102B20000E0255D1226B012A05D111F0100218BFF7
:102B300013F0100236D10A0622D513F080021FD0FE
:102B400094F84110212941D1A168B1F5805F03D1EA
:102B50002169002900F07282216A4A1C22620978E8
:102B60004160E18C01390A04E1842FD1C16821F070
:102B70008001C160C16841F04001C16002B0B0BDD8
:102B8000490623D513F0400120D0C16821F040014F
:102B9000C1602021204684F8411002B0BDE8B04059
:102BA00000F098BC002101910168019141680191F8
:102BB00001994169490600F18F80A18DE28DE38D75
:102BC000002B1CBF891A5FEA01420CD102B0B0BDD4
:102BD000CA0718BF13F4807240F038814A0700F129
:102BE0003B8140E1206850E8030F226820F4907098
:102BF00042E80303DBB1206850E8030F226820F4A9
:102C0000907042E8030393B1206850E8030F2268F4
:102C100020F4907042E803034BB1206850E8030FA2
:102C2000226820F4907042E80303002BDAD1206878
:102C300050E8050F226820F0010042E80503DBB1EF
:102C4000206850E8050F226820F0010042E80503E3
:102C500093B1206850E8050F226820F0010042E897
:102C600005034BB1206850E8050F226820F00100F1
:102C700042E80503002BDAD1202084F8420000202E
:102C80002063206850E8030F226820F0100042E81B
:102C90000303DBB1206850E8030F226820F0100026
:102CA00042E8030393B1206850E8030F226820F044
:102CB000100042E803034BB1206850E8030F22687C
:102CC00020F0100042E80303002BDAD1022289B27F
:102CD00020466263B4E000BFE16B0A68526893B2B9
:102CE000002B3FF473AFA58DAB42BFF46FAFE2850D
:102CF0008969202900F09D8050E8030F216820F4A5
:102D0000807041E80302EAB1206850E8030F2168AF
:102D100020F4807041E80302A2B1206850E8030F5C
:102D2000216820F4807041E803025AB1206850E81D
:102D3000030F216820F4807041E8030212B120687B
:102D4000DAE700BF206850E8050F216820F0010095
:102D500041E80502DAB1206850E8050F216820F04B
:102D6000010041E8050292B1206850E8050F216892
:102D700020F0010041E805024AB1206850E8050F43
:102D8000216820F0010041E80502002ADAD120681C
:102D900050E8050F216820F0400041E80502DAB153
:102DA000206850E8050F216820F0400041E8050246
:102DB00092B1206850E8050F216820F0400041E8FA
:102DC00005024AB1206850E8050F216820F0400054
:102DD00041E80502002ADAD1202084F842000020D0
:102DE0002063206850E8030F216820F0100041E8BC
:102DF0000302DAB1206850E8030F216820F01000C8
:102E000041E8030292B1206850E8030F216820F0E6
:102E1000100041E803024AB1206850E8030F21681E
:102E200020F0100041E80302002ADAD1E06BFEF73F
:102E300065F902206063A08DE18D401A81B22046C1
:102E400002B0BDE8B040FFF74BBE00BF626C42F07D
:102E5000010262644A0706D5BEF1000F03D0626C1E
:102E600042F0020262648A0706D5BEF1000F03D069
:102E7000626C42F004026264BCF1000F06D555EAB0
:102E80000E0203D0626C42F008026264626C002A97
:102E90003FF49CAE11F0200118BF002D03D0204656
:102EA00000F0F4FD20684169626C01F0400102F01D
:102EB0000802891800F0A28050E8030F216820F46E
:102EC000907041E80302C2B3206850E8030F216804
:102ED00020F4907041E803027AB3206850E8030FB1
:102EE000216820F4907041E8030232B3206850E872
:102EF000030F216820F4907041E80302EAB12068D2
:102F0000DAE700BF206850E8050F216820F00100D3
:102F100041E80502DAB1206850E8050F216820F089
:102F2000010041E8050292B1206850E8050F2168D0
:102F300020F0010041E805024AB1206850E8050F81
:102F4000216820F0010041E80502002ADAD1206B57
:102F5000012824D1206850E8030F216820F01000D8
:102F600041E80302DAB1206850E8030F216820F03D
:102F7000100041E8030292B1206850E8030F216875
:102F800020F0100041E803024AB1206850E8030F26
:102F9000216820F0100041E80302002ADAD1202045
:102FA00084F84200002020632068416949063FD52B
:102FB00050E8050F216820F0400041E805022AB3DF
:102FC000206850E8050F216820F0400041E8050224
:102FD000E2B1206850E8050F216820F0400041E888
:102FE00005029AB1206850E8050F216820F04000E2
:102FF00041E8050252B12068DAE700BF2046FFF73A
:1030000071FD0020606402B0B0BD00BFE06B78B11C
:1030100043F68121C0F600014163FEF793F80028D2
:103020003FF4D4ADE06B416B02B0BDE8B04008475F
:10303000204602B0BDE8B040FFF754BD216A31F828
:10304000022B6FF35F22426021628AE5002804BFF1
:103050000120704710B5044690F8410028B90020BF
:1030600084F84000204600F061F8242084F84100F4
:103070002068D4E90212C36823F40053C3600369D3
:1030800023F440531A430261D4E904231143C26874
:10309000194341F20C639A431143C1604169A2692B
:1030A00021F44071114343F60002C4F20102904240
:1030B000416103D0FEF742FC02E000BFFEF752FC84
:1030C0006268192148439100B0FBF1F048F21F51AA
:1030D000C5F2EB11A0FB01235A096FF0630302FB59
:1030E0000300322303EB0010A0FB0101F02303EAED
:1030F0005113206803EB0212C1F3431111448160A4
:10310000016921F490410161416921F02A01416185
:10311000C16841F40051C16000202021606484F83E
:10312000411084F84210606310BD000070B586B095
:1031300040F60044C4F201040068A4F544410026AE
:103140008842049602D006B070BD00BF41F218005C
:10315000C4F20200416802AD41F48021416041683F
:1031600001F4802101910199016841F00801016099
:103170000068294600F00800019001984FF4806033
:10318000029002200390032005902046FEF734F8B9
:103190004FF40060CDE90206204629460496FEF76A
:1031A0002BF8272000210022FEF7AEF92720FEF79A
:1031B0009BF906B070BD000090F84230202B1CBF78
:1031C0000220704700294FF0010318BF002A01D1E7
:1031D0001846704700230363816222218285C285DD
:1031E000436480F842100169006819B1C16841F474
:1031F0008071C1604169002341F001014161C168F2
:1032000041F02001C160184670470000B0B540F29F
:103210001421C2F20001884218BFB0BD40F27C0008
:10322000C2F2000002784179831883F8281081B136
:103230000132202902700CD101218160002101702E
:10324000C0E90A11C0E90C11C0E90E110164A0F82F
:10325000441040F21425441DC2F2000528462146C0
:103260000122FFF7A9FF0028F8D1B0BD2DE9F043F6
:1032700081B0044690F84100202840F0B1800F460C
:1032800000294FF0010000F0D0801646002A00F01F
:10329000CC804FF0000821201D46C4F8448084F8FB
:1032A0004100FEF7B3F8A684E684A1680646B1F5AE
:1032B000805F05D12069002814BF3846B84607460C
:1032C000E18C2068002900F08F8005F101090AE0F7
:1032D00047B317F8011B4160E18C0139E184E18CAF
:1032E000002900F0818001680906F1D4B9F1000FCE
:1032F0000AD0EDB1FEF78AF8801BA84218D82068E2
:1033000001680906F6D5E3E701680906E0D401681B
:1033100009065CBF01685FEA0161D9D4016809064A
:10332000F2D5D5E738F8021B00276FF35F21D2E70B
:10333000206850E8030F216820F4D07041E80302B0
:10334000BAB3206850E8030F216820F4D07041E838
:10335000030272B3206850E8030F216820F4D07094
:1033600041E803022AB3206850E8030F216820F4E3
:10337000D07041E80302002ADAD11AE0206850E850
:10338000050F216820F0010041E80502DAB120684C
:1033900050E8050F216820F0010041E8050292B1D4
:1033A000206850E8050F216820F0010041E805027F
:1033B0004AB1206850E8050F216820F0010041E87B
:1033C0000502002ADAD1202084F8410084F8420066
:1033D000002084F84000032001B0BDE8F08300BF66
:1033E000022001B0BDE8F0830168490619D4FDB19F
:1033F000691C0DD10168490613D4016849065CBFF8
:1034000001685FEA41610CD401684906F2D508E021
:10341000FDF7FCFF801BA8420AD820680068400620
:10342000F6D5202084F84100002001B0BDE8F083EB
:10343000206850E8030F216820F4D07041E80302AF
:10344000E2B3206850E8030F216820F4D07041E80F
:1034500003029AB3206850E8030F216820F4D0706B
:1034600041E8030252B3206850E8030F216820F4BA
:10347000D07041E80302002ADAD11FE0206850E84A
:10348000050F216820F0010041E80502002A9AD0CA
:10349000206850E8050F216820F0010041E805028E
:1034A000002A3FF490AF206850E8050F216820F013
:1034B000010041E80502002A3FF485AF206850E88A
:1034C000050F216820F0010041E80502002AD5D14E
:1034D00079E7000070470000FEE70000B0B584B057
:1034E00040F2C40042F20041C2F20000C4F2010105
:1034F00000244FF46022012504730475C261C0E901
:10350000001484600561FDF7A5FC002818BFFDF7D5
:103510007BFA40F2C400C2F2000001A9CDE90145E6
:103520000394FDF701FB002818BFFDF76DFA04B006
:10353000B0BD000083B041F21800C4F2020001687F
:1035400041F020010160016801F02001029102991F
:10355000016841F004010160016801F0040101917A
:103560000199016841F008010160006800F008005D
:103570000090009803B0704710B58CB040F2F40092
:1035800042F600410024C2F20000C4F20101C0E989
:10359000001403214FF6FF72CDE903140121C0E9A5
:1035A0000242CDE905140222CDE9091403A9CDE9AF
:1035B0000044C0E904448461CDE907240B92FEF77E
:1035C000B7FD002818BFFDF71FFA40F2F400C2F261
:1035D00000006946CDE90044FEF7CCFB002818BF87
:1035E000FDF712FA0CB010BDB0B590B040F23C102F
:1035F0000021C2F200004FF08042472340F2E7353D
:10360000CDE90811CDE90611CDE90411C0E9002387
:10361000C0E9021501618161FFF77CF8002818BF3D
:10362000FDF7F2F940F23C10C2F2000008A9FEF7E3
:10363000A1FB002818BFFDF7E7F940F23C14602019
:10364000C2F200040190002501A920460022CDE924
:1036500002550595FEF75CFF002818BFFDF7D4F969
:10366000206840F20041C4F200018842CDE90D55C6
:103670000C9521D0B0F1804F4AD141F21800C4F22C
:103680000200016840F2001441F00401016000688A
:103690004FF2FF3100F004000B900B984FF4004004
:1036A0000C9040F60000CFF6FF01C0F20074C4F2A7
:1036B000010001F510651EE041F21800C4F202009D
:1036C00001684FF2FF3541F0080101600068CFF654
:1036D000FF0500F008000B900B9820200C9040F2A2
:1036E0000010C0F2007000F5E06440F60000C4F283
:1036F000010000F5806002210D910F910CA9FDF7EA
:103700007BFD0420C4F201000168294021430160CF
:1037100010B0B0BD70B590B040F2841040F20045DA
:103720000021C2F20000C4F20005472240F2E73354
:10373000CDE90811CDE90611CDE90411C0E9005227
:10374000C0E9021301618161FEF7E4FF002818BFA0
:10375000FDF75AF940F28410C2F2000008A9FEF702
:1037600009FB002818BFFDF74FF940F284146020D0
:10377000C2F200040190002601A920460422CDE9EE
:1037800002660596FEF7C4FE002818BFFDF73CF957
:1037900020680E96A8420D960C9621D0B0F1804F6D
:1037A0004AD141F21800C4F20200016840F200144C
:1037B00041F00401016000684FF2FF3100F00400A5
:1037C0000B900B984FF400400C9040F60000CFF6A1
:1037D000FF01C0F20074C4F2010001F510651EE0A3
:1037E00041F21800C4F2020001684FF2FF3541F0C7
:1037F000080101600068CFF6FF0500F008000B909B
:103800000B9820200C9040F20010C0F2007000F5E0
:10381000E06440F60000C4F2010000F5806002217F
:103820000D910F910CA9FDF7E7FC0420C4F20100F3
:10383000016829402143016010B070BD80B586B099
:1038400040F2CC100021C2F2000040F600024FF01E
:10385000090C0591CDE90311CDE90011C4F2000274
:1038600041F61F43C0E9021C01618021C0E9002329
:103870008161FEF7BDFA002818BFFDF7C5F84FF4C7
:103880008050029040F2CC10C2F2000002A9FEF774
:1038900081FB002818BFFDF7B7F840F2CC10C2F248
:1038A00000006946FEF766FA002818BFFDF7ACF87D
:1038B00006B080BD80B540F2142044F60001C2F28B
:1038C0000000C4F2000100234FF00C0C4FF4E13271
:1038D00080E80E00C0E90333C0E905C3C361FFF708
:1038E000B5FB002808BF80BDBDE88040FDF78CB85F
:1038F000FEE70000FEE7000040F2180143F2333219
:103900000023C2F200010020C4F25322C4F2074394
:10391000C1E90900C1E90100C1E90300C1E90502EB
:10392000C1E90703C1E9150041F26F234CF6CD4C04
:10393000C1E90D00C1E90F0044314FF07A52C3F6DE
:103940000333CBF64C5C81E80D1040F25C21C2F2EF
:103950000001C1E90000C1E90200C1E90500C1E9B7
:1039600007004862704700002DE9F04381B040F243
:103970001805C2F200052A4642F8040F2A60A96021
:10398000FCF722FCA96A0446E860FCF7CBFBD5E90A
:103990000661D5F81090D5F82080A862FCF71AFCD3
:1039A000074630462146FCF715FC3946FCF7BAFBC2
:1039B000064620464946FCF707FC01464046FCF710
:1039C00009FC3146FCF7AEFB68622C6101B0BDE832
:1039D000F08300002DE9F04381B040F21806C2F2F6
:1039E0000006324642F8340F3260B163FCF7ECFB5C
:1039F000B16D0446F063FCF795FBD6E91251D6F899
:103A00004090D6F85080B065FCF7E4FB07462846A6
:103A10002146FCF7DFFB3946FCF784FB05462046D0
:103A20004946FCF7D1FB01464046FCF7D3FB29464B
:103A3000FCF778FB34640024C4F2201421460546C8
:103A40007065FCF787FC38B90024CCF220142846B6
:103A50002146FCF771FC08B925467465284601B07B
:103A6000BDE8F0837047000070470000FDF7D4BC4C
:103A70007047000040F2CC10C2F20000FEF78EBC8E
:103A8000406A0021C185C184FFF72CB881B090F84D
:103A90004210222920D18368B3F5805F08D10169E3
:103AA000002965D000F128010A6803685B680AE014
:103AB000014651F8282F13B90369002BF5D003688C
:103AC0005B6803F07F0313700A6801320A60C18DDE
:103AD00001390A04C18501D001B070470168CA6884
:103AE00022F02002CA60CA6822F48072CA604A6961
:103AF00022F001024A61202280F842200022426323
:103B0000036B012B3ED1026351E8031F026821F0D1
:103B1000100142E803130168DBB151E8031F02689A
:103B200021F0100142E80313016893B151E8031F2B
:103B3000026821F0100142E8031301684BB151E81B
:103B4000031F026821F0100142E803130168002BF3
:103B5000DAD10A68D20606D5002200920A680092DD
:103B6000496800910099818D01B0FEF7B9BF00BF8F
:103B70000168826A49686FF35F2122F8021B826242
:103B8000A5E700BF01B0FFF741BB000040F21420E1
:103B9000C2F20000FEF7A8BFFEE7000080B582B0C9
:103BA000019040F21420C2F2000001A901224FF658
:103BB000FF73FFF75BFB019802B080BD94B0FDF787
:103BC00039FC00240120CDE90F44CDE90D440A90D1
:103BD0000E904FF4E0104FF48031022513900AA8A4
:103BE0000494CDE90244CDE90B14CDE91151FDF760
:103BF000CDFE28B1EFF3108072B600BFFEE700BF24
:103C00000F20CDE905054FF48060CDE9080405A833
:103C100002210794FDF7B2FD20B1EFF3108072B6D8
:103C2000FEE700BF022001904FF40040039001A87E
:103C3000FDF71EFD20B1EFF3108072B6FEE700BF66
:103C4000FFF778FCFFF74AFCFFF796FCFFF7CCFC88
:103C5000FFF730FEFFF7F2FDFFF75CFD40F23C1886
:103C6000C2F20008404600210024FEF7F5FD40F2B4
:103C70008415C2F2000528460421FEF7EDFD40F24E
:103C8000CC10C2F20000FEF74DF940F2F406C2F289
:103C9000000630463C21FEF721FB40F2C407C2F289
:103CA00000073846FCF7B6FE3846FDF7BDF9FFF7CA
:103CB00023FE306840F27C064462D8F80000C2F26D
:103CC00000064FF47A71A6F80140416328688163C9
:103CD00038463471F460FDF7A7F940F21425741DDD
:103CE000C2F20005284621460122FFF765FA0028A6
:103CF000F8D10120708000BFFEE700000FB4054B33
:103D000010B503A9044A029800F0DAF810BC5DF877
:103D100014FB00009D3B00080000002002E008C8E2
:103D2000121F08C1002AFAD170477047002001E035
:103D300001C1121F002AFBD1704700002DE9FF5F6F
:103D400082B00021DDE90430020DDDF840B003430C
:103D500018D044F61050A2F2FF32424315141198C5
:103D600001281FD0A5EB0B00401C5FEA000A4FF0B2
:103D700000064E4FDFF83891B046504615D5CAF1CF
:103D8000000413E0119801244AA3012801D16FEA2D
:103D90000B010298119AC0E90031C0E9024206B055
:103DA000BDE8F09FCBF10000DFE704460021404A68
:103DB000491842EB0450CDE9001012E0E00707D0AB
:103DC00032463B4640464946FCF736FA804689462D
:103DD00032463B4610461946FCF72EFA06460F4679
:103DE0006410002CEAD1DDE90401DDE90023BAF119
:103DF000000F06DAFCF720FA42464B46FCF71CFAA5
:103E000005E0FCF78DFC42464B46FCF789FC044676
:103E10000E460022284BFCF70BFD03D84FF0FF3075
:103E2000014607E00022254B20463146FCF7D1FB36
:103E3000FCF7E5FC102409E0002C0ADB0A22002331
:103E4000FCF702FB039B30321A55641E50EA010254
:103E5000F2D1641C039AC4F111031444119A012A8B
:103E600003D0012208430DD10AE0084304D000200A
:103E70004FF0110B119072E7A3EB0B056D1E0DE0D7
:103E80005B4504DD4FF0000205F1010504E003DAB3
:103E90004FF00002A5F10105002AECD0029811991B
:103EA000C0E90231C0E9004579E700000000144094
:103EB0000000F03F300000000000F0430000E03F51
:103EC0002DE9FF4F95B09B468946064600250FE237
:103ED000252877D100242746F84A0121059400E0DF
:103EE000044316F8013F203B01FA03F01042F7D1DA
:103EF00030782A2811D06FF02F033078A0F13002EB
:103F0000092A16D8059A44F0020402EB820203EB58
:103F100042021044761C0590EFE759F8042B0592F5
:103F2000002A03DA504244F40054059044F002049D
:103F3000761C30782E2816D116F8010F44F00404B0
:103F40002A280DD06FF02F023078A0F13003092B12
:103F500009D807EB870302EB4303C718761CF3E786
:103F600059F8047B761C30786C280FD006DC4C287E
:103F700017D068280DD06A2814D104E0742810D016
:103F80007A280FD10DE044F400140AE044F48014C0
:103F900001E044F440147278824202D104F58014A6
:103FA000761C761C307866280BD013DC582877D026
:103FB00009DC002875D04528F6D04628F4D04728DB
:103FC0001AD19DE118E0632835D0642879D065289E
:103FD00012D195E1702873D008DC6728F1D06928E8
:103FE0006FD06E280DD06F2806D1B5E073282CD085
:103FF000752875D0782874D05A46179990476D1C4B
:1040000075E1C4F30250022809D003280DD0D9F875
:10401000001004280DD00D6009F1040967E1D9F8FA
:104020000010EA17C1E90052F6E7D9F800100D8038
:10403000F2E70D70F0E719F8041B8DF8001000206E
:104040008DF80100EA46012003E059F804AB4FF077
:10405000FF3061074FF0000102D40DE008F10101CB
:104060008846B9420FDA8045F8DB1AF808100029B3
:10407000F4D108E008F1010188468142FADB1AF820
:1040800008100029F6D105985B46A0EB08072146E9
:104090003846179A00F094FA284400EB080507E028
:1040A0004DE029E10DE01AF8010B5A4617999047A7
:1040B000B8F10108F7D25B4621463846179A13E15A
:1040C00042E00A220092C4F302524FF0000A022A90
:1040D00008D059F804CB032A4FEAEC710AD00DE05E
:1040E00029E02AE009F1070121F00702F2E802C104
:1040F000914609E00FFA8CFC4FEAEC71042A03D1D7
:104100004FFA8CFC4FEAEC71002907DA0A460021CD
:10411000DCF1000C61EB02012D2202E0220504D546
:104120002B228DF80420012203E0E20701D0202297
:10413000F7E7904659E00A2102E010220DE0102135
:104140004FF0000A00910BE010224FF0000A44F0FB
:1041500004040827009203E008224FF0000A0092AE
:10416000C4F30252022A05D059F804CB0021032AD5
:1041700008D009E009F1070121F00702F2E802C1C5
:10418000914605E01FFA8CFC042A01D10CF0FF0CCB
:104190004FF00008220728D5702806D0009B83F036
:1041A000100353EA0A0305D00EE040228DF80420E4
:1041B000012208E05CEA010206D030228DF80420DA
:1041C0008DF8050002229046009B83F0080353EA15
:1041D0000A030AD15CEA010201D1620705D5302247
:1041E0008DF804204FF001087F1E582804D034A019
:1041F00003900EA802900DE036A0F9E75346604602
:10420000009AFCF721F984460398825C0298401ECC
:10421000029002705CEA0100F0D1029806A9081A27
:1042200000F1200A600702D524F4803400E0012761
:10423000574502DDA7EB0A0000E0002000EB0A0171
:10424000009005984144401A0590E00306D45B466F
:104250002146179A059800F0B3F90544002706E0B7
:1042600001A85A46C05D179990476D1C7F1C4745B1
:10427000F6DBE0030CD55B462146179A059800F063
:104280009FF9054404E030205A46179990476D1C69
:104290000099481E00900029F5DC08E00298029978
:1042A0005A460078491C0291179990476D1CBAF143
:1042B0000001AAF1010AF1DC65E100000928010012
:1042C000303132333435363738396162636465668C
:1042D000000000003031323334353637383941424E
:1042E000434445460000000000F058F90544761CA0
:1042F000307800287FF4ECAD19B02846BDE8F08F87
:10430000620700D4062709F1070222F0070CFCE837
:104310000223E14603F000485FEA080C02D00FF2E6
:10432000702C0DE05FEA045C02D50FF2682C07E008
:104330005FEAC47C02D00FF2602C01E0AFF2700C97
:104340004FF0FF3823F00043CDF850C065280CD063
:1043500006DC452809D046281DD047283DD13DE040
:10436000662818D067287ED138E00021112F01DBA4
:10437000112000E0781CCDE9000106A90EA8FFF786
:10438000DDFCDDE90F010E9A03910021009207F197
:10439000010A04914DE04FF000400097CDE9011073
:1043A00006A90EA8FFF7CAFCDDE90F0203920E9BD7
:1043B00011990022DDF80CA00093049211B9791C28
:1043C00000EB010AB7EB0A0004D4C0F1FF3007F19B
:1043D000010A0490AAEB0700019044E0012F00DAE3
:1043E00001270021112F01DD112000E03846CDE921
:1043F000000106A90EA8FFF7A1FCDDE90F010E9A46
:104400000391002104910092BA4621070CD403992C
:10441000514500DA8A46BAF1010F05DD009AAAF18A
:104420000101515C302908D0B84202DA10F1040FC2
:1044300006DA0121CDE9011015E0AAF10101E9E751
:10444000002805DC049901440491AAEB000102E074
:10445000411C514500DD8A460499401A401C0190D8
:104460004FF000400290200704D40198504501DB32
:10447000CDF8048000208DF84F0002980DF14F0711
:10448000B0F1004F25D02B200E9002984FF002087B
:1044900000280CDA404202902D200E9007E00A21FD
:1044A0000298FBF7BBFF3031029007F8011DB8F10D
:1044B0000001A8F10108F2DC02980028EFD1791E72
:1044C0000E980870307800F0200040F0450007F8A2
:1044D000020D12A8C01B00F107081498007800B163
:1044E000012000EB0A01019801EBE07105984144BD
:1044F000401A401E0590E00306D45B462146179AF9
:10450000059800F05DF805441498007818B15A46F3
:10451000179990476D1CE00324D55B462146179AF6
:10452000059800F04DF805441CE00498002807DBCE
:10453000DDE90301884203DD0098405C179901E042
:10454000179930205A469047049805F10105401C00
:1045500004900198401E019004D12E205A461799CC
:1045600090476D1CBAF10001AAF1010ADDDC05E0FB
:1045700017F8010B5A46179990476D1CB8F10001C6
:10458000A8F10108F4DC5B462146179A0598ABE6D2
:104590002D0000002B000000200000002DE9F0415C
:1045A000044600251E461746880404D405E0394613
:1045B0002020B0476D1C641EF9D52846BDE8F08167
:1045C0002DE9F041044600251E469046C80301D55A
:1045D000302700E02027880404D505E0414638460E
:1045E000B0476D1C641EF9D52846BDE8F081000077
:1045F0000000000000000102030406070809000093
:104600000000010203040102020304050607080971
:104610000A0B0C0D0E0F1010384600080000002089
:10462000180000001C3D000850460008180000203B
:10463000780600002C3D000800000000010000008A
:10464000100000000024F400010000000000B44449
:04000005080000ED02
:00000001FF
