:020000040800F2
:1000000070070020010100087D3800081135000844
:1000100079380008351000083D3E00080000000057
:100020000000000000000000000000003D3D00084E
:100030003910000800000000393D0008413D00086B
:100040001B0100081B0100081B0100081B01000820
:100050001B0100081B0100081B0100081B01000810
:100060001B0100081B0100081B0100081B01000800
:100070001B0100081B0100081B0100081B010008F0
:100080001B0100081B0100081B0100081B010008E0
:100090001B0100081B0100081B0100081B010008D0
:1000A0001B0100081B0100081B010008493D000856
:1000B0001B0100081B010008553D00081B0100083A
:1000C0001B0100081B0100081B0100081B010008A0
:1000D0001B010008253E00081B010008313E0008F6
:1000E0001B0100081B0100081B010008DFF80CD0F1
:1000F00000F046FD00480047613E00087007002000
:100100000648804706480047FEE7FEE7FEE7FEE7B1
:10011000FEE7FEE7FEE7FEE7FEE7FEE7453D0008F7
:10012000ED000008D2B201E000F8012B491EFBD21D
:1001300070470022F6E710B513460A4604461946F2
:10014000FFF7F0FF204610BDCAB2401E10F8011F95
:100150008A4202D00029F9D10020704730B5044608
:100160000020034600E05B1C934203D2E05CCD5CC0
:10017000401BF8D030BD70B5064603F035FF04686B
:1001800005460A220021304600F0E6FB2C6070BDD7
:10019000F0B480EA0102D40F4200B2EB410F02D268
:1001A0000246084611464A0042D0C30DDDB2C1F3F3
:1001B000C752AD1A202D35DAC1F3160141F4000201
:1001C00004B15242C5F1200602FA06F12A41104458
:1001D000B3EBD05F23D0C4B1012DA0EBC35009DC39
:1001E000F0BC4FF0004202EAC352DBB200F500005F
:1001F00000F0F3BB400000F1807000EBC350A0F1B1
:10020000807040EAD170490009E0490841EAC071B4
:10021000A0EBC35000F50000400800EBC350F0BC59
:1002200000F0D2BB6142012202EB4101001BF6E764
:10023000F0BC704781F00041AAE780F00040A7E7DA
:1002400080EA010210B502F00043400022D04A00CB
:100250001FD0010E01EB1261C0F35600C2F356022B
:1002600040F4000042F40002A0FB022000047F39A9
:10027000140400D0401C50EA124001D44000491E32
:10028000C2B20C0604EBD010401C4008802A02D0F9
:1002900003E0002010BD20F00100002900DA00205A
:1002A000184310BD30B480EA010202F0004530F07E
:1002B000004221F0004013D090B1C30DD40DC2F321
:1002C0001601C0F31600E41A41F4000140F40002E4
:1002D0007D34914201D3641C00E04900002C02DA15
:1002E00030BC002070474FF400000023914201D33E
:1002F000891A034340084FEA4101F7D151B19142B5
:1003000002D14FF0004105E002D24FF0010101E0BF
:100310006FF0010103EBC450284430BC00F054BB23
:100320002DE9FE4F804681EA0300C00F0C46009085
:1003300021F0004123F00045B8EB0200A94105D2AD
:100340004046214690461C460B46024623F000409C
:10035000104347D0270DC7F30A00C3F30A51029098
:10036000401A019040286BDAC3F3130040F4801B5D
:100370000098924620B10023D2EB030A63EB0B0BEB
:1003800001985946C0F14002504600F05FFA064617
:100390000D4650465946019A00F077FA10EB0800D6
:1003A0006141002487EA115284EAE7731A4340D07E
:1003B000009A62B3019A012A4FEA075215DC001B2A
:1003C00061EB02014FF0004202EA0752CDE9004220
:1003D000001C41F5801132462B4600F03BFB03B078
:1003E000BDE8F08F40462146F9E7001B61EB0201B2
:1003F000001C41F5801300185B412018A2F500177E
:1004000047EB030140EAD570B6196D4111E06D0864
:100410004FEA360645EAC0754FEA0752001B61EB0A
:100420000201001C41F5801149084FEA3000001913
:10043000514132462B4603B0BDE8F04F00F0FBBA05
:100440000098012240000023D0EB020263EBE0732E
:10045000009821464FEAE074B8EB000061EB04011C
:10046000E9E783F000435BE781F0004158E72DE9BD
:10047000FE4F81EA030404F0004421F0004100949F
:100480004FF0000B23F0004350EA01045ED052EA23
:1004900003045BD0C3F30A54C1F30A552C44A4F2FD
:1004A000F3340194A0FB0254C1F3130141F4801111
:1004B000C3F3130343F4801301FB024400FB034E18
:1004C000840A970A44EA815447EA8357A4FB0768E1
:1004D00002958D0A05FB07854FEA932C04FB0C540B
:1004E0002705029D4FEA065847EA1637B5EB08057F
:1004F0006EEB070C870E920E47EA811742EA8312D1
:10050000A7FB0201B6EB0B0164EB00042B0D43EAE1
:100510000C335E1844EB1C50DA465146E7FB0201EF
:10052000C5F313044FEA0B3343EA14534FEA043282
:10053000019C43EA0603A4F10C040294009CCDE95B
:1005400000B400F087FA03B0BDE8F08F0020014648
:10055000F9E72DE9F04D81EA030404F0004B21F0A6
:10056000004514464FF0000A23F0004150EA05020E
:1005700020D054EA01021DD0C5F30A570246C5F344
:100580001303C1F31300C1F30A5640F4801543F47A
:100590008013A7EB0608101BD64608F2FD3873EB54
:1005A000050002D308F1010801E092185B41B8F19F
:1005B000000F03DA00200146BDE8F08D00204FF463
:1005C0008011064684460EE0171B73EB050705D322
:1005D000121B63EB050306434CEA010C49084FEA82
:1005E000300092185B4150EA0107EDD152EA030056
:1005F00012D082EA040083EA0501084305D0101BEB
:10060000AB4106D20122002306E000224FF0004356
:1006100002E06FF0010253101AEB06004CEB085198
:1006200010EB0A0041EB0B01BDE8F04D00F003BAFE
:10063000002801DBC0F10040002901DBC1F10041CD
:10064000814201D80120704700207047002801DB5B
:10065000C0F10040002901DBC1F10041814201D21B
:100660000120704700207047002801DBC0F10040E6
:10067000002901DBC1F10041814201D30120704713
:1006800000207047002801DBC0F10040002901DB99
:10069000C1F10041814201D901207047002070471B
:1006A000002801DBC0F10040002901DBC1F100415D
:1006B000814201D10120704700207047C10F80EABC
:1006C000E0700844CA079623002100F086B90EB5F1
:1006D000C10F80EAE0700844CA07002140F23343AA
:1006E0008DE80E000A460B4600F0B4F903B000BDD9
:1006F00000F0004220F00040C10DC0F3160040F4AD
:1007000000007F2901DA00207047962903DCC1F13F
:100710009601C84001E096398840002AF4D0404252
:10072000704770B5C1F30A5201F000450024C1F3CF
:10073000130140F2FF3341F480119A4201DA0020A4
:1007400070BD40F233439A42A2F2334203DC52427C
:1007500000F08BF800E090402C43F1D0404270BD97
:1007600000F0004230F000400AD0C10D01F5607188
:10077000C0F3160042EA0151C20840071143704716
:1007800000200146704701F0004330B421F00041E1
:1007900050EA010206D00A0DA2F56072C1F31301FE
:1007A000002A02DC30BC00207047440F44EAC10438
:1007B000C100E01830BC00EBC25000F005B930B504
:1007C0000B46014600202022012409E021FA02F50F
:1007D0009D4205D303FA02F5491B04FA02F52844A9
:1007E000151EA2F10102F1DC30BD2DE9F05F0546D6
:1007F000002092469B4688460646814640241BE0E0
:10080000284641464746224600F02FF853465A46AE
:10081000C01A914110D311461846224600F016F82E
:100820002D1A67EB01084F4622460120002100F0F7
:100830000DF817EB00094E41201EA4F10104DFDC86
:10084000484631462A464346BDE8F09F202A04DB4D
:10085000203A00FA02F1002070479140C2F12003D3
:1008600020FA03F3194390407047202A04DB203A12
:1008700021FA02F00021704721FA02F3D040C2F1C0
:1008800020029140084319467047202A06DBCB1707
:10089000203A41FA02F043EAE07306E041FA02F33B
:1008A000D040C2F120029140084319467047000031
:1008B0000FB40B0010B58AB00FA900910E994FF03C
:1008C0000004234ACC60214CCDE9064200D0042329
:1008D0006FF00042CDE901321E4A089202466B4693
:1008E000002000F001FA0AB010BC5DF814FBF0B56E
:1008F00085B007464FF0FF300091CDE901011E465B
:10090000002015460C4604903B466A46314604A832
:10091000FFF7CEFF04990346601825B109B10246DE
:1009200000E022462A6000290ED0002B02DD00994B
:10093000814209D00094001BCDE901043B466A4680
:10094000314604A8FFF7B4FF05B0F0BD210F000841
:100950003F0F0008AD0B00082DE9F04791460F4608
:1009600080460446002614F8015B2DB100F01AF908
:100970000068405DC007F6D12B2D02D02D2D18D078
:10098000641E4A463946204600F0EAFA27B1396823
:10099000A14201D1C7F8008071054FF002040BD5C8
:1009A0004042002803DD03F01FFB0460A007BDE800
:1009B000F08746F48066E4E70028F8DA03F014FBD9
:1009C00004606FF00040F2E70029A8BF7047401CA8
:1009D000490008BF20F00100704710B4B0FA80FC55
:1009E00000FA0CF050EA010404BF10BC704749B192
:1009F000CCF1200421FA04F411FA0CF118BF012102
:100A000021430843A3EB0C01CB1D4FEA00614FEAE1
:100A1000102042BF002010BC704700EBC3501044B0
:100A20000029A4BF10BC7047401C490008BF20F03B
:100A3000010010BC704710B5141E73F1000408DAF1
:100A4000401C41F1000192185B411A4301D120F092
:100A5000010010BD2DE9F04D92469B4611B1B1FA4F
:100A600081F202E0B0FA80F220329046FFF7EEFE0B
:100A700004460F4640EA0A0041EA0B0153465A4633
:100A8000084313D0114653EA010019D0C8F14002BF
:100A90005046FFF7EAFE05460E4650465946424686
:100AA000FFF7D4FE084305D0012004E02046394674
:100AB000BDE8F08D0020054346EAE0762C4337433D
:100AC0000A986305E40AA0EB08000022FD0A44EA44
:100AD00047540A3002D500200146E9E70105101904
:100AE0006941DDE9084500196941BDE8F04DA2E71B
:100AF00070B521F0004303430CD0C1F30A55002424
:100B0000D5EB040564EB0403D617AD1AB34102DB41
:100B10000020014670BD201841EB025170BDC1F3A9
:100B20000A52C1F3130140F2FF3341F480119A429B
:100B300002DA00200146704740F233439A42A2F2A3
:100B4000334202DC5242FFF790BEFFF77FBE000047
:100B500030B5041E71F1000404DB4FF00044404244
:100B600064EB0101141E73F1000405DB1C464FF019
:100B70000043524263EB0403994208BF904230BDE8
:100B8000064C074D06E0E06840F0010394E80700DA
:100B900098471034AC42F6D3FFF7ACFA484D000842
:100BA000684D000800487047144D000810B5044611
:100BB000FFF7F8FF0068005D00F0010010BD0000C5
:100BC0002DE9FF4F087883B09946FF2805D0491CCE
:100BD0002D2804D00024002008E000200BE0012490
:100BE000F9E700EB800003EB4000491C0B78FF2B7A
:100BF000F7D104B1404200230293147819461D46F0
:100C00002D2C01D02B2C04D1521C2D2C13D00024C0
:100C10000294AA461478FF2C0FD00A25A3FB05786E
:100C200001FB05814FF0000C03FB0C11521CE31972
:100C30004AEB0101EEE70124EAE7814453EA0100AF
:100C400002D019F5C87F06DA03980021C0E9001127
:100C500007B0BDE8F08F0025AE4E2F46DFF8B88212
:100C6000184600F0DAF9CDE90001B9F1000002DA26
:100C7000C9F1000400E004460023A74A1AEB030B65
:100C800042EB045A12E0E00707D02A4633463846C2
:100C90004146FFF7ECFB074688462A463346104696
:100CA0001946FFF7E4FB05460E466410002CEAD116
:100CB000DDE90001B9F1000F5A46534606DAFFF7A5
:100CC00048FC3A464346FFF744FC05E0FFF7CFFBFC
:100CD0003A464346FFF7CBFB029A0AB181F0004146
:100CE000039AC2E90001B3E72DE9FF4F1F468DB01B
:100CF000D7E901464FF0FF382E2045464FF0000956
:100D00000B90B9696D1C0E988847396A82468847EE
:100D10000028F6D1BAF1FF3F0AD024F4D064002EA7
:100D200011DDBAF12B0F08D0BAF12D0F0BD102E073
:100D3000404611B08DE744F48064B9696D1C0E988B
:100D400088478246761E6946600501D52D2000E061
:100D50002B208DF8000001F1010B0DF1200809E0B6
:100D6000B9696D1C0E98884782460F9844F4007448
:100D7000761E0560002E02DDBAF1300FF0D00B991F
:100D80008A453ED144F0800406E00F99681CA9F121
:100D9000010944F400740860B9696D1C761E0E9850
:100DA000884782463028F0D02BE00B998A4505D140
:100DB000200603D444F08004761E18E0504603F069
:100DC00049FA08B30DF11302761EAAF1300044F47B
:100DD0000074934506D20BF8010B200607D5A9F144
:100DE000010003E0200602D409F101008146A005BC
:100DF00002D50F99681C0860B9696D1C0E98884768
:100E00008246002ED1DC53E0002E51DDBAF1650F91
:100E100002D0BAF1450F4BD1A00549D5B9696D1C77
:100E200024F44074761E0E9888478246002E0CDD0E
:100E30002B2804D0BAF12D0F07D144F48074B9697E
:100E40006D1C0E9888478246761EE00501D52D213F
:100E500000E02B2108F8011BCDF82C8021E00DF1DA
:100E60002901761E44F4007488450CD2AAF13000A2
:100E700010F0FF0088F8000002D10B99884509D9CD
:100E800008F1010806E0E00501D5244801E042F23E
:100E90000F708146B9696D1C0E98884782460F987D
:100EA0000560002E04DD504603F0D4F90028D6D1A9
:100EB000F9690E988847FF208BF8000088F8000039
:100EC0000020069007904B466A4608A906A8FFF73F
:100ED00077FEA00502D46FF001002AE714F0240F7A
:100EE0000AD0E00714D1DDE906123868031D3B6023
:100EF0000068C0E900120BE0DDE90601FFF743FCE2
:100F00000146E00704D13868021D3A6000680160BC
:100F100028460EE7000014400000F03FF1D8FFFF24
:100F2000426842B1016811F8013B23B1521EC0E989
:100F30000012184670470121C160881E7047426840
:100F40005AB1C368016843B983688B4205D0491E12
:100F5000521CC0E90012002070474FF0FF3070476C
:100F60002DE9F05F82460078002715468B460AF18E
:100F70000104B946302801D09DB113E014F8010BEB
:100F80000127782803D0582801D045B10AE00DB1D7
:100F9000102D07D10027102514F8010B02E00825B9
:100FA00000E00A250026B0460EE005FB080005FB20
:100FB00006F1012701EB10461FFA80F8B6F5803FD5
:100FC00000D3B94614F8010B294600F018F80028A0
:100FD000EBDABBF1000F05D00FB1641E00E0544600
:100FE000CBF80040B9F1000F06D002F0FDFF02215E
:100FF0000160C81EBDE8F09F48EA0640FAE73A28BB
:1010000000D2303820F02002412A01D3A2F137006B
:10101000884201D34FF0FF3070470EB540F23342A3
:1010200002920022CDE900221346FFF713FD03B020
:1010300000BD0000FEE7000070470000EFF31080E5
:1010400072B600BFFEE70000014690F821000228BA
:1010500016D10868D1E90FC3026822F00E020260BF
:10106000026822F001020260012000FA03F2CCF8CB
:10107000042081F821000020002281F82020704700
:10108000042088630120002281F82020704700009E
:1010900080B590F82110022924D10268116821F04E
:1010A0000E0111602F211368C4F202018A4240F23E
:1010B0000401C4F2020123F00103136016DD3023A2
:1010C000C4F202039A421DD04423C4F202039A429E
:1010D0001CD05823C4F202039A421DD14FF480332E
:1010E00022E000BF04218163012080BD0823C4F2F7
:1010F00002039A420ED01C23C4F202039A420BD17F
:10110000102311E04FF480730EE000BF4FF48053C2
:101110000AE000BF012307E001F1680C4FF0807383
:10112000624508BF4FF480130B60416B4FF480722F
:10113000028401B18847002080BD0000B0B504469C
:1011400000F026F9054640F21800C2F200000078CF
:10115000611C18BF044400BF00F01AF9401BA042F4
:10116000FAD3B0BD2DE9F04F82B041F20042C4F293
:1011700001020E680423904208BF0323002E00934F
:1011800000F0F68040F20C4E4FF6FF7CC4F2010EE8
:1011900000220124C1F2100C4FF0000A4FF00009A8
:1011A00043E000BF012502F00C040F27A7402BEA03
:1011B000070705FA04F43C4343F82640D1F804B08D
:1011C00040F20045C4F201055FEACB332B6854BFFF
:1011D00023EA080343EA08032B606B685FEA8B3459
:1011E00054BF23EA080343EA08036B605FEACB2499
:1011F000AB6854BF23EA080343EA08035FEA8B2481
:10120000AB60DEF800304FF0010454BF23EA08035E
:1012100043EA0803CEF800300E680AF1010A36FAF4
:101220000AF302F1040200F0A38004FA0AF816EAB5
:10123000080FF1D04B68634512DC122B56D8DFE85B
:1012400003F0350B4549555555555555555555558B
:101250005555554D510000BFD1F80C9046E000BFE8
:101260004FF6FF77C1F22107BB420FDC0027C1F226
:101270001107BB421AD00027C1F21207BB4215D09A
:101280000027C1F22107BB4210D02FE00027C1F296
:101290002207BB420AD00027C1F23107BB4205D06A
:1012A0000027C1F23207BB4220D100BF8B684BB18F
:1012B000012B14BFC0F81480C0F810804FF008094B
:1012C00014E000BF4FF0040910E000BFCB6803F149
:1012D00008090BE04FF0000908E000BFCB6803F1FC
:1012E000040903E0CB6803F10C0900BF134605466F
:1012F000BAF1080F24BF203B04352E680F279F400A
:10130000BE4309FA03F333432B60CB79DB067FF549
:1013100083AF41F21804C4F2020423684FEA9A062C
:1013200043F001032360236840F6000403F0010347
:101330000193019B40F20043C4F20103A3F57E73C5
:1013400053F826B0C4F20104A0420FD040F6004486
:10135000C4F20104A0423FF425AF41F20004C4F2FC
:101360000104009DA04208BF02251CE700251AE7E2
:1013700002B0BDE8F08F00008068084018BF01206F
:1013800070470000002A08BF09040161704700008F
:1013900040F26C30C2F200000068704740F2180062
:1013A00040F26C31C2F20000C2F2000100780A681B
:1013B000104408607047000080B542F20000C4F29B
:1013C0000200016841F010010160032000F08AF87A
:1013D0000F2000F005F800F027F8002080BD000085
:1013E00070B540F21806C2F2000640F220013278D1
:1013F000C2F200014FF47A730968B3FBF2F20446BB
:10140000B1FBF2F1084600F05FFB0F2C4FF0010535
:1014100008D838B94FF0FF3021460022002500F0EF
:1014200035F87460284670BD82B041F21800C4F2ED
:1014300002000168022241F001010160016801F02F
:10144000010101910199416841F08051416040687A
:1014500000F08050009000980420C4F20100016860
:1014600062F31A61016002B070470000002848BFB3
:10147000704700F01F01012202FA01F14EF2001242
:101480004009CEF2000242F82010704710B54EF627
:101490000C5CCEF2000CDCF80030C3F3022E8EF0B0
:1014A0000704042C28BF0424BEF103034FF0FF3EC1
:1014B0000EFA04F438BF0023A14399400EFA03F357
:1014C0009A43114300F00F02043A624409010C32BE
:1014D00000F16043B0F1FF3FC8BF03F564421170F3
:1014E00010BD00004EF60C51CEF200010A684FF616
:1014F000FF031A4060F30A2242F0806040F0FD7062
:10150000086070472DE9F04381B0002800F0858025
:1015100042F20008C4F202080446D8F800000D4662
:1015200000F0070088420CD2D8F8000020F0070035
:101530002843C8F80000D8F8000000F00700A842CF
:101540006BD1206841F204098107C4F2020917D562
:10155000410705D5D9F8001041F4E061C9F8001041
:10156000010705D5D9F8001041F46051C9F8001001
:10157000D9F80010A26821F0F0011143C9F8001059
:10158000C00741D1D8F8000000F00700A8420CD9EC
:10159000D8F8000020F007002843C8F80000D8F869
:1015A000000000F00700A84237D12068410707D5A6
:1015B000D9F80010E26821F4E0611143C9F8001085
:1015C000000708D5D9F80000216920F4605040EAEE
:1015D000C100C9F80000D9F8002002F00C0008286A
:1015E00041F20020C0F27A0050D144F63253C2F3E7
:1015F0008341C0F60003595CD2033BD440F600108F
:10160000C0F23D00484341E0606802280AD001284A
:101610002AD159F8041C890308D4012001B0BDE87F
:10162000F08300BF59F8041C8901F6D5D9F80010E1
:1016300021F003010843C9F80000FFF7A9FE0646A0
:1016400041F28837D9F80000616800F00C00B0EB77
:10165000810F97D0FFF79CFE801BB842F2D9032080
:1016600001B0BDE8F08300BF59F8041C8907D4D548
:10167000DCE700BFD9F8002044F61853C2F340421B
:10168000C0F600039A5C4843B0FBF2F0D9F80010B2
:1016900044F61A52C1F30311C0F60002515C40F245
:1016A000200220FA01F140F21C00C2F200000068A2
:1016B000C2F200021160FFF793FE002001B0BDE806
:1016C000F083000040F2200041F20401C2F2000069
:1016D000C4F202010068096844F62A52C1F30221EB
:1016E000C0F60002515CC8407047000040F2200084
:1016F00041F20401C2F20000C4F20201006809686C
:1017000044F62A52C1F3C221C0F60002515CC8401F
:10171000704700002DE9F04182B0002868D00446EF
:10172000007841F20006C007C4F2020625D07068B6
:1017300000F00C0004281BD0706800F00C00082892
:1017400002D17068C00313D46068002800F068817B
:10175000B0F5A02F00F07C81B0F5803F00F07C81D7
:10176000306820F480303060306820F4802076E1EA
:101770003068800301D56068D0B32078800718D521
:10178000706810F00C0F07D0706800F00C0008288B
:101790006ED17068C0036BD43068800702D52069B1
:1017A000012825D13068616920F0F80040EAC100C5
:1017B0003060207800071FD42078400732D4E569D4
:1017C00095B1706800F00C00082840F08F80012D62
:1017D0000ED07068216A00F480328A4208D1616AB2
:1017E00000F47010884203D1002002B0BDE8F081FF
:1017F000012002B0BDE8F081A069002862D000207D
:10180000C4F242200121C0F88014FFF7C1FD054653
:10181000706A800700F18C80FFF7BAFD401B022838
:10182000F6D92AE1F06910F0805808D1F06940F04B
:101830008050F061F06900F080500090009847F20D
:101840000007C4F200073868C00529D4386840F49E
:1018500080703860FFF79CFD054600BF3868C00502
:101860001ED4FFF795FD401B6428F7D905E100BFA2
:101870002069002840F20000C4F2422000F082807B
:1018800001210160FFF784FD054600BF3068800735
:101890003FF588AFFFF77CFD401B0228F6D9ECE04E
:1018A000E068002800F08080052800F0978001287B
:1018B00000F09880306A20F001003062306A20F039
:1018C000040092E00020C4F242200021C0F88014FD
:1018D000FFF75EFD054600BF706A80077FF56CAFBD
:1018E000FFF756FD401B0228F6D9C6E00027C4F2D8
:1018F000422700203866FFF74BFD022D05460BD12D
:101900003068800140F1BE80FFF742FD401B022895
:101910004FF00300F4D968E7306880017FF564AFC9
:10192000FFF736FD401B02284FF00300F4D95CE7B7
:1019300040F22000C2F20000006844F6D351C1F228
:101940006201A0FB0101480A019000BF00BF01989D
:10195000411E002801913FF42FAF00BF0198411EA6
:10196000002801913FF428AF00BF0198411E0028D4
:1019700001913FF421AF00BF0198411E0028019161
:10198000E4D119E700210160FFF702FD054600BF21
:10199000306880077FF50DAFFFF7FAFC401B022887
:1019A0004FF00300F4D920E7306A20F001003062E4
:1019B000306A20F004003062FFF7EAFC054641F28D
:1019C000883700BF306A800720D5FFF7E1FC401B55
:1019D000B8424FF00300F5D907E700BF306A40F086
:1019E00004003062306A40F001003062FFF7D0FC42
:1019F000054641F2883700BF306A800706D4FFF7FA
:101A0000C7FC401BB842F7D937E000BFB8F1000F60
:101A10007FF4D5AEF06920F08050F061CFE600BFD2
:101A2000306820F480303060306820F480203060EE
:101A3000FFF7AEFC054600BF306880037FF59DAE22
:101A4000FFF7A6FC401B64284FF00300F4D9CCE656
:101A5000306840F480203060306840F4803030607E
:101A6000FFF796FC054600BF306880033FF585AE62
:101A7000FFF78EFC401B6428F6D9032002B0BDE8B6
:101A8000F08100BF206AB0F5803F05D17168A2687F
:101A900021F40031114371607168626A21F474119C
:101AA00010430843706001203866FFF771FC04465C
:101AB000306880013FF598AEFFF76AFC001B0228F2
:101AC0004FF00300F4D990E6411E0020B0EB116FF7
:101AD0001CBF012070474EF21002CEF2000251608E
:101AE0004EF62351CEF20001F0230B7007219060D7
:101AF00011607047704700007047000010B590F803
:101B00003C20012A4FF0020233D080F83D200268C9
:101B1000D2F804E0D2F808C00C682EF0700323431A
:101B200040F2FF74C4F20004A24253600ADCB2F136
:101B3000804F13D040F20043C4F200039A420DD00C
:101B400011E000BF42F60043C4F201039A4205D0FF
:101B500040F60003C4F200039A4204D149682CF015
:101B60008003194391600121002280F83D1080F824
:101B70003C20104610BD0000002804BF0120704723
:101B800010B5044690F83D0028B9002084F83C00C8
:101B9000204600F067F8022084F83D00206840F2FB
:101BA000FF730268C4F2000342F6004C9842C4F28C
:101BB000010C15DCB0F1804F1AD040F20041C4F2A4
:101BC0000001884214D0984218DCB0F1804F1DD03B
:101BD00040F20041C4F20001884217D01AE000BF71
:101BE000604505D040F60001C4F200018842EAD108
:101BF000A16822F070020A439842E6DD604505D0F4
:101C000040F60001C4F20001884203D1216922F4A8
:101C100040720A43A36922F08001D4F804E0E2682C
:101C2000194360450160C262C0F828E002D16169D1
:101C3000CCF8301001214161002084F8461084F86E
:101C40003E1084F83F1084F8401084F8411084F866
:101C5000421084F8431084F8441084F8451084F846
:101C60003D1010BD80B586B0006840F60002C4F299
:101C7000000200219042059134D042F60041C4F2A6
:101C8000010188422BD141F21800C4F20200016820
:101C900041F400610160016801F400610191019962
:101CA000016841F004010160006802A900F004002D
:101CB000019001984FF440700290002003900120A1
:101CC000049040F60000C4F20100FFF74BFA1B201D
:101CD00002210022FFF7DAFB1B20FFF7C7FB06B04B
:101CE00080BD00BF41F21800C4F20200416800222A
:101CF00041F0040141604068012100F004000190BE
:101D000001981E20FFF7C2FB1E2006B0BDE88040F0
:101D1000FFF7ACBB90F83D1001291CBF01207047B4
:101D2000022180F83D10006840F2FF72C168C4F2E1
:101D30000002904241F00101C16009DCB0F1804F26
:101D400012D040F20041C4F2000188420CD012E0EF
:101D500042F60041C4F20101884205D040F600017C
:101D6000C4F20001884206D1816801F0070106290A
:101D700004BF00207047016841F0010101600020AC
:101D80007047000080B590F83C20012A4FF0020215
:101D900000F0BF8080F83D20D0F800C04FF6777289
:101DA000DCF8083023EA0202CCF808200B683F2B4D
:101DB0001CDD5F2B20DD602B50D0B3F5005F6DD0B4
:101DC000702B40F0A080D1E901E3C968DCF808205D
:101DD00043EA0E0322F47F4243EA01211143CCF887
:101DE0000810DCF8081041F077018AE01F2B29DC8D
:101DF00063B3102B2AD086E0402B63D0502B40F0E9
:101E00008280D1F804E0C968DCF82030DCF82020BA
:101E100022F00102CCF82020DCF8182022F0F00299
:101E200042EA011123F00A0242EA0E02CCF818102D
:101E3000CCF82020DCF8081041F0570121F02001F7
:101E40005FE000BF202B01D0302B5CD1DCF8081004
:101E500021F07001194341F0070152E0D1F804E08C
:101E6000C968DCF8203023F01003CCF82030DCF80F
:101E70001830DCF8202023F4704322F0A00243EA5B
:101E8000013142EA0E12CCF81810CCF82020DCF810
:101E9000081041F0670121F0100132E0D1E901E3BF
:101EA000C968DCF8082043EA0E0322F47F4243EAC3
:101EB00001211143CCF80810DCF8081041F48041EE
:101EC0001FE000BFD1F804E0C968DCF82030DCF87E
:101ED000202022F00102CCF82020DCF8182022F08B
:101EE000F00242EA011123F00A0242EA0E02CCF8A3
:101EF0001810CCF82020DCF8081041F0470121F040
:101F00003001CCF808100121002280F83D1080F843
:101F10003C20104680BD000070B50546007F40F6AD
:101F2000004440F29C16C4F201040128C2F20006EB
:101F30000AD120464FF48051FFF71EFA716B01EB76
:101F40004000411E287F7163022818BF70BD2046E3
:101F50004FF40051FFF710FAB16BA1EB40000130D4
:101F6000B06370BDF0B590F83C30012B04BF022087
:101F7000F0BD082A20D0042A3CD0002A5AD1036898
:101F8000D1E900C5D1F80CE01A6A40F2FF7722F0DF
:101F900001021A621A4652F8186F1C6AC4F200074E
:101FA000BB426BDCB3F1804F74D040F20047C4F207
:101FB0000007BB426ED087E00768D1E900C5D1E9D0
:101FC00002313A6A61F3071522F480723A623A46A6
:101FD00052F81C4F3E6A24F0F30445EA0401CCF3A6
:101FE000560565F3492611603E62116821F00C0127
:101FF000116060E00368D1E900E6D1E902C11A6A24
:10200000360222F010021A621A4652F8184F4FF2A6
:10201000FF071D6ABE4324F4734461F30F3646EA9A
:10202000040125F0A0040EF00A0744EA0717116026
:102030001F621CE00368D1E900E6D1E902C11A6A17
:10204000360222F480521A621A4652F81C4F4FF29E
:10205000FF071D6ABE4324F4734461F30F36CEF3C9
:10206000520746EA040167F34D3511601D6211689D
:102070004FEA0C2321F4406111601CE042F6004756
:10208000C4F20107BB4205D040F60007C4F20007C6
:10209000BB4219D126F00306354324F00A070CF0A1
:1020A0000A066EF3071537449D611F629F6927F08A
:1020B0000C079F618B68116819431160002180F83B
:1020C0003C100846F0BD00BF46F00105E5E7000002
:1020D000002804BF0120704710B5044690F83D0069
:1020E00028B9002084F83C00204600F067F8022060
:1020F00084F83D00206840F2FF730268C4F20003D8
:1021000042F6004C9842C4F2010C15DCB0F1804F4D
:102110001AD040F20041C4F20001884214D0984223
:1021200018DCB0F1804F1DD040F20041C4F2000134
:10213000884217D01AE000BF604505D040F6000184
:10214000C4F200018842EAD1A16822F070020A4379
:102150009842E6DD604505D040F60001C4F200017A
:10216000884203D1216922F440720A43A36922F014
:102170008001D4F804E0E268194360450160C2625E
:10218000C0F828E002D16169CCF83010012141612A
:10219000002084F8461084F83E1084F83F1084F83C
:1021A000401084F8411084F8421084F8431084F8F9
:1021B000441084F8451084F83D1010BD70470000AD
:1021C00061B1082916D0042919BF00F1410200F1BC
:1021D000450300F13F0200F143030FE090F83E2079
:1021E00090F84230012A4FF0010208BF012B1BD0AA
:1021F0001046704700F1400200F1440312781B784A
:10220000012A4FF0010208BF012BF1D10222082957
:1022100014D0042924D180F83F2080F843204FEACD
:10222000B102032A12D923E0022280F83E2080F86E
:1022300042204FEAB102032A08D919E080F8402071
:1022400080F844204FEAB102032A11D8DFE802F0F7
:102250000212181E0068C26842F002021AE000BFB3
:1022600080F8412080F845204FEAB102032AEDD9D9
:10227000006810E00068C26842F004020AE000BF93
:102280000068C26842F0080204E000BF0068C2684B
:1022900042F01002C26001F01F010122036A02FA3B
:1022A00001F123EA01020262026A114340F2FF7265
:1022B000C4F20002904201620ADCB0F1804F13D0F8
:1022C00040F20041C4F2000188420DD013E000BF8B
:1022D00042F60041C4F20101884205D040F60001F7
:1022E000C4F20001884206D1816801F00701062985
:1022F00004BF002070470168002241F00101016025
:102300001046704710B5016804460869800744BF4D
:10231000C8685FEA807039D40869400744BFC8685C
:102320005FEA40703ED40869000744BFC8685FEAAE
:10233000007045D40869C00644BFC8685FEAC06041
:102340004AD40869C0071CBFC8685FEAC07051D191
:102350000869000644BFC8685FEA006052D4086993
:10236000400644BFC8685FEA406053D408698006ED
:1023700046BFC8685FEA806010BD6FF0200220464B
:102380000A61BDE81040FFF7B7BB00BF6FF0020065
:102390000861012020778869800743D02046FFF735
:1023A000BBFD45E06FF004000861022020778869DA
:1023B00010F4407F40D02046FFF7AEFD42E000BF62
:1023C0006FF00800086104202077C86980073DD0BD
:1023D0002046FFF7A1FD3FE06FF0100008610820E4
:1023E0002077C86910F4407F3AD02046FFF794FD6B
:1023F0003CE000BF6FF001000861204600F036FAB3
:102400002168A5E76FF0800008612046FFF772FBA6
:102410002168A4E76FF040000861204600F06CFBE3
:102420002168A3E7204600F025F8204600F0ACF92B
:102430002168002020776FE7204600F01BF8204637
:1024400000F0A2F92168002020776CE7204600F018
:1024500011F8204600F098F921680020207769E7FC
:10246000204600F007F8204600F08EF92168002091
:10247000207766E7704700002DE9F04390F83C3084
:10248000012B04BF0220BDE8F0834FEAB202032A09
:1024900000F2E580DFE802F0023A76B0036842F627
:1024A00000461A6AC4F2010622F001021A621D6A8D
:1024B0001A465C6852F818CFB3428E68D1F800E033
:1024C00025F0020545EA06050CD1CE68D1E905786C
:1024D00024F4407425F00C0526F004063C433543F3
:1024E00044EA08042CF0730747EA0E075C609F611A
:1024F0004F6809695F631D629F6947F008079F6124
:102500009F6927F004079F61A6E000BF036842F6B9
:1025100000461A6AC4F2010622F010021A621D6A0D
:102520001A46D3F804C052F8184FB3428E68D1F857
:1025300000E025F0200545EA06150FD1CE68D1E967
:1025400005986FF0400707EA06162CF4406725F05F
:10255000C00547EA8907354347EA880C24F4E64476
:1025600044EA0E27C3F804C09F614F6809699F635E
:102570001D629F6947F400679F619F6927F4806728
:102580009F6168E0036842F600461A6AC4F20106D9
:1025900022F480721A621D6A1A46D3F804C052F8F7
:1025A0001CEFB3428E680C6825F4007545EA0625D9
:1025B0000FD1CE68D1E90598360240F2FF47BE43FD
:1025C0002CF4405725F4406547EA0917354347EA9C
:1025D000081C2EF073072743C3F804C0DF614F685F
:1025E0000969DF631D62DF6947F00807DF61DF69A2
:1025F00027F00407DF612FE0036842F600471A6AFC
:10260000C4F2010722F480521A621A46D3F820C09D
:102610005D6852F81C4FD1F800E08E68BB4204D1CF
:102620004F6925F4804545EA87152CF4005747EAA1
:10263000063724F4E64646EA0E265D60DE614E6803
:1026400009691E641F62DF6947F40067DF61DF69A3
:1026500027F48067DF6109021368194311600021C4
:1026600080F83C100846BDE8F0830000002804BF55
:102670000120704710B5044690F83D0028B90020AD
:1026800084F83C00204600F067F8022084F83D0002
:10269000206840F2FF730268C4F2000342F6004C67
:1026A0009842C4F2010C15DCB0F1804F1AD040F210
:1026B0000041C4F20001884214D0984218DCB0F105
:1026C000804F1DD040F20041C4F20001884217D073
:1026D0001AE000BF604505D040F60001C4F20001D9
:1026E0008842EAD1A16822F070020A439842E6DDEE
:1026F000604505D040F60001C4F20001884203D1D4
:10270000216922F440720A43A36922F08001D4F8BF
:1027100004E0E268194360450160C262C0F828E045
:1027200002D16169CCF8301001214161002084F8A8
:10273000461084F83E1084F83F1084F8401084F866
:10274000411084F8421084F8431084F8441084F84F
:10275000451084F83D1010BD81B00068B0F1804F85
:1027600002D001B0704700BF41F21C00C4F2020069
:10277000016841F001010160006800F00100009073
:10278000009801B0704700007047000041B108296F
:1027900010D0042914BF00F1410200F13F020BE008
:1027A00090F83E20012A1CBF01207047022280F8C9
:1027B0003E2013E000F140021278012A1CBF0120E4
:1027C00070470222082907D0042914BF80F841204D
:1027D00080F83F2002E000BF80F84020006801F050
:1027E0001F010122036A8A4023EA02010162036A8F
:1027F00042F64441C4F201011A43A1F14403984254
:1028000002620FD040F2FF71C4F20001884213DC73
:10281000B0F1804F1CD040F20041C4F20001884268
:1028200016D01CE00A6842F400420A6040F2FF71D0
:10283000C4F200018842EBDD42F60041C4F201011E
:10284000884205D040F60001C4F20001884206D15A
:10285000816801F00701062904BF00207047016864
:1028600041F00101016000207047000040F29C210E
:10287000C2F20001884218BF70472DE9F04740F2CC
:102880009C17C2F20007F86B49F698114CF6CD423E
:10289000C1F69911CCF6CC4200FB02104FEA700051
:1028A000884207D9F96B480721D0C80740F01C813E
:1028B00038E000BFB86A012808D1786901F050F902
:1028C000F96AB861012906D000200CE00020F96AFD
:1028D000B8610129F8D140F20800C2F20000806816
:1028E000796900F0CDFFF861F96B4807DDD1786AAE
:1028F000012811D1F868796B012201F0A5F93A6934
:10290000B96B78641046022201F09EF9F96BB86445
:10291000C80740F0E98005E000207864B864C80783
:1029200040F0E280786A7D6B002841D0D7E9130639
:10293000BC6B281AFDF7CBFE40F20008C4F24E082B
:1029400000224346FDF793FD43F2333AC4F21F0AD7
:102950004FF033325346FDF7FCFDFDF714FF81467F
:10296000A01BFDF7B4FE00224346FDF780FD4FF0AB
:1029700033325346FDF7EDFDFDF705FF064638649B
:1029800048460021C7E91354FDF78AFE0546002892
:1029900030464FF0000118BF0125FDF781FE0028E9
:1029A00018BF01202840012830D107F124042BE072
:1029B0002846FDF78CFE0025C4F24E0500222B466A
:1029C0004FF00008FDF753FD43F23336C4F21F0603
:1029D0004FF033323346FDF7BCFDFDF7D4FE3C46E5
:1029E00054F8381F81460846FDF771FE00222B4639
:1029F000FDF73DFD4FF033323346FDF7AAFDFDF7FD
:102A0000C2FEA06044F8048C0020206040F208045C
:102A1000C2F200042068E168D7E906237E6C01FB5E
:102A200000207A6DC01A30444946012301F00CF8A9
:102A30006168E268786502FB01F0D7E90623BE6CA5
:102A4000801A396C1844BA6D3044022300F0FCFF40
:102A5000B865786D4FF6184610F57A7FCFF6FF7699
:102A6000D8BF3046B0F57A7F4FF47A71B8BF0146CF
:102A700000284FF000004FF00002C8BF0120B1F164
:102A8000FF3FC8BF01220243104640F2542918BF3D
:102A90004FF47A70C2F20009401AD9F8001040F6DB
:102AA0000048C4F201084863404620214FF47A757B
:102AB0000024FEF767FCB86D102110F57A7FC8BFBF
:102AC0000646B6F57A7FB8BF3546012EB8BF012459
:102AD000D9F80000002ED8BF05F57A758563404609
:102AE0002246FEF74FFCF96B481C6429C8BF012041
:102AF000F863BDE8F047704770470000704700007A
:102B000070470000B0B582B0026805461068D3680F
:102B1000546900F02F01202903F0200106D129B1CA
:102B2000284602B0BDE8B04001F020B95FEA007C61
:102B30001EBF04F0010E03F4907414EB0E0455D183
:102B4000296B012905D110F0100118BF13F01001F5
:102B500036D1010622D513F080011FD095F83D0033
:102B6000212841D1A868B0F5805F03D128690028E9
:102B700000F0F680286A411C296200785060E88CD9
:102B800001380104E8842FD1D06820F08000D060A3
:102B9000D06840F04000D06002B0B0BD400623D500
:102BA00013F0400020D0D068202120F04000D060F9
:102BB000284685F83D1002B0BDE8B04000F0A6BC44
:102BC00000200190106801905068019001985069B0
:102BD000400613D4A88DE98DEB8D002B1CBF401A45
:102BE0005FEA004140F0A48002B0B0BDC40718BF46
:102BF00013F480732CD1430730D436E0A86B0168FE
:102C00004B689CB2002CEFD0A98D8C42ECD2EB85A6
:102C10008369202B17D0D16821F48071D16051696C
:102C200021F001015161516921F0400151612021E0
:102C300085F83E1000212963D16821F01001D16090
:102C4000FEF702FAA98DE88D081A81B2284682E0C3
:102C50002B6C43F001032B64430706D5BEF1000F34
:102C600003D02B6C43F002032B64830706D5BEF11F
:102C7000000F03D02B6C43F004032B64BCF1000F56
:102C800006D551EA0E0303D02B6C43F008032B64E6
:102C90002B6C002BA8D010F0200018BF002903D007
:102CA000284601F063F82A685069296C00F040005A
:102CB00001F0080140182DD0D06820F49070D06049
:102CC000506920F001005061286B012803D1D068C1
:102CD00020F01000D060202085F83E0000202863FE
:102CE000506940061ED5506920F040005061A86B25
:102CF000C0B143F66151C0F600014163FEF7C8F967
:102D000000283FF471AFA86B416B02B0BDE8B04042
:102D1000084700BF2846FFF7F3FE0020286402B0F2
:102D2000B0BD00BF284602B0BDE8B040FFF7E8BE26
:102D3000D16821F49071D160516921F00101516194
:102D4000202185F83E1000212963D16821F010036D
:102D500081B22846D36002B0BDE8B040FFF7CEBED6
:102D6000286A30F8021B6FF35F215160286206E782
:102D7000002804BF0120704710B5044690F83D00BC
:102D800028B9002084F83C00204600F05FF8242099
:102D900084F83D002068D4E90212C36823F400538C
:102DA000C360036923F440531A430261D4E9042346
:102DB0001143C268194341F20C639A431143C16045
:102DC0004169A26921F44071114343F60002C4F243
:102DD00001029042416103D0FEF774FC02E000BFA3
:102DE000FEF784FC6268192148439100B0FBF1F0C2
:102DF00048F21F51C5F2EB11A0FB01235A096FF0F5
:102E0000630302FB0300322303EB0010A0FB01016C
:102E1000F02303EA5113206803EB0212C1F34311BC
:102E200011448160016921F490410161416921F0FF
:102E30002A014161C16841F40051C1600020202194
:102E4000206484F83D1084F83E1010BD70B586B043
:102E5000006844F60001C4F200010026884205968D
:102E6000CDE9036602963FD043F60001C4F20101AA
:102E7000884271D141F21800C4F20200016840F6A4
:102E8000004441F4804101600168C4F2010401F48E
:102E9000804101910199016802AD41F00801016092
:102EA0000068294600F00800019001984020029037
:102EB00002200390032005902046FEF753F980205E
:102EC00002900020CDE9030020462946FEF74AF98A
:102ED0000420C4F201000168252441F0E06141F0C2
:102EE0000401016030E000BF41F21800C4F20200AA
:102EF000416840F6004441F4802141604168C4F2D9
:102F0000010401F4802101910199016802AD41F0B1
:102F1000080101600068294600F00800019001984E
:102F20004FF4806002900220039003200590204619
:102F3000FEF718F94FF40060CDE902062046294655
:102F40000496FEF70FF92724204600210022FEF701
:102F50009DFA2046FEF78AFA06B070BD034690F847
:102F60003E0020280AD100294FF0010018BF002A96
:102F700000D1704793F83C00012801D1022070472E
:102F800000201863996222219A85DA85186483F8F3
:102F90003E10196883F83C00CA6842F48072CA6027
:102FA0004A6942F001024A61CA6842F02002CA60DE
:102FB000704700002DE9F04F83B0044640F22830FE
:102FC000C2F20000844240F0388140F29C1AC2F202
:102FD000000A9AF802009AF8011040F2EC02C2F2DC
:102FE00000020028505400F01B8101310A288AF8A1
:102FF000011040F015810120CAF80800DAF820001D
:10300000002502288AF8015018D0012840F0BE801F
:1030100040F2EC05C2F200052846FDF7ACF8CAF80C
:10302000600028462021FDF78FF80130FDF7A3F856
:10303000CAF864000220CAF82000A7E040F2EC06BB
:10304000C2F200063046FDF796F88146CAF86800DD
:1030500030462021FDF778F80130FDF78CF88346E3
:10306000CAF86C00DAF86000DAF86460CAF8205038
:1030700002900196FDF72BFB074648460D46FDF7EB
:1030800026FB02460B4638462946FDF7EAF9054677
:1030900030460F46FDF71BFB064658468846FDF7AF
:1030A00016FB02460B4630464146FDF7DAF902466A
:1030B0000B4628463946FDF74CFA01F06BFC49F601
:1030C000AA724AF2DC53C2F29622C4F24C03FDF714
:1030D000CEF980460E46029801994844594400EBC7
:1030E000D07001EBD1726FF0950101EB600B0BEB2F
:1030F00062000292FDF7EBFA002307460D46C3F685
:10310000E073404631460022FDF7B1F93A462B46BE
:1031100081460E46FDF704F940F20008C4F2240887
:1031200000224346FDF7A3F9FDF7FBFA0746CAF86C
:103130000C000298CBEB6000FDF7C9FA4A46334613
:10314000FDF78FF900224346FDF791F9FDF7E9FA03
:103150000246CAF810006EA0394600F021FFDAF8E6
:10316000300001284FF00100CAF824000ED141F2CE
:103170008830FDF7E3FF40F20800C2F200000121B1
:10318000C1600020CAE90901CAF82C1040F2EC0025
:1031900044F64251C2F20000C0F600010622FCF7DC
:1031A000DDFF58B3DAF8200098BB40F2EC000AF1DA
:1031B0005C01C2F2000001F00FFDFDF7E4FA0646E3
:1031C000DAF85C00CAF814600130CAF85C00FCF759
:1031D000D2FF0546DAF8280040F20801C2F20001E9
:1031E00001288D6015D13046FDF7BAFA02464CA091
:1031F0000B46009500F0D4FE0BE000BF0120CAF89A
:10320000200040F20800C2F200000021C160CAE9BB
:103210000A1140F2EC00C2F200002821FCF789FFFD
:1032200040F228360AF10205C2F20006304629466D
:103230000122FFF793FE0028F8D140F2E420C2F209
:103240000000844261D140F29C15C2F200052A7848
:10325000E97840F2EC00C2F200008318002983F8FC
:10326000281045D0013220292A7041D100F12804CC
:10327000012600272DA1204607226E602F70FCF743
:103280006DFFC8B144F64251C0F600012046062247
:10329000FCF764FFE0B127A120460822FCF75EFF9F
:1032A00010BB286BC0F101012963C0F1020123A00A
:1032B00000F076FE18E000BF26A001F07BFC40F293
:1032C0000800C2F20000C660C5E90976EE620BE0B4
:1032D0001EA001F06FFC40F20800C2F200000021C5
:1032E000C160C5E90911E96220462821FCF721FFE8
:1032F000EC1C40F2E425C2F2000500BF284621463E
:103300000122FFF72BFE0028F8D103B0BDE8F08FB3
:10331000736574313D25642C736574323D256400FA
:10332000252E32662C25640D0A000000737461722C
:103330007420000073776974636820007175657389
:1033400074696F6E2025640A0000000073746F704A
:103350000000000073746172740000002DE9F043F6
:1033600081B0044690F83D0020280DD10F46002979
:103370004FF0010000F092801646002A00F08E8087
:1033800094F83C00012803D1022001B0BDE8F0838D
:10339000012084F83C004FF0000921201D46C4F8AC
:1033A000409084F83D00FDF7F3FFA684E684A16811
:1033B0008046B1F5805F25D1206900281CBF3846C2
:1033C0004F463E46074684F83C90E08C00B3681CAC
:1033D00020D0002D66D120680BE000BF36F8021B1C
:1033E00000276FF35F214160E18C0139E184E18CBA
:1033F00081B30168090675D5002FEFD017F8011BBE
:10340000F1E700BF002684F83C90E08C0028DED174
:1034100020681FE0206802E00168090609D40168FD
:10342000090606D4016809065CBF01685FEA01610C
:10343000F2D51FB117F8011B05E000BF36F8021BDB
:1034400000276FF35F214160E18C0139E184E18C59
:103450000029E4D1016849061CD4002D42D0691C22
:103460000ED10168490615D4016849065CBF0168A0
:103470005FEA41610ED401684906F2D50AE000BF57
:10348000FDF786FFA0EB08012068A9422AD8006852
:103490004006F5D5202084F83D00002001B0BDE8AD
:1034A000F08300BF206800BF0168090608D4FDF75B
:1034B0006FFFA0EB08012068A942F5D912E000BF18
:1034C00017B117F8011B04E036F8021B00276FF351
:1034D0005F214160E18C0139E184E18C0029E3D175
:1034E000B8E700BFC16821F4D071C160416921F023
:1034F00001014161202084F83D0084F83E00002055
:1035000084F83C00032001B0BDE8F0837047000060
:10351000FEE700002DE9F04784B041F21800C4F244
:103520000200016840F6004441F0100101600168AA
:10353000C4F2010401F0100100910099016804F542
:10354000806541F0200101600168002201F0200146
:103550000091009901684FF4005641F004010160A8
:1035600001684FF0000901F0040100910099016821
:1035700041F00801016000684FF4005100F00800BC
:10358000009000982846FDF7FDFE204630210022DD
:103590004FF03008FDF7F6FE00966E464FF0010A38
:1035A000022728463146CDF804A0CDE90277FDF781
:1035B000D9FD4FF44050CDE900092046314602972D
:1035C000FDF7D0FD20463146CDE9008ACDE90297CE
:1035D000FDF7C8FD04B0BDE8F087000010B58AB063
:1035E00040F20C2042F600420021C2F20000C4F278
:1035F00001024FF6FF7380240991CDE90711CDE94F
:103600000411CDE90211CDE90011C0E90021C0E9A2
:103610000213C0E904118461FEF7AEFA002818BF56
:10362000FDF70CFD4FF48050069040F20C20C2F2E2
:10363000000006A9FEF7A6FB002818BFFDF7FEFC58
:1036400040F20C20C2F20000FEF742FD002818BF35
:10365000FDF7F4FC40F20C200024C2F2000004A9A3
:10366000CDE90444FEF74AFA002818BFFDF7E6FC4E
:103670000120CDE9010440F20C20C2F200006946AD
:10368000002200940394FEF76DFC002818BFFDF79C
:10369000D5FC40F20C20C2F2000069460422FEF77D
:1036A00061FC002818BFFDF7C9FC0AB010BD00007E
:1036B00010B590B040F254200021C2F200004FF04B
:1036C0008042472340F2E734CDE90811CDE90611E5
:1036D000CDE90411C0E90023C0E902140161816150
:1036E000FEF7C4FF002818BFFDF7A8FC40F25420E5
:1036F000C2F2000008A9FEF701FA002818BFFDF782
:103700009DFC602001900020CDE90200059040F270
:103710005420C2F2000001A90022FEF7ADFE0028ED
:1037200018BFFDF78BFC40F25424C2F2000401A93B
:1037300020460422FEF7A0FE002818BFFDF77EFCFD
:1037400020680021B0F1804F0E9101D010B010BD63
:1037500041F21800C4F20200016841F00401016066
:1037600000680CA900F004000B900B9803200C904B
:1037700002200D900F9040F60000C4F20100FDF70A
:10378000F1FC10B010BD000080B586B040F29C2066
:103790000021C2F2000040F600024FF0630C0591D8
:1037A000CDE90311CDE90011C4F2000241F61F4337
:1037B000C0E9021C01618021C0E900238161FEF79C
:1037C000DBF9002818BFFDF739FC4FF48050029058
:1037D00040F29C20C2F2000002A9FEF7D3FA0028B2
:1037E00018BFFDF72BFC40F29C20C2F20000694696
:1037F000FEF784F9002818BFFDF720FC06B080BD55
:1038000080B540F2E42043F60001C2F20000C4F2A9
:10381000010100234FF00C0C4FF4E13280E80E0060
:10382000C0E90333C0E905C3C361FFF7A1FA00286B
:1038300008BF80BDBDE88040FDF700BC80B540F208
:10384000283044F60001C2F20000C4F20001002357
:103850004FF00C0C4FF4E13280E80E00C0E9033366
:10386000C0E905C3C361FFF783FA002808BF80BD24
:10387000BDE88040FDF7E2BBFEE70000FEE7000088
:103880002DE9F04F81B040F23C1BC2F2000BDBF897
:103890003060DBF83CA00546441EDBE91189304668
:1038A0005146FCF7C7FC07462846FCF707FFB4F56E
:1038B000C77F98BF074630463946CBF83470FCF7CF
:1038C000B9FC0546DBF854002946CBF83850FCF724
:1038D0005FFC00210646C4F220212846FCF7A8FE22
:1038E00000210746CCF220212846FCF7BDFE044605
:1038F00050462946FCF7A4FC0021FCF7C3FE002833
:1039000008BF0646002C08BF2646002F08BF3E46CB
:1039100048463146CBF85460FCF792FC04464046DA
:103920002946FCF78DFC2146FCF732FCDBF84C40C5
:10393000064628465146FCF77DFC01462046FCF72A
:103940007FFC3146FCF724FCCBF85000CBF83C5010
:10395000FCF7CEFE01B0BDE8F08F000040F2280277
:1039600049F69A114CF6CD4CC2F2000200204FF0FD
:103970007C53C3F69961C3F6CC5CC2E90900C2E985
:103980000100C2E90300C2E90503C2E9071CC2E95C
:103990001500C2E90D00C2E90F00C2E91103C2E936
:1039A000131C40F28C024CF6CD43C2F20002C3F667
:1039B0004C534FF07E5CC2E90800C2E90000C2E946
:1039C0000200C2E90403C2E9061CC2E91400C2E90C
:1039D0000C00C2E90E00C2E91003C2E9121C40F259
:1039E0003C1143F23332C2F20001C3F693724DF23E
:1039F0000A7343F2333C4A610022C3F62343C3F601
:103A0000B36CC4F248328B61C1F81CC0C1E90C2010
:103A10004CF6CD4241F26F2345F6294CC3F64C6279
:103A2000C3F60333C3F68F5CC1E90000C1E90200AD
:103A3000C1E90800C1E90E004A648B64C1F84CC0BA
:103A4000C1E91400704700002DE9F04F81B040F249
:103A50002806C2F200060C4606F134011D4600920B
:103A6000012B08BF311D3160FCF728FE3421012DE8
:103A700008BF042170504FF0380108BF082174506E
:103A80002146FCF7D7FB83463C20012D08BF0C20C4
:103A900046F800B006F148004FF0440808BF06F1B0
:103AA0001800D0F80090012D08BF4FF0140856F808
:103AB00008A058465146FCF7BDFB06F14C01012D0C
:103AC00008BF06F11C01096804465846FCF7B8FB1C
:103AD000074648462146FCF7B3FB3946FCF758FB3E
:103AE00006F15001012D08BF06F120010F68814643
:103AF00050465146FCF74CFB01465846FCF79AFBF2
:103B00004024012D08BF10243159FCF741FB014628
:103B10003846FCF795FB4946FCF73AFB0021C4F216
:103B2000C81146F804A046F808B0FCF789FB00214C
:103B3000C4F21011FCF7B6FBFCF7DAFD0099014462
:103B40004FF61840CFF6FF7011F57A7FC8BF0846D0
:103B5000B0F57A7FA8BF4FF47A7001B0BDE8F08F5E
:103B60002DE9F04F81B00021CCF270210546FCF721
:103B700089FD00210446C4F270212846FCF766FD49
:103B800040F23C18C2F20008D8E9021AD8F8142012
:103B9000D8F81890009281F00041002808BF0D4627
:103BA000002C08BF0D46D8F8240085F0004B2946AC
:103BB000C8F80450C8F808B0FCF73CFB00210746E1
:103BC000CCF290112846FCF75DFD00210646C4F2B8
:103BD00090112846FCF73AFD044650465946FCF73A
:103BE0002FFB0021FCF74EFD002808BF0746002CE4
:103BF00008BF2746002E08BF374648463946C8F852
:103C00002470FCF71DFB044600982946FCF718FBBE
:103C100001462046FCF70EFBD8F81C4005465846E6
:103C20005146FCF707FB01462046FCF709FB2946F5
:103C3000FCF7AEFAC8F82000C8F80CB0FCF758FD45
:103C400001B0BDE8F08F00002DE9F04F81B040F2E7
:103C50008C0A0D46C2F2000A40F228015746C2F211
:103C600000011446012A18BF30370F60FCF726FD0B
:103C7000064638602846FCF721FD01463420012C19
:103C800008BF04204AF800103046FCF7D3FA054676
:103C90003820012C08BF08204AF800500AF14400DF
:103CA0004FF0400B08BF0AF11400D0F80080012C3F
:103CB00008BF4FF0100B5AF80B9028464946FCF706
:103CC000B9FA0AF14801012C08BF0AF11801096884
:103CD00007462846FCF7B4FA064640463946FCF744
:103CE000AFFA3146FCF754FA0AF14C01012C08BF37
:103CF0000AF11C010E68804648464946FCF748FA1E
:103D000001462846FCF796FA3C27012C08BF0C27F1
:103D10005AF80710FCF73CFA01463046FCF790FAD7
:103D20004146FCF735FA4AF807904AF80B50FCF781
:103D3000DFFC01B0BDE8F08F704700007047000065
:103D4000FDF72CBB7047000040F20C20C2F20000CF
:103D5000FEF7D8BA40F29C20C2F20000FEF7D2BAB9
:103D6000406A0021C185C184FEF7CABE81B090F8C7
:103D70003E10222920D18368B3F5805F08D1016904
:103D8000002941D000F128010A6803685B680AE055
:103D9000014651F8282F13B90369002BF5D00368A9
:103DA0005B6803F07F0313700A6801320A60C18DFB
:103DB00001390A04C18501D001B070470168CA68A1
:103DC00022F02002CA60CA6822F48072CA604A697E
:103DD00022F001024A61202280F83E20026B012A73
:103DE0001CD100220263CB6823F01003CB600B6868
:103DF000DB0605D500920A68009249680091009997
:103E0000818D01B0FEF77ABE0168826A49686FF35E
:103E10005F2122F8021B8262C9E700BF01B0FFF7F1
:103E2000C9B8000040F2E420C2F20000FEF76ABE0A
:103E300040F22830C2F20000FEF764BEFEE7000048
:103E400080B582B0019040F2E420C2F2000001A9E6
:103E500001224FF6FF73FFF781FA019802B080BD8F
:103E600090B0FDF7A9FA00240120CDE90B44CDE97B
:103E7000094406900A904FF4E0104FF48031022577
:103E80000F9006A8CDE90714CDE90D51FDF742FCCE
:103E900020B1EFF3108072B6FEE700BF0F20CDE92E
:103EA00001054FF48060CDE9040401A802210394C8
:103EB000FDF728FB20B1EFF3108072B6FEE700BFDC
:103EC000FFF728FBFFF7F4FBFFF79AFCFFF786FBF1
:103ED000FFF75AFCFFF7B2FC40F25424C2F2000490
:103EE00020460021FEF752FC20460421FEF74EFC3E
:103EF00040F29C20C2F20000FDF70CFF40F20C25BE
:103F0000C2F200052868016A21F00A010162016A13
:103F100041F002010162016A21F0A0010162016A1F
:103F200041F02001016228460021FEF749F92846A8
:103F30000421FEF745F9FFF711FD40F29C17C2F28C
:103F4000000740F22836BD1CC2F200063046294662
:103F50000122FFF703F80028F8D140F2E426FD1C07
:103F6000C2F20006304629460122FEF7F7FF00287C
:103F7000F8D1206840F600454FF47A76C4F2010586
:103F80004663284620210122FDF7FCF92068102114
:103F9000866328460122FDF7F5F900BFFEE7000021
:103FA0000FB4054B10B503A9044A029800F05AF962
:103FB00010BC5DF814FB0000413E0008000000202A
:103FC000490050EAC12018BF04204A0D18BF40F034
:103FD000010040F2FF72B2EB515F08BF40F00200F7
:103FE000012808BF052070470048704704000020E2
:103FF0002DE9F0414F1E00EBC7010446D1E9000155
:1040000015461E4637F006020DD02A463346FCF709
:104010002EFA7F1E04EBC703D3E90023FCF780F9D7
:1040200037F00602F1D1022F25D0042F13D0062F2E
:1040300018BFBDE8F0812A463346FCF718FAD4E9E8
:104040000A23FCF76DF92A463346FCF710FAD4E947
:104050000823FCF765F92A463346FCF708FAD4E949
:104060000623FCF75DF92A463346FCF700FAD4E94B
:104070000423FCF755F92A463346FCF7F8F9D4E94E
:104080000223FCF74DF92A463346FCF7F0F9D4E950
:104090000023BDE8F041FCF743B90122FCF728BD3D
:1040A000024A00201107FCF723BD000001FDFFFFBD
:1040B00002E008C8121F08C1002AFAD170477047F1
:1040C000002001E001C1121F002AFBD1704700004F
:1040D0002DE9FF5F82B00021DDE90430020DDDF83B
:1040E00040B0034318D044F61050A2F2FF324243CE
:1040F0001514119801281FD0A5EB0B00401C5FEA96
:10410000000A4FF000064E4FDFF83891B046504697
:1041100015D5CAF1000413E0119801244AA301281F
:1041200001D16FEA0B010298119AC0E90031C0E990
:10413000024206B0BDE8F09FCBF10000DFE7044685
:104140000021404A491842EB0450CDE9001012E02A
:10415000E00707D032463B4640464946FCF787F920
:104160008046894632463B4610461946FCF77FF9A1
:1041700006460F466410002CEAD1DDE90401DDE9B2
:104180000023BAF1000F06DAFCF771F942464B46FC
:10419000FCF76DF905E0FCF7DCF942464B46FCF70D
:1041A000D8F904460E460022284BFCF7D1FC03D870
:1041B0004FF0FF30014607E00022254B20463146F4
:1041C000FCF7AEF8FCF7ABFC102409E0002C0ADB8E
:1041D0000A220023FCF709FB039B30321A55641EA8
:1041E00050EA0102F2D1641C039AC4F11103144491
:1041F000119A012A03D0012208430DD10AE0084395
:1042000004D000204FF0110B119072E7A3EB0B05C7
:104210006D1E0DE05B4504DD4FF0000205F1010568
:1042200004E003DA4FF00002A5F10105002AECD00A
:1042300002981199C0E90231C0E9004579E7000010
:10424000000014400000F03F300000000000F04388
:104250000000E03F30380A2801D2012070470020DA
:10426000704700002DE9FF4F95B09B4689460646F2
:1042700000250FE2252877D100242746F84A01219E
:10428000059400E0044316F8013F203B01FA03F0D7
:104290001042F7D130782A2811D06FF02F033078F0
:1042A000A0F13002092A16D8059A44F0020402EB64
:1042B000820203EB42021044761C0590EFE759F8A6
:1042C000042B0592002A03DA504244F4005405906E
:1042D00044F00204761C30782E2816D116F8010F0F
:1042E00044F004042A280DD06FF02F023078A0F19A
:1042F0003003092B09D807EB870302EB4303C718E8
:10430000761CF3E759F8047B761C30786C280FD0C4
:1043100006DC4C2817D068280DD06A2814D104E098
:10432000742810D07A280FD10DE044F400140AE06C
:1043300044F4801401E044F440147278824202D1C3
:1043400004F58014761C761C307866280BD013DCBC
:10435000582877D009DC002875D04528F6D04628A3
:10436000F4D047281AD19DE118E0632835D064289D
:1043700079D0652812D195E1702873D008DC6728C0
:10438000F1D069286FD06E280DD06F2806D1B5E026
:1043900073282CD0752875D0782874D05A46179970
:1043A00090476D1C75E1C4F30250022809D0032820
:1043B0000DD0D9F8001004280DD00D6009F10409C2
:1043C00067E1D9F80010EA17C1E90052F6E7D9F819
:1043D00000100D80F2E70D70F0E719F8041B8DF85E
:1043E000001000208DF80100EA46012003E059F892
:1043F00004AB4FF0FF3061074FF0000102D40DE035
:1044000008F101018846B9420FDA8045F8DB1AF855
:1044100008100029F4D108E008F101018846814222
:10442000FADB1AF808100029F6D105985B46A0EBD4
:10443000080721463846179A00F094FA284400EB02
:10444000080507E04DE029E10DE01AF8010B5A4696
:1044500017999047B8F10108F7D25B4621463846D4
:10446000179A13E142E00A220092C4F302524FF07D
:10447000000A022A08D059F804CB032A4FEAEC714B
:104480000AD00DE029E02AE009F1070121F0070236
:10449000F2E802C1914609E00FFA8CFC4FEAEC7198
:1044A000042A03D14FFA8CFC4FEAEC71002907DA99
:1044B0000A460021DCF1000C61EB02012D2202E032
:1044C000220504D52B228DF80420012203E0E20707
:1044D00001D02022F7E7904659E00A2102E010229D
:1044E0000DE010214FF0000A00910BE010224FF078
:1044F000000A44F004040827009203E008224FF069
:10450000000A0092C4F30252022A05D059F804CBE3
:104510000021032A08D009E009F1070121F0070270
:10452000F2E802C1914605E01FFA8CFC042A01D191
:104530000CF0FF0C4FF00008220728D5702806D099
:10454000009B83F0100353EA0A0305D00EE04022DB
:104550008DF80420012208E05CEA010206D0302236
:104560008DF804208DF8050002229046009B83F010
:10457000080353EA0A030AD15CEA010201D1620787
:1045800005D530228DF804204FF001087F1E5828F1
:1045900004D034A003900EA802900DE036A0F9E7F5
:1045A00053466046009AFCF720F984460398825CE3
:1045B0000298401E029002705CEA0100F0D102985D
:1045C00006A9081A00F1200A600702D524F48034F5
:1045D00000E00127574502DDA7EB0A0000E00020BC
:1045E00000EB0A01009005984144401A0590E00351
:1045F00006D45B462146179A059800F0B3F90544A6
:10460000002706E001A85A46C05D179990476D1C27
:104610007F1C4745F6DBE0030CD55B462146179A25
:10462000059800F09FF9054404E030205A46179998
:1046300090476D1C0099481E00900029F5DC08E0A9
:10464000029802995A460078491C0291179990479E
:104650006D1CBAF10001AAF1010AF1DC65E100006C
:104660000928010030313233343536373839616248
:10467000636465660000000030313233343536370C
:1046800038394142434445460000000000F058F9E3
:104690000544761C307800287FF4ECAD19B028462C
:1046A000BDE8F08F620700D4062709F1070222F067
:1046B000070CFCE80223E14603F000485FEA080C1F
:1046C00002D00FF2702C0DE05FEA045C02D50FF20D
:1046D000682C07E05FEAC47C02D00FF2602C01E096
:1046E000AFF2700C4FF0FF3823F00043CDF850C00C
:1046F00065280CD006DC452809D046281DD047285F
:104700003DD13DE0662818D067287ED138E00021F1
:10471000112F01DB112000E0781CCDE9000106A972
:104720000EA8FFF7D5FCDDE90F010E9A03910021D9
:10473000009207F1010A04914DE04FF0004000970C
:10474000CDE9011006A90EA8FFF7C2FCDDE90F02B2
:1047500003920E9B11990022DDF80CA000930492A5
:1047600011B9791C00EB010AB7EB0A0004D4C0F1BF
:10477000FF3007F1010A0490AAEB0700019044E022
:10478000012F00DA01270021112F01DD112000E0A7
:104790003846CDE9000106A90EA8FFF799FCDDE92E
:1047A0000F010E9A0391002104910092BA4621074D
:1047B0000CD40399514500DA8A46BAF1010F05DDA0
:1047C000009AAAF10101515C302908D0B84202DAFE
:1047D00010F1040F06DA0121CDE9011015E0AAF16C
:1047E0000101E9E7002805DC049901440491AAEBE2
:1047F000000102E0411C514500DD8A460499401A3F
:10480000401C01904FF000400290200704D4019812
:10481000504501DBCDF8048000208DF84F00029850
:104820000DF14F07B0F1004F25D02B200E900298CC
:104830004FF0020800280CDA404202902D200E9022
:1048400007E00A210298FBF7BAFF3031029007F81F
:10485000011DB8F10001A8F10108F2DC029800285E
:10486000EFD1791E0E980870307800F0200040F0EB
:10487000450007F8020D12A8C01B00F107081498A4
:10488000007800B1012000EB0A01019801EBE07112
:1048900005984144401A401E0590E00306D45B464B
:1048A0002146179A059800F05DF8054414980078A1
:1048B00018B15A46179990476D1CE00324D55B4602
:1048C0002146179A059800F04DF805441CE004981D
:1048D000002807DBDDE90301884203DD0098405C26
:1048E000179901E0179930205A469047049805F12E
:1048F0000105401C04900198401E019004D12E2017
:104900005A46179990476D1CBAF10001AAF1010AA5
:10491000DDDC05E017F8010B5A46179990476D1C2E
:10492000B8F10001A8F10108F4DC5B462146179AB2
:104930000598ABE62D0000002B00000020000000D1
:104940002DE9F041044600251E461746880404D48C
:1049500005E039462020B0476D1C641EF9D5284675
:10496000BDE8F0812DE9F041044600251E46904641
:10497000C80301D5302700E02027880404D505E0CE
:1049800041463846B0476D1C641EF9D52846BDE83F
:10499000F08100002DE9F84F04460D4621F000405B
:1049A00000917349814211DC7249884201DC06D1D1
:1049B0002CB120462946BDE8F84FFFF76EBB6E4884
:1049C000002DCCBF6D496E49BDE8F88F6D4981421D
:1049D00011DD6D498142D8BF4FF0FF366DDD2046B5
:1049E0002946FFF7EDFA042808BFFFF759FB2046D8
:1049F0002946BDE8F88F6549654F25F0004581429D
:104A000033DD6449814219DD002632464FF0804390
:104A100020462946FBF784FC80468A460122204630
:104A20002946FCF765F800223B46FBF71AFD424693
:104A30005346FBF78EFD04460D463EE0012600225C
:104A4000BA463B4620462946FBF76AFC80460F469D
:104A50000022534620462946FBF703FD42463B46CB
:104A6000FBF777FD04460D4627E04B4981421BDDED
:104A7000DFF828A102260022534620462946FBF7EC
:104A8000F6FC00223B46FBF74BFC80460F4600221B
:104A9000534620462946FBF7E4FC42463B46FBF7DB
:104AA00058FD04460D4608E0032622462B4600200A
:104AB0003B49FBF74EFD04460D4622462B46104669
:104AC0001946FBF7D4FC8B46824602460B46FBF7A1
:104AD000CEFC07460246334888460B4606217844FA
:104AE000FFF786FA52465B46FBF7C1FC82462E482A
:104AF0008B463A46434605217844FFF779FA3A4611
:104B00004346FBF7B4FC02460B46002E504659467E
:104B10000CDAFBF705FC22462B46FBF7A8FC01B09C
:104B200022462B46BDE8F04FFBF79EBCFBF7F8FB97
:104B300022462B46FBF79BFC1C4A7A4402EBC60339
:104B4000D3E90023FBF78DFC22462B46FBF789FCBB
:104B5000174A7A4402EBC603D3E90023FBF784FC2F
:104B6000009A002AB8BF81F00041BDE8F88F00002C
:104B7000000010440000F07F182D4454FB21F93F41
:104B8000FB21F9BF0000DC3F0000203E0000F33FA6
:104B90000000F03F0000E63F008003400000F83FC7
:104BA0000000F0BF7E0100003C010000DA000000C0
:104BB000A200000010B5044601E0FFF741F914F827
:104BC000010B04490028F8D1BDE810400A20FFF786
:104BD00037B900000000002000B583B00A4600216C
:104BE000CDE90011014601236846FBF780FEDDE9AF
:104BF000000103B000BD00004FBB610567ACDD3FA5
:104C0000182D4454FB21E93F9BF681D20B73EF3FF3
:104C1000182D4454FB21F93FE2652F227F2B7A3C6B
:104C2000075C143326A6813CBDCBF07A8807703C24
:104C3000075C143326A6913CC4EB98999999C9BF97
:104C4000711623FEC671BCBF6D9A74AFF2B0B3BFCC
:104C50009AFDDE522DDEADBF2F6C6A2C44B4A2BF8C
:104C60000D5555555555D53FFF8300922449C23FF8
:104C70006E204CC5CD45B73F513DD0A0660DB13F2C
:104C8000EB0D76244B7BA93F11DA22E33AAD903F3E
:104C9000004040404040404040404141414141404F
:104CA0004040404040404040404040404040404004
:104CB0004005020202020202020202020202020293
:104CC0000220202020202020202020020202020298
:104CD00002029090909090901010101010101010F0
:104CE00010101010101010101010101002020202FC
:104CF0000202888888888888080808080808080840
:104D0000080808080808080808080808020202023B
:104D100040000000914C000801020000000000006B
:104D20000000010203040607080900000000010258
:104D3000030402030405060708090A0B0C0D0E0FF5
:104D4000101073746F702000684D00080000002080
:104D500028000000B0400008904D00082800002006
:104D600048070000C04000080000000000000000EC
:104D7000A0000000A0000000C8000000010000002A
:104D800001000000100000000024F40000000000FA
:04000005080000ED02
:00000001FF
